:020000040800F2
:1000000000800120DD1100084506000847060008B1
:10001000490600084B0600084D06000800000000D5
:100020000000000000000000000000004F06000873
:10003000510600080000000053060008550600089D
:100040002D1200082D1200082D1200082D12000894
:100050002D1200082D1200082D1200082D12000884
:100060002D1200082D1200082D1200082D12000874
:100070002D1200082D1200082D1200082D12000864
:100080002D1200082D1200082D120008000000009B
:100090000000000000000000000000002D12000819
:1000A0002D1200082D1200082D1200082D12000834
:1000B0002D1200082D1200082D1200082D12000824
:1000C0002D1200082D1200082D1200082D12000814
:1000D0002D1200082D1200082D120008000000004B
:1000E0002D1200082D1200082D120008000000003B
:1000F0000000000000000000000000002D120008B9
:10010000000000002D1200082D1200082D1200081A
:1001100000000000000000000000000000000000DF
:100120002D1200082D1200082D1200082D120008B3
:100130002D12000800000000000000000000000078
:100140000000000000000000000000002D12000868
:100150002D1200082D1200082D1200082D12000883
:100160002D1200082D120008000000000000000001
:10017000000000000000000000000000000000007F
:10018000000000002D120008000000000000000028
:100190002D12000810B5054C237833B9044B13B168
:1001A0000448AFF300800123237010BDFC0500203C
:1001B000000000007812000808B5034B1BB103498A
:1001C0000348AFF3008008BD0000000000060020D7
:1001D0007812000853B94AB9002908BF00281CBF8B
:1001E0004FF0FF314FF0FF3000F07AB9ADF1080C5D
:1001F0006DE904CE00F006F8DDF804E0DDE9022345
:1002000004B070472DE9F0478C460D460446089E21
:10021000002B51D18A4217466DD9B2FA82FEBEF147
:10022000000F0BD0CEF1200C01FA0EF520FA0CFCD9
:1002300002FA0EF74CEA050C00FA0EF44FEA174AE0
:10024000250CBCFBFAF81FFA87F90AFB18CC45EA23
:100250000C4508FB09F3AB420AD9ED1908F1FF324E
:1002600080F02381AB4240F22081A8F102083D4496
:10027000ED1AA4B2B5FBFAF00AFB105544EA0544A6
:1002800000FB09F9A14509D9E41900F1FF3380F019
:100290000A81A14540F2078102383C44A4EB0904DD
:1002A00040EA08400021002E61D024FA0EF4002319
:1002B00034607360BDE8F0878B4207D9002E54D0BC
:1002C000002186E821000846BDE8F087B3FA83F1F3
:1002D000002940F08E80AB4202D3824200F2FA80C5
:1002E000841A65EB03050120AC46002E3FD086E85A
:1002F0001010BDE8F08712B90127B7FBF2F7B7FA83
:1003000087FEBEF1000F34D1EB1B3A0C1FFA87FCBD
:100310000121B3FBF2F8250C02FB183345EA034533
:100320000CFB08F3AB4207D9ED1908F1FF3002D2FC
:10033000AB4200F2D1808046ED1AA3B2B5FBF2F0D9
:1003400002FB105543EA05440CFB00FCA44507D909
:10035000E41900F1FF3302D2A44500F2B880184638
:10036000A4EB0C0440EA08409DE731463046BDE866
:10037000F087CEF1200405FA0EF307FA0EF720FA03
:1003800004F83A0C25FA04F448EA0308B4FBF2F145
:100390004FEA184502FB11441FFA87FC45EA044561
:1003A00001FB0CF3AB4200FA0EF409D9ED1901F18F
:1003B000FF3080F08A80AB4240F2878002393D44B2
:1003C000EB1A1FFA88F5B3FBF2F002FB103345EA93
:1003D000034500FB0CF3AB4207D9ED1900F1FF38E0
:1003E0006FD2AB426DD902383D44EB1A40EA01416D
:1003F0008FE7C1F1200722FA07F88B4005FA01F4D4
:1004000048EA030320FA07FE4FEA134CFD404EEA88
:10041000040EB5FBFCF94FEA1E440CFB19551FFAFC
:1004200083F844EA054509FB08F4AC4202FA01F2FC
:1004300000FA01FA08D9ED1809F1FF3043D2AC42B5
:1004400041D9A9F102091D442D1B1FFA8EFEB5FBEF
:10045000FCF00CFB10554EEA054400FB08F8A045E3
:1004600007D9E41800F1FF3529D2A04527D9023871
:100470001C4440EA0940A4EB0804A0FB02894C4557
:10048000C6464D4615D312D056B1BAEB0E0364EBF7
:10049000050404FA07F7CB401F43CC403760746073
:1004A0000021BDE8F0871846F8E69046E0E6C24530
:1004B000EAD2B8EB020E69EB03050138E4E72846FF
:1004C000D7E7404691E78146BEE7014678E7023824
:1004D0003C4445E7084608E7A8F102083D442BE7FD
:1004E000704700BF82B000230193064B1A6B42F0A5
:1004F00001021A631B6B03F001030193019B02B01D
:10050000704700BF0038024010B594B00022224B63
:100510000192196C41F0805119641B6C1F4903F062
:1005200080530193019B02920B6823F4404343F4F0
:1005300000430B600B680E9203F440430293029B4E
:100540000A231021089308A801230C910B930D9303
:1005500000F042FB014600B1FEE70F230490059036
:100560000690079003A8039300F0E6FC044600B150
:10057000FEE700F07BFD4FF47A73B0FBF3F000F080
:1005800045F9042000F058F9224621464FF0FF308B
:1005900000F008F914B010BD0038024000700040AF
:1005A00008B500F0C1F8FFF7AFFFFFF79BFF00F0C1
:1005B00063FDFEE713B5224B002400945A6C42F40D
:1005C00080425A645A6C02F480420092009A01946C
:1005D0001A6C42F080521A641B6C03F08053019332
:1005E0000320019B00F0CCF8224621466FF00B005F
:1005F00000F0D8F8224621466FF00A0000F0D2F849
:10060000224621466FF0090000F0CCF82246214630
:100610006FF0040000F0C6F8224621466FF0030098
:1006200000F0C0F8224621466FF0010000F0BAF851
:10063000224621464FF0FF3000F0B4F802B010BD62
:10064000003802407047FEE7FEE7FEE7FEE770472E
:100650007047704708B500F081F8BDE8084000F029
:10066000F8B800000F49D1F8883043F47003C1F89E
:1006700088300D4B1A68002042F001021A60986021
:100680001A6822F0847222F480321A60074A5A6093
:100690001A6822F480221A60D8604FF000638B60E1
:1006A000704700BF00ED00E0003802401030002429
:1006B0007047000010B5094B4FF0FF3200241A625A
:1006C0001C625A625C621A611C615A615C619A61C7
:1006D0009C61FFF7EDFF204610BD00BF00380240CF
:1006E00038B50E4A0E4B054618784FF47A73B3FBB3
:1006F000F0F31068B0FBF3F000F088F8044658B946
:100700000F2D09D8024629464FF0FF3000F04AF875
:10071000044B20461D6038BD012038BDDC0500209B
:10072000E0050020E405002008B50B4B1A6842F4F0
:1007300000721A601A6842F480621A601A6842F401
:1007400080721A60032000F01BF80020FFF7C8FF3A
:10075000FFF730FF002008BD003C0240034A044B75
:1007600011681B780B441360704700BF1C0A0020FF
:10077000E0050020014B1868704700BF1C0A0020EC
:10078000074AD36823F4E0631B041B0C43F0BF63E8
:10079000000243F4003300F4E0600343D360704789
:1007A00000ED00E0174B30B5DC68C4F30224C4F15F
:1007B0000703251D042B28BF0423062D4FF0010538
:1007C00005FA03F303F1FF338CBF033C0024194007
:1007D000A14005FA04F4013C2240002842EA01024B
:1007E0004FEA0212AFBF00F1604000F00F00064B6D
:1007F000D2B2A5BF00F56140D2B21A5480F80023EE
:1008000030BD00BF00ED00E014ED00E00138B0F1B4
:10081000807F0AD2064B074A5860F02182F82310E5
:100820000020072298601A6070470120704700BFBF
:1008300010E000E000ED00E0044B1A6804280CBF53
:1008400042F0040222F004021A60704710E000E057
:10085000704708B5FFF7FCFF08BD0000084910B558
:100860000C6924F440740C610C6944F440740C610C
:100870000C6944F001040C610260436010BD00BFCC
:10088000003C0240074B1A6922F440721A611A694F
:1008900042F400721A611A6942F001021A610160A1
:1008A000704700BF003C0240074B1A6922F44072B7
:1008B0001A611A6942F480721A611A6942F00102DF
:1008C0001A610180704700BF003C0240204BDA688B
:1008D000D00606D51F49CA6942F01002CA6110222B
:1008E000DA60DA68910606D51A49CA6942F0080248
:1008F000CA612022DA60164BDA68520606D515491D
:10090000CA6942F00402CA614022DA60DA6810065D
:1009100006D51049CA6942F00202CA618022DA6033
:100920000B4BDA68D10507D50A49CA6942F00102C2
:10093000CA614FF48072DA60DA68920706D5054919
:10094000CA6942F02002CA610222DA60704700BF21
:10095000003C0240200A0020064B1A69002ABFBF53
:10096000054A5A6002F188325A60BABF1869C00F4E
:1009700000207047003C024023016745034A136989
:1009800043F0004313610020704700BF003C024069
:10099000F8B5124B124C00220546DA61FFF7EAFE69
:1009A00026460746E368DA030CD4E368DB0744BF56
:1009B0000123E360F06810F4F97002D0FFF786FFBE
:1009C0000120F8BD691CEDD00DB90320F8BDFFF77B
:1009D000D1FEC01B8542E5D2F7E700BF200A002008
:1009E000003C02402DE9F041204D98462B7E012B22
:1009F00007460E46144635D001234CF250302B7674
:100A0000FFF7C6FFB0B9CFB9194B1A6922F440728B
:100A10001A611A691A611A69E4B242F001021A6194
:100A200034704CF25030FFF7B3FF114A136923F0D2
:100A30000103136100232B76BDE8F081012F04D15F
:100A4000A1B23046FFF730FFEBE7022F04D1214679
:100A50003046FFF717FFE4E7224643463046FFF7EC
:100A6000FDFEDEE70220BDE8F08100BF200A002085
:100A7000003C0240074B1A6922F440721A611A695D
:100A800042F004021A611A6942F4803242EA0020FC
:100A900018617047003C024039B101291CD002297D
:100AA0000CBF4FF400714FF440710D4B1A6922F4E2
:100AB00040721A611A69114319611A6922F0F80229
:100AC0001A611A6942F0020242EAC00018611A690A
:100AD00042F480321A6170474FF48071E5E700BF3D
:100AE000003C0240144B1A6891050FD51A6822F495
:100AF00000721A601A6842F400621A601A6822F4DE
:100B000000621A601A6842F400721A600A4B1A688E
:100B100052050FD51A6822F480621A601A6842F4EE
:100B200080521A601A6822F480521A601A6842F4DD
:100B300080621A60704700BF003C02402DE9F84314
:100B4000234E337E012B044688463FD001234CF2CE
:100B500050303376FFF71CFF0546A8B94FF0FF333E
:100B6000C8F800302368012B13D1207CFFF782FFE7
:100B70004CF25030FFF70CFF164A136923F00403C0
:100B800005461361FFF7AEFF002333762846BDE824
:100B9000F883A768DFF83C90E368A26813449F429B
:100BA000F0D2217C3846FFF777FF4CF25030FFF748
:100BB000EFFED9F8103023F0FA03C9F8103018B15D
:100BC000C8F800700546DDE70137E5E70225DDE7F7
:100BD000200A0020003C02402DE9F341044618B9E8
:100BE000012002B0BDE8F0810368DD0710D423685E
:100BF000980758D423681A0700F19A8023685B0786
:100C000000F1B880A269002A40F019810020E8E7CD
:100C1000A64B9A6802F00C02042A07D09A6802F0E8
:100C20000C02082A0AD15B68590207D59F4B1B6842
:100C30009A03DCD56368002BD9D1D1E763689B4D5B
:100C4000B3F5803F11D12B6843F480332B60FFF75D
:100C500091FD964D06462B689B03C8D4FFF78AFD8D
:100C6000801B6428F7D90320BBE7B3F5A02F04D17C
:100C70002B6843F480232B60E5E72A6822F4803256
:100C80002A602A6822F480222A60002BDFD1FFF735
:100C900071FD06462B689F03A9D5FFF76BFD801BEE
:100CA0006428F7D9DFE7814B9A6812F00C0F07D060
:100CB0009A6802F00C02082A11D15B685E020ED419
:100CC0007A4B1A68950702D5E268012A88D11A681A
:100CD000216922F0F80242EAC1021A608AE7E2685A
:100CE000734BB2B101221A60FFF744FD6F4D064607
:100CF0002B68980707D52B68226923F0F80343EA8D
:100D0000C2032B6076E7FFF735FD801B0228EFD981
:100D1000A9E71A60FFF72EFD644D06462B68990778
:100D20007FF568AFFFF726FD801B0228F6D99AE70A
:100D30006269604B7AB101221A60FFF71BFD5B4DBF
:100D400006466B6F9F073FF559AFFFF713FD801BFA
:100D50000228F6D987E71A60FFF70CFD534D0646C7
:100D60006B6F98077FF54AAFFFF704FD801B0228E1
:100D7000F6D978E74D4B1A6C12F0805228D10192C7
:100D80001A6C42F080521A641B6C03F0805301937A
:100D9000019B0126484D2B68D9051BD5A368434DFF
:100DA000012B27D12B6F43F001032B67FFF7E2FCE8
:100DB0003E4D074641F288382B6F9B0739D5002EF0
:100DC0003FF420AF394A136C23F08053136419E7C2
:100DD0000026DFE72B6843F480732B60FFF7CAFC23
:100DE00007462B68DA05D9D4FFF7C4FCC01B0228DC
:100DF000F7D938E7052B04D12B6F43F004032B6799
:100E0000D0E72A6F22F001022A672A6F22F004023B
:100E10002A67002BCAD1FFF7ADFC41F2883807469C
:100E20002B6F9807CBD5FFF7A5FCC01B4045F7D922
:100E300019E7FFF79FFCC01B4045BDD913E71B4DC9
:100E4000AB6803F00C03082B3FF4CAAE1B4E002323
:100E5000022A336034D1FFF78DFC07462B689901D5
:100E60001ED4226AE3691343626A43EA8213E26A88
:100E700043EA0263A26A0D4C5208013A43EA024374
:100E80006B6001233360FFF775FC054623689A0108
:100E90003FF5BCAEFFF76EFC401B0228F6D9E2E638
:100EA000FFF768FCC01B0228D8D9DCE600380240F6
:100EB00000004742800E47420070004060004742F9
:100EC000FFF758FC04462B689B017FF59FAEFFF7A8
:100ED00051FC001B0228F6D9C5E600BF134908B52E
:100EE0008B6803F00C03042B03D0082B03D01048AD
:100EF00008BD104808BD4A684B68496813F4800370
:100F000014BF0C480A48C1F3881118BF002302F02F
:100F10003F02A1FB0001FFF75DF9044B5B68C3F3DF
:100F2000014301335B00B0FBF3F008BD0038024021
:100F30000024F40040787D012DE9F0410D4604467F
:100F400010B90120BDE8F081444B1A6802F00F028D
:100F50008A4228D321688F072DD4C80740D43F4B3D
:100F60001A6802F00F02954266D3226851076CD4CA
:100F7000130707D53A4A2169936823F4604343EA8B
:100F8000C1039360FFF7AAFF354B364A9B68C3F352
:100F90000313D35CD840344B18600020FFF7A0FB4C
:100FA0000020BDE8F081CAB21A701B6803F00F037D
:100FB0009942C6D1CEE72A4B11F0040F1EBF9A68A2
:100FC00042F4E0529A600E0742BF9A6842F46042CF
:100FD0009A609A68A06822F0F00202439A60BCE727
:100FE00062681F4B012A1DD11B6813F4003FA8D073
:100FF0001B4EB36823F003031343B360FFF7BAFB40
:1010000041F288380746B368626803F00C03B3EB1B
:10101000820FA4D0FFF7AEFBC01B4045F3D90320DD
:10102000BDE8F081911E01291B6802D813F0007FF2
:10103000DDE713F0020FDAE7EAB21A701B6803F07B
:101040000F039D427FF47DAF8FE70549E0688B6811
:1010500023F4E05303438B608AE700BF003C024067
:101060000038024090120008DC050020014B18688F
:10107000704700BFDC0500202DE9F041384B82B0FD
:101080001C68631E033300AF39D8214604F10064A5
:101090000022344804F1041400F070F823689842E8
:1010A0002DD1FFF759FC07F108039846424600236B
:1010B00042F8043D2C4D2B4E0123AB601146052315
:1010C00028469046EB60FFF739FDA6F57031B44233
:1010D000A1F1040107D016F8012B00230020FFF72F
:1010E00081FC0028F1D000237B600623AB604146E1
:1010F00002231D48EB60FFF721FDFFF73FFCFFF7E0
:10110000D9FA72B600226FF07F41930003F1604379
:1011100003F561430132082AC3F88010C3F8801137
:10112000F3D1124A00234FF0FF31136053609360F4
:10113000D36013615161A2F580620D499360D36061
:10114000136153610B4A13600B4B1A68043B8B60AD
:101150001B6883F3088890470837BD46BDE8F081D7
:101160000000040804000408E8050020003C0140D9
:1011700000ED00E010E000E004400008F0B5144D80
:101180002C78ACB9DFF850E0124F2346082613F054
:10119000010F4FEA530318BF83EA0E03013EF6D155
:1011A00047F824300134B4F5807FEED101232B7051
:1011B000084CD2430144884201D1D043F0BD10F81D
:1011C000015BD3B26B4054F8233083EA1222F2E77A
:1011D000180600201C0600202083B8EDDFF834D06C
:1011E000002103E00C4B5B58435004310B480C4B7F
:1011F00042189A42F6D30B4A02E0002342F8043B1D
:10120000094B9A42F9D3FFF72DFA00F011F8FFF7D6
:10121000C7F9704700800120B0120008DC050020EB
:10122000FC050020FC050020400A0020FEE700002D
:1012300070B50D4E0D4CA41BA4100025A54209D17C
:101240000B4E0C4C00F018F8A41BA4100025A5426E
:1012500005D170BD56F8253098470135EEE756F8B0
:10126000253098470135F2E7A8120008A8120008B7
:10127000A8120008AC120008F8B500BFF8BC08BC02
:101280009E467047F8B500BFF8BC08BC9E46704744
:101290000000000000000000010203040607080926
:1012A00064EFFF7F01000000B9010008950100080C
:1012B0000024F40001000000100000000000000005
:1012C000010000000000000000000000020000001B
:1040000000800120B5520108156000081760000803
:10401000196000081B6000081D6000080000000017
:1040200000000000000000000000000041C2000885
:104030001F60000800000000D1C2000835C300085E
:1040400005530108055301080553010805530108EC
:104050000553010805530108216000082760000886
:104060002D60000805530108055301080553010898
:1040700005530108055301080553010805530108BC
:104080000553010835600008416000080000000089
:104090000000000000000000000000004D6000086B
:1040A0006960000875600008816000080553010818
:1040B000055301080553010805530108055301087C
:1040C000055301080553010805530108055301086C
:1040D000055301088D600008996000080000000089
:1040E000A5600008B943010805530108000000005D
:1040F000000000000000000000000000055301085F
:10410000000000000553010805530108055301088C
:10411000000000000000000000000000000000009F
:10412000AD60000805530108055301080553010857
:10413000055301080000000000000000000000001E
:10414000000000000000000000000000B96000084E
:1041500005530108C560000805530108D160000837
:10416000055301080553010800000000000000008D
:10417000000000000000000000000000000000003F
:1041800000000000055301080000000000000000CE
:0441900005530108CA
:1041A00010B5054C237833B9044B13B10448AFF371
:1041B00000800123237010BD040B002000000000CC
:1041C00010A0010808B5034B1BB103490348AFF326
:1041D000008008BD00000000080B002010A00108AE
:1041E00010F8012B11F8013B012A28BF9A42F7D0A1
:1041F000D01A7047034613F8012B002AFBD1181A76
:1042000001387047000000000000000000000000BE
:1042100001F0FF01102A2BDB10F0070F08D010F877
:10422000013B013A8B422DD010F0070F42B3F6D17B
:10423000F0B441EA012141EA014122F007047FF094
:1042400000070023F0E80256083C85EA010586EAEB
:10425000010685FA47F5A3FA87F586FA47F6A5FA27
:1042600087F68EB9EED1F0BC01F0FF0102F0070233
:1042700032B110F8013B013A83EA010313B1F8D1DE
:104280000020704701387047002D06BF35460338BF
:10429000073815F0010F07D1013015F4807F02BFF8
:1042A000013015F4C03F0130F0BC0138704700BF49
:1042B00081F0004102E000BF83F0004330B54FEAD7
:1042C00041044FEA430594EA050F08BF90EA020F44
:1042D0001FBF54EA000C55EA020C7FEA645C7FEAD7
:1042E000655C00F0E2804FEA5454D4EB5555B8BFFA
:1042F0006D420CDD2C4480EA020281EA030382EA6B
:10430000000083EA010180EA020281EA0303362DFC
:1043100088BF30BD11F0004F4FEA01314FF4801CCF
:104320004CEA113102D0404261EB410113F0004FE1
:104330004FEA03334CEA133302D0524263EB430398
:1043400094EA050F00F0A780A4F10104D5F1200E36
:104350000DDB02FA0EFC22FA05F2801841F1000191
:1043600003FA0EF2801843FA05F359410EE0A5F165
:1043700020050EF1200E012A03FA0EFC28BF4CF096
:10438000020C43FA05F3C01851EBE37101F000454C
:1043900007D54FF0000EDCF1000C7EEB00006EEB59
:1043A0000101B1F5801F1BD3B1F5001F0CD34908E3
:1043B0005FEA30004FEA3C0C04F101044FEA44523A
:1043C00012F5800F80F09A80BCF1004F08BF5FEAC1
:1043D000500C50F1000041EB045141EA050130BDA1
:1043E0005FEA4C0C404141EB010111F4801FA4F144
:1043F0000104E9D191F0000F04BF01460020B1FA99
:1044000081F308BF2033A3F10B03B3F120020CDAD0
:104410000C3208DD02F1140CC2F10C0201FA0CF0AE
:1044200021FA02F10CE002F11402D8BFC2F1200C13
:1044300001FA02F120FA0CFCDCBF41EA0C019040C9
:10444000E41AA2BF01EB0451294330BD6FEA040412
:104450001F3C1CDA0C340EDC04F11404C4F12002FD
:1044600020FA04F001FA02F340EA030021FA04F30F
:1044700045EA030130BDC4F10C04C4F1200220FA66
:1044800002F001FA04F340EA0300294630BD21FAA4
:1044900004F0294630BD94F0000F83F4801306BF6A
:1044A00081F480110134013D4EE77FEA645C18BF5E
:1044B0007FEA655C29D094EA050F08BF90EA020FF5
:1044C00005D054EA000C04BF1946104630BD91EAED
:1044D000030F1EBF0021002030BD5FEA545C05D1F0
:1044E0004000494128BF41F0004130BD14F580042F
:1044F0003CBF01F5801130BD01F0004545F0FE41A3
:1045000041F470014FF0000030BD7FEA645C1ABFD7
:10451000194610467FEA655C1CBF0B46024650EA0E
:10452000013406BF52EA033591EA030F41F400213A
:1045300030BD00BF90F0000F04BF0021704730B5C0
:104540004FF4806404F132044FF000054FF0000195
:1045500050E700BF90F0000F04BF0021704730B556
:104560004FF4806404F1320410F0004548BF40422B
:104570004FF000013EE700BF42004FEAE2014FEA80
:1045800031014FEA02701FBF12F07F4393F07F4F5B
:1045900081F06051704792F0000F14BF93F07F4F8D
:1045A000704730B54FF4607401F0004521F00041D0
:1045B00020E700BF50EA010208BF704730B54FF056
:1045C00000050AE050EA010208BF704730B511F05B
:1045D000004502D5404261EB41014FF4806404F193
:1045E00032045FEA915C3FF4DCAE4FF003025FEA15
:1045F000DC0C18BF03325FEADC0C18BF033202EB9D
:10460000DC02C2F1200300FA03FC20FA02F001FAF6
:1046100003FE40EA0E0021FA02F11444C1E600BF95
:1046200070B54FF0FF0C4CF4E06C1CEA11541DBF48
:104630001CEA135594EA0C0F95EA0C0F00F0DEF813
:104640002C4481EA030621EA4C5123EA4C5350EAF8
:10465000013518BF52EA033541F4801143F4801349
:1046600038D0A0FB02CE4FF00005E1FB02E506F0DA
:104670000042E0FB03E54FF00006E1FB03569CF02F
:10468000000F18BF4EF0010EA4F1FF04B6F5007F35
:1046900064F5407404D25FEA4E0E6D4146EB0606A7
:1046A00042EAC62141EA55514FEAC52040EA5E5030
:1046B0004FEACE2EB4F1FD0C88BFBCF5E06F1ED8DA
:1046C000BEF1004F08BF5FEA500E50F1000041EB11
:1046D000045170BD06F0004646EA010140EA0200BE
:1046E00081EA0301B4EB5C04C2BFD4EB0C0541EAE0
:1046F000045170BD41F480114FF0000E013C00F3F5
:10470000AB8014F1360FDEBF002001F0004170BD18
:10471000C4F10004203C35DA0C341BDC04F1140431
:10472000C4F1200500FA05F320FA04F001FA05F2BD
:1047300040EA020001F0004221F0004110EBD3708A
:1047400021FA04F642EB06015EEA430E08BF20EAB6
:10475000D37070BDC4F10C04C4F1200500FA04F359
:1047600020FA05F001FA04F240EA020001F00041EB
:1047700010EBD37041F100015EEA430E08BF20EA5E
:10478000D37070BDC4F1200500FA05F24EEA020EA6
:1047900020FA04F301FA05F243EA020321FA04F0D5
:1047A00001F0004121FA04F220EA020000EBD3708C
:1047B0005EEA430E08BF20EAD37070BD94F0000F8C
:1047C0000FD101F00046400041EB010111F4801FC0
:1047D00008BF013CF7D041EA060195F0000F18BF71
:1047E000704703F00046520043EB030313F4801FAD
:1047F00008BF013DF7D043EA0603704794EA0C0F67
:104800000CEA135518BF95EA0C0F0CD050EA41067C
:1048100018BF52EA4306D1D181EA030101F00041F9
:104820004FF0000070BD50EA410606BF1046194621
:1048300052EA430619D094EA0C0F02D150EA01362D
:1048400013D195EA0C0F05D152EA03361CBF10466E
:1048500019460AD181EA030101F0004141F0FE410D
:1048600041F470014FF0000070BD41F0FE4141F491
:10487000780170BD70B54FF0FF0C4CF4E06C1CEA91
:1048800011541DBF1CEA135594EA0C0F95EA0C0F46
:1048900000F0A7F8A4EB050481EA030E52EA033501
:1048A0004FEA013100F088804FEA03334FF0805522
:1048B00045EA131343EA12634FEA022245EA11154F
:1048C00045EA10654FEA00260EF000419D4208BF00
:1048D000964244F1FD0404F5407402D25B084FEAAD
:1048E0003202B61A65EB03055B084FEA32024FF459
:1048F00080104FF4002CB6EB020E75EB030E22BFB6
:10490000B61A754640EA0C005B084FEA3202B6EB75
:10491000020E75EB030E22BFB61A754640EA5C0024
:104920005B084FEA3202B6EB020E75EB030E22BFB4
:10493000B61A754640EA9C005B084FEA3202B6EBB5
:10494000020E75EB030E22BFB61A754640EADC0074
:1049500055EA060E18D04FEA051545EA16754FEAD6
:1049600006164FEAC30343EA52734FEAC2025FEAF4
:104970001C1CC0D111F4801F0BD141EA00014FF083
:1049800000004FF0004CB6E711F4801F04BF014354
:104990000020B4F1FD0C88BFBCF5E06F3FF6AFAE70
:1049A000B5EB030C04BFB6EB020C5FEA500C50F100
:1049B000000041EB045170BD0EF0004E4EEA113183
:1049C00014EB5C04C2BFD4EB0C0541EA045170BD8A
:1049D00041F480114FF0000E013C90E645EA060ECE
:1049E0008DE60CEA135594EA0C0F08BF95EA0C0FFC
:1049F0003FF43BAF94EA0C0F0AD150EA01347FF444
:104A000034AF95EA0C0F7FF425AF104619462CE71A
:104A100095EA0C0F06D152EA03353FF4FDAE10467D
:104A2000194622E750EA410618BF52EA43067FF4CE
:104A3000C5AE50EA41047FF40DAF52EA43057FF45E
:104A4000EBAE12E74FF0FF3C06E000BF4FF0010C69
:104A500002E000BF4FF0010C4DF804CD4FEA410CCD
:104A60007FEA6C5C4FEA430C18BF7FEA6C5C1BD09A
:104A700001B050EA410C0CBF52EA430C91EA030F1B
:104A800002BF90EA020F0020704710F1000F91EA78
:104A9000030F58BF994208BF90422CBFD8176FEA46
:104AA000E37040F0010070474FEA410C7FEA6C5C14
:104AB00002D150EA013C07D14FEA430C7FEA6C5C1B
:104AC000D6D152EA033CD3D05DF8040B704700BF47
:104AD0008446104662468C461946634600E000BF95
:104AE00001B5FFF7B7FF002848BF10F1000F01BD67
:104AF0004DF808EDFFF7F4FF0CBF012000205DF832
:104B000008FB00BF4DF808EDFFF7EAFF34BF0120B6
:104B100000205DF808FB00BF4DF808EDFFF7E0FF4F
:104B200094BF012000205DF808FB00BF4DF808EDA0
:104B3000FFF7CEFF94BF012000205DF808FB00BF07
:104B40004DF808EDFFF7C4FF34BF012000205DF8E9
:104B500008FB00BF4FEA410C7FEA6C5C02D150EACF
:104B6000013C0AD14FEA430C7FEA6C5C02D152EA65
:104B7000033C02D14FF0000070474FF00100704736
:104B80004FEA410212F5001215D211D56FF4787375
:104B9000B3EB625212D94FEAC12343F0004343EA18
:104BA000505311F0004F23FA02F018BF40427047F3
:104BB0004FF00000704750EA013005D111F000407D
:104BC00008BF6FF0004070474FF00000704700BF13
:104BD0004A0011D212F5001211D20DD56FF478737C
:104BE000B3EB62520ED44FEAC12343F0004343EAD1
:104BF000505323FA02F070474FF00000704750EA1C
:104C0000013002D14FF0FF3070474FF00000704785
:104C10004FEA4102B2F1E04324BFB3F5001CDCF1DE
:104C2000FE5C0DD901F0004C4FEAC0024CEA507016
:104C3000B2F1004F40EB830008BF20F00100704745
:104C400011F0804F21D113F13872BCBF01F0004048
:104C5000704741F480114FEA5252C2F11802C2F17A
:104C6000200C10FA0CF320FA02F018BF40F00100FB
:104C70004FEAC1234FEAD32303FA0CFC40EA0C00AD
:104C800023FA02F34FEA4303CCE77FEA625307D1EA
:104C900050EA01331EBF4FF0FE4040F44000704721
:104CA00001F0004040F0FE4040F40000704700BFBB
:104CB00053B94AB9002908BF00281CBF4FF0FF3183
:104CC0004FF0FF3000F07AB9ADF1080C6DE904CE79
:104CD00000F006F8DDF804E0DDE9022304B07047D7
:104CE0002DE9F0478C460D460446089E002B51D115
:104CF0008A4217466DD9B2FA82FEBEF1000F0BD080
:104D0000CEF1200C01FA0EF520FA0CFC02FA0EF797
:104D10004CEA050C00FA0EF44FEA174A250CBCFBCE
:104D2000FAF81FFA87F90AFB18CC45EA0C4508FB8C
:104D300009F3AB420AD9ED1908F1FF3280F0238163
:104D4000AB4240F22081A8F102083D44ED1AA4B222
:104D5000B5FBFAF00AFB105544EA054400FB09F9DB
:104D6000A14509D9E41900F1FF3380F00A81A1457A
:104D700040F2078102383C44A4EB090440EA0840B1
:104D80000021002E61D024FA0EF4002334607360F9
:104D9000BDE8F0878B4207D9002E54D0002186E869
:104DA00021000846BDE8F087B3FA83F1002940F0FE
:104DB0008E80AB4202D3824200F2FA80841A65EB05
:104DC00003050120AC46002E3FD086E81010BDE858
:104DD000F08712B90127B7FBF2F7B7FA87FEBEF1E9
:104DE000000F34D1EB1B3A0C1FFA87FC0121B3FBF7
:104DF000F2F8250C02FB183345EA03450CFB08F3D7
:104E0000AB4207D9ED1908F1FF3002D2AB4200F2F4
:104E1000D1808046ED1AA3B2B5FBF2F002FB10552B
:104E200043EA05440CFB00FCA44507D9E41900F152
:104E3000FF3302D2A44500F2B8801846A4EB0C045C
:104E400040EA08409DE731463046BDE8F087CEF1A4
:104E5000200405FA0EF307FA0EF720FA04F83A0CCC
:104E600025FA04F448EA0308B4FBF2F14FEA1845C6
:104E700002FB11441FFA87FC45EA044501FB0CF3D1
:104E8000AB4200FA0EF409D9ED1901F1FF3080F0C0
:104E90008A80AB4240F2878002393D44EB1A1FFA08
:104EA00088F5B3FBF2F002FB103345EA034500FB43
:104EB0000CF3AB4207D9ED1900F1FF386FD2AB42CA
:104EC0006DD902383D44EB1A40EA01418FE7C1F148
:104ED000200722FA07F88B4005FA01F448EA030399
:104EE00020FA07FE4FEA134CFD404EEA040EB5FBD4
:104EF000FCF94FEA1E440CFB19551FFA83F844EAEB
:104F0000054509FB08F4AC4202FA01F200FA01FA85
:104F100008D9ED1809F1FF3043D2AC4241D9A9F1CB
:104F200002091D442D1B1FFA8EFEB5FBFCF00CFB85
:104F300010554EEA054400FB08F8A04507D9E418CF
:104F400000F1FF3529D2A04527D902381C4440EA98
:104F50000940A4EB0804A0FB02894C45C6464D4617
:104F600015D312D056B1BAEB0E0364EB050404FA64
:104F700007F7CB401F43CC40376074600021BDE889
:104F8000F0871846F8E69046E0E6C245EAD2B8EB6C
:104F9000020E69EB03050138E4E72846D7E74046EF
:104FA00091E78146BEE7014678E702383C4445E791
:104FB000084608E7A8F102083D442BE7704700BF08
:104FC0000C4BDA6822F08072DA60DA6842F08072A4
:104FD000DA60094B1A6822F001021A601A6842F07E
:104FE00001021A6000225A605A6800BF00BF586868
:104FF000801A7047F0ED00E0001000E070470000FC
:10500000184AF8B5136801331360174B1A6812B1C8
:105010001A68013A1A60154E002537463378ECB20B
:10502000A34202D8FFF7EAFFF8BDA400331958687D
:10503000B0B103789B0713D583680BB1013B836044
:1050400083686BB93C44C3680169984762685368D8
:105050009360137813F0010104BF61F341031370EF
:105060000135DBE7380B00203C0B0020200B002033
:10507000EFF3058313B1084B38B97047074B196834
:105080001A68521A9042FBD870471A68D20348BF78
:1050900000F1FF30F0E700BF10E000E0380B002027
:1050A000014B1868704700BF380B002030B5002353
:1050B000032541FA03F2D20706D502685C0005FA1F
:1050C00004F422EA040202600133102BF1D130BD56
:1050D000F0B500230325012641FA03F2D20709D5D2
:1050E00002685C0005FA04F722EA070206FA04F4F3
:1050F000224302600133102BEED1F0BD064A00F1CD
:105100003F4000F57E00116BC0F38F2301209840D3
:1051100008431063704700BF003802402DE9F04F8C
:1051200085B000F13F459DF83840029405F57E05B5
:105130009DF83C40DFF8A480039402F1FF3C01930A
:105140000024C5F387254FF0030A5FFA8CFC41FA6F
:1051500004F6F3073BD5012338F81560D0F80CE0CE
:1051600003FA04F949EA060628F8156004FA03F67A
:105170000AFA06F7029BFF4303FA06FB07EA0E0E44
:105180004EEA0B0EC0F80CE0D0F800E002FA06FB85
:105190000EEA070E4EEA0B0EBCF1010FC0F800E05C
:1051A00015D8D0F804E0019B2EEA090903FA04FEA1
:1051B0001FFA8EFE49EA0E09C0F80490D0F808E004
:1051C000039B07EA0E0703FA06F6374387600134AC
:1051D000102CBCD105B0BDE8F08F00BF400B002003
:1051E0002DE9F047054616461F469DF820809DF89C
:1051F00024900C4669B1FFF781FFCDF82490CDF8DB
:1052000020803B46324621462846BDE8F047FFF75E
:1052100085BFBDE8F08710B5044600F0BFF8204612
:10522000CC2100F01FF920464421BDE8104000F0D9
:1052300019B90000F0B50B78282B85B007460C464D
:10524000154610D0002005B0F0BDC4F3420207EEB1
:10525000902AFAEEEE7A5DE004F00F0207EE902A53
:10526000FAEECE7A56E000F0DFF80028EAD03846B1
:1052700000F094F82146384600F085F9BE21384602
:1052800000F0F0F8002401AE384600F0FBF830558D
:105290000134092CF8D10821304600F084F99DF83A
:1052A0000C308342CED19DF805309DF8046046EA6B
:1052B000032636B2384600F071F8B4B2002EBCBFF7
:1052C0006442A4B24FEA141303F0700244F30713CC
:1052D00043EA02039DF80820C2F3411202F10902D9
:1052E000B4BF012100210B2AAFD00C2AB4D00A2A66
:1052F0001BBFC4F3C00207EE902AC4F38102F8EE8C
:10530000E77A0DBF07EE902AB6EE007A67EE877A4D
:10531000FAEECF7A07EE103AB8EEC77A77EE277A30
:1053200019B19FED047A77EE677AC5ED007A012016
:1053300089E700BF000000000078A0F12803584270
:105340005841704700F070B837B5094C0190656856
:1053500003F02CFC019B074AB0FBF2F0434301939E
:105360006368019A5B1B9342FAD303B030BD00BF60
:10537000001000E040420F0073B50E46154604468B
:10538000FFF71EFE012201920092002329463046BB
:10539000FFF726FF2660A58002B070BD10B5044659
:1053A0000068A1880B048361FFF792FE4FF4F07050
:1053B000FFF7CAFFA1882068FFF778FE4620FFF7B5
:1053C000C3FF2368A2881B691A4214BF012400246A
:1053D0004FF4CD70FFF7B8FF204610BD10B504465E
:1053E0000068A3881A04826191B11946FFF770FE24
:1053F0000A20FFF7A9FF2068A188FFF757FE372092
:10540000FFF7A2FFA1882068BDE81040FFF74EBE5D
:105410001946FFF75DFE4120FFF796FF2068A1883F
:10542000FFF744FE0520EBE710B504460068A188AD
:105430000B048361FFF74CFE0320FFF785FFA18873
:105440002068FFF733FE0A20FFF77EFF2368A2885B
:105450001B691A4214BF012400243220FFF774FF95
:10546000204610BD70B506460D460924013C14F0D7
:10547000FF0400D170BD05F001013046FFF7AEFF1B
:105480006D08F3E770B5064609250024013D15F0C7
:10549000FF0501D1204670BD3046FFF7C5FF640807
:1054A00044EAC014E4B2F1E7002383710372C371CC
:1054B00070472DE9F843037A04460D461BB9FFF700
:1054C0006DFF814628B10020A0712072E071BDE817
:1054D000F88329462046FFF7C5FF01264F4635468B
:1054E0002046FFF7A1FF80462046FFF79DFFB8F159
:1054F000010F10D101282ED1402DE4D984F8069057
:10550000B9F1000F01D101232372637A002BDAD0A5
:105510000120BDE8F883804504EB070310D1A27990
:10552000954212D25A7A164214BF4FF001084FF03A
:105530000008B8F1000F0ED1082D00D8E571A9467A
:105540005A7A22EA06025A720BE00CBF4FF00108A9
:105550004FF00008EDE7E2194FF00108537A3343AA
:105560005372414620467600FFF738FF16F0FF06DB
:1055700004BF0137FFB205F1010508BF0126072F5F
:10558000EDB2ADD9B8E770B50C4655210646FFF728
:1055900069FF651E073415F8011F3046FFF762FFEB
:1055A000A542F8D170BD30B501440023884201D135
:1055B000184630BD10F8014B082283EA040515F0A7
:1055C000010F4FEA530318BF83F08C0302F1FF323F
:1055D00018BFDBB212F0FF024FEA5404EDD1E5E749
:1055E00030B58FB01022002101A810F063F82422FA
:1055F000002105A810F05EF82D482E4B2E4A82623D
:105600004FF4803480E818000425002301248360CF
:10561000046183610362C362C360C5610463436163
:1056200000F0CAFF08B100F015FC032301A92048CF
:1056300001950294039301F077FA08B100F00AFC97
:105640000523019301A902231948029301F06CFA82
:1056500008B100F0FFFB0723019301A903231448BD
:10566000029301F061FA08B100F0F4FB04240E2368
:105670000DEB04010E480193029401F055FA08B1B4
:1056800000F0E8FB0123069309930C4A08480594AF
:10569000002305A907930D930C920B930A9308938B
:1056A00001F0F6FA08B100F0D5FB0FB030BD00BF35
:1056B000CCB60020002001400100000F01000F00C7
:1056C00070B5064688B01422002103A80FF0F2FF3F
:1056D00032682C4B9A4252D1002503F58C33009549
:1056E0005A6C294842F480725A645A6C02F48072EF
:1056F0000092009A01951A6B42F001021A631A6B2C
:1057000002F001020192019A02951A6B42F0040222
:105710001A631B6B03F0040302930324029B04949B
:10572000B02303A9039302F049F910231748039308
:1057300003A904940595164C02F040F9154BA56099
:1057400084E828004FF4806323614FF400636361B1
:1057500020464FF40053E560A361E5612562656270
:1057600001F082FC08B100F075FBB4631220002246
:105770000521A66301F0F2FB122001F031FC08B014
:1057800070BD00BF00200140000002400008024040
:1057900014B700201064024013B5184B0024009485
:1057A0001A6B42F480021A631A6B02F480020092B0
:1057B000009A01941A6B42F400121A631B6B03F4F3
:1057C00000132246019305211120019B01F0C6FB25
:1057D000112001F005FC22460521382001F0BEFB16
:1057E000382001F0FDFB22460521452001F0B6FBE3
:1057F000452001F0F5FB02B010BD00BF00380240AB
:10580000F0B5B7B036A8002440F8D84D06F074FBC8
:105810007F4B804D186036A8012140F8D44D06F02A
:1058200097FB7D4B186036A8012140F8D04D06F05B
:105830008FFB7A4B186036A8012140F8CC4D06F05A
:1058400087FB774B186036A8012140F8C84D06F059
:105850007FFB744B186036A8012140F8C44D06F058
:1058600077FB714B186036A8704B40F8C03D22465C
:10587000012106F0B9FA6E4B186036A86D4B40F85E
:10588000BC3D2246012106F0AFFA6B4B186036A8EA
:105890006A4B40F8B83D2246012106F0A5FA684B54
:1058A000186036A8674B40F8B43D2246012106F047
:1058B0009BFA654B186036A8644B40F8B03D224611
:1058C000012106F091FA624B186036A8614B40F84E
:1058D000AC3D2246012106F087FA5F4B2F46186047
:1058E0000FCF18AE0FC63B683360214618A806F0EC
:1058F0005BFA5A4B05F1140718600FCF1DAE0FC6A7
:105900003B68336021461DA806F04EFA544B05F162
:10591000280718600FCF22AE0FC63B6833602146C0
:1059200022A806F041FA4F4B05F13C0718600FCF53
:1059300027AE0FC63B683360214627A806F034FA2D
:10594000494B05F1500718600FCF2CAE0FC63B68CE
:10595000336021462CA806F027FA444B05F1640772
:1059600018600FCF31AE0FC63B683360214631A8B7
:1059700006F01AFA3E4B05F17806186096E8030027
:105980000CAB83E803002146184606F043FB394B75
:10599000186096E803000EAB83E803002146184622
:1059A00006F038FB344B05F18006186096E80300DA
:1059B00010AB83E803002146184606F02BFB2F4B63
:1059C000186096E8030012AB83E8030021461846EE
:1059D00006F020FB2A4B05F18802186092E80300CC
:1059E00014AB83E803002146184606F013FB254B51
:1059F0009035186095E8030016AB83E80300214654
:105A0000184606F007FB204B186037B0F0BD00BF0A
:105A100094B7002028A00108B4B70020ACB700203C
:105A2000A0B70020C4B70020BCB7002019F40008BC
:105A3000D0B70020CDEB0008B0B700203D0F010823
:105A400074B70020510F0108B8B70020CD0D010830
:105A50007CB700205D0F010878B7002098B70020C0
:105A60008CB70020A4B70020CCB7002090B700204E
:105A700080B70020C0B7002088B70020A8B700205A
:105A80009CB70020C8B7002084B700202DE9F04F54
:105A90008DB01422002107A80FF00CFE00248E4BBD
:105AA00002941A6B8D4F8E4EDFF8449242F004023E
:105AB0001A631A6B02F004020292029A03941A6BA0
:105AC00042F080021A631A6B02F080020392039A7A
:105AD00004941A6B42F001021A631A6B02F001027D
:105AE0000492049A05941A6B42F002021A631A6B2C
:105AF00002F002020592059A06941A6B42F008021F
:105B00001A631B6B03F008030693384601224FF417
:105B10004051069B02F090F82246384640F203318D
:105B200002F08AF8304601224FF4806102F084F8D6
:105B3000224630464FF4714102F07EF84846012279
:105B40004FF4004102F078F8664B019318460122A9
:105B50000421012502F070F842F2033207A9384609
:105B60004FF003080792089509940A9401F026FF64
:105B70004FF4404207A938460792CDF82080099497
:105B800001F01CFF40F6044207A938464FF0280AEE
:105B900007920894099401F011FF534A089207A94B
:105BA00038460092CDF81CA0099401F007FF4FF48D
:105BB000A071009A0791484607A94FF0070B089279
:105BC000099401F0FBFE009A089207A93046CDF82F
:105BD0001CB0099401F0F2FE11214FF4806208918B
:105BE000304607A90792009209940A9501F0E6FE53
:105BF0004FF470410791304607A9089509940A941B
:105C000001F0DCFE009A079207A9384A089248463C
:105C1000099401F0D3FE4FF4004207A948460792C9
:105C2000089509940A9401F0C9FE4FF4805207A91F
:105C30003846079208950995CDF8288001F0BEFEF8
:105C4000019B0895042207A9184602270792099587
:105C5000CDF8288001F0B2FE4FF4807307A93046DA
:105C6000079308950997CDF8288001F0A7FE4FF417
:105C7000007307A930460793CDF82080099401F0FE
:105C80009DFE22463946062001F068F9062001F003
:105C9000A7F922463946584601F060F9584601F006
:105CA0009FF922463946082001F058F9082001F0F2
:105CB00097F922463946172001F050F9172001F0D4
:105CC0008FF922462946504601F048F9504601F026
:105CD00087F90DB0BDE8F08F00380240000802409F
:105CE00000040240000C02400000311000002110AE
:105CF00000000240044B054A9A60A3F54F6300225E
:105D00001A6062B6704700BF00ED00E00040000876
:105D100010B5302298B000210DEB02000FF0CAFC44
:105D20001422002102A80FF0C5FC1422002107A8AC
:105D30000FF0C0FC254B002100911A6C42F08052FC
:105D40001A641B6C224A03F080530093009B01915C
:105D5000136823F4404343F400431360136803F4CF
:105D600040430193019B09230C934FF480330D931F
:105D7000012311934FF480031393102314934FF4D2
:105D8000A87315930423022416930CA807231294D6
:105D9000179302F0F9FB00B1FEE70F230293049082
:105DA0004FF480530690214602A80394059302F015
:105DB00009FE00B1FEE74FF4007307A807940A93A9
:105DC00002F038FF00B1FEE718B010BD0038024005
:105DD0000070004008B5FFF78DFF00F0D3FBFFF720
:105DE00097FFFFF753FEFFF7D7FC00F0ADFAFFF780
:105DF000F7FB00F031F800F0C5FA00F053F800F0BE
:105E000087FA00F025FA00F0FBF900F0C7F9FFF778
:105E1000F7FC05F0C4FFFEE703680A4A934201D18C
:105E2000FFF7EEB8084A934201D108F071BA074A69
:105E3000934201D10EF02ABD054A934201D10CF0E4
:105E400041BF704700480140000800400044014045
:105E500000400140FEE770470A4808B57F220A4B20
:105E6000036082600023FF224360C26003614361DC
:105E7000836103F007F818B1BDE80840FFF7EABFF7
:105E800008BD00BFD4B70020002800400268034BC3
:105E90009A4202BF024B01221A607047002800405C
:105EA0003C0E474208B50E480E4B4FF4827E80E808
:105EB000084000238360C360036143614FF40072B4
:105EC000C3610362436283620A238261C36203F097
:105ED000B5FA18B1BDE80840FFF7BCBF08BD00BF68
:105EE000F4B700200030014010B5044688B01422F9
:105EF000002103A80FF0DEFB2268154B9A4224D143
:105F000003F58433002101915A6C124842F4805207
:105F10005A645A6C02F480520192019A02911A6BEF
:105F200042F002021A631B6B03F002030293029B0E
:105F30003823039302230493012305930323069339
:105F400003A90523079301F039FD08B010BD00BF78
:105F5000003001400004024007B50F4B00220092C0
:105F6000596C41F480415964596C01F480410091AD
:105F700000990192196C41F0805119641B6C03F077
:105F8000805301930F216FF00100019B00F0E6FFA9
:105F900003B05DF804FB00BF0038024030B5014695
:105FA00089B000221A2000F0D9FF1A2001F018F859
:105FB0000025144B02955A6C134C42F480225A640B
:105FC0005B6C03F48023029301A903A8029B02F0F7
:105FD00013FE02F001FE0D4B236040F2E733E36055
:105FE0000B4BB0FBF3F00138606020462561A560E3
:105FF00004F01CF920B9204603F02EFD09B030BD95
:106000000120FBE7003802404CB800200048014066
:1060100040420F007047FEE7FEE7FEE7FEE77047ED
:10602000012001F023BE022001F020BE042001F077
:106030001DBE0000014801F0A7B900BF9CB90020B7
:10604000014800F0B5BC00BFCCB6002008B5202048
:1060500001F00CFE402001F009FE4FF48070BDE815
:10606000084001F003BE0000014803F0F1BF00BF8B
:1060700000B90020014803F0EBBF00BFC4B8002006
:10608000014803F0E5BF00BF4CB80020014804F010
:1060900005BD00BFFCB90020014804F0FFBC00BFF3
:1060A0007CBA00204FF4806001F0E0BD014801F0AF
:1060B0006BB900BF14B70020014801F071BE00BFEA
:1060C00040CF0020014801F05FB900BF3CB900207B
:1060D000014804F0E3BC00BF3CBA00200AF058BFFE
:1060E0000AF0FEBF0268084B9A4210B5044601D17F
:1060F0000EF0C6FB2268054B9A4203D1BDE8104062
:106100000EF082B810BD00BF0044004000140140F2
:106110000368054A934201D10EF0AABB034A934299
:1061200001D10EF03DB8704700440040001401401A
:106130000368054A934201D10EF0A0BB034A934283
:1061400001D10EF051B870470044004000140140E6
:106150000F49D1F8883043F47003C1F888300D4BF3
:106160001A68002042F001021A6098601A6822F052
:10617000847222F480321A60074A5A601A6822F444
:1061800080221A60D8604FF000638B60704700BFB8
:1061900000ED00E000380240103000247FB51022EE
:1061A000002102A80FF086FA1348144A002380E861
:1061B0000C0041F26802009301938360C2600361A6
:1061C00004F034F808B1FFF745FE4FF4805302A9FC
:1061D0000948029303F0B6FC08B1FFF73BFE002329
:1061E000694605480093019304F07CF808B1FFF775
:1061F00031FE07B05DF804FB88B8002000080040BD
:106200001FB51022002168460FF054FA0E480F49BE
:1062100042F20F7380E80A004FF4D27200238360C9
:10622000C260036104F002F808B1FFF713FE4FF4F7
:10623000805369460448009303F084FC08B1FFF7DB
:1062400009FE05B05DF804FB00B9002000400140E4
:1062500009480A4908B54AF2104380E80A00642256
:1062600000238360C260036103F0E0FF18B1BDE862
:106270000840FFF7EFBD08BDC4B80020004401404E
:106280001FB503681E4A93420ED1002301931D4B94
:106290001A6C42F004021A641B6C03F004030193AD
:1062A000019B05B05DF804FB174A934213D1154BCF
:1062B00000220292596C41F4803159645B6C03F402
:1062C0008033029318200521029B00F047FE18201E
:1062D00000F086FEE5E70D4A9342E2D1094B002229
:1062E0000392596C41F4003159645B6C03F4003340
:1062F000039319200521039B00F030FE1920E7E7E6
:1063000000080040003802400040014000440140C5
:1063100008B50B480B4B4FF4964E80E808400C2212
:1063200000238360C360036142618361C36104F041
:10633000ABF918B1BDE80840FFF78CBD08BD00BF40
:10634000FCB900200010014008B50C480C4B0C2291
:106350004FF4165E80E80840426100234FF440721B
:106360008360C36003618261C36104F08DF918B179
:10637000BDE80840FFF76EBD08BD00BF7CBA002035
:106380000044004008B50B480B4B4FF4165E80E804
:1063900008400C2200238360C36003614261836173
:1063A000C36104F071F918B1BDE80840FFF752BDB0
:1063B00008BD00BF3CBA002000140140F0B50646FD
:1063C0008DB01422002107A80FF074F93368624AD7
:1063D00093422DD1614B6248002401945A6C42F0E3
:1063E00010025A645A6C02F010020192019A02944F
:1063F0001A6B42F002021A631B6B03F00203029352
:10640000029BC023079302230893012309930323CC
:106410000A9307A907230B9301F0D0FA25202246FF
:10642000052100F09BFD252000F0DAFD0DB0F0BD48
:106430004C4A93424AD10025484B03951A6C4A486E
:1064400042F400321A641A6C02F400320392039A86
:1064500004951A6B42F001021A631B6B03F00103EF
:10646000049302270724049B0897032307A9079393
:106470000A930B9401F0A2FA0C2307933A48089769
:10648000012307A909930B940A95384C01F096FA59
:106490003748E5604FF00063402784E889004FF4F7
:1064A0008063204623616561A561E56125626562BF
:1064B00000F0DAFD08B1FFF7CDFC3463262000229E
:1064C0000521A66300F04AFD2620ADE7294A934244
:1064D000ACD10025214B05955A6C2748274C42F03A
:1064E00020025A645A6C02F020020592059A069521
:1064F0001A6B42F004021A631B6B03F00403069349
:10650000069BC023079302230893012309930323C7
:106510000A9307A908230B9301F050FA1849E56084
:1065200040234FF0206284E80E0020464FF4806341
:1065300023616561A561E5612562656200F094FDF6
:1065400008B1FFF787FC3463472000220121A663CE
:1065500000F004FD472067E70010014000380240CA
:106560000004024000440040000002409CB90020AA
:10657000A060024000140140000802403CB9002025
:10658000A064024008B50B4B1A6842F400721A600E
:106590001A6842F480621A601A6842F480721A60C3
:1065A000032000F0BDFC0020FFF7F8FCFFF7D4FC4F
:1065B000002008BD003C024010B50446002800F051
:1065C00022810268914B9A4204D040F20B1190480C
:1065D000FFF741FC636833F4403304D04FF4867115
:1065E0008B48FFF738FCA36833F0407304D040F2C7
:1065F0000D118748FFF72FFC2369012B04D94FF4B5
:1066000087718348FFF727FCA369012B04D940F267
:106610000F117F48FFF71FFCA36A33F0407223F08D
:10662000807114D0B2F1806F11D0B2F1006F0ED032
:10663000B1F1406F0BD0B3F1606F08D003F171433B
:10664000012B04D94FF488717148FFF704FCE3680B
:1066500033F4006304D040F211116D48FFF7FBFBE7
:10666000E369013B0F2B04D94FF489716848FFF7A8
:10667000F2FB236B012B04D940F213116448FFF79E
:10668000EAFB6369022B04D94FF48A716048FFF773
:10669000E2FB236A012B04D940F215115C48FFF795
:1066A000DAFBA26A5B4B9A4208D0E36A33F04053AC
:1066B00004D040F219115648FFF7CDFB236C2BB9DB
:1066C000636484F83C302046FEF7FAFF236CDB0657
:1066D00000F19780236C23F4885323F0020343F0E6
:1066E000020323644C4B5A6822F440325A605A68C1
:1066F00061680A435A60236821695A6822F48072EB
:106700005A605A6842EA01225A605A68A16822F027
:1067100040725A605A680A435A609A68E16822F4E3
:1067200000629A609A680A439A603A49A26A8A4269
:106730005BD0996821F07061996099680A439A600A
:106740009A68E16A22F040529A609A680A439A6015
:106750009A68A16922F002029A609A6842EA4102AC
:106760009A60226A002A48D0636A013B072B04D949
:1067700040F227612648FFF76EFB2368616A5A687A
:1067800042F400625A605A6822F460425A605A68C1
:10679000013942EA41325A602368E169DA6A22F437
:1067A0007002DA62DA6A013942EA0152DA629A6800
:1067B000216B22F400729A609A6842EA41229A6040
:1067C0009A68616922F480629A609A68002042EABD
:1067D00081229A606064236C23F0030343F0010379
:1067E0002364002384F83C3010BD9A6822F0706264
:1067F0009A609A6822F04052A9E75A6822F400622F
:10680000C9E70120EDE7012010BD00BF00200140D5
:1068100035A101080100000F0023014073B50023DA
:1068200001938369012B04460D46164604D940F2B4
:1068300005413B48FFF70FFBE36A33F0405304D0B8
:1068400040F206413648FFF706FB94F83C30012B36
:1068500064D02168012384F83C308B68D80705D5C3
:106860008B68DA0714D4002002B070BD8B682D4A03
:1068700043F001038B602C4B1B68B3FBF2F303EB7B
:1068800043030193019B002BEAD0019B013BF8E7F6
:10689000236CA06B23F4E06323F0010343F48073C3
:1068A00023644B685B0541BF236C23F4405343F4DE
:1068B00080532364236C13F480531CBF636C23F058
:1068C00006036364002384F83C30184BC363184B01
:1068D0000364184BC3646FF022030B604B6843F0F2
:1068E00080634B608B6843F480738B602A46334629
:1068F0004C3100F0E1FC104B5B6813F01F0F236874
:1069000008D1986810F04050ADD19A6842F08042AA
:106910009A60A9E7094A9342A5D1F2E70220A3E7CA
:1069200035A1010840420F00DC0500204169000844
:10693000A3690008116B00080023014000200140FA
:10694000836B1A6C12F0500F10B524D11A6C42F4FC
:1069500000721A641A68916811F0405F17D1996942
:10696000A9B9D16A11F4700F02D0916849050ED40B
:10697000516821F0200151601A6C22F480721A646F
:106980001A6CD2045EBF1A6C42F001021A641846F7
:10699000FFF7A4FB10BD9B6BBDE81040DB6C1847F4
:1069A000704708B5806BFFF7FBFF08BD7047704765
:1069B00038B58369012B044604D940F2733153483A
:1069C000FFF749FAE369013B0F2B04D94FF45D71DE
:1069D0004E48FFF740FA6369022B04D940F2753143
:1069E0004A48FFF738FA236819685A688D072BD58B
:1069F000900629D5226CD1065EBF226C42F400724B
:106A000022649A6812F0405F17D1A269AAB9DA6AC3
:106A100012F4700F02D09A6852050ED45A6822F010
:106A200020025A60236C23F480732364236CDB04FC
:106A30005EBF236C43F0010323642046FFF74EFB47
:106A400023686FF012021A60236819685A684D07AC
:106A500032D5100630D5226CD1065EBF226C42F4CE
:106A6000005222649A6812F4401F1ED19A6B12F4ED
:106A7000401F02D09A68520517D45A68550514D49D
:106A80009A6812F0405F10D1A26972B95A6822F078
:106A900080025A60236C23F480532364236CD8054E
:106AA0005EBF236C43F001032364204600F0EEF840
:106AB00023686FF00C021A60236819685A68C907C6
:106AC0000FD555060DD51B68D8070AD5236C43F49E
:106AD000803323642046FFF769FF23686FF00102CB
:106AE0001A60236819685A6889060DD552010BD5BA
:106AF000626C6FF0200542F00202626420461D6065
:106B0000FFF755FF23681D6038BD00BF35A10108A0
:106B1000806B08B540230364436C43F00403436473
:106B2000FFF745FF08BD0000F7B5002301930B6890
:106B3000122B04460F4604D940F215514E48FFF778
:106B40008AF97B68013B0F2B04D940F216514A4861
:106B5000FFF781F9BB68072B04D940F2175146486B
:106B6000FFF779F994F83C30012B00F082803D6802
:106B7000BA6820680123092D84F83C30AEB229D9C7
:106B800006EB4603C1681E3B4FF0070E0EFA03FEEC
:106B900021EA0E01C160C16802FA03F30B43C3602E
:106BA0007A68062A4FEA820324D81344476B591F98
:106BB0001F238B4027EA03034363426B06FA01F16C
:106BC000114341632D4B984233D0002084F83C00A0
:106BD00003B0F0BD016905EB45034FF0070E0EFA57
:106BE00003FE21EA0E010161016902FA03F30B437E
:106BF0000361D5E70C2A0ED81344016BA3F12302DD
:106C00001F23934021EA03030363036B06FA02F296
:106C10001A430263D6E71344C16A413B1F229A40DC
:106C200021EA0202C262C26A06FA03F11143C1629A
:106C3000C8E7122D04D1124A536843F4800353600D
:106C4000A5F11003012BC0D80D4A5368102D43F451
:106C500000035360B9D10B4B0B4A1B68B3FBF2F234
:106C60000A2353430193019B002BAED0019B013BB0
:106C7000F8E70220ACE700BF35A101080020014081
:106C800000230140DC05002040420F007047000057
:106C9000F8B50B68122B05460C4604D940F23A3180
:106CA0009A48FFF7D8F86368013B032B04D940F2F8
:106CB0003B319648FFF7CFF8A368072B04D94FF470
:106CC0004F719248FFF7C7F8E36933F4403223F479
:106CD000803114D0B2F5802F11D0B2F5002F0ED034
:106CE000B1F5402F0BD0B3F5602F08D0A3F570237A
:106CF000012B04D940F23D318448FFF7ACF82369F9
:106D0000013B032B04D940F23E318048FFF7A3F842
:106D1000A369012B04D940F23F317C48FFF79BF86F
:106D20006369012B04D94FF450717848FFF793F849
:106D30002B685B6813F0407340F09780E368B3F50D
:106D4000805F80F0A080E269714B9A4208D0236A8C
:106D500033F4401304D040F249316C48FFF77BF81C
:106D600095F83C30012B00F0CF802168A268012308
:106D7000092985F83C308EB22B6840F2908006EBF2
:106D80004600DF681E384FF0070E0EFA00FE27EAB5
:106D90000E07DF60DF6802FA00F03843D8609A6BB4
:106DA000D4F810E0676822F440129A63986B0EF1F1
:106DB000FF3240EA0250FA1CA2EB0E029863D2B2F4
:106DC000986B02EB82024FF01F0E0EFA02FE20EAD1
:106DD0000E009863986B06FA02F202439A634C48DD
:106DE000E26982426BD0986820F4702098609868BD
:106DF00002439A609A68206A22F440129A609A6864
:106E000002439A60A269002A61D05A6842F4806203
:106E10005A606269002A5ED05A6842F480525A6011
:106E2000022FE2683B485AD0032F5FD0012F64D174
:106E30005C6920405861586902435A61364A93425E
:106E40000FD1122905D1D2F8043343F48003C2F8DC
:106E500004331039012904D8304A536843F400033D
:106E60005360002085F83C00F8BDB3F1807F03D16A
:106E7000E368B3F5806F64E7B3F1007F09D1E3689D
:106E8000FF2B7FF660AF4FF451712048FEF7E3FF10
:106E900059E7B3F1407FF6D1E3683F2BF1E71F6973
:106EA00001EB41004FF0070E0EFA00FE27EA0E0735
:106EB0001F611F6902FA00F0384318616FE79A6892
:106EC00022F470229A609A6822F4401299E75A6874
:106ED00022F480629CE75A6822F480529FE79C6902
:106EE00020409861986902439A61A7E7DC692040D5
:106EF000D861D8690243DA61A0E71C6A20401862B1
:106F0000186A02431A6299E70220F8BD6DA10108D0
:106F100001000F0000F0FFFF0020014000230140AE
:106F2000C31E042B10B5044603D9A2210948FEF75D
:106F300092FF094AD36823F4E0631B041B0C43F05F
:106F4000BF63240243F4003304F4E0641C43D460C0
:106F500010BD00BFA8A1010800ED00E00F2A70B528
:106F600004460E46154603D9BA211A48FEF773FFA8
:106F70000F2E03D9BB211748FEF76DFF164BD968BA
:106F8000C1F30221C1F107030A1D042B28BF04230A
:106F90000120062A8CBF0339002100FA03F2013ACE
:106FA0008840324001388A400540002C42EA050200
:106FB0004FEA0212AFBF04F1604404F00F04074B24
:106FC000D2B2A5BF04F56144D2B21A5584F80023A9
:106FD00070BD00BFA8A1010800ED00E014ED00E0C5
:106FE00010B5041E03DACE210648FEF734FF62090D
:106FF000012304F01F0403FA04F4034B43F8224076
:1070000010BD00BFA8A1010800E100E010B5041EFA
:1070100004DA40F295110748FEF71DFF63090122CB
:1070200004F01F0402FA04F44033034A42F82340F8
:1070300010BD00BFA8A1010800E100E00368DAB2BA
:1070400023F47F7323F003031821103AB2FBF1F20B
:107050000449032A88BF0433895C8365C165806D58
:10706000704700BF1BA2010870B50446FEF718F870
:107070000546002C00F0178123688C4A934231D0DA
:10708000183293422ED0183293422BD018329342AA
:1070900028D01832934225D01832934222D0183289
:1070A00093421FD0183293421CD002F5567293427D
:1070B00018D01832934215D01832934212D0183299
:1070C00093420FD0183293420CD01832934209D019
:1070D0001832934206D01832934203D0C821744824
:1070E000FEF7B9FE636833F0C06306D0B3F1006FFA
:1070F00003D0C9216E48FEF7AEFEA36833F040020C
:1071000005D0802B03D0CA216948FEF7A4FEE368AE
:1071100033F4007303D0CB216548FEF79CFE23694E
:1071200033F4806303D0CC216148FEF794FE636999
:1071300033F4006206D0B3F5805F03D0CD215C4804
:10714000FEF789FEA36933F4005206D0B3F5804FF1
:1071500003D0CE215648FEF77EFEE36933F02002CD
:1071600006D0B3F5807F03D0CF215148FEF773FEE0
:10717000236A33F4403303D0D0214D48FEF76BFE31
:10718000636A33F0040303D0D1214948FEF763FE5C
:10719000636AB3B1A36A032B03D9D6214448FEF72F
:1071A0005AFEE36A33F0C07303D0D7214048FEF79C
:1071B00052FE236B33F4C00303D0D8213C48FEF7C2
:1071C0004AFE002384F834302268022384F83530E4
:1071D000136823F00103136021680B68D8073CD4BF
:1071E0000B68344D6268A0691D40A3681343E268D0
:1071F00013432269134362691343E2690343134350
:10720000226A1343626A042A43EA050301BF266B1C
:10721000E56A35432B430B604B69042A23F00703CF
:1072200043EA02030BD1A26AE56A13433DB1F8B900
:10723000012A2DD001D3022A01D1EA012BD44B61BE
:107240002046FFF7FBFEE26D3F2393408360002062
:107250000123606584F8353070BDFDF721FF401BC8
:107260000528B9D920236365032084F8350070BD53
:10727000B0F5005F13D1032AE1D801A050F822F045
:10728000977200083B72000897720008917200081C
:10729000B5F1C07FD3D1402363650120E5E7022A21
:1072A000F9D9032AC8E7012070BD00BF1060024071
:1072B000E3A101083F8010F02DE9F0411746984600
:1072C0005A1E4FF6FE739A4204460D46866D04D947
:1072D0004FF4EA712248FEF7BEFD94F83430012BDA
:1072E0003AD0012384F8343094F83530012B4FF034
:1072F00002004FF000012BD184F835006165216850
:10730000A3680868E26D402B4FF03F0303FA02F3D5
:1073100020F480200860C1F804800BBF8F608D606E
:10732000CD60CF60B3600B6843F016030B604B6910
:1073300043F080034B61236C1BB10B6843F00803DF
:107340000B600B6843F001030B600020BDE8F08187
:1073500084F83410BDE8F0810220BDE8F08100BF60
:10736000E3A1010890F83530022B03D08023436558
:10737000012070470268052380F83530136823F038
:107380000103136000207047F7B5002301935A4BA7
:10739000856D1F68C36D2E6808229A401642044608
:1073A0000CD001680868400708D5086820F0040080
:1073B0000860AA60626D42F00102626501229A4093
:1073C000164208D021684969090641BFAA60626D6A
:1073D00042F00202626504229A40164208D02168F7
:1073E0000968880741BFAA60626D42F004026265C5
:1073F00010229A40164210D02368196809070CD54C
:10740000AA601A68500335D51B68190301D4236C90
:1074100000E0A36C0BB120469847E16D20228A4022
:10742000164238D023681868C60634D5AA6094F886
:107430003520052A1A6825D122F016021A605A69E9
:1074400022F080025A61226C0AB9A26C1AB11A6841
:1074500022F008021A603F238B40AB60002384F8BF
:107460003430012384F83530236D0BB12046984722
:1074700003B0F0BD1A68D2055EBF1A6822F0080298
:107480001A60C4E7500328D51B68190332D4636C13
:107490000BB120469847636D002BE9D0636DDA0786
:1074A00019D50523226884F83530136823F00103C9
:1074B00013604FF41653B7FBF3F7019B01339F4260
:1074C000019302D31368DB07F7D4002384F8343028
:1074D000012384F83530E36CC7E71A6812F4807230
:1074E00008D1196821F010011960012384F83420B3
:1074F00084F83530E36BCBE7DC050020204BDA68FD
:10750000D00606D51F49CA6942F01002CA6110228E
:10751000DA60DA68910606D51A49CA6942F00802AB
:10752000CA612022DA60164BDA68520606D5154980
:10753000CA6942F00402CA614022DA60DA681006C1
:1075400006D51049CA6942F00202CA618022DA6097
:107550000B4BDA68D10507D50A49CA6942F0010226
:10756000CA614FF48072DA60DA68920706D505497D
:10757000CA6942F02002CA610222DA60704700BF85
:10758000003C0240BCBA002038B500F17843B3F5A6
:10759000002F04460D460BD300F1604303F508436A
:1075A000B3F5047F04D340F2C5210848FEF753FC2D
:1075B000074B1A6922F440721A611A691A611A6932
:1075C00042F001021A61257038BD00BF23A20108F4
:1075D000003C024038B500F17843B3F5002F044673
:1075E0000D460BD300F1604303F50843B3F5047F68
:1075F00004D34FF42B710948FEF72DFC084B1A6990
:1076000022F440721A611A6942F480721A611A698E
:1076100042F001021A61258038BD00BF23A2010893
:10762000003C024038B500F17843B3F5002F044622
:107630000D460BD300F1604303F50843B3F5047F17
:1076400004D340F293210948FEF705FC084B1A6960
:1076500022F440721A611A6942F400721A611A69BE
:1076600042F001021A61256038BD00BF23A2010863
:10767000003C024070B51E4600F17843B3F5002F80
:10768000044615460BD300F1604303F50843B3F5F8
:10769000047F04D340F277210948FEF7DCFB094957
:1076A000086920F440700861086940F4407008617E
:1076B000086940F0010008612560666070BD00BF88
:1076C00023A20108003C0240064B1A69002ABFBFF2
:1076D000054A5A6002F188325A60BABF1869C00F71
:1076E00000207047003C024023016745034A1369AC
:1076F00043F0004313610020704700BF003C02408C
:10770000F8B5124B124C00220546DA61FDF7C8FCB1
:1077100026460746E368DA030CD4E368DB0744BF78
:107720000123E360F06810F4F97002D0FFF7E6FE81
:107730000120F8BD691CEDD00DB90320F8BDFDF79F
:10774000AFFCC01B8542E5D2F7E700BFBCBA002002
:10775000003C02402DE9F0411E4C9846237E012B4F
:1077600007460D46164632D001230328237603D957
:10777000B4211948FEF76FFB4CF25030FFF7C0FF01
:1077800068B987B9F1B22846FFF7FEFE4CF25030D7
:10779000FFF7B6FF114A136923F0010313610023B9
:1077A0002376BDE8F081012F04D1B1B22846FFF75E
:1077B00011FFEBE7022F04D131462846FFF732FFD5
:1077C000E4E7324643462846FFF754FFDEE702204F
:1077D000BDE8F081BCBA002023A20108003C0240B1
:1077E000032838B504460D4604D94FF473710D488B
:1077F000FEF731FB012D04D040F2CD310948FEF7F0
:107800002AFB094B1A6922F440721A611A6942F084
:1078100004021A61186940F4803040EA04201861BB
:1078200038BD00BF5DA20108003C0240072838B502
:1078300005460C4604D940F2EB311748FEF70BFB26
:10784000032C21D94FF47B711348FEF704FB022C63
:107850000CBF4FF400744FF44074104B1A6922F4BB
:1078600040721A611A6914431C611A6922F0F80205
:107870001A61186940F0020040EAC50018611A69EF
:1078800042F480321A6138BD002CE6D0012CDED1E2
:107890004FF48074E1E700BF5DA20108003C0240A4
:1078A000144B1A6891050FD51A6822F400721A60F9
:1078B0001A6842F400621A601A6822F400621A60C0
:1078C0001A6842F400721A600A4B1A6852050FD502
:1078D0001A6822F480621A601A6842F480521A60B0
:1078E0001A6822F480521A601A6842F480621A60A0
:1078F000704700BF003C02402DE9F8432C4E337E18
:10790000012B0446884651D0012333760368012BAE
:1079100003D9BB212748FEF79EFA4CF25030FFF7FF
:10792000EFFE0546B0B94FF0FF33C8F800302368CA
:10793000012B14D16168207CFFF752FF4CF25030CC
:10794000FFF7DEFE1C4A136923F0040305461361AA
:10795000FFF7A6FF002333762846BDE8F883E368E7
:10796000A2681344013B072B03D9D3211148FEF72A
:1079700072FAA768DFF84090E368A26813449F4258
:10798000E6D2217C3846FFF751FF4CF25030FFF72A
:10799000B7FED9F8103023F0FA03C9F8103018B147
:1079A000C8F800700546D3E70137E5E70225D3E7BD
:1079B000BCBA00205DA20108003C02408F4B9842F7
:1079C0002DE9F74F04460D4617D003F58063984222
:1079D00013D003F5806398420FD003F5806398427B
:1079E0000BD003F58063984207D003F540639842BB
:1079F00003D0C3218248FEF72EFA2B689AB212B147
:107A00001B0C1B041BB1C4217D48FEF724FA6B68D4
:107A1000032B17D9A3F11102012A13D9794923F4B1
:107A200000128A420ED001F580118B420AD0A1F5D6
:107A300070218A4206D0744A934203D0C52170480F
:107A4000FEF709FAAB68022B03D9C6216C48FEF792
:107A500002FADFF8BC81002601232A6803FA06F740
:107A600007EA02094F4540F0BB806A6822F0100225
:107A7000022A1BD129690F2904D849F2F772CA409A
:107A8000D20703D4D7215E48FEF7E5F9F10804EBED
:107A9000810106F0070290000B6A0F22824023EA60
:107AA000020E2A69824042EA0E020A626A6820686F
:107AB0004FEA460B4FF0030A0AFA0BFA02F00301F1
:107AC0006FEA0A0A22F0100200EA0A0001FA0BF13A
:107AD000013A0143012A216017D8EA68032A03D931
:107AE000EA214748FEF7B7F9A168EA686B680AEA35
:107AF000010102FA0BF20A43A2606268C3F30013A9
:107B000022EA0702B34013436360E36868680AEA45
:107B1000030AAB6803FA0BF343EA0A03E360C3000A
:107B20005ED53A4A00230193516C41F4804151647F
:107B3000526C26F0030101F1804102F4804201F50C
:107B40009C31019206F0030E019AD1F808C04FEA69
:107B50008E0E0F2202FA0EF22CEA020C274A9442F1
:107B600013D003F1804303F501339C423FD003F56A
:107B700080639C423DD003F580639C423BD003F57B
:107B800080639C4214BF0723042303FA0EF343EAE5
:107B90000C038B60D8F800206FEA0901C70354BFBB
:107BA0000A4049EA0202C8F80020D8F804208303FA
:107BB00054BF0A4049EA0202C8F80420D8F8082055
:107BC000C70254BF0A4049EA0202C8F80820D8F8A0
:107BD0000C30820254BF0B4049EA0303C8F80C3052
:107BE0000136102E7FF438AF03B0BDE8F08F0123CB
:107BF000CBE70223C9E70323C7E700BF0000024029
:107C00009AA2010800001110000022100038024062
:107C1000003C014038B505460C4621B94FF4C77108
:107C20000448FEF718F92B691C4214BF01200020FC
:107C300038BD00BF9AA2010870B5054616460C462D
:107C400021B940F2AF110848FEF705F9012E06D917
:107C50004FF4D8710448FEF7FEF8AC6170BD002EF9
:107C6000FBD12404F9E700BF9AA2010808B5044B30
:107C70005969014202D05861FEF732FA08BD00BFCF
:107C8000003C0140F0B505468BB000286DD003687C
:107C9000B3F1A04F03D094213548FEF7DCF803235D
:107CA0002C4685F8B933284606F0C4F954F8100B71
:107CB00003F05AF80FCC6E460FC60FCC0FC694E8EF
:107CC000030086E803002F1D97E80E00286803F0E4
:107CD0000BF80021286803F04DF800212B462A46B6
:107CE00005F110040126084682F83810D1870131C9
:107CF0000F2982F8396082F83B0010645064D06428
:107D000002F11C02F0D10022D5F800E0114602F188
:107D1000400083F8F821DA870EEB800001320F2A49
:107D200083F8F91183F8FB11C3F80012C3F80412A9
:107D3000C3F80C12416003F11C03E8D10FCC6E466E
:107D40000FC60FCC0FC694E8030086E80300704608
:107D500097E80E0003F026F8012385F8B933286868
:107D600003F043FB00200BB0F0BD0120FBE700BF98
:107D7000D3A2010890F8B833012B10B504460CD0FB
:107D8000012380F8B833006803F023FB206802F079
:107D9000E5FF002084F8B80310BD022010BD0000EC
:107DA0002DE9F04FD0F8009087B00446484603F024
:107DB00056FB0290002840F02E81206803F021FB42
:107DC000002800F02881206803F01BFB850748BFCE
:107DD0002268206842BF536903F00203536103F035
:107DE00010FB10F400250AD0206803F00EFB09F503
:107DF00030660746A2460025002F40F00F8120681C
:107E000003F0FFFA41030BD5206803F006FB26467A
:107E1000039009F510680025039B002B40F03F817B
:107E2000206803F0EEFA00280DDAD9F8043823F0C0
:107E30000103C9F80438204606F07CF9226853692A
:107E400003F000435361206803F0DBFA06050BD50D
:107E5000D9F80838D80702D5204606F053F9226829
:107E6000536903F400635361206803F0CAFAC10444
:107E700037D509F500667368206823F00103736045
:107E8000102103F02BF8616809F51063FF220298B6
:107E9000884240F092814FF0FF33B361F36943F0C1
:107EA0000113F361236B002B00F08F81D6F884302F
:107EB00043F00B03C6F88430736C43F00B03736418
:107EC000D9F80038217C206823F4FE63C9F8003813
:107ED00004F56F7203F0E2FA2268536903F48053E9
:107EE0005361206803F08DFA82041DD5206803F0E9
:107EF000BAFA2068C36823F47053C36003F017F81C
:107F0000002840F06B812268E0604FF400736361E9
:107F1000D36843F41053D360204606F0E2F8226899
:107F2000536903F400535361206803F06AFAC306EF
:107F30002BD52268936923F010039361D9F8206050
:107F4000C6F34343022B06F00F0840F0A88147F622
:107F5000F0731E4214D01C2707FB0847C6F30A160D
:107F60003246D7F80412484603F0DDF9D7F8043258
:107F70003344C7F80432D7F810321E44C7F81062F1
:107F80002268936943F010039361206803F039FA83
:107F9000070707D5204606F0A0F82268536903F0CA
:107FA00008035361206803F02CFAC60208D5E9B231
:107FB000204606F0C7F82268536903F48013536122
:107FC000206803F01EFA800208D5E9B2204606F0C8
:107FD000B5F82268536903F400135361206803F075
:107FE00010FA410007D5204606F0B0F82268536920
:107FF00003F080435361206803F003FA42070AD577
:1080000023685D686B0702D5204606F0A3F8236855
:108010005A6815435D6007B0BDE8F08FF80738D5A2
:108020005FFA85FB5946206803F0FFF910F0010F55
:10803000804621D0216901239942B3600CD1316976
:10804000DAF80002C1F31201411ACAF81012DAF884
:1080500004120844CAF804025946204606F02CF8D7
:108060002169012908D13DB9D4F80C2222B904F5BF
:108070006F72206803F012FA18F0080F04D020463F
:1080800006F014F80823B36018F0100F1CBF10237B
:10809000B36001357F0820360AF11C0AACE6039B69
:1080A000DA0758D55FFA85FB5946206803F0C7F90F
:1080B000C307074620D5D9F834380121A94023EA5F
:1080C0000103C9F834380123C8F808302369012BAB
:1080D00001BF736C326C9B1873645946204605F0DF
:1080E000F4FF2169012907D135B9E36C23B904F5FF
:1080F0006F72206803F0D2F9380744BF0823C8F82C
:108100000830F90644BF1023C8F808307A0644BF87
:108110004023C8F80830BB0744BF0223C8F8083022
:108120003F0618D523680493F76C336DFF1A336C40
:108130009F4228BF1F46049B03F5106307F1030A03
:1081400003EB45134FEA9A0A0593059B9B699BB283
:10815000534508D82FB3039B5B08013503931C36A6
:1081600008F1200858E6326DF36C9342F2D9002BE7
:10817000F0D0376C04989B1A9F4228BF1F46237C7F
:1081800000935A46BBB2716C03F0B9F8736C3B4470
:108190007364336D07F1030A3B444FEA9A0A33656F
:1081A000D3E7049B012203F5006BD3F83438AA40CF
:1081B00023EA0203CBF83430CDE702989A6001300D
:1081C000C3F808220290203361E6736943F00B0381
:1081D0007361336943F00B03336171E60323E3609A
:1081E0004023636100F0E2FC344B354A0344934280
:1081F000236804D8DA6842F47052DA608CE6314AB7
:10820000314902448A4203D8DA6842F46052F4E702
:10821000A0F574022D49A2F510528A4203D8DA68FB
:1082200042F45052E9E7A0F183722949A2F5E742EE
:108230008A4203D8DA6842F44052DEE7254A2649EA
:1082400002448A4203D8DA6842F43052D5E7234A1E
:10825000234902448A4203D8DA6842F42052CCE728
:10826000204A214902448A4203D8DA6842F4105273
:10827000C3E7A0F1B7721D49A2F558528A4203D84C
:10828000DA6842F40052B8E7194A1A4902448A42AD
:10829000DA6894BF42F4E05242F4C052ADE7062BD4
:1082A0007FF46EAE082204F56F7148461C2703F078
:1082B0003AF807FB0847C6F30A165CE6405327FF67
:1082C000FF340C00401E1BFF3F420F007F4F120087
:1082D0001FD6130060B6E5FE5FE3160000D3CEFEA6
:1082E0003F771B00C05BB3FEBF9121001F753800B4
:1082F000E05459FEDF9C410090F8B833012B10B5D3
:10830000044609D0012380F8B833006803F051F81F
:10831000002084F8B80310BD022010BD70B54EB225
:10832000002E04464FF01C0501F07F00B5BF05FB91
:10833000004105FB0141383101F5FC71C0B2002E4E
:10834000B8BFC880022BCB704FEAD67504BF00239C
:108350000B7108704D7094F8B8338A60012B09D006
:10836000012384F8B833206802F0FCFD002084F873
:10837000B80370BD022070BD4BB2002B10B54FF09A
:108380001C02044601F07F00B5BF02FB004102FB66
:108390000141383101F5FC71DB0F08704B7094F826
:1083A000B833012B09D0012384F8B833206802F0D8
:1083B00018FE002084F8B80310BD022010BD38B5A7
:1083C00001F07F051C2404FB050104FB050401F5F5
:1083D000FC71C4F80C320023C4F80422C4F8103233
:1083E00084F8F93184F8F85103690068012B08BF5B
:1083F000C4F80822DAB21DB902F014FF002038BD1B
:1084000002F04AFEFAE71C2301F00F0103FB010111
:10841000B1F81002704738B501F07F051C2404FB49
:10842000050104FB05043831E364002323650123BF
:10843000626484F8393084F8385003690068012B8D
:1084400008BFA264DAB21DB902F0ECFE002038BD0C
:1084500002F022FEFAE738B54BB2002B01F07F059F
:108460004FF01C02B5BF02FB050102FB01013831D0
:1084700001F5FC710122DB0FEDB28A700D704B70BB
:1084800090F8B833934204460FD080F8B8230068C0
:1084900002F057FF2DB904F56F72217C206802F0BD
:1084A000FDFF002084F8B80338BD022038BD38B580
:1084B0004BB2002B05464FF01C0201F07F00B5BF08
:1084C00002FB005102FB0151383101F5FC71DB0F59
:1084D00000248C7008704B7095F8B833012B09D0CC
:1084E000012385F8B833286802F04AFF85F8B843BD
:1084F000204638BD022038BD006870B5436A21B9F6
:1085000043EA02438362002070BD846A002503EBC6
:1085100014434E1EECB2B44205F1010506DB3F31B7
:1085200000EB810043EA02434360ECE7403400EB98
:108530008404646803EB1443ECE703680020596289
:1085400070470000012810B50C4604D94FF4C071E3
:108550000B48FDF780FC631E012B04D940F281110A
:108560000748FDF778FC074A1369012C23F0040340
:10857000136101D130BF10BD40BF20BF20BF10BD6F
:108580000BA3010800ED00E02DE9F341044618B902
:10859000012002B0BDE8F08103680F2B03D9F82158
:1085A000A248FDF758FC2368D80718D42368990718
:1085B0006BD42368190700F1BE8023685A0700F1C5
:1085C000E480A369022B04D940F2DF119748FDF73C
:1085D00042FCA269002A40F051810020D9E763687B
:1085E00033F4803206D0B3F5A02F03D0FD218F489D
:1085F000FDF731FC8E4B9A6802F00C02042A07D07A
:108600009A6802F00C02082A0AD15B685A0207D560
:10861000874B1B689B03C9D56368002BC6D1B7E79E
:108620006368834DB3F5803F11D12B6843F48033E9
:108630002B60FCF735FD7E4D06462B689F03B5D4B5
:10864000FCF72EFD801B6428F7D90320A1E7B3F5C2
:10865000A02F04D12B6843F480232B60E5E72A6820
:1086600022F480322A602A6822F480222A60002BB9
:10867000DFD1FCF715FD06462B68980396D5FCF76D
:108680000FFD801B6428F7D9DFE7E368012B04D9CD
:1086900040F22F116548FDF7DEFB23691F2B04D93B
:1086A0004FF498716148FDF7D6FB614B9A6812F060
:1086B0000C0F07D09A6802F00C02082A12D15B68EE
:1086C00059020FD45A4B1A68920703D5E268012A5F
:1086D0007FF45EAF1A68216922F0F80242EAC10213
:1086E0001A6066E7E268534BB2B101221A60FCF7E8
:1086F000D7FC4F4D06462B689F0707D52B6822698C
:1087000023F0F80343EAC2032B6052E7FCF7C8FCEE
:10871000801B0228EFD998E71A60FCF7C1FC444D92
:1087200006462B6898077FF544AFFCF7B9FC801B21
:108730000228F6D989E76369012B04D94FF4B8718F
:108740003A48FDF788FB62693B4B7AB101221A6017
:10875000FCF7A6FC364D06466B6F9B073FF52DAF29
:10876000FCF79EFC801B0228F6D96EE71A60FCF726
:1087700097FC2F4D06466B6F9F077FF51EAFFCF7EA
:108780008FFC801B0228F6D95FE7A368012B06D96E
:10879000052B04D04FF4CE712448FDF75CFB244B2D
:1087A0001A6C12F0805228D101921A6C42F0805259
:1087B0001A641B6C03F080530193019B01261F4D2B
:1087C0002B68D8051BD5A368194D012B27D12B6F1A
:1087D00043F001032B67FCF763FC154D074641F29C
:1087E00088382B6F9A0743D5002E3FF4EAAE104A23
:1087F000136C23F080531364E3E60026DFE72B6855
:1088000043F480732B60FCF74BFC07462B68D905BB
:10881000D9D4FCF745FCC01B0228F7D915E7052B76
:108820000ED12B6F43F004032B67D0E743A301085D
:108830000038024000004742800E4742007000406E
:108840002A6F22F001022A672A6F22F004022A67A7
:10885000002BC0D1FCF724FC41F2883807462B6F6F
:108860009B07C1D5FCF71CFCC01B4045F7D9ECE6C3
:10887000FCF716FCC01B4045B3D9E6E63B4EB36897
:1088800003F00C03082B3FF483AE022A384D5ED16F
:10889000E36933F4800304D04FF4F4713548FDF7F5
:1088A000DAFA236A3F2B04D940F2E9113148FDF787
:1088B000D2FA636A323BB3F5BF7F04D94FF4F57146
:1088C0002C48FDF7C8FAA26A082A04D84FF4AA7304
:1088D000D340D80704D440F2EB112648FDF7BBFA89
:1088E000E36A023B0D2B04D94FF4F6712148FDF7E2
:1088F000B2FA00232B60FCF7D3FB1C4E074633680B
:1089000099011ED4226AE3691343626A43EA82131F
:10891000E26A43EA0263A26A144C5208013A43EA4B
:108920000243736001232B60FCF7BAFB0546236802
:108930009A013FF552AEFCF7B3FB401B0228F6D973
:1089400083E6FCF7ADFBC01B0228D8D97DE60023E7
:108950002B60FCF7A5FB044633689B017FF53DAE19
:10896000FCF79EFB001B0228F6D96EE60038024099
:108970006000474243A30108104908B58B6803F023
:108980000C03082B18D14A684B6849680C4813F44B
:108990008003C1F3881118BF002302F03F02A1FB3E
:1089A0000001FCF785F9054B5B68C3F30143013314
:1089B0005B00B0FBF3F008BD014808BD0038024081
:1089C0000024F4002DE9F0410D46044610B90120C1
:1089D000BDE8F0810368013B0E2B04D94FF41471FC
:1089E0006D48FDF738FA072D04D940F251216A4845
:1089F000FDF731FA694B1A6802F00F0295423DD833
:108A00002268960742D42368D9076CD4634B1A684E
:108A100002F00F029542C0F09C8023685A0700F1D3
:108A2000A18023681B0718D5236933F480520CD02A
:108A300023F40062B2F5A05F07D0B3F5C05F04D0A5
:108A40004FF430715448FDF706FA554A216993688E
:108A500023F4604343EAC1039360FFF78DFF504B5B
:108A6000504A9B68C3F30313D35CD8404E4B186045
:108A70000020FDF793FA0020BDE8F081EAB21A70F9
:108A80001B6803F00F039D42A1D1B9E7444B12F0DC
:108A9000040F1EBF996841F4E0519960100742BF6E
:108AA0009A6842F460429A60A36833F0800212D060
:108AB00023F02002902A0ED023F04002A02A0AD0F0
:108AC00023F01002C02A06D0F02B04D04FF41D7101
:108AD0003148FDF7C0F9324AA168936823F0F003EA
:108AE0000B4393608FE76368032B04D940F27B212B
:108AF0002948FDF7B0F96268294B012A1FD11B688C
:108B000013F4003F3FF463AF254EB36823F0030333
:108B10001343B360FCF7C4FA41F288380746B368E0
:108B2000626803F00C03B3EB820F3FF46FAFFCF706
:108B3000B7FAC01B4045F2D90320BDE8F081911E71
:108B400001291B6802D813F0007FDBE713F0020F46
:108B5000D8E7EAB21A701B6803F00F039D427FF456
:108B600036AF5AE7E36833F480520CD023F4006246
:108B7000B2F5A05F07D0B3F5C05F04D040F2B921D1
:108B80000548FDF768F9064AE168936823F4E05365
:108B90000B43936045E700BF43A30108003C02403C
:108BA000003802401DA10108DC050020014B1868B7
:108BB000704700BFDC050020044B054A9B68C3F3E7
:108BC0008223D35C034A1068D840704700380240C3
:108BD0002DA10108DC050020044B054A9B68C3F366
:108BE0004233D35C034A1068D840704700380240D3
:108BF0002DA10108DC0500200F2303600B4B9A68B0
:108C000002F0030242609A6802F0F00282609A6801
:108C100002F4E052C2609B68DB0803F4E053036196
:108C2000034B1B6803F00F030B60704700380240D2
:108C3000003C02400368013B0E2BF7B5044604D903
:108C400040F6DD116D48FDF706F9236813F0050FB6
:108C50000BD123689A0743D4206810F008001FBF87
:108C6000674B227C1A60002038E0A368023B052B8A
:108C700004D940F6E4116148FDF7EDF86368323B32
:108C8000B3F5BF7F04D940F6E5115C48FDF7E3F882
:108C90005C4D5D4E00232B60FCF702FA07463368FB
:108CA0001B0115D4A36862681B0743EA8213C6F848
:108CB000843001232B60FCF7F3F9534D06462B68F3
:108CC0001801C6D4FCF7ECF9801B0228F7D904E0A0
:108CD000FCF7E6F9C01B0228E1D9032003B0F0BD80
:108CE000E368B3F5807F2ED0B3F5007F2BD0474AE1
:108CF00023F4A020904223F4803124D023F41020C8
:108D000002F5003290421ED0414823F440328242A4
:108D100019D023F4881300F5C020834213D03D4BB3
:108D20009A4210D003F580239A420CD003F5802399
:108D30009A4208D003F58023994204D040F61621C8
:108D40002E48FDF788F8002301932F4B324D1A6C03
:108D500042F080521A641B6C03F080530193019B14
:108D60002B6843F480732B60FCF79AF906462B6856
:108D7000D9051AD5244D2B6F13F440731BD1E3682A
:108D800003F44072B2F5407F1F4A33D1916823F05B
:108D9000704021F4F81120F4407001439160116F8C
:108DA000C3F30B030B43136756E7FCF779F9801BFA
:108DB0000228DCD991E7E26802F440729342DED0E7
:108DC0002B6F164A0121116023F4407300211160BA
:108DD0002B672B6FDA07D2D5FCF762F941F288379F
:108DE00006462B6F9B07CAD4FCF75AF9801BB84282
:108DF000F7D972E7916821F4F811CFE77BA3010856
:108E0000E011474268004742003802400003020078
:108E1000000308000003100000700040400E4742AD
:108E2000026838B5D36823F0A003D3600446FCF78A
:108E300037F905462368DB689B0601D5002038BD5D
:108E4000FCF72EF9401BB0F57A7FF3D9032038BD2B
:108E500038B50368DA685206044601D5002038BDEB
:108E60004FF0FF32DA60FCF71BF905462368DB6838
:108E70005B06F3D4FCF714F9401BB0F57A7FF5D903
:108E8000032038BD38B50446002847D0436833F086
:108E9000400303D0D2213B48FCF7DDFFA3687F2BC2
:108EA00003D9D3213748FCF7D6FFE368B3F5004F69
:108EB00003D3D4213348FCF7CEFF236933F4C00336
:108EC00003D0D5212F48FCF7C6FF636933F4801324
:108ED00003D0D6212B48FCF7BEFFA36933F48023CF
:108EE00003D0D7212748FCF7B6FF637F03F0FF02CA
:108EF0001BB922772046FCF7C9FF0223637723685A
:108F0000CA225A6253225A622046FFF7A1FF236801
:108F1000054628B1FF225A620423637701252EE01B
:108F20009A68206922F4E00222F040029A606268A6
:108F300099680243606902430A439A60E2681A61D1
:108F40001A69A16842EA01421A61DA6822F08002D5
:108F5000DA609B689B0605D42046FFF761FF08B1E5
:108F60002368D7E72368A1691A6C22F480221A6467
:108F70001A6C0A431A64FF225A6201236377284657
:108F800038BD00BFB6A301080023092803D840EA72
:108F90000310C0B270470A380133C0B2F5E70309C5
:108FA00003EB830300F00F0000EB4300C0B27047F7
:108FB000012AF8B506460C46154604D94FF4E0716F
:108FC0006D48FCF748FFE368B3F5003F07D033F482
:108FD000803304D040F2C1116748FCF73CFF23699D
:108FE00033F4802304D04FF4E1716348FCF733FF7E
:108FF000337F012B4FF002074FD0012333773368C3
:10900000777720789B68002D4FD15A0647D50138D5
:109010000B2804D940F2CD115748FCF71CFFE37828
:1090200013F0BF0F04D04FF4E7715348FCF713FF60
:1090300063783B2B04D940F2D5114F48FCF70BFF66
:10904000A3783B2B04D94FF4EB714B48FCF703FF9B
:109050002078FFF799FF02466078FFF795FF0546F5
:10906000A078FFF791FFE37840EA034040EA02402E
:1090700040EA05253368CA225A6253225A623046B2
:10908000FFF7E6FE3368074600284BD0FF225A62FE
:10909000042373770023337701273846F8BD172858
:1090A000E570C5D940F2D311BFE713F0400331D0CA
:1090B000FFF775FF01380B2804D94FF4F1712E48E2
:1090C000FCF7C9FEE37813F0BF0F04D040F2E311C0
:1090D0002948FCF7C0FE6078FFF761FF3B2804D900
:1090E0004FF4F5712448FCF7B6FEA078FFF757FF60
:1090F0003B2804D940F2EB111F48FCF7ACFE607826
:109100002578000240EA0540A5782843E57840EA42
:109110000545AFE7E370FFF742FF1728DBD94FF4AF
:10912000F471D5E705F07F3525F0FE451D609A689E
:10913000E16822F480229A609A680A4321690A430E
:109140009A60DA6822F08002DA609B689B060AD493
:109150003046FFF765FE30B13368FF225A620423C0
:109160007377377798E73368FF225A620123737762
:109170000023337791E700BFB6A30108012AF8B5B1
:1091800005460C46174604D94FF411711448FCF7F4
:1091900062FE2B689A6A19691D68626005F07F3368
:1091A00023F0FE43C1F30E011E0C06F03F00A16048
:1091B00005F07F05C3F3062106F0400620706170BC
:1091C000A570E67057B9FFF7EAFE20700846FFF772
:1091D000E6FE60702846FFF7E2FEA0700020F8BDB2
:1091E000B6A30108012A70B505460E46144604D9F7
:1091F00040F271214E48FCF72EFE2B7F012B4FF0E1
:10920000020300F0938001222A776B7734B97378D8
:10921000DA0642BF23F010030A3373703378013B40
:10922000062B04D940F27D214148FCF714FEF0786A
:10923000002C3ED1632804D940F281213C48FCF740
:109240000AFE7378013B0B2B04D940F28221384887
:10925000FCF701FEB378013B1E2B04D940F28321B9
:109260003348FCF7F8FDF078FFF78EFE0246707881
:10927000FFF78AFE0446B078FFF786FE337840EAAF
:10928000433040EA024040EA04242B68CA225A6272
:1092900053225A622846FFF7DBFD2B68064630B39F
:1092A000FF225A6204236B7700232B770126304676
:1092B00070BDFFF774FE632804D94FF423711C4876
:1092C000FCF7C9FD40F28D211948FCF7C4FD184890
:1092D00040F28E21FCF7BFFD7078F478000240EA7E
:1092E0000440B4782043347840EA4434CDE724F095
:1092F0007F4424F0C0045C60DA6822F08002DA6007
:109300009B689B060AD42846FFF78AFD30B12B687C
:10931000FF225A6204236B772E77C7E72B68FF2260
:109320005A6201236B7700232B77C0E71E46BEE706
:10933000B6A30108012A70B505460C46164604D9A5
:1093400040F2DF211048FCF786FD2B68596821F0B8
:109350007F4323F0C003180CC3F3042501F03F0141
:10936000C3F34233E0706570A170237056B9FFF704
:1093700016FEE0702846FFF712FE60700846FFF701
:109380000EFEA070002070BDB6A301082DE9F041CB
:10939000069E0446884617461D462268936838EAAA
:1093A00003030CBF012300239F4202D10020BDE82C
:1093B000F0816B1CF2D055BB23685A6822F0E002A2
:1093C0005A606268B2F5827F0AD1A268B2F5004F96
:1093D00002D0B2F5806F03D11A6822F040021A6001
:1093E000A26AB2F5005F09D11A6822F40052120491
:1093F000120C1A601A6842F400521A60012384F8B1
:109400005130002384F850300320BDE8F081FBF791
:1094100047FE801B8542C0D8CEE713B50B460092AD
:10942000802100220446FFF7B1FF20B1636D43F0B5
:1094300020036365032002B010BD000010B5044690
:10944000002800F0A8800368544A934210D0A2F587
:10945000784293420CD002F58062934208D002F524
:109460007842934204D04FF487714D48FCF7F3FCE7
:1094700063683BB1B3F5827F04D040F20F114848D6
:10948000FCF7E9FCA36833F4806207D0B3F5004F22
:1094900004D04FF488714248FCF7DDFCE36833F4F4
:1094A000006304D040F211113D48FCF7D4FCA369DD
:1094B00033F4007207D0B3F5802F04D04FF48971D4
:1094C0003748FCF7C8FCE36933F0180306D0202BBB
:1094D00004D040F213113248FCF7BDFC236A33F08C
:1094E000800304D04FF48A712D48FCF7B4FC636A02
:1094F00033F0100304D040F215112948FCF7ABFCFF
:10950000636A83B9236933F0020304D04FF48C718A
:109510002348FCF7A0FC6369012B04D940F2191120
:109520001F48FCF798FC0023A36294F8513003F025
:10953000FF0223B984F850202046FCF7D5FC2168AF
:10954000A068A269022384F851300B6823F040031D
:109550000B6063680343E068034320690343606969
:109560000343E0690343206A0343A06A034302F410
:10957000007003430B60120C636A02F004021A438A
:109580004A60CB6923F40063CB610020012360654E
:1095900084F8513010BD012010BD00BF00300140E3
:1095A000EEA301082DE9FF411E46836833F4004312
:1095B00004460D46904604D040F2C5115248FCF7CF
:1095C0004AFC94F85030012B00F09C80012384F871
:1095D0005030FBF765FD074694F85100C0B20128F2
:1095E00040F08E80002D4ED0B8F1000F4BD00323F9
:1095F00084F8513000236365A363A4F83680A38701
:10960000E38763642364A3682563B3F5004F23688D
:10961000A4F8348002BF1A6842F480421A601A68C3
:1096200052065EBF1A6842F040021A60E268B2F564
:10963000006F626838D11AB1E28E92B2012A06D167
:1096400035F8022BDA60E38E013B9BB2E386E38EB2
:109650009BB293B900973346012202212046FFF7BF
:1096600095FE78B93A4631462046FFF7D6FE0028E7
:1096700038D020236365012005E023689A689007AD
:10968000DED44EB90320012384F85130002384F83E
:10969000503004B0BDE8F081711CD8D0FBF700FD5C
:1096A000C01B8642D3D8EDE71AB1E28E92B2012AEE
:1096B00006D115F8012B1A73E38E013B9BB2E386AA
:1096C000E38E9BB2002BC5D023689A689207F0D432
:1096D000002ED7D0731CF3D0FBF7E2FCC01B8642F0
:1096E000EED8CFE7A36833B903932368DA6803920F
:1096F0009B680393039B606D003018BF0120C2E795
:109700000220C0E70220C4E7EEA301082DE9F043E0
:10971000994685B083680C9F04460D46164623B1D2
:1097200040F23A317B48FCF796FB94F85030012B1D
:1097300000F0ED80012384F85030FBF7B1FC94F881
:1097400051306168DBB2012B80460AD0B1F5827FCF
:1097500040F0DB80A268002A40F0D780042B40F064
:10976000D480002D4ED0002E4CD0B9F1000F49D03E
:1097700094F85130A663012B04BF052384F85130BF
:1097800000236365236463642368A4F83E90A4F80F
:1097900036901A68A4F83C90500658BF1A682563A2
:1097A00058BF42F04002A4F8349058BF1A60E268F3
:1097B000B2F5006F5DD119B1E28E92B2012A06D1E5
:1097C00035F8022BDA60E38E013B9BB2E3864FF063
:1097D0000109E38E9BB2BBB9E38F9BB2A3B9CDF86D
:1097E00000803B46012202212046FFF7CFFD0028E2
:1097F00035D1424639462046FFF70FFE002879D082
:109800002023636501202BE0B9F1000F0FD0E38E18
:109810009BB263B123689A68910708D535F8022B8B
:10982000DA60E38E013B9BB2E3864FF00009E38FE1
:109830009BB263B123689A68D20708D5DB6826F823
:10984000023BE38F013B9BB2E3874FF00109781C99
:10985000BFD0FBF725FCA0EB08008742B9D8032056
:10986000012384F85130002384F8503005B0BDE85E
:10987000F08319B1E28E92B2012A06D115F8012BBC
:109880001A73E38E013B9BB2E3864FF00109E38E2E
:109890009BB21BB9E38F9BB2002BA0D0B9F1000F94
:1098A0000FD0E38E9BB263B123689A68910708D505
:1098B0002A781A73E38E013B9BB2E38601354FF0A1
:1098C0000009E38F9BB263B123689A68D20708D579
:1098D000DB683370E38F013B9BB2E38701364FF0C7
:1098E00001097B1CD3D0FBF7DBFBA0EB0800874210
:1098F000CDD8B4E7A368002BB2D123680390DA680F
:1099000003929B680393039BAAE70220A8E7022027
:10991000ACE700BFEEA301082DE9F3411E46436802
:10992000B3F5827F04460D4690460CD1836853B947
:10993000042380F85130134600960A46FFF7E6FEEE
:1099400002B0BDE8F08194F85030012B00F0818026
:10995000012384F85030FBF7A3FB074694F851002D
:10996000C0B2012873D1002D58D0B8F1000F55D0E6
:10997000042384F85130002363652363A4F83E80F8
:10998000A386E38623646364A368A563B3F5004FED
:109990002368A4F83C8002BF1A6822F480421A604F
:1099A0001A6852065EBF1A6842F040021A60E36805
:1099B000CBB1E38F9BB2D3B123689A68D2073CD571
:1099C000DB6825F8023BE38F013B9BB2E387F0E7BE
:1099D00023689A68D0071FD51B7B05F8013BE38FEE
:1099E000013B9BB2E387E38F9BB2002BF0D163680E
:1099F000B3F5827F0BD1A368B3F5004F02D0B3F566
:109A0000806F04D12268136823F040031360606DF7
:109A1000003018BF012001E03EB90320012384F883
:109A20005130002384F850308AE7711CDBD0FBF7FB
:109A300037FBC01B8642D6D8EFE7002EEDD0731C53
:109A4000B7D0FBF72DFBC01B8642B2D8E5E702205A
:109A5000E4E7022074E700000368184A934210B557
:109A600004461FD0B3F1804F1CD0A2F57C42934234
:109A700018D002F58062934214D002F580629342BE
:109A800010D002F59A3293420CD002F580629342D4
:109A900008D002F58062934204D04FF4B1710848B7
:109AA000FCF7D9F92368DA6842F00102DA601A6833
:109AB00042F001021A60002010BD00BF000001400A
:109AC00026A4010803681D4A934210B504461FD01E
:109AD000B3F1804F1CD0A2F57C42934218D002F51E
:109AE0008062934214D002F58062934210D002F556
:109AF0009A3293420CD002F58062934208D002F56C
:109B00008062934204D040F277110D48FCF7A3F92C
:109B10002368DA6822F00102DA60196A41F2111250
:109B2000114208D1196A40F24442114202BF1A6838
:109B300022F001021A60002010BD00BF00000140A9
:109B400026A4010890F83830012B70B505460C4664
:109B50004FF002002ED0012385F838300B6885F8CD
:109B60003900B3F5805F0CD0B3F5005F09D033F056
:109B7000300306D0402B04D040F67771A948FCF79B
:109B80006AF92B689A6822F47F4222F077029A6081
:109B90002268402A00F09C8134D8102A00F00B8201
:109BA00009D8002A00F0E5810123002085F839302A
:109BB00085F8380070BD202A00F01F82302AF3D1CA
:109BC000994A934217D0B3F1804F14D0A2F57C424A
:109BD000934210D002F5806293420CD002F580626D
:109BE000934208D002F59A32934204D040F6F271C3
:109BF0008C48FCF730F92A68936823F0700343F02F
:109C00003703C6E0702A00F0C6804ED8502A00F014
:109C10000D81602AC8D1844A934217D0B3F1804F96
:109C200014D0A2F57C42934210D002F58062934298
:109C30000CD002F58062934208D002F59A3293422A
:109C400004D040F6C4717748FCF705F96368B3F5B2
:109C5000004F09D033F0020206D00A2B04D040F6A0
:109C6000C7717048FCF7F7F8E3680F2B04D940F68A
:109C7000C8716C48FCF7EFF82B686668186AE468EE
:109C800020F01000186299691A6A21F4704122F0DC
:109C9000A00242EA061241EA043199611A629A6806
:109CA00022F0700242F0670210E1B2F5805F49D005
:109CB000B2F5005F7FF478AF5B4A934213D0B3F103
:109CC000804F10D0A2F57C4293420CD002F5806206
:109CD000934208D002F58062934204D040F6A4710A
:109CE0005048FCF7B8F86368B3F5004F09D033F07B
:109CF000020206D00A2B04D040F6A6714948FCF7B0
:109D0000AAF8A36833F4405304D040F6A77145483D
:109D1000FCF7A1F8E3680F2B04D940F6A87141487D
:109D2000FCF799F82A686068A36891680343E068C3
:109D300021F47F4143EA00230B439360936843F48B
:109D4000804326E0384A93421FD0B3F1804F1CD0A5
:109D5000A2F57C42934218D002F58062934214D05F
:109D600002F58062934210D002F59A3293420CD0F1
:109D700002F58062934208D002F58062934204D0DB
:109D800040F683712748FCF766F82A68936823F049
:109D90000703936008E7244A934213D0B3F1804F3E
:109DA00010D0A2F57C4293420CD002F5806293421F
:109DB00008D002F58062934204D040F68C711948B5
:109DC000FCF749F86368B3F5004F09D033F002029D
:109DD00006D00A2B04D040F68E711248FCF73BF8EF
:109DE000A36833F4405304D040F68F710D48FCF75C
:109DF00032F8E3680F2B04D94FF479610948FCF776
:109E00002AF82A686068A36891680343E06821F42F
:109E10007F4143EA00230B439360936843F0770349
:109E2000B7E700BF26A4010800000140844A93421E
:109E30001FD0B3F1804F1CD0A2F57C42934218D0C2
:109E400002F58062934214D002F58062934210D0F2
:109E500002F59A3293420CD002F58062934208D008
:109E600002F58062934204D040F6B6717548FBF764
:109E7000F2FF6368B3F5004F09D033F0020206D059
:109E80000A2B04D040F6B9716E48FBF7E4FFE36893
:109E90000F2B04D940F6BA716A48FBF7DCFF2B6838
:109EA0006168186AE6681C6A24F001041C629A69F9
:109EB00020F00A0022F0F00242EA061201439A6101
:109EC00019629A6822F0700242F057029A606BE6BB
:109ED0005B4A93421FD0B3F1804F1CD0A2F57C4265
:109EE000934218D002F58062934214D002F580624A
:109EF000934210D002F59A3293420CD002F5806260
:109F0000934208D002F58062934204D040F6D271A9
:109F10004C48FBF7A0FF6368B3F5004F09D033F05E
:109F2000020206D00A2B04D040F6D5714548FBF753
:109F300092FFE3680F2B04D940F6D6714148FBF736
:109F40008AFF2B686168186AE6681C6A24F00104BD
:109F50001C629A6920F00A0022F0F00242EA06121E
:109F600001439A6119629A6822F0700242F0470236
:109F7000ACE7334A934217D0B3F1804F14D0A2F527
:109F80007C42934210D002F5806293420CD002F5DD
:109F90008062934208D002F59A32934204D04FF483
:109FA0007E612848FBF757FF2A68936823F0700307
:109FB00043F00703EDE6224A934217D0B3F1804FF6
:109FC00014D0A2F57C42934210D002F580629342F5
:109FD0000CD002F58062934208D002F59A32934287
:109FE00004D040F6E6711748FBF735FF2A689368FE
:109FF00023F0700343F01703CBE6114A934217D0C6
:10A00000B3F1804F14D0A2F57C42934210D002F5F8
:10A01000806293420CD002F58062934208D002F530
:10A020009A32934204D040F6EC710648FBF713FFD6
:10A030002A68936823F0700343F02703A9E600BF62
:10A040000000014026A40108704770477047704720
:10A0500003681A69910710B504460ED5DA689207AD
:10A060000BD56FF002021A619B6901229B070276F1
:10A0700077D0FFF7EAFF0023237623681A69500799
:10A0800010D5DA6851070DD56FF004021A619B698B
:10A09000022213F4407F2276204668D0FFF7D5FFD6
:10A0A0000023237623681A6912070FD5DA68100790
:10A0B0000CD56FF008021A61DB6904229907227639
:10A0C00020465AD0FFF7C1FF0023237623681A6980
:10A0D000D20610D5DA68D0060DD56FF010021A61DD
:10A0E000DB69082213F4407F227620464BD0FFF72D
:10A0F000ACFF0023237623681A69D10708D5DA68F4
:10A10000D20705D56FF001021A612046FBF784FEE5
:10A1100023681A69100608D5DA68110605D56FF0AC
:10A1200080021A61204600F032F923681A6952064B
:10A1300008D5DA68500605D56FF040021A6120464E
:10A14000FFF785FF23681A69910622D5DA6892061F
:10A150001FD56FF0200220461A61BDE8104000F0C4
:10A1600015B9FFF771FF2046FFF770FF83E7FFF790
:10A170006BFF2046FFF76AFF92E7FFF765FF204677
:10A18000FFF764FFA0E7FFF75FFF2046FFF75EFFE2
:10A19000AFE710BD224A036890420ED0B0F1804F65
:10A1A0000BD0A2F57C42904207D002F5806290422B
:10A1B00003D002F58062904219D14A6823F07003FF
:10A1C0001343174A904204D1CA6823F440731343DF
:10A1D00018E0B0F1804FF7D0124A9042F4D002F567
:10A1E00080629042F0D002F580629042ECD00E4A3C
:10A1F0009042E9D002F580629042E5D002F580629B
:10A200009042E1D003608B68C3620B688362044BA9
:10A21000984204BF0B69036301234361704700BF89
:10A2200000000140000400400040014010B5044619
:10A23000002851D00368294A93421ED0B3F1804FC1
:10A240001BD0A2F57C42934217D002F58062934264
:10A2500013D002F5806293420FD002F59A329342F6
:10A260000BD002F58062934207D002F580629342E0
:10A2700003D0D7211A48FBF7EEFDA36833F0100294
:10A2800009D023F04002202A05D0402B03D0D8214A
:10A290001348FBF7E0FD236933F4807206D0B3F571
:10A2A000007F03D0D9210E48FBF7D5FD94F8393053
:10A2B00003F0FF0223B984F838202046FBF7E0FFC3
:10A2C000022384F839302068211DFFF763FF012342
:10A2D00084F83930002010BD012010BD000001407D
:10A2E00026A4010838B5274A0368934204460D4660
:10A2F00013D0B3F1804F10D0A2F57C4293420CD022
:10A3000002F58062934208D002F58062934204D045
:10A3100040F24A611C48FBF79EFD2B6833F0300386
:10A3200006D0402B04D040F24B611748FBF793FD59
:10A330006B6833F0800304D040F24C611248FBF7A5
:10A340008AFD94F83830012B4FF0020018D02368B2
:10A3500084F839005A68296822F070025A605A68F5
:10A360000A435A609A68696822F080029A609A6883
:10A370000A439A600020012384F8393084F83800B9
:10A3800038BD00BF000001405EA40108704770475F
:10A390000368DA6822F49072DA605A6922F00102E6
:10A3A0005A61202380F83A307047000042689E4B83
:10A3B0009A422DE9F047044604D940F685119B489E
:10A3C000FBF749FDE36833F4005304D040F68611EF
:10A3D0009648FBF740FD236933F4806207D0B3F55C
:10A3E000C06F04D040F687119048FBF734FD6369D5
:10A3F0004FF6F372134200D123B940F688118B480F
:10A40000FBF729FD2668E26833692069E16923F4D6
:10A41000405313433361A368F2680343606922F435
:10A420001642034322F00C020B431343F36073699B
:10A43000A26923F440731343B1F5004F73617C4B61
:10A440007CD19E4203D003F580639E4244D1FEF747
:10A45000C3FB192505FB00F360684FF06409400059
:10A46000B3FBF0F3B3FBF9F34FEA0318FEF7B4FBC9
:10A47000636868435B00B0FBF3F7FEF7ADFB63680E
:10A4800068435B00B0FBF3F3B3FBF9F309FB137311
:10A49000DB003233B3FBF9F35B0003F4F877FEF72C
:10A4A0009BFB626868435200B0FBF2FAFEF794FB34
:10A4B000636868435B00B0FBF3F3B3FBF9F309FB9C
:10A4C00013A3DB003233B3FBF9F303F00703434478
:10A4D0003B44B360BDE8F087FEF76EFB192505FB32
:10A4E00000F360684FF064094000B3FBF0F3B3FB86
:10A4F000F9F34FEA0318FEF75FFB636868435B00FC
:10A50000B0FBF3F7FEF758FB636868435B00B0FBF2
:10A51000F3F3B3FBF9F309FB1373DB003233B3FB43
:10A52000F9F35B0003F4F877FEF746FB62686843D3
:10A530005200B0FBF2FAFEF73FFBB9E79E4202D0B1
:10A540003C4B9E4240D1FEF747FB676819254FF010
:10A55000640905FB00F3BF00B3FBF7F3B3FBF9F3AA
:10A560001F01FEF739FB636868439B00B0FBF3F8FB
:10A57000FEF732FB636868439B00B0FBF3F3B3FB69
:10A58000F9F309FB13831B013233B3FBF9F303F037
:10A59000F008FEF721FB626868439200B0FBF2FA14
:10A5A000FEF71AFB636868439B00B0FBF3F3B3FB51
:10A5B000F9F309FB13A31B013233B3FBF9F303F0E7
:10A5C0000F0343EA080383E7FEF7F6FA67681925E5
:10A5D0004FF0640905FB00F3BF00B3FBF7F3B3FBD7
:10A5E000F9F31F01FEF7E8FA636868439B00B0FBCC
:10A5F000F3F8FEF7E1FA636868439B00B0FBF3F3FE
:10A60000B3FBF9F309FB13831B013233B3FBF9F3FB
:10A6100003F0F008FEF7D0FA626868439200B0FBDE
:10A62000F2FAFEF7C9FABDE7A037A00099A4010825
:10A630000010014000140140F8B504460E461746CC
:10A640001D4621680B6836EA030301D10020F8BDDE
:10A650006B1CF7D095B92368DA6822F4D072DA60FF
:10A660005A6922F001025A61202384F8393084F8B3
:10A670003A30002384F838300320F8BDFAF710FD93
:10A68000C01B8542DDD2E6E710B50446002864D041
:10A6900081690368324A002953D093420CD0A2F555
:10A6A0004C42934208D002F55042934204D04FF4FA
:10A6B00080712C48FBF7CFFBA36933F4407304D0BF
:10A6C00040F201112748FBF7C6FBA36833F480531F
:10A6D00004D040F207112348FBF7BDFBE36933F4D4
:10A6E000004304D04FF484711E48FBF7B4FB94F888
:10A6F000393003F0FF0223B984F838202046FBF7F5
:10A700005DFE2268242384F83930D36823F4005393
:10A71000D3602046FFF74AFE23681A6922F490426C
:10A720001A615A6922F02A025A61DA6842F4005228
:10A73000DA6000202023E06384F8393084F83A306E
:10A7400010BD9342C1D0084A9342BED002F5504298
:10A750009342BAD040F20511B4E7012010BD00BF0A
:10A760000010014099A40108004400402DE9F04187
:10A770001F4690F83930202B04460D4690464FD1A5
:10A7800000294AD0002A48D090F83830012B47D011
:10A79000012380F838300023C363212380F8393047
:10A7A000FAF77EFCA4F824800646A4F82680E38C01
:10A7B0009BB26BB93B46324640212046FFF73CFF37
:10A7C000B0B9202384F8393084F83800BDE8F0812E
:10A7D000E38C013B9BB2E384A368B3F5805F324610
:10A7E0003B464FF0800120460ED1FFF725FF10B108
:10A7F0000320BDE8F0812B882268C3F3080353606F
:10A80000236943B90235D2E7FFF716FF0028EFD1DD
:10A8100023682A785A600135C9E70120BDE8F08134
:10A820000220BDE8F0812DE9F0411F4690F83A3052
:10A83000202B04460D46904652D100294DD0002AC7
:10A840004BD090F83830012B4AD0012380F83830B3
:10A850000023C363222380F83A30FAF721FCA4F8DE
:10A860002C800646A4F82E80E08D80B230B92023DB
:10A8700084F83A3084F83800BDE8F081E38D013B7C
:10A880009BB2E385A368B3F5805F32463B464FF049
:10A890002001204612D1FFF7CFFE10B10320BDE802
:10A8A000F081236822695B6822B9C3F3080325F8A5
:10A8B000023BD9E7DBB225F8013BD5E7FFF7BCFE49
:10A8C0000028EBD1236821695B686A1C11B92B70E1
:10A8D0001546C9E703F07F03F9E70120BDE8F081E1
:10A8E0000220BDE8F08190F83A30202B1CD1C9B18C
:10A8F000C2B190F83830012B16D0C2858285002372
:10A900002222C36380F83A2002688162516980F88C
:10A91000383041F001015161D16841F49071D1604A
:10A9200018467047012070470220704738B504462A
:10A93000134694F83920202A2AD139B333B394F836
:10A940003820012A24D0012284F83820206BE384A7
:10A9500000252122E56384F839200E4AA384216270
:10A96000C2630D4A02640D4AC2642268056504325E
:10A97000FCF7A2FC23686FF040021A605A6984F861
:10A98000385042F080025A61284638BD012038BD57
:10A99000022038BDA1A90008CFA900084DAA0008CF
:10A9A00008B50368826B1B6813F480730AD1D384E3
:10A9B00013685A6922F080025A61DA6842F0400254
:10A9C000DA6008BD1046FBF78DFB08BD704708B57F
:10A9D000806BFFF7FBFF08BD90F83A30222B10B5D3
:10A9E00032D1836801690268B3F5805F836A1FD141
:10A9F0005268C9B9C2F3080223F8022B8362C48DDE
:10AA0000013CA4B2C4856CB90368DA6822F4907280
:10AA1000DA605A6922F001025A61202380F83A3044
:10AA2000FBF776FB002010BDD2B223F8012BE5E73F
:10AA300021B9591C526881621A70E0E75268591CAA
:10AA4000816202F07F02F7E7022010BD816B08B53A
:10AA50000B685A6991F8390021280AD1120608D5E5
:10AA60000022CA84DA6822F0C002DA60202281F86B
:10AA700039205B6991F83A20222A06D15B0604D579
:10AA80000023CB850846FFF783FCCB6B43F0100314
:10AA9000CB630846FBF74CFB08BD000003681A684F
:10AAA000D96870B5160704465D6907D196065AD570
:10AAB0008D0658D5BDE87040FFF78EBF15F0010533
:10AAC00002D111F4907F4ED0D30705D5CE0542BFF9
:10AAD000E36B43F00103E363500704D51DB1E36B5F
:10AAE00043F00203E363930704D51DB1E36B43F026
:10AAF0000403E363160704D51DB1E36B43F00803B9
:10AB0000E363E36B002B66D0950604D5880602D577
:10AB10002046FFF761FF23685D69E26B110720465D
:10AB200002D415F040051AD0FFF732FC23685A69A9
:10AB3000520610D55A69606B22F040025A6150B13A
:10AB4000254B0365FCF70EFC002844D0606BBDE884
:10AB50007040036D18472046FBF7EAFA70BDFBF71B
:10AB6000E7FAE56370BD160627D50D0625D594F8DE
:10AB70003920212A2FD1A268B2F5805F226A17D12D
:10AB80001188C1F308015960216979B90232226242
:10AB9000E28C013A92B2E284EAB9DA6822F08002E9
:10ABA000DA60DA6842F04002DA6070BD0132EEE746
:10ABB000511C216212785A60EAE750060BD54A060A
:10ABC00009D5DA6822F04002DA60202384F83930AF
:10ABD0002046FBF787FA70BDDDAB000808B5806B37
:10ABE0000023C385C384FBF7A3FA08BD70470000A8
:10ABF0000368DA6822F4F07210B5DA605A69044624
:10AC0000006B22F001025A6128B15A6912F08002E9
:10AC100018BF1F4A0265616B29B15A6912F04002E0
:10AC200018BF1C4A0A655A6912061DD401232268FE
:10AC30005169490627D55169606B21F04001516186
:10AC400008B3FCF78FFB00B3636B00221A65002387
:10AC5000E384E385E363202384F83930204684F8D5
:10AC60003A30FFF7C3FF10E05A6922F080025A61C0
:10AC70000028DBD0FCF776FB18B1236B00221A65A5
:10AC8000D4E70346D3E7002BE1D1002010BD00BF7D
:10AC9000C1AC000899AC0008806B426B08B500237A
:10ACA0001365026B0AB1126D4AB9C384C385C363CD
:10ACB000202380F8393080F83A30FFF797FF08BD3D
:10ACC000806B026B08B500231365426B0AB1126DED
:10ACD0004AB9C384C385C363202380F8393080F820
:10ACE0003A30FFF783FF08BD84B038B505AD85E87D
:10ACF0000E000A9B012B044626D1836B23F480337C
:10AD00008363C36823F4840323F04003C360C368F0
:10AD100023F44013C360119B012B02BFC36843F4AB
:10AD20008013C36000F0DEFB089B012B07D1A368F2
:10AD300043F00603A360A36843F02003A360BDE8CB
:10AD40003840002004B07047C36843F04003C3603C
:10AD500000F0C8FB4FF48033A363E5E7836843F05A
:10AD60000103836000207047836823F00103836040
:10AD70000020704708B5C368012923F0C043C360B1
:10AD800008D1C36843F00053C3603220FAF770F96A
:10AD9000002008BD0029F8D1C36843F08043C36098
:10ADA000F3E7000084B02DE9F041044607A880E8ED
:10ADB0000E00119E0A9FA36B8846A6B943F40013A8
:10ADC000A3630023C4F8003ED4F80038C4F8003868
:10ADD0000C9B012B04F500655ED1099939B9204619
:10ADE00000F09EF807E043F40023A363E9E7194667
:10ADF000204600F095F81021204600F06FF820461C
:10AE000000F07EF800234FF0FF322B6119466B6192
:10AE10004FF09040AA614FF0FF0EEB6104F5106215
:10AE200043453BD1002104F5306208464FF0904E77
:10AE30004FF0FF0C8B423ED12B69012F23F480731E
:10AE40002B6108D1234B2B632B6B43F4803343F0EE
:10AE500003032B632B6B0023A3616FF080436361BB
:10AE60001FB9A36943F01003A361A2691A4B1343EE
:10AE7000A3610D9B1BB1A36943F00803A361012EDD
:10AE800001BFA36943F0804343F00403A361BDE81D
:10AE9000F041002004B070470321A0E7D2F800C0C1
:10AEA000BCF1000FB4BF1060116001331161C2F832
:10AEB00008E02032B4E7D2F80080B8F1000FB4BF48
:10AEC000C2F800E0106001311061C2F808C0203201
:10AED000B0E700BF0001800000383C80890141F0EC
:10AEE0002001064A0161013A05D0036913F02003ED
:10AEF000F9D1184670470320704700BF410D030089
:10AF00001023064A0361013A05D0036913F01003C8
:10AF1000F9D1184670470320704700BF410D030068
:10AF2000D0F800381943C0F800180020704700F529
:10AF30000062D0F8080810F0060012D0936803F001
:10AF40000603022B0CD0936803F00603062B07D0F0
:10AF5000936803F00603042B14BF002002207047FF
:10AF60000320704730B54B780C78D0F81C5800F5AA
:10AF70000062012B1BD1A3409BB22B4300F5106054
:10AF8000D36100EB44131A6812040ED48A68C8789F
:10AF90001D68C2F30A0242F0805242F4004242EAC3
:10AFA000804040EA845028431860002030BD4FF4B0
:10AFB0008033A34000F530602B4300EB4410D36195
:10AFC00003681B04F1D48B68C9780268C3F30A03D1
:10AFD00043F0805343F4004343EA81431343036047
:10AFE000E3E700F001B8000070B54B78012B0E4686
:10AFF000054609784FF0200326D100F5106213FBB7
:10B0000001231A6822F400421A604FF000621A60AD
:10B010004FF080421A601F4A013A01D1032070BDEF
:10B020009C6814F08044F7D110212846FFF756FFA2
:10B030003178D5F81C2801238B409BB222EA030308
:10B04000C5F81C38204670BD00F5306213FB0123A3
:10B050001A6822F400421A604FF000621A604FF042
:10B0600080421A600B4A013AD8D0986810F010005C
:10B07000F9D1D5F8043843F48063C5F80438D5F81D
:10B080001C384FF480328A4023EA0203C5F81C388A
:10B0900070BD00BF410D0300F7B54B780C78012B54
:10B0A0004B6977D1202600F5106516FB04542669FC
:10B0B000002B38D126F0FF5626F4C01626612669EB
:10B0C00046F4002626612669F60CF6042661012A5C
:10B0D00050D10C780E6905EB44146661CE78012ED0
:10B0E0000FD1D0F808480F7814F4807F4FF0200477
:10B0F00014FB075427680CBF47F0005747F08057F0
:10B1000027600F7805EB4715012E2C6844F00444A6
:10B110002C6005D100929BB23A46C96800F0EFF866
:10B12000002003B0F0BDF60CF604266126698F6896
:10B1300026F0FF5626F4C0162661DE19013EB6FB46
:10B14000F7F7374ED4F810E006EAC74646EA0E068F
:10B1500026612769C3F312063E432661CE78012E8D
:10B160005AD1266926F0C0462661266946F0005667
:10B170002661ACE7CE78012EB3D0002BAED091F88B
:10B1800000E0D0F83478012404FA0EF43C43C0F80F
:10B190003448A3E700F5306505EB44142569ED0C50
:10B1A000ED042561256925F0FF5525F4C0152561BD
:10B1B0008D68FBB92369C5F312051D432561236919
:10B1C00043F400232361012A04BFCB686361CB7879
:10B1D000012B0AD1D0F8083813F4807F23680CBF04
:10B1E00043F0005343F080532360236843F004434B
:10B1F000236095E70A4E27692B44013BB3FBF5F327
:10B2000006EAC3463E4326619BB226695D43C5F309
:10B21000120535432561D6E7012AAED159E700BFB3
:10B220000000F81F4B78012B70B50B784D6943D1A6
:10B23000202400F5106614FB03631C69CDB924F0CB
:10B24000FF5424F4C0141C611C6944F400241C61E4
:10B250001C69E40CE4041C610D7806EB4513012A1B
:10B260001C6844F004441C601BD10A695A61002028
:10B2700070BDE40CE4041C611C6924F0FF5424F448
:10B28000C0141C618C68A54288BF4C611C6944F4E1
:10B2900000241C614C691D69C4F312042C431C6119
:10B2A000DAE74B69002BE2D0D0F834280123AB4019
:10B2B0001343C0F83438DAE700F5306000EB431090
:10B2C0000369DB0CDB040361036923F0FF5323F400
:10B2D000C01303618B6805B14B61046944F4002419
:10B2E00004610469C3F312032343012A036104BF09
:10B2F000CB684361036843F004430360B7E710B5CC
:10B300009DF808404CB9033300F5805023F0030347
:10B3100000EB02320B44994201D1002010BD51F8DC
:10B32000040B1060F7E7033222F003020A4400F531
:10B330008050914201D108467047036841F8043BB0
:10B34000F7E74B780A78012B4FF020030BD100F57B
:10B35000106013FB02000368002B0BDB036823F073
:10B360008043036006E000F5306013FB02000368D1
:10B37000002BF3DA036843F40013036000207047E6
:10B380004B780A78012B0CBF00F5106000F5306097
:10B39000202313FB0200036823F400130360CB781F
:10B3A000023B012B9EBF036843F0805303600020E3
:10B3B0007047D0F8003823F4FE63C0F80038D0F8A6
:10B3C0000038090101F4FE611943C0F8001800209B
:10B3D000704708B5D0F8043823F00203C0F80438E9
:10B3E0000320F9F745FE002008BD08B5D0F8043861
:10B3F00043F00203C0F804380320F9F739FE0020B7
:10B4000008BD4269806910407047D0F8183800F5CF
:10B410000060C0691840000C7047D0F8183800F57B
:10B420000060C069184080B2704700F5306303EBDC
:10B43000411100F500608A6840691040704710B5FE
:10B44000D0F81048D0F8343800EB4110CB4000F56C
:10B450001060DB018068DBB22343184010BD4069F7
:10B4600000F001007047D0F8003923F4FF6323F0A7
:10B470000703C0F8003900F500639A6802F006027D
:10B48000042A02BFD0F8002942F00302C0F80029C4
:10B490005A6842F480725A600020704710B5002448
:10B4A000C0F8104BD0F8104B44F40024C0F8104BF7
:10B4B000D0F8104B44F01804C0F8104BD0F8104BE3
:10B4C000012900F5306344F0C04408BF4FF08023E9
:10B4D000C0F8104B04BFC0F8142BC0F8003B00208C
:10B4E00010BD00000A4B013B01D1032070470269E7
:10B4F000002AF8DA0369064A43F001030361013ABE
:10B50000F3D0036913F00103F9D11846704700BF67
:10B51000410D0300D0F818321BB10020C3F814020B
:10B52000704702207047D0F81C3210B5D0F818428E
:10B530005BB194F80002FF2807D09B6894F80122C1
:10B5400021469847FF2384F80032002010BD0000F8
:10B5500043230380004870471806002043230380DC
:10B56000004870475C060020432303800048704772
:10B57000AC0600200A23038000487047A006002084
:10B5800038B50546D0F8184202F09EFED5F81832BC
:10B59000C4F80C024BB1D5F81C32D4F80402DB68B5
:10B5A00004F503719847002038BD022038BD000023
:10B5B000F8B50F7817F0600306460C4623D0202B11
:10B5C00019D1CA884B78C2B13906D0F818520BD5B8
:10B5D000D0F81C1218468F682946B847E2882946D9
:10B5E000304600F09AFB06E085F8003285F801222B
:10B5F000294600F0A7FB0020F8BDD0F81C028468A3
:10B600001846A047F7E74B780A2BF4D101220149ED
:10B61000E7E700BF5A0B002010B58121044602F075
:10B62000EBFD0121204602F0E7FD8221204602F0D9
:10B63000E3FDD4F8183253B1D4F81C325B68984754
:10B64000D4F818020AF002F80023C4F818320020D7
:10B6500010BDF8B5037C04467BBB4FF40073022297
:10B66000812102F0B9FD4FF400730222012120462E
:10B6700002F0B2FD082303228221204602F0ACFD35
:10B680004FF4077009F0DAFF0646C4F8180220B339
:10B69000D4F81C321B689847277C0025C6F8145242
:10B6A000C6F8185287B94FF40073D6F80422012166
:10B6B000204602F0FBFD3846F8BD402302228121DE
:10B6C00002F08AFD4023D0E74023D6F8042201216E
:10B6D000204602F0EBFD2846F8BD0120F8BD19B167
:10B6E000C0F81C120020704702207047D0F81832B2
:10B6F0000020C3F80812C3F810227047D0F818329F
:10B700000020C3F804127047D0F8182210B572B1A7
:10B71000D2F81442012364B9C2F814328121B2F87C
:10B720001032D2F8082202F0B3FD204610BD0220EC
:10B7300010BD184610BDD0F8182210B562B1047CB7
:10B7400044B94FF40073D2F80422012102F0AEFD97
:10B75000002010BD4023F6E7022010BD08B580B1DF
:10B76000D0F8143213B10023C0F8143209B1C0F874
:10B770001012012380F8FC31027002F0EFFC00206F
:10B7800008BD022008BD19B1C0F81412002070478E
:10B790000220704708B502F011FD002008BD08B571
:10B7A000D0F814320BB9022008BD1B689847002856
:10B7B000F9D108BD08B5D0F814325B68984700206D
:10B7C00008BD38B5044600F50275284600F075FA44
:10B7D000012394F80812C4F8F431B4F80E32C4F816
:10B7E000F83101F01F03012B0ED007D3022B10D02C
:10B7F00001F08001204602F00DFD03E029462046BD
:10B8000000F0E6F8002038BD2946204600F0DAF9BD
:10B81000F8E72946204600F0EDF9F3E738B504468D
:10B82000154611BBD0F8F431032B0FD1D0F80C31F1
:10B83000D0F8102193420BD99B1A9A4228BF1A467E
:10B84000C0F80C3192B2294600F08BFA002038BDC6
:10B85000D0F814321B6923B190F8FC21032A00D1DF
:10B860009847204600F085FAF0E7D0F814329B693B
:10B87000002BEBD090F8FC21032AE7D19847E5E7AD
:10B8800070B5134604460E4600293DD1D0F8F42188
:10B89000022A0FD1C569026A954214D9AA1AC26157
:10B8A000194692B200F046FA33461A461946204627
:10B8B00002F0FCFC94F80032012B02D1002384F842
:10B8C0000032002070BD8369B3FBF2F502FB153531
:10B8D00065B99A420AD8D0F8F821934206D22A468E
:10B8E00000F028FAC4F8F8512B46DEE7D4F81432F9
:10B8F000DB682BB194F8FC21032A01D1204698473C
:10B90000204600F041FAD5E7D0F814325B69002BED
:10B91000D7D090F8FC21032AD3D19847D1E738B586
:10B920000022044611464025402302F055FC2B46D8
:10B93000C4F8105100228021204602F04DFC012362
:10B9400084F8FC31D4F8183225622BB1D4F81432C3
:10B9500021795B6820469847002038BD017400209B
:10B96000704790F8FC3180F8FD31042380F8FC31F9
:10B970000020704790F8FD3180F8FC3100207047BE
:10B9800008B590F8FC21032A04D1D0F81432DB6901
:10B9900003B19847002008BD002070470020704781
:10B9A0000020704708B5012280F8FC21D0F814224D
:10B9B000017952689047002008BD10B580210446E7
:10B9C00002F028FC20460021BDE8104002F022BC15
:10B9D00037B54B7804460D46092B79D8DFE813F0CC
:10B9E000C900E5007800D90078006D000A007800F1
:10B9F000B9008D004B881A0A013A062A68D8DFE898
:10BA000002F0041C296767495200D0F810321B6805
:10BA1000207C0DF106019847BDF80620002A67D06A
:10BA2000EB88002B64D09A4228BF1A46ADF8062056
:10BA30000146204600F071F95AE0027CD0F8143239
:10BA400032B99B6A0DF10600984702234370E3E781
:10BA5000DB6AF7E7DBB2052B3AD8DFE803F0030730
:10BA60000B0F1317D0F810325B68D1E7D0F8103203
:10BA70009B68CDE7D0F81032DB68C9E7D0F8103208
:10BA80001B69C5E7D0F810325B69C1E7D0F8103206
:10BA90009B69BDE7037CDBB9D0F814320DF10600D9
:10BAA0005B6B9847B8E7037C93B9D0F814320DF17B
:10BAB00006001B6B98470723C8E78B8843B9CB88E0
:10BAC00033B990F8FC318D78032B05F07F0503D155
:10BAD0002046FFF772FF0BE080F8FE51294602F086
:10BAE000C9FB204600F045F92DB1022384F8FC3152
:10BAF000002003B030BD0123F8E78978304D0129DB
:10BB00002970E5D890F8FC31022B0CD0032BDFD143
:10BB1000B1B9022380F8FC314160FFF74BFE2046AB
:10BB200000F027F9E4E70029F9D00121032341605F
:10BB300080F8FC312046FFF732FE0228EFD1C7E73C
:10BB400041680129EBD0C9B2FFF734FE2978616062
:10BB5000F0E7CA88012ABBD190F8FC31022B03D050
:10BB6000032BB5D1011D64E70146002341F8083FCE
:10BB70005FE790F8FC31023B012BA9D80123C36099
:10BB8000D0F804320BB10323C360022204F10C018C
:10BB90004FE74B88012BABD1C4F80432D4F81432F0
:10BBA00029469B6820469847B9E790F8FC31023B4C
:10BBB000012B8DD84B88012B9AD10023ECE700BFD5
:10BBC0005B0B002038B590F8FC31032B04460D4682
:10BBD0000DD10B79012B0AD8D0F814329B68984705
:10BBE000EB8813B9204600F0C4F8002038BDFFF7F9
:10BBF000E4FEFAE770B50A788E8802F06002202A27
:10BC000004460D46F3B205D1D0F814329B6898472C
:10BC1000002070BD4A78012A1CD02AD3032AF7D10C
:10BC200090F8FC21022A40D0032A02D0FFF7C5FE7B
:10BC3000EEE74A8822B95E0602D0194602F0EAFA17
:10BC4000D4F8143229469B6820469847204600F0D5
:10BC500090F8DDE790F8FC21022A26D0032AE5D1EE
:10BC60004A88002AD4D15906F0D0194602F0E0FAE9
:10BC7000E6E790F8FC21022A17D0032AD6D103F078
:10BC80007F0516F0800F00EB0515194614BF14351B
:10BC900005F5827502F0DAFA68B101232B60022201
:10BCA0002946204600F039F8B2E75A06B0D01946C6
:10BCB00002F0B0FAACE72860F1E70B7803704B783C
:10BCC0004370CA788B7803EB022343804A790B795F
:10BCD00003EB02238380CA798B7903EB0223C380B1
:10BCE000704730B588B105462B1A15F8014BDBB209
:10BCF000002CF9D15B00023313800B7003234B70CF
:10BD00000138022310F8015F05B930BD5A1CD2B2C8
:10BD1000CD540233DBB28C54F4E710B51346022243
:10BD2000C0F8F42183610A46C361002102F0B0FA31
:10BD3000002010BD08B513460A46002102F0A8FAFB
:10BD4000002008BD10B513460322C0F8F421C0F846
:10BD500008310A46C0F80C31002102F0A7FA002091
:10BD600010BD08B513460A46002102F09FFA0020D4
:10BD700008BD08B50423C0F8F43100231A4619465B
:10BD800002F086FA002008BD08B50523C0F8F4319A
:10BD900000231A46194602F089FA002008BD08B5AA
:10BDA00001F08AF9002008BD30B5B0F90840028AD8
:10BDB0000B4690E8220085B0842C14BF0334002485
:10BDC00003A801900094284601F09EF801280CBFBA
:10BDD0000398002005B030BD08B5002808BF012039
:10BDE00001F0C4FA002008BD07B5036800930139CB
:10BDF00013464A424A410348012101F0F9FE03B0CB
:10BE00005DF804FB44B301081FB500240394A1426C
:10BE100014BF0A460122EFF30583A3B1009403ABDC
:10BE2000092101F009FF012813D1039B13B9002058
:10BE300004B010BD084B4FF080521A60BFF34F8F13
:10BE4000BFF36F8FF3E70093042101F0F5FE0128A3
:10BE5000EDD0FF20ECE700BF04ED00E01FB504AB20
:10BE60000022029243F8042DEFF30582BAB102AA30
:10BE70000092012201F0CAFD012804D04FF00040D9
:10BE800005B05DF804FB029B3BB1084B4FF08052BC
:10BE90001A60BFF34F8FBFF36F8F0398F0E7012253
:10BEA00001F04CFD0128F8D0E8E700BF04ED00E008
:10BEB00030B585B00023044615460293EFF30580A4
:10BEC00010B18223019307E0134602AA01F0F0FCAF
:10BED00001280BD045B9019504AB13E9070084E8AC
:10BEE0000700204605B030BD4023EBE7029B002B46
:10BEF000B4BF86230823E5E7012000F071BD0000F0
:10BF000013B500240A460194E8B1EFF30583A3B109
:10BF100001AA214600F0F0FE012802D0FF2002B065
:10BF200010BD019B3BB1094B4FF080521A60BFF32B
:10BF30004F8FBFF36F8F0020F1E7194600F018FE16
:10BF40000128EBD1F7E78020E9E700BF04ED00E02E
:10BF5000012910B508460CD10322002100F066FC2F
:10BF6000044620B100231A46194600F083FC2046FF
:10BF700010BD0024FBE7000013B500240A4601941D
:10BF8000E8B1EFF30583A3B101AA214600F0B4FEA6
:10BF9000012802D0FF2002B010BD019B3BB1094B2C
:10BFA0004FF080521A60BFF34F8FBFF36F8F0020A6
:10BFB000F1E7194600F0DCFD0128EBD1F7E780201E
:10BFC000E9E700BF04ED00E013B500240194EFF3AE
:10BFD000058393B101A900F077FD012813D1019BDE
:10BFE00013B9002002B010BD084B4FF080521A6008
:10BFF000BFF34F8FBFF36F8FF3E71A46194600F078
:10C0000039FC0128EDD0FF20ECE700BF04ED00E093
:10C01000FFF7DABF002203C800F008BC1FB50024F8
:10C0200001910394A24208BF0122EFF30583ABB153
:10C03000234603AA01A900F0E5FC012802D0FF2055
:10C0400004B010BD039B3BB1074B4FF080521A6008
:10C05000BFF34F8FBFF36F8F0020F1E701A900F00E
:10C0600009FC0128EBD1F7E704ED00E0F0B585B05D
:10C0700000260446174608460391029601AD11B901
:10C080008023019317E00096EFF30583D3B16A464E
:10C0900002A900F031FE012804BF10230193009B88
:10C0A00018BF01963BB10D4B4FF080521A60BFF3A1
:10C0B0004F8FBFF36F8F95E8070084E80700204695
:10C0C00005B0F0BD02A900F053FD012801D11023F5
:10C0D000D7E7002F0CBF00234023D2E704ED00E098
:10C0E0007FB5044616460846039101AD41B9802349
:10C0F000019395E8070084E80700204604B070BD6E
:10C10000012302A900F034FD012801D11023EFE73B
:10C11000002E0CBF00234023EAE7EFF305830BB1A9
:10C1200000F04DBE00F038BE00F1080343604FF050
:10C13000FF32C36003610023826003607047002305
:10C140000361704743684B609A688A609A685160DF
:10C150009960036808610133036070470A68531CE3
:10C1600030B50AD103695A684A6091608B605960A2
:10C17000036808610133036030BD00F108035C68A7
:10C180002568AA42EFD32346F9E74168826803692C
:10C190008A60826851605968884208BF5A600022EC
:10C1A0000261186801381860704700000A4B1B686C
:10C1B000013308D04FF0500383F31188BFF36F8F22
:10C1C000BFF34F8FFEE74FF0500383F31188BFF3A7
:10C1D0006F8FBFF34F8FFEE7F00600200648006820
:10C1E000006880F3088862B661B6BFF34F8FBFF373
:10C1F0006F8F00DF00BF000008ED00E0DFF80C00EB
:10C20000016841F4700101607047000088ED00E0B2
:10C210004FF0807340F8043C074B40F80C3C21F091
:10C2200001016FF0020340F8081C40F8202C40F890
:10C23000243C4438704700BFADC100080000000036
:10C24000074B19680868B0E8F04F80F30988BFF31E
:10C250006F8F4FF0000080F311887047AFF30080BC
:10C26000907F00204FF0500383F31188BFF36F8F4E
:10C27000BFF34F8F0A4A13680133012B13600DD1AE
:10C28000084B1B6813F0FF0F08D04FF0500383F3E7
:10C290001188BFF36F8FBFF34F8FFEE7704700BF6A
:10C2A000F006002004ED00E0084A136843B94FF09F
:10C2B000500383F31188BFF36F8FBFF34F8FFEE7F7
:10C2C000013B13600BB983F311887047F00600201F
:10C2D000EFF30980BFF36F8F154B1A681EF0100F34
:10C2E00008BF20ED108A20E9F04F10604DF8043DA2
:10C2F0004FF0500080F31188BFF34F8FBFF36F8F63
:10C3000001F094F84FF0000080F3118808BC196820
:10C310000868B0E8F04F1EF0100F08BFB0EC108AAC
:10C3200080F30988BFF36F8F704700BFAFF30080C1
:10C33000907F002008B54FF0500383F31188BFF3BE
:10C340006F8FBFF34F8F00F007FF18B1034B4FF013
:10C3500080521A60002383F3118808BD04ED00E0C9
:10C36000064B4FF47A721B68B3FBF2F3044A013BAD
:10C370001360044B07221A60704700BFDC050020E1
:10C3800014E000E010E000E0314B324A13B51968C8
:10C39000914208D14FF0500383F31188BFF36F8FA0
:10C3A000BFF34F8FFEE71A682B4B9A4208D14FF02C
:10C3B000500383F31188BFF36F8FBFF34F8FFEE7F6
:10C3C000264B1A78D2B20192FF221A701B78244AA7
:10C3D000DBB28DF803309DF8033003F05003137087
:10C3E000204B07221A6000219DF80300000602F18D
:10C3F000FF3423D401B11A601A68120202F4E06219
:10C400001A60019B154ADBB21370174B1A6842F48D
:10C4100070021A601A6842F070421A60FFF7A0FFBB
:10C42000124B00221A60FFF7E9FE114A136843F02D
:10C4300040431360FFF7D2FEFFF7B8FE9DF80320DC
:10C440005200D2B28DF8032001212246CCE700BF72
:10C4500000ED00E071C20F4170C20F4100E400E046
:10C460005C0B0020600B002020ED00E0F0060020B7
:10C4700034EF00E0EFF305830F2B0ED9104A9B5CDD
:10C48000104A12789A4208D94FF0500383F311886A
:10C49000BFF36F8FBFF34F8FFEE70B4B0B4A1B6849
:10C4A000126803F4E063934208D94FF0500383F31A
:10C4B0001188BFF36F8FBFF34F8FFEE7704700BF48
:10C4C000F0E300E05C0B00200CED00E0600B0020CE
:10C4D00010B50F4B1A68824218D35C68191988424C
:10C4E00001BF4168184609195960446801198A4218
:10C4F00007D1084909688A421FBF516812680919A3
:10C5000041609842026018BF186010BD1346E1E711
:10C51000887F0020640B00202DE9F041044600F0E4
:10C520000DFE3F493F4D0B68FBB93F4A56071CBF04
:10C5300007323E4B3E4E1ABF22F007029B1A47F2CB
:10C5400011431344083B23F007030020706032605E
:10C55000586018600B60981A1360364B5060186072
:10C56000354B18604FF000432B602F68274216D1DF
:10C57000002C41D004F1080358071CBF23F0070327
:10C58000083363B12C4A1668B342904607D8284A4C
:10C5900015686868834204D809688D4207D1002471
:10C5A0002AE02C68002CF7D02A462546F1E72968B6
:10C5B00014681160C21A102A0FD9E818410708D070
:10C5C0004FF0500383F31188BFF36F8FBFF34F8F8A
:10C5D000FEE742606B60FFF77BFF16496B680868F7
:10C5E000F61A1F4386424FF00003C8F8006038BFB8
:10C5F0000E6008346F602B6000F040FE0CB901F053
:10C6000083FE630708D04FF0500383F31188BFF314
:10C610006F8FBFF34F8FFEE72046BDE8F08100BF6C
:10C62000640B00207C7F0020680B0020797F0020B5
:10C63000887F0020847F0020807F002010B5044682
:10C6400070B3184A50F8043C1268134208D14FF0F6
:10C65000500383F31188BFF36F8FBFF34F8FFEE753
:10C6600050F8081C41B14FF0500383F31188BFF319
:10C670006F8FBFF34F8FFEE723EA020340F8043CBD
:10C6800000F05CFD084A54F8043C1168A4F108006D
:10C690000B441360FFF71CFFBDE8104000F0EEBD37
:10C6A00010BD00BF7C7F0020807F002070B5154644
:10C6B000026C866B044642B905689DB9406801F07A
:10C6C0009BF865600136A66370BD6DB9806808F09F
:10C6D000E6FFA368226C13446268A360934201D30F
:10C6E0002368A3600020EDE7C06808F0D8FF236C42
:10C6F000E26821685B421A448A42E2603EBF626897
:10C700009B18E360022DEDD10EB1013EEAE7304601
:10C71000D8E7034610B41A6C084662B1D9685C6861
:10C720001144A142D96024BF1968D960D9685DF865
:10C73000044B08F0B4BF5DF8044B704770B5044675
:10C74000FFF790FD94F8455004F124066DB2002DDA
:10C7500014DCFF2384F84530FFF7A6FDFFF782FDC8
:10C7600094F8445004F110066DB2002D12DCFF2342
:10C7700084F84430BDE87040FFF796BD636A002B33
:10C78000E7D0304600F050FF08B100F0D9FF013D7E
:10C790006DB2DCE72369002BE9D0304600F044FF9E
:10C7A00008B100F0CDFF013D6DB2DEE738B50D46B2
:10C7B000044640B94FF0500383F31188BFF36F8FE5
:10C7C000BFF34F8FFEE7FFF74DFD206CE36B226850
:10C7D000A2604343D1181B1A13446160E360002137
:10C7E000FF23A16384F8443084F8453095B9236968
:10C7F00063B104F1100000F017FF38B10A4B4FF09D
:10C8000080521A60BFF34F8FBFF36F8FFFF74CFD5D
:10C81000012038BD04F11000FFF786FC04F124006C
:10C82000FFF782FCF2E700BF04ED00E0F8B50D462B
:10C830001746064640B94FF0500383F31188BFF303
:10C840006F8FBFF34F8FFEE748435030FFF764FE12
:10C85000044648B155B92060E663256401212046AD
:10C86000FFF7A4FF84F84C702046F8BD00F1500398
:10C870000360F1E72DE9FF47894601921F46044610
:10C8800040B94FF0500383F31188BFF36F8FBFF3AC
:10C890004F8FFEE7002940F08880036C002B00F0EA
:10C8A00084804FF0500383F31188BFF36F8FBFF381
:10C8B0004F8FFEE7019E002E00F082804FF0500364
:10C8C00083F31188BFF36F8FBFF34F8FFEE7019D96
:10C8D0001DB9FFF7E9FC002058E016B902A800F0E6
:10C8E000E5FEFFF7E1FC00F029FCFFF7BBFC94F844
:10C8F0004430FF2B08BF84F8448094F84530FF2B68
:10C9000008BF84F84580FFF7CFFC01A902A800F01A
:10C91000DDFE002843D1FFF7A5FCA66BE56BFFF712
:10C92000C3FCAE4235D1019904F1100000F044FE81
:10C930002046FFF703FF00F0A1FC38B94FF0805309
:10C94000CAF80030BFF34F8FBFF36F8F0126FFF798
:10C9500089FCA26BE36B9A4201D3022FB7D13A460E
:10C9600049462046FFF7A2FE636A1BB104F124008A
:10C9700000F05AFE38B1194B4FF080521A60BFF3E5
:10C980004F8FBFF36F8FFFF78FFC012004B0BDE81E
:10C99000F0872046FFF7D2FE00F070FCD6E7204675
:10C9A000FFF7CCFE00F06AFC95E7022F02D1E36BA3
:10C9B000012B0AD100F0CAFE00283FF47BAF00260D
:10C9C0004FF00008DFF814A0C1E74FF0500383F3E5
:10C9D0001188BFF36F8FBFF34F8FFEE704ED00E0C8
:10C9E00010B5024600210120FFF720FF044638B1B0
:10C9F000002343600360C3601A461946FFF73AFFFD
:10CA0000204610BD2DE9F843884691461F4604464E
:10CA100040B94FF0500383F31188BFF36F8FBFF31A
:10CA20004F8FFEE709BB036CFBB14FF0500383F35C
:10CA30001188BFF36F8FBFF34F8FFEE704F124001F
:10CA400000F0F2FD002834D0B9F1000F31D0012000
:10CA5000C9F8000086F31188BDE8F88301356DB28E
:10CA600084F8455025E00020F4E7022F02D1E36B63
:10CA7000012B20D1FFF7FEFCEFF311864FF050039E
:10CA800083F31188BFF36F8FBFF34F8FA26BE36BFC
:10CA90009A4201D3022FE6D194F845503A466DB23E
:10CAA00041462046FFF702FE6B1CD7D1636A002B7C
:10CAB000C4D10120CEE74FF0500383F31188BFF3B8
:10CAC0006F8FBFF34F8FFEE770B50D46044640B938
:10CAD0004FF0500383F31188BFF36F8FBFF34F8F75
:10CAE000FEE7036C43B14FF0500383F31188BFF3AB
:10CAF0006F8FBFF34F8FFEE703680BB9436873BBBB
:10CB0000FFF7B8FCEFF311864FF0500383F3118861
:10CB1000BFF36F8FBFF34F8FA26BE36B9A4201D3CA
:10CB2000002014E094F8453001325BB2A2635A1C35
:10CB300010D1636A0BB9012009E004F1240000F070
:10CB400073FD0028F7D0002DF5D00120286086F372
:10CB5000118870BD01335BB284F84530EBE74FF0CC
:10CB6000500383F31188BFF36F8FBFF34F8FFEE73E
:10CB70002DE9FF47884601929946044640B94FF097
:10CB8000500383F31188BFF36F8FBFF34F8FFEE71E
:10CB9000002940F0A580036C002B00F0A1804FF02D
:10CBA000500383F31188BFF36F8FBFF34F8FFEE7FE
:10CBB000019E002E00F09A804FF0500383F31188FD
:10CBC000BFF36F8FBFF34F8FFEE7636AE660002B02
:10CBD0006DD004F124005FE0019D1DB9FFF764FBF7
:10CBE000284667E016B902A800F060FDFFF75CFB7D
:10CBF00000F0A4FAFFF736FB94F84430FF2B08BF8F
:10CC000084F8447094F84530FF2B08BF84F84570D1
:10CC1000FFF74AFB01A902A800F058FD002852D1F5
:10CC2000FFF720FBA56BFFF73FFB002D45D12368E5
:10CC300033B9FFF717FB606800F098FDFFF734FB8E
:10CC4000019904F1240000F0B7FC2046FFF776FDBF
:10CC500000F014FB38B94FF08053CAF80030BFF32E
:10CC60004F8FBFF36F8F0126FFF7FCFAA56B002DE6
:10CC7000B2D041462046E668FFF74BFDB9F1000F00
:10CC8000A3D12368013DA56313B900F005FE6060E0
:10CC9000236963B104F1100000F0C6FC38B1154BF4
:10CCA0004FF080521A60BFF34F8FBFF36F8FFFF7C3
:10CCB000FBFA012004B0BDE8F0872046FFF73EFDF7
:10CCC00000F0DCFACFE72046FFF738FD00F0D6FA97
:10CCD000FFF7C8FAA56BFFF7E7FA002DC3D17FE78E
:10CCE00000F034FD00283FF463AF00260027DFF892
:10CCF00004A0B9E704ED00E02DE9F8438946904629
:10CD0000054640B94FF0500383F31188BFF36F8F8E
:10CD1000BFF34F8FFEE771BB036C63B34FF050035B
:10CD200083F31188BFF36F8FBFF34F8FFEE795F842
:10CD30004460494676B22846FFF7EBFC013C731C81
:10CD4000AC6313D12B690BB901200BE005F1100086
:10CD500000F06AFC0028F7D0B8F1000FF4D00120F1
:10CD6000C8F8000087F31188BDE8F883013676B271
:10CD700085F84460E8E7FFF77DFBEFF311874FF09C
:10CD8000500383F31188BFF36F8FBFF34F8FAC6BEA
:10CD9000002CCCD12046E5E710B5044640B94FF051
:10CDA000500383F31188BFF36F8FBFF34F8FFEE7FC
:10CDB000FFF758FAA46BFFF777FA204610BD40B989
:10CDC0004FF0500383F31188BFF36F8FBFF34F8F82
:10CDD000FEE7806B7047000030B5074A002352F829
:10CDE000335002EBC3041DB942F83310606030BD0C
:10CDF0000133082BF3D130BDDCBA002070B50446F6
:10CE00000D461646FFF72EFA94F84430FF2B04BF68
:10CE1000002384F8443094F84530FF2B04BF0023EE
:10CE200084F84530FFF740FAA36B2BB93246294608
:10CE300004F1240000F0DAFB2046BDE87040FFF763
:10CE40007DBC0000064A13681968064B19B94FF0FB
:10CE5000FF321A6070471268D268D2685268F8E7E9
:10CE6000947F002070800020F8B51B4B1B4E1D687E
:10CE70000446306804300F46FFF787F9334640B95F
:10CE80003168174EC96A32680120884022EA0002E0
:10CE90003260621C07D137B1196812480431BDE80D
:10CEA000F840FFF74FB92C441A68A542546007D9DF
:10CEB0000D4A10681968BDE8F8400431FFF74EB913
:10CEC0000A4A106819680431FFF748F9084B1A68D4
:10CED000944238BF1C60F8BDB8800020907F0020CD
:10CEE0004080002090800020987F0020947F0020C8
:10CEF000708000204FF0500383F31188BFF36F8FD1
:10CF0000BFF34F8FFEE700002DE9F84F4FEA820A8A
:10CF1000804650460D4699460B9EFFF7FDFA0746A0
:10CF2000002800F09F806020FFF7F6FA04460028F2
:10CF300000F0958052460763A521384608F0BAFBF9
:10CF4000236BAAF1040A9A442AF0070A6B1E04F123
:10CF500034020F35597802F8011B13F8011F09B18B
:10CF6000AB42F7D10A9D062D28BF06254FF0000BD6
:10CF7000271DE562E564384684F843B0C4F850B034
:10CF8000FFF7DDF8C5F1070504F11800FFF7D7F842
:10CF9000C4F858B02461A5616462C4F854B084F840
:10CFA0005CB04A4641465046FFF732F9206006B170
:10CFB0003460FFF757F9324B324E1A68DFF8F080D1
:10CFC00001321A603568002D4FD134601B68012B87
:10CFD0001DD108EB05001435FFF7A6F88C2DF8D10C
:10CFE000DFF8D090284D4846FFF79EF82846FFF717
:10CFF0009BF82648FFF798F82548FFF795F825484D
:10D00000FFF792F8244BC3F80090244B1D60244A8C
:10D0100024491368086801331360E26A63640125D8
:10D0200005FA02F3034314200B6000FB028039462B
:10D03000FFF788F8FFF738F91B4B1B6863B13368BB
:10D04000DA6AE36A9A4207D2184B4FF080521A60AC
:10D05000BFF34F8FBFF36F8F2846BDE8F88F384678
:10D06000FFF7ECFA4FF0FF35F6E70F4B1B68002B8C
:10D07000CDD13368DA6AE36A9A4298BF3460C6E772
:10D080002C800020907F0020588000207880002095
:10D09000A480002090800020947F0020987F0020B2
:10D0A0003C800020408000208C80002004ED00E0C7
:10D0B0009C7F00204480002013B51A4B019300246C
:10D0C00000942346802218491848FFF71DFF0128C5
:10D0D0001AD100F067FD012816D14FF0500383F3F9
:10D0E0001188BFF36F8FBFF34F8F114B4FF0FF329B
:10D0F0001A60104B1860104B1C6001F011F902B05F
:10D10000BDE81040FFF740B9013008D14FF050039F
:10D1100083F31188BFF36F8FBFF34F8FFEE702B029
:10D1200010BD00BF6C800020D2A40108B5D3000858
:10D13000708000208C800020B8800020024A136894
:10D1400001331360704700BF38800020014B18681E
:10D15000704700BFB88000202DE9F84F3C4B1B689A
:10D16000002B53D13B4B1C6801341C60BCB93A4BBB
:10D170001A68126842B14FF0500383F31188BFF36D
:10D180006F8FBFF34F8FFEE7344A1968106818603D
:10D190001160334A136801331360FFF753FE314DBA
:10D1A000314F2B689C424FF0000B3ED3DFF8A88034
:10D1B000DFF8C490D8F80020126872BB4FF0FF323D
:10D1C0002A6032E006F1040A5046FEF7DEFFB16A3B
:10D1D00019B106F11800FEF7D8FFF06AD9F800304F
:10D1E000012202FA00F11943204BC9F800104FF058
:10D1F000140E51460EFB0030FEF7A4FF3868F16AAA
:10D20000C26A914228BF4FF0010BD3E7184A136856
:10D21000013313604FF0000B11E0D8F80020D26802
:10D22000D66871688C42CDD229603A680F4BD16ABA
:10D2300014224A439A58022A28BF4FF0010B0D4A84
:10D240001268002A18BF4FF0010B5846BDE8F88F4E
:10D2500038800020B8800020947F0020987F002034
:10D260007480002070800020907F00209C7F002030
:10D2700034800020BC800020408000202DE9F8434D
:10D28000314C236843B94FF0500383F31188BFF347
:10D290006F8FBFF34F8FFEE7FEF7E4FF2368013B7C
:10D2A000236024682CB10024FEF7FEFF2046BDE871
:10D2B000F883264B1B68002BF5D0DFF8A890244F8D
:10D2C000DFF8A480D9F80030E3B90CB1FFF7BAFD5C
:10D2D000204D2C6844B1204E0127FFF73DFF00B1DF
:10D2E0003760013CF9D12C601B4B1B68002BDAD056
:10D2F0001A4B4FF080521A60BFF34F8FBFF36F8FFE
:10D300000124D1E7D9F80C30DC68261D04F118009F
:10D31000FEF73BFF3046FEF738FFE26A3968012529
:10D3200005FA02F314200B4300FB028031463B60F8
:10D33000FEF708FF0A4BE26A1B68DB6A9A4224BFC9
:10D34000054B1D60BEE700BF388000202C80002008
:10D350004080002034800020BC80002004ED00E0EC
:10D36000907F0020788000209C7F002008B540B985
:10D370000E4B4FF080521A60BFF34F8FBFF36F8F89
:10D3800008BD0B4B196841B14FF0500383F311886E
:10D39000BFF36F8FBFF34F8FFEE7FFF7CFFEFFF7AF
:10D3A00063FDFFF76BFF0028E2D008BD04ED00E04D
:10D3B0003880002008B5184E184C236873B9184BF4
:10D3C0001B68012B07D9174B4FF080521A60BFF32F
:10D3D0004F8FBFF36F8F00F08FFFEDE7FFF7AEFECB
:10D3E0003568FFF74BFF002DE7D0FEF73BFFF368F2
:10D3F000DD68281DFEF7C9FE0B4A1368013B136068
:10D400002368013B2360FEF74FFF286BFFF716F9F7
:10D410002846FFF713F9D0E7A480002030800020D1
:10D420009C7F002004ED00E02C80002038B5294BC3
:10D430001A68294B12B101221A6038BD1A6000F037
:10D4400071FF264A264C1568A84204D921684B6D05
:10D450005B1B03444B65236810601B6B1A68B2F1B9
:10D46000A53F0BD15A68B2F1A53F07D19A68B2F136
:10D47000A53F03D1DB68B3F1A53F04D02068216844
:10D48000343100F03DFF174B1B68B3FA83F3DBB276
:10D49000C3F11F03142214495A4388188D5845B903
:10D4A0004FF0500383F31188BFF36F8FBFF34F8F9B
:10D4B000FEE7456808326D6845600A44954204BF3E
:10D4C0006A684260142202FB03135B68DB68236016
:10D4D00038BD00BF38800020BC800020288000209C
:10D4E000907F0020408000209C7F002070B5044683
:10D4F000294EFEF7B7FE04B93468251D2846FEF70D
:10D5000044FE60B9E06A254B142141435B5833B9AE
:10D51000234901220B68824023EA02030B60A36ABD
:10D520001BB104F11800FEF730FE29461D4D1E48C0
:10D53000FEF708FEFEF7B8FE2A682AB1FEF792FE53
:10D54000FFF780FCFEF7B0FE33689C4222D12B68C7
:10D55000A3B1164B1B6843B14FF0500383F31188FE
:10D56000BFF36F8FBFF34F8FFEE7114B4FF0805229
:10D570001A60BFF34F8FBFF36F8F70BD0D4A0A491A
:10D5800012680968914201D1336070BDBDE87040F6
:10D59000FFF74CBF70BD00BF907F00209C7F002034
:10D5A000408000208C800020908000203880002067
:10D5B00004ED00E02C80002010B50C4640B94FF07F
:10D5C000500383F31188BFF36F8FBFF34F8FFEE7D4
:10D5D000054B19681831FEF7C1FD20460121BDE851
:10D5E0001040FFF741BC00BF907F002038B50D46CA
:10D5F000144640B94FF0500383F31188BFF36F8F87
:10D60000BFF34F8FFEE7074B19681831FEF79AFDFD
:10D61000002C21460CBF28464FF0FF30BDE83840B3
:10D62000FFF722BC907F002038B5C368DC6844B99E
:10D630004FF0500383F31188BFF36F8FBFF34F8F09
:10D64000FEE704F118052846FEF79FFD114B1B6805
:10D65000E3B9251D2846FEF798FD0F49E26A0868E0
:10D660000123934003430B600C4B1420294600FB1D
:10D670000230FEF767FD0A4BE26A1B68DB6A9A42DA
:10D6800083BF084B01201860002038BD294606489A
:10D69000EFE700BF38800020408000209C7F002002
:10D6A000907F0020BC8000207880002008B508B959
:10D6B000FFF720FC034B1B680360034B1B684360B0
:10D6C00008BD00BF74800020B880002038B50D462A
:10D6D000044640B94FF0500383F31188BFF36F8FB6
:10D6E000BFF34F8FFEE741B94FF0500383F311882A
:10D6F000BFF36F8FBFF34F8FFEE7FEF7B3FD0E4B07
:10D7000019682B685A1C10D00C4A20681268904285
:10D71000626801D091420DD2881A83420AD95B1AFD
:10D7200013442B602046FFF7C1FF0024FEF7BCFD29
:10D73000204638BD0124F9E7B8800020748000201D
:10D74000014B01221A607047BC800020054B1B680A
:10D7500033B1054B1B68002B0CBF02200020704723
:10D76000012070478C800020388000202DE9F04196
:10D770000446002838D01D4DC36A2A68D26A9342F5
:10D7800032D282691A4E002AA1BF2A68D26AC2F137
:10D79000070282611427426907FB03639A4220D182
:10D7A00000F104084046FEF7F0FC124A48B9E06A6E
:10D7B0004743F3592BB913680121814023EA010340
:10D7C00013602B681168D86AE062012383400B4321
:10D7D00013601423414603FB0060BDE8F041FEF7EF
:10D7E000B1BC2B68DB6AC362BDE8F081907F00208A
:10D7F0009C7F002040800020F8B5044608B9002036
:10D80000F8BD224B1B68984208D04FF0500383F3B9
:10D810001188BFF36F8FBFF34F8FFEE7036D43B9DE
:10D820004FF0500383F31188BFF36F8FBFF34F8F17
:10D83000FEE7C16AC26C013B91420365DFD0002B59
:10D84000DDD1051D2846FEF7A0FC114E114A50B946
:10D85000E76A1421794373582BB913680120B84043
:10D8600023EA00031360E36CE362C3F10701A161E3
:10D870001168012404FA03F008431060142000FB2F
:10D8800003602946FEF75EFC2046F8BD907F00202D
:10D890009C7F002040800020044B1A681AB1196850
:10D8A0000A6D01320A651868704700BF907F00203A
:10D8B0002DE9F0411F4C1E4680460F461546FEF7E7
:10D8C000D1FC236893F85C30022B14D023689A6D46
:10D8D00022EA08029A652368012183F85C1056B198
:10D8E0003046FFF7C1FA144B4FF080521A60BFF375
:10D8F0004F8FBFF36F8FFEF7D7FCFEF7B3FC15B168
:10D9000023689B6D2B60236893F85C30012B1FBF4D
:10D910002368996DB943996523684FF0000214BFDD
:10D920000125002583F85C20FEF7BEFC2846BDE8F3
:10D93000F08100BF907F002004ED00E0F8B50F46B5
:10D9400016461D46044640B94FF0500383F3118834
:10D95000BFF36F8FBFF34F8FFEE7FEF783FC0DB170
:10D96000A36D2B6094F85C500223721EEDB284F814
:10D970005C30032A0AD8DFE802F002060410A16D29
:10D980000F43A76502E0A36D0133A365012D08D005
:10D990000125FEF789FC2846F8BD022DF1D10025AE
:10D9A000F7E7261D3046FEF7F0FB1449E26A0868E7
:10D9B00005FA02F303430B60114B142000FB023005
:10D9C0003146FEF7BFFBA36A43B14FF0500383F328
:10D9D0001188BFF36F8FBFF34F8FFEE7094BE26AE9
:10D9E0001B68DB6A9A42D3D9074B4FF080521A600A
:10D9F000BFF34F8FBFF36F8FCBE700BF4080002096
:10DA00009C7F0020907F002004ED00E02DE9F8438A
:10DA1000089F894690461D46044640B94FF0500382
:10DA200083F31188BFF36F8FBFF34F8FFEE7FEF7CD
:10DA300021FDEFF311864FF0500383F31188BFF3FC
:10DA40006F8FBFF34F8F0DB1A36D2B6094F85C50B7
:10DA5000022308F1FF32EDB284F85C30032A07D8C4
:10DA6000DFE802F0020D1311A16D41EA0901A16581
:10DA7000012D0DD0012086F31188BDE8F883A36D38
:10DA80000133A365F4E7022D33D0C4F85890EFE7D3
:10DA9000A36A43B14FF0500383F31188BFF36F8F34
:10DAA000BFF34F8FFEE7144B1B68DBB904F104088A
:10DAB0004046FEF76AFB114AE36A11689D400D4338
:10DAC00015600F4A1420414600FB0320FEF73AFB85
:10DAD0000C4BE26A1B68DB6A9A42CBD901202FB15A
:10DAE0003860C8E704F118010748EFE7074B1860F2
:10DAF000C1E70020BFE700BF388000204080002041
:10DB00009C7F0020907F002078800020BC80002037
:10DB1000F8B50F4CFEF7A6FB2568ADB90D4F0E4EBC
:10DB20003846FEF701FB3046FEF7FEFA0B4B1F604E
:10DB30000B4B2A460C210A201E60FEF777FE206060
:10DB400010B10849FFF748F9BDE8F840FEF7ACBB53
:10DB5000F4800020C8800020DC800020C0800020ED
:10DB6000C4800020D7A40108914208B5416000613B
:10DB70000AD8D21A83699A420DD2084B011D18683F
:10DB8000FEF7ECFA002008BD9A4201D2994202D277
:10DB9000011D034BF3E7012008BD00BFC480002036
:10DBA000C080002007B5FFF7B3FF0D4B1B685BB1CA
:10DBB0000C4B0193022300934FF4007200230A4997
:10DBC0000A48FFF7A1F940B94FF0500383F31188D9
:10DBD000BFF36F8FBFF34F8FFEE703B05DF804FB19
:10DBE000F4800020F8800020DCA401080DDD00088E
:10DBF0002DE9F04180462C200D4617461E46FEF7C3
:10DC00008BFC0446A8B145B94FF0500383F311884B
:10DC1000BFF36F8FBFF34F8FFEE7FFF779FF069BD0
:10DC2000C4F80080A561E76126626362201DFEF7EB
:10DC300086FA2046BDE8F08130B5154685B01A4613
:10DC4000034640B94FF0500383F31188BFF36F8F41
:10DC5000BFF34F8FFEE70D4C206880B1052901917D
:10DC6000029503930DDCFFF771FD0023022808BF26
:10DC7000089A206818BF1A4601A9FEF7FBFD05B0F7
:10DC800030BD002301A9FEF7BDFEF8E7F4800020B7
:10DC90002DE9F3411B4D4FF000082B681A6832B98B
:10DCA000194A11682960136002B0BDE8F081DB6891
:10DCB000DC681E68271D3846FEF767FA636A20464F
:10DCC0009847E369012BE8D1A36933449E4206D209
:10DCD0006360246139462868FEF740FADDE70023D7
:10DCE000CDF80080324619462046FFF7A5FF0028F0
:10DCF000D3D14FF0500383F31188BFF36F8FBFF37D
:10DD00004F8FFEE7C0800020C48000202DE9F04F37
:10DD10006C4DDFF8C08189B02F462B68D3F800B076
:10DD2000BBF1000F42D0DB68D3F80090FFF706FA92
:10DD3000FFF70CFA644B1A68904282461E4637D2AF
:10DD40000393FFF7A5FF039B0124C3F800A0002C59
:10DD50007ED1BBF1000F60D0D14577D8FFF78EFAA6
:10DD60003B68DB68D3F80CB00BF10400FEF70DFA4A
:10DD7000DBF81C30012B1DD1DBF818104B46524646
:10DD800049445846FFF7F0FEA0B1009423464A46A6
:10DD900021465846FFF750FF60B94FF0500383F318
:10DDA0001188BFF36F8FBFF34F8FFEE7D946BDE7F2
:10DDB0000024CAE7DBF8243058469847DFF8109172
:10DDC000D9F8000000231A4605A9FEF7D1FE002865
:10DDD000A3D0059B002BF3DB079C636913B1201DC7
:10DDE000FEF7D3F9FFF7B2F933689842834601D2C0
:10DDF000FFF74EFF059AC6F800B0092AE0D80123C4
:10DE0000934013F4047A4AD113F0C70F23D19B0631
:10DE1000D6D52046FEF712FCD2E72C4B1B681A68B9
:10DE2000B2FA82F252092A4BA9EB0A011868FEF7EE
:10DE3000E5FFFFF723FA0028C0D14FF08053C8F860
:10DE40000030BFF34F8FBFF36F8FB7E72246EAE78B
:10DE5000FFF714FAB2E7A169069B5A461944204617
:10DE6000FFF782FE0028ABD0636A20469847E3693B
:10DE7000012BA5D1A2690699CDF800A00A4453460A
:10DE800051462046FFF7D8FE002899D14FF05003A5
:10DE900083F31188BFF36F8FBFF34F8FFEE70699AF
:10DEA000A16141B94FF0500383F31188BFF36F8F25
:10DEB000BFF34F8FFEE75B465A4659442046FFF7B3
:10DEC00053FE7DE7C0800020F0800020C480002049
:10DED000F480002004ED00E010B5094C094900224F
:10DEE0002046FDF73BFC08492046FDF74CFC204648
:10DEF0000649FDF7F4FB2046BDE81040FDF74ABC9B
:10DF00001CBB002004070020E0050020F4060020D0
:10DF1000002070470020704738B5074C0968054657
:10DF200003F0D6FC29462046FDF7E8FB2046FDF726
:10DF300002FC002038BD00BF1CBB002010B5064C01
:10DF4000064900222046FDF7D1FB05492046FDF792
:10DF5000D5FB002010BD00BF1CBB002040C5002029
:10DF600040BD002010B5094CD4F81832D3F8143253
:10DF70000A4643B901462046FDF7B8FB2046BDE8F6
:10DF80001040FDF7C1BB012010BD00BF1CBB00202D
:10DF900012230B80004870472007002004230B80C9
:10DFA000004870473407002010B5044C04480A4666
:10DFB0002146FDF796FE204610BD00BF40CD002053
:10DFC000FDA4010810B5044C04480A462146FDF79B
:10DFD00088FE204610BD00BF40CD00200AA50108E4
:10DFE00010B5044C04480A462146FDF77AFE204647
:10DFF00010BD00BF40CD002027A5010810B5044C7E
:10E0000004480A462146FDF76CFE204610BD00BFBD
:10E0100040CD0020E4A4010810B5044C04480A4691
:10E020002146FDF75EFE204610BD00BF40CD00201A
:10E03000EFA4010810B50368B3F1A04F86B02ED14C
:10E0400000244FF4007301A916480193029403942D
:10E05000F9F7B4FC4FF4C053019302230293032356
:10E06000049301A90A230F4805930394F9F7A6FC2A
:10E070000D4B5A6B42F080025A6300945A6C42F482
:10E0800080425A645B6C03F4804300934320224631
:10E090000521009BF8F762FF4320F8F7A1FF06B0C7
:10E0A00010BD00BF000002400038024000F56F7153
:10E0B000D0F8EC03FDF785BB1C2303FB0103D0F86C
:10E0C000EC03D3F80422FDF7A9BB1C2303FB0103D7
:10E0D000D0F8EC035A6CFDF7D3BBD0F8EC03FDF796
:10E0E0004FBC10B5C1680446003118BF0121D0F8FB
:10E0F000EC03FDF733FCD4F8EC03BDE81040FDF76A
:10E100000EBC000010B50446D0F8EC03FDF729FC66
:10E110002268D2F8003E43F00103C2F8003E236AB1
:10E1200023B1034A136943F00603136110BD00BF16
:10E1300000ED00E0D0F8EC03FDF71CBCD0F8EC03D8
:10E14000FDF72CBCD0F8EC03FDF726BCD0F8EC03AF
:10E15000FDF726BCD0F8EC03FDF724BC08B5027827
:10E1600042BB154B0421C3F8EC03C0F820324FF03A
:10E17000A04083E803000221D9609961184601217B
:10E180001A615A61DA611A625A62D9621A63F9F73E
:10E1900079FD08B1F7F75EFE80210748FAF7CDF95F
:10E1A000402200210448FAF7A7F980220121024801
:10E1B000FAF7A2F9002008BD40CF002008B5D0F83A
:10E1C0002002F9F7D7FD03289ABF024B185C022002
:10E1D00008BD00BF34A5010810B51C46D0F82002C8
:10E1E00013462246FAF79AF803289ABF014B185CA7
:10E1F000022010BD34A5010808B5D0F82002FAF7B6
:10E20000BBF803289ABF024B185C022008BD00BF70
:10E2100034A5010808B5D0F82002FAF71CF9032844
:10E220009ABF024B185C022008BD00BF34A501084C
:10E2300008B5D0F82002FAF73AF903289ABF024B42
:10E24000185C022008BD00BF34A5010811F0800F42
:10E25000D0F820324FF01C021BBF01F07F0102FBFF
:10E26000013102FB013191F83A0008BF91F8FA013F
:10E270007047000008B5D0F82002FAF73DF80328EF
:10E280009ABF024B185C022008BD00BF34A50108EC
:10E2900008B5D0F82002FAF7BEF803289ABF024B5F
:10E2A000185C022008BD00BF34A5010808B5D0F8ED
:10E2B0002002FAF784F803289ABF024B185C022068
:10E2C00008BD00BF34A5010808B5D0F82002FAF750
:10E2D0009AF808BDBFF34F8F0549064BCA6802F490
:10E2E000E0621343CB60BFF34F8F00BFFDE700BF79
:10E2F00000ED00E00400FA0501210020FAF722B940
:10E3000008B5FDF7AFFFFEE708B5FDF7ABFFFEE789
:10E31000024A136801331360704700BF5881002020
:10E3200070470000014B1868704700BF58810020FB
:10E3300030B589B008AB184D43F81C0D184607F0EE
:10E3400075F8836901338DF80830036901338DF85E
:10E350000930C3688DF80A304369643B8DF80B308F
:10E3600083688DF80C3043688DF80D3003688DF8A4
:10E370000E3000244023224602A928468DF80F3093
:10E3800006940794FAF72EFF224603A92846FAF7C7
:10E390000FFE09B030BD00BFD4B7002010B5144C3B
:10E3A00090B002A900222046FAF7E8FE002201A957
:10E3B0002046FAF7BFFF9DF804300D939DF8053015
:10E3C000013B0B939DF806300A939DF807306433A8
:10E3D0000C939DF80830099310A89DF80930089314
:10E3E0009DF80A3040F8243D07F04CFA10B010BDFB
:10E3F000D4B700202DE980488FB005F069FFCC4BE1
:10E40000CC4C1A889B78A370CB4B22801A889B78BF
:10E410006371CA4BA4F803205A6F160100F1F88209
:10E420005A6F950100F1F6825A6FD00000F1F48224
:10E430005A6F002AC0F2F2825A6F510000F1F08246
:10E440005A6F920000F1EE825B6FBD4A13F0806F4D
:10E45000BC4B08BF1346DFF85083BB4FC8F80030F1
:10E4600005F06EFEB94BBA4D1868FDF7ADFDFFF72C
:10E4700095FF3860B748FBF7EFFAB5F8616004F034
:10E48000BAFF0B9750B194F8283043F0010384F899
:10E49000283004F06BFFF0B204F0A3FF06F0E4FEB6
:10E4A0000EA8002340F8043D06F088FD58B90D9BE6
:10E4B0004BB16FF07F4293421EBF94F8293043F076
:10E4C000010384F82930A44E05F0D0FBD6F8187467
:10E4D00000F0DCFC874206F20C4700F0A582002326
:10E4E000012286F80424C6F8003486F8083486F839
:10E4F000093486F81024A6F81234C6F81434D5F876
:10E5000095303B60002004F051FB012004F04EFBED
:10E51000022004F04BFB032004F048FB40218F480D
:10E52000F9F778FBB0FA80F040094FF4807184F875
:10E530004C008A48F9F76EFB431E5842584194F844
:10E54000203060F3000396F8100484F8203000F0C7
:10E55000FDFC4FF47A70FDF73FFC814803F0CEF9E3
:10E56000804B0A931A68062A17DC02220792762249
:10E5700006920722002305927222089304930392C5
:10E58000D8F800200292784A019200934FF4197251
:10E5900006237649764805F0D9FC764BDFF80CA2C5
:10E5A00018680021FDF75AFC734B00211868FDF72D
:10E5B00055FC724B00211868FDF750FC704B002190
:10E5C0001868FDF74BFCF6F76BFDDAF80030C01A5F
:10E5D000B0F57A7F19D3F6F763FD6A4BCAF80000ED
:10E5E0009B78412B40F02682032004F066FB02203A
:10E5F00004F05EFB207A10F0010640F0208201203A
:10E6000004F05BFB304604F058FB5F4EF6F748FD24
:10E610003368C01AB0F57A7FC0F0CC82F6F740FDBF
:10E62000DFF860813060404605F0F0FD98F8033077
:10E630006375012B86BFD8F818209FED547ADFED63
:10E64000547ADFF86C9184BF06EE902AC6EE877A82
:10E65000AA7E012B08BF00234646C4ED067A18BFE8
:10E66000D8F8103007EE902A07EE103AF8EEE77A65
:10E67000B4EEE77AF1EE10FA40F10A82F6F710FDF7
:10E68000D9F80030B5F81B20C01A4FF47A73534301
:10E69000984206D93F4B00221A60F6F701FDC9F8EF
:10E6A00000003D4B4FF47A711868FDF729FC0028F3
:10E6B00040F01281DFF8FCB098F800108BF82210BF
:10E6C000D946002900F0E78198F803208BF8202034
:10E6D000002900F0D580012A00F0D28073692F4A0A
:10E6E00008EE103A136000F079FC002840F0D58164
:10E6F000AA882B4B4FF47A7151431868FDF784FBBD
:10E70000284A95F82030D2ED007A07EE103A78EEDC
:10E71000677AB8EE477AF0EEE77AF4EEC77AF1EE70
:10E7200010FA49DB022082ED008A00F0C1FB43E0D1
:10E7300005A60108D885002008A601080038024077
:10E7400082A501087BA501083C070020C4B7002072
:10E750000ADC002000B90020000000200000024078
:10E760008DA501081CA00020B0A50108A3A50108E3
:10E7700045A501088CB70020CCB7002090B7002039
:10E7800080B700200C810020408100200000C8429A
:10E79000000000000081002094B70020FC800020D1
:10E7A000B0B700203081002054810020508100202B
:10E7B000088100203086002097ED008ABF4A82ED54
:10E7C000008A00F00BFC002840F06981AA88BC4B4D
:10E7D0004FF47A7151431868FDF716FBB94AEB8B79
:10E7E000D2ED007A07EE103A78EE677AB8EE477A03
:10E7F000F0EEE77AF4EEC77AF1EE10FA04DB0120CE
:10E8000082ED008A00F054FBAF4932690A6007EEDE
:10E81000102AD9F8112007EE902AF5EE407AF1EE91
:10E8200010FA08D1D9F8152007EE902AF5EE407AB3
:10E83000F1EE10FA09D0AB7E07EE903AF8EEE77AE7
:10E84000B4EEE77AF1EE10FA04DBA04AB168116089
:10E85000F1685160726907EE902AFCEEE77A17EED4
:10E86000902AABF819209A4AF1691160B16942F80F
:10E87000081C3A68CBF81C2098F820208BF81B2045
:10E880009BF82220002A00F00C819BF82020012A0E
:10E8900000F0078198F80220412A40F002816A7C4A
:10E8A0009AB1D9F80510D5F8152007EE901A07EEA1
:10E8B000102AF4EEC77AF1EE10FAC0F2F2809BF85B
:10E8C0001B106A7E9142C0F0EC800122814B8BF8D4
:10E8D00021201868FDF79CFB00F00EFB064600F0B7
:10E8E00023FB98F80380B8F1010F81460BD07A4BD7
:10E8F000D3ED007AF5EE407AF1EE10FA14BF4FF046
:10E9000001084FF0000800F069FB012840F0CB80BF
:10E910002EB1B9F1000F02D0002000F017FB94EDEA
:10E92000097A6E4EF1EE087AB4EEE77AF1EE10FA5B
:10E93000ACBF4FF001084FF0000809DA33783BB163
:10E94000674B3A681A6005F017FB0B2000F0B0FA2D
:10E95000644B86F800801A7822B100220D201A70CC
:10E9600000F0A6FA604B1A7822B1002204201A7037
:10E9700000F09EFA5D4B1A7822B1002204201A7032
:10E9800000F096FA5A4E94F84C8033782BB9B8F1CF
:10E99000000F02D00A2000F08BFA86F80080FFF703
:10E9A000FDFC0B9B534A186013680133052B00F2E2
:10E9B000BB801360504A5149136801338B4200F207
:10E9C000DB80136000F00AFB4D4901280CBFEB8887
:10E9D000AB880A685B0001329A420A6040F2D48038
:10E9E0000A68782A40F2D0800A9B1B68062B0ADC52
:10E9F000444B01930023009340F221220623424915
:10EA0000424805F0A3FA6420FDF7E6F9FFF762FC3F
:10EA10003F4B20E53F4B1EE53F4B1CE53F4B1AE5C6
:10EA20003F4B18E53F4B16E53B68C5F8953005F0C0
:10EA3000A3FA67E5022004F040F90320D8E510F0BE
:10EA4000020608D14FF47A734FF4FA72FA210120CA
:10EA500004F010F9D6E510F0040603D1012004F00B
:10EA600027F9CFE510F008064FF001000AD104F0B5
:10EA700024F94FF47A734FF4FA72FA21304604F015
:10EA8000F9F8C2E504F019F9002004F011F9BCE529
:10EA9000114A136001E6012218E6EA8829E6EA88AD
:10EAA00095E6002212E7B9F1000F7FF438AFB8F114
:10EAB000000F7FF434AF01202FE700BF0481002056
:10EAC000B0B7002034810020398600204186002024
:10EAD0003D86002094B70020008100204C8100205A
:10EAE0009FDC002011A0002012A0002010A0002018
:10EAF00044810020388100203C81002080510100A9
:10EB0000CC9A0020DDA50108A3A5010838A50108BD
:10EB10004EA5010855A501085CA5010863A50108DB
:10EB20006BA5010873A501080023244E136005F0AE
:10EB3000FDFBD6ED007AB4EEE70AF1EE10FAB0EE86
:10EB4000408A7FF737AFBFEE007AB4EE470AF1EEA6
:10EB500010FA3FF42FAF637D012B3FF42BAF97EDFD
:10EB6000007A70EE677A77EE277AC7ED007A00F0C8
:10EB700095F986ED008A1DE700231360104B3A6873
:10EB80001A6005F0F9F91DE70E490A68013293424F
:10EB90000A600FD20B68782B0CD90A9B1B68062BD6
:10EBA0003FF731AF084B01930023009340F2262238
:10EBB000062324E73220FDF70FF904E54881002001
:10EBC0009FDC00205C810020F0A50108014B186843
:10EBD000FDF7FAB9A0B70020F0B51E4B85B01B6851
:10EBE000039306460C4623B903AA1B49093007F0D4
:10EBF00087FE0121204604F0B3F8012325180146C1
:10EC00001A46204604F002F92A4601462718012335
:10EC1000204604F027F9039B019600932A463B46C1
:10EC20000146204604F02AF92A4601462618022306
:10EC3000204604F017F92A4633460146204604F0E0
:10EC400045F905460146204604F0C6F8284405B0BB
:10EC5000F0BD00BF0ADC00203FAC01082DE9F04FF9
:10EC60008DB04FF0FF32002102A8FDF721F97C4B57
:10EC70007C4F1868DFF8048241F28831FDF7C4F850
:10EC80003C464FF0FF31D8F80000FDF775F997F8D2
:10EC9000043423B9D7F80054002D40F091800121AD
:10ECA000204604F05DF8DFF8C091DFF8D4B1824669
:10ECB0000025FDF7D7FA6C49584604F030FF0646A8
:10ECC000FDF7F2FA772E76D102231A4651462046F6
:10ECD00004F09CF804EB0A06014604EB000A10233A
:10ECE0003246204604F0BEF8534601463246CDF87F
:10ECF0000090204604F01CF91123014604EB000AA1
:10ED00003246204604F0AEF8534601463246CDF86E
:10ED10000090204604F0D0F91223014604EB000ACB
:10ED20003246204604F09EF8534601463246CDF85E
:10ED30000090204604F0E6F91323014604EB000A94
:10ED40003246204604F08EF8534601463246CDF84E
:10ED50000090204604F010FA1523014604EB000A47
:10ED60003246204604F07EF8534601463246CDF83E
:10ED70000090204604F030FA1B23014604EB000A01
:10ED80003246204604F06EF853460146CDF8009016
:10ED90003246204604F056FA01350A2D824688D1C3
:10EDA0002946324802F0AAFD5146204604F014F8E4
:10EDB00000EB0A0501E0002DF2D1002D3FF461AF18
:10EDC000DFF8C090002384F8043400F067F8D9F825
:10EDD0000000FDF7A2F9064600287FF452AFFDF7C8
:10EDE00041FAA15DD9F8000000220136FDF716F9BD
:10EDF000AE42F6D1FDF758FA1D4B4FF0FF321968BD
:10EE000006A8FDF733F9069B102B7FF43AAF079D58
:10EE1000002D7FF436AF174E4FF0010984F80494AB
:10EE200000F03CF84A46316809A8FDF759F9099BFA
:10EE3000102B10D1DFF850903168012206A8FDF7A1
:10EE400015F9069B102B06D1079B05F809300135F3
:10EE5000B5F5806FF0D1084B00221A6011E700BFB2
:10EE6000B0B7002000000020608100200BA6010840
:10EE7000C8B700209CB700205C810020A0B700200C
:10EE80001C080020A8B70020D781002000224FF4E2
:10EE90008361014803F028BE0000002008B5FFF799
:10EEA000F5FF024BC3F8180408BD00BF00000020A6
:10EEB0000C4B07B5014664221868FDF7AFF868B13E
:10EEC000094B1B68052B09DC084B019300230093B9
:10EED0002B2205230649074805F038F803B05DF8F2
:10EEE00004FB00BF84B700201CA0002073A601080B
:10EEF00063A6010820A60108014B93F80804704797
:10EF000000000020064B83F84E00064B93F80824BF
:10EF1000824203D083F80804FFF7C0BF704700BFE8
:10EF2000D885002000000020014B93F809047047A9
:10EF300000000020044B93F80924824203D083F898
:10EF40000904FFF7ABBF70470000002038B5044646
:10EF50001A4D60BB2B894FF47A715943184B1868CE
:10EF6000FCF752FF2CBBAB884FF47A715943154B19
:10EF70001868FCF749FFF4B9AB894FF47A7159432B
:10EF8000114B1868FCF740FF104B93F81024A24275
:10EF900003D083F81044FFF781FF0D4B0D490E4855
:10EFA000002C18BF1946BDE8384002F0A7BC6B8999
:10EFB000D1E7EB88D8E7EB89DFE700BF0ADC002068
:10EFC0007CB70020B0B70020B8B7002000000020B8
:10EFD00041A601083AA6010849A60108014B93F889
:10EFE0001004704700000020BFF34F8F0549064B07
:10EFF000CA6802F4E0621343CB60BFF34F8F00BFD7
:10F00000FDE700BF00ED00E00400FA0507B5034688
:10F0100001220DF107010548FBF705FC20B99DF819
:10F02000070003B05DF804FBFF20FAE77CBA00207C
:10F03000F8B504460F46F6F733F806460020FFF70A
:10F04000E5FF0546F6F72CF8801BB84203D8A54229
:10F05000F4D10020F8BD4FF0FF30F8BDF8B50446FC
:10F06000084617460D46F5F7C5F83B46064682B2F8
:10F0700021460748FBF7D7FB28B9324629462046E8
:10F0800006F0FEFA18B1002323704FF0FF30F8BDF0
:10F090007CBA002030B50E4D87B0002300930FCD11
:10F0A00001AC0FC42B682360F8F70EFB694601A87A
:10F0B000F8F722FC0446F8F719FB34B90098013040
:10F0C00018BF4FF0FF3007B030BD4FF0FF30FAE708
:10F0D000C0A00108F8B50C4607461646F8F7F4FA42
:10F0E000264401253F1BB44204EB070108D014F865
:10F0F000012B00230020F8F72DFB05460028F2D055
:10F10000F8F7F4FA281C18BF01204042F8BD0000AF
:10F1100010B5054C237A13F0010303D005F0C8FCA9
:10F1200008B10378237410BDD885002010B50446BB
:10F13000F5F760F8214682B20348FBF7F7FB003091
:10F1400018BF0120404210BD7CBA002010B586B027
:10F150000B4A0C490446684607F0AEFB6846FFF7C9
:10F16000E5FF4FF4FA70F5F783FF2046FFF7DEFF67
:10F170004FF4FA60F5F77CFF002006B010BD00BF29
:10F18000E19A00205DAC010808B513468AB2014639
:10F190000348FBF748FB003018BF0120404208BD80
:10F1A0007CBA00202DE9F04F4FF4FA7397B08946EE
:10F1B0008346002115467B487B4E7C4C012205F09E
:10F1C00081FB642277490AA8FFF748FF6422784947
:10F1D0000AA8FFF743FF7748FBF70AFD7648FFF7D9
:10F1E000A5FF642272490AA8FFF738FF0023337095
:10F1F0004A4672490AA807F05FFB0AA8FFF796FF84
:10F2000041F28837B246F5F74BFF4FF47A728046E9
:10F2100001215046FFF7B8FF0346002840F09D80CB
:10F2200032783E2A09D10590C82221465046FFF780
:10F2300015FF002840F0948001230593F5F730FF77
:10F24000059BA0EB08003F1A0BB9002FDBDC1FFA6F
:10F2500089F259465748FBF769FB002800F09D806A
:10F260004FF4A57675E0144646E0554B0193002413
:10F270000094052340F267125249534804F066FE99
:10F280005248FFF753FF6422494906A8FFF7E6FEFC
:10F2900005F00EFB4E4B1B68002C6ED0032B4FF07D
:10F2A000000409DC4B4B0193009403234FF4BB7221
:10F2B0004449454804F04AFE204617B0BDE8F08FA7
:10F2C0000124F5F7EDFEA0EB0A002D1A002CD7D192
:10F2D000002D3DDDF5F7E4FE3F4982462A463248DF
:10F2E000FFF7BCFE014600283DD110222E48DFF872
:10F2F000B8B006F0DFF90124C82201215846FFF713
:10F3000043FFD946064688BB812C32D099F800309D
:10F310000A2B0BF1010B04F10102A4D1E0552F4996
:10F32000404607F0AAFB0028CAD12D491E4807F025
:10F33000A4FB48B92B491C4807F09FFB20B92A4978
:10F34000194807F09AFB30B1214B1B68052B8CDD67
:10F350000026002494E73446B3E740F23D16F8E770
:10F3600040F23F16F5E740F25516F2E74FF4AE765D
:10F37000EFE74FF4AF76044682E7052B0ADC1B4B20
:10F3800001930296009405234FF4BD720D490E4877
:10F3900004F0DCFD4FF0FF308FE7154F07F1020856
:10F3A00096E700BF6BAC0108A3DC002050C1010848
:10F3B00071AC01087CBA002078AC01087CAC010873
:10F3C000ABAC01089EAC01088BA60108BAAC0108E1
:10F3D0001CA00020C0AC010842B301088BAC01089E
:10F3E00093AC0108B3AC010898AC0108D1AC01089A
:10F3F000A1DC002038B505464C1E631C01D100205D
:10F4000008E00120FCF7E8FC284605F047FD013C38
:10F410000028F2D038BD0000014B1868FCF7D4BDBD
:10F42000B4B700202DE9F04FB44BB54F1868B54C78
:10F43000C5B04FF47A71FCF7E7FC4FF0FF320021C2
:10F4400006A8FCF735FD3B78AF4DDFF82083002B95
:10F450003AD02B78072B27D122680A23032A2B7056
:10F460000BDC0293A94B01930023009340F2CE22C0
:10F470000323A749A74804F069FD4FF0FF31D8F8EE
:10F480000000FCF779FD2B780A2B01F23383DFE8CB
:10F4900013F06F01990160032804DF047205EA0587
:10F4A000710727085608C908092B0DD122680823BF
:10F4B000032A2B70E1DC0293944B01930023009309
:10F4C00040F2D5220323D4E72B78032BD5D99249D8
:10F4D00092484FF47A73032205F0F4F990490646F6
:10F4E000006907F0CAFA0028C7D030688D4907F0D4
:10F4F000C4FA00F102098C49484607F0BEFA10220E
:10F5000082460021894806F0D5F8AAEB090249464F
:10F510008648DFF818A2DFF8209206F0C0F8B66837
:10F520008349304607F0A9FA864239D1182206F1FC
:10F530000901384607F08CFA01227E4BD8F800000A
:10F540001A70FCF741FD002141F2883301227A480C
:10F5500005F0B8F906687249304607F08EFA0028BF
:10F560008BD123682870042B0CDC744B03968DE838
:10F570000900CDF8089004234FF4497264496548A6
:10F5800004F0E4FC2368052B3FF777AF2B78029358
:10F590005E4B01930023009340F22532052368E778
:10F5A0006749304607F069FA864207D1182206F10A
:10F5B0000901384607F04CFA0222BEE7614930469D
:10F5C00007F05BFA864240F08580731D3A211846A9
:10F5D000059307F013FA06460028B4D0059BA0EB6C
:10F5E000030B5FFA8BFBBBF1170FACD85A461946D9
:10F5F000554806F054F8554B5549059303EB0B025B
:10F600004FF0000B82F863B0701C0BAA07F078F97A
:10F6100001280646059B96D10B9AC3F87B2004F07F
:10F62000ABFC52464B491DA807F046F94FF4FA735C
:10F63000324649491DA805F045F930B14FF4FA7337
:10F6400032465946454805F03DF94FF4FA60FCF75B
:10F65000C3FB002141F28833012237488AF80010A9
:10F6600005F030F906682E49264C304607F005FAB9
:10F6700000BB23682870042B0CDC304B03968DE80C
:10F680000900CDF80890042340F2113220492148A6
:10F6900004F05CFC2368052B0CDC2B7802931B4BDD
:10F6A00001930023009340F21232052318491948B0
:10F6B00004F04CFC2368062B0ADC294B0193002341
:10F6C000009340F2153206231149124804F03EFC23
:10F6D000FFF78AFC2349304607F0CFF986427FF4D2
:10F6E00032AF084B1B68062BF2DC1F4B0193002343
:10F6F000009340F21B320623E6E700BFD0B700209C
:10F70000B08A00201CA00020E09A00202AA701084F
:10F710009EAC0108ADA601083FA7010845A7010856
:10F7200090AC010850A7010853A70108E19A0020F6
:10F7300056A70108C88A002089A701089DA70108CB
:10F7400060A701086AA701086DDC00200ADC002020
:10F750003FAC01085DAC010870A7010873A7010860
:10F76000A6A70108C2A70108BEA70108B4B70020D8
:10F77000BA4B00261E605E609E6005F08FF9C820BF
:10F78000FCF72AFB05F082F905F078F94FF4FA60EE
:10F79000FCF722FB05F06AF940F6AC50FCF71CFBC5
:10F7A00022680123032A2B703FF74DAE0293AC4B26
:10F7B0000193009603234FF45772AA49AA4804F014
:10F7C000C5FB40E6A94E33681BB9A44A13605360D9
:10F7D000936005F0C3F808B32368042B0ADCA44B3C
:10F7E00001930023009340F2693204239D499E480F
:10F7F00004F0ACFB336801330A2B33607FF423AE93
:10F800002368062B3FF764AF994B019300230093C5
:10F810004FF45B7206239349934857E7236830609F
:10F82000032B09DC934B8F498DE8090040F27732B6
:10F8300003238D4804F08AFBDFF86C828E4E98F823
:10F84000083043F0010388F8083000214FF4FA73C0
:10F850000122304605F036F8D0F800908749484636
:10F8600007F00BF9E8B92368052B0CDC844BCDF8C5
:10F870000C908DE809000296052340F27D3279490B
:10F88000794804F063FB22680023052A2B703FF7B8
:10F89000DAAD734A0293019200934FF46F7205231D
:10F8A0008BE7784E00214FF4FA730122304605F0C1
:10F8B00009F8D0F800907149484607F0DEF860B9C1
:10F8C0002368052BDFDC6E4BCDF80C908DE809002A
:10F8D000029605234FF46172D1E76B4E00214FF47D
:10F8E000FA730122304604F0EDFFD0F8009063492E
:10F8F000484607F0C2F860B92368052BC3DC604BAB
:10F90000CDF80C908DE809000296052340F28B3269
:10F91000B5E700214FF4FA7302225C4804F0D2FFED
:10F9200056490646806807F0A8F8002800F086804F
:10F93000574B96E80600184605F0B1FE554EC8F83C
:10F940000C0000214FF4FA730122304604F0BAFF94
:10F95000D0F800804949404607F08FF870B9236815
:10F96000052B90DC464BCDF80C808DE80900029603
:10F9700005234FF41B723B49474882E7474E4849ED
:10F980004FF4FA730222304604F09CFFD0F808804E
:10F990003A49404607F071F870B3DFF81081DFF89C
:10F9A00010A1DFF8D890012698F8003093BB0136FB
:10F9B000052E08F11008F7D1DFF8F89000214FF478
:10F9C000FA730122484604F07DFFD0F800802B49ED
:10F9D000404607F052F800286ED12368052B3FF708
:10F9E00052AF274BCDF80C808DE80900CDF8089078
:10F9F000334640F2A13242E72368052B3FF743AF7D
:10FA00001F4BCDF80C808DE809000296052340F2CB
:10FA10007222B0E74346324651461DA806F04CFF1D
:10FA200000214FF4FA7301221DA804F04BFF494650
:10FA3000006807F022F80028B9D124E72368052BD5
:10FA40003FF721AF174B07498DE8090040F2963286
:10FA50000523054804F07AFA15E700BFE085002089
:10FA60002AA701089EAC0108B6A60108A88A0020B2
:10FA7000C9A70108DFA70108F1A7010890AC010898
:10FA80009DA70108FCA7010807A8010813A8010801
:10FA9000D09A00201BA801089BA601083AA80108DB
:10FAA0002CA8010861A80108D88500202BDC0020C3
:10FAB0004AA8010869A80108DFF8288300214FF44B
:10FAC000FA730122404604F0FDFED0F80090B549DB
:10FAD000484606F0D2FF70B92368052B3FF7D3AE36
:10FAE000B14BCDF80C908DE80900CDF80880334675
:10FAF0004FF46A72C3E6DFF8F08200214FF4FA7324
:10FB00000122404604F0DEFED0F80090A5494846A8
:10FB100006F0B3FF70B92368052B3FF7B4AEA24BD4
:10FB2000CDF80C908DE80900CDF80880334640F2FE
:10FB3000AF32A4E622680223032A2B703FF783AC7E
:10FB400002939A4B01930023009340F2B6320323B1
:10FB500033E604F0ABFF01300DD122680023052A03
:10FB60002B703FF770AC914A02930192009340F2E0
:10FB7000C532052321E68E4EFFF7CAFA326842B934
:10FB80008C490B7A62F3410362F3820362F3C3038D
:10FB90000B72DFF844A2884941F2883302225046B2
:10FBA00004F090FED0F800808449404606F065FFDE
:10FBB000814608B32368032B0ADC814B01930023A1
:10FBC000009340F2D93203237E497F4804F0BEF906
:10FBD00078490B7A43F002030B7221680323002259
:10FBE000994232602B703FF72EAC7049009202931D
:10FBF00001914FF48162E0E57449404606F03DFF13
:10FC0000002851D00DF174084B46714A102140462E
:10FC100006F01EFE41F2883301224946404604F0B8
:10FC200051FED0F800A05F49504606F026FF236839
:10FC300018B3032B0ADC674B0193CDF80090032324
:10FC400040F2E5325F49604804F080F95A49624861
:10FC500041F28833022204F035FE5849006806F06C
:10FC60000CFFD0B12368032BB2DC554B019300236A
:10FC700000934FF47B720323A6E7042B0DDC4A4B61
:10FC8000CDF80CA08DE80900CDF80880042340F2DF
:10FC9000F2324C494C4804F059F933680133042BD3
:10FCA00010D83360FFF7CFBB2368042BF5DC3E4B45
:10FCB000CDF80C808DE80900CDF808A0042340F2AF
:10FCC000F632E6E722680023052A33602B703FF7FF
:10FCD000BAAB364A02930192009340F2FE320523FA
:10FCE0006BE504F0E3FE01300DD122680023052A04
:10FCF0002B703FF7A8AB2D4A02930192009340F27C
:10FD00001142052359E5354E4FF4FA70FCF764F8BB
:10FD1000FFF7FEF900214FF4FA730122304604F098
:10FD2000D1FDD0F800801F49404606F0A6FEE8B994
:10FD30002368052B0CDC1C4BCDF80C808DE80900EA
:10FD40000296052340F21C421E491F4804F0FEF8AB
:10FD500022680023052A2B703FF775AB134A0293E4
:10FD60000192009340F23A42052326E51C4E002101
:10FD70004FF4FA730122304604F0A4FDD0F800805D
:10FD80000849404606F079FE80BB2368052BDFDC7E
:10FD9000054BCDF80C808DE809000296052340F252
:10FDA0002442D1E790AC01089DA701082AA70108C9
:10FDB000A88A0020D88500208BA801089BA80108EC
:10FDC000A8A801089EAC0108B6A60108B5A80108BC
:10FDD000C4A80108D2A8010891A80108DDA801085B
:10FDE000E8A8010871A801087EA80108A74E4FF4F1
:10FDF0007A70FBF7F1FF00214FF4FA7301223046CD
:10FE000004F060FDD0F80080A149404606F035FEC0
:10FE100078B92368042B0CDC9E4BCDF80C808DE860
:10FE20000900029604234FF486629B499B4804F024
:10FE30008DF822680423032A2B703FF704AB02934A
:10FE4000974B01930023009340F234420323B4E420
:10FE500004F02CFE01300DD122680023052A2B70FE
:10FE60003FF7F1AA8E4A02930192009340F2444276
:10FE70000523A2E48B4EFFF74BF9336833B98A4967
:10FE80000A7A63F3820263F3C3020A7201335A2BC4
:10FE900033603ED88549864841F28833022204F017
:10FEA00011FD8449006806F0E8FDA0B9226802232C
:10FEB000052A2B700ADC0293794B40F25A428DE8F6
:10FEC000090005237449754804F040F8754B002279
:10FED0001A60FFF7B8BADFF8048277494FF4FA7373
:10FEE0000222404604F0EEFCD0F8009073494846E8
:10FEF00006F0C3FD2368E0B1032B0ADC704B0193CD
:10FF00000023009340F2624203236349634804F0F4
:10FF10001DF8216800230522032933602A703FF76A
:10FF200092AA02925E4A0192009340F27742032322
:10FF300043E4042B0DDC574BCDF80C908DE8090001
:10FF4000CDF80880042340F265425349534803F03A
:10FF5000FDFF3368592B7FF676AA22680223052A13
:10FF60002B70B3DC02934E4B01930023009340F2BD
:10FF700069420523A6E704F099FD01300DD12268FE
:10FF80000023052A2B703FF75EAA454A029301928F
:10FF900000934FF4906205230FE4424EFFF7B8F848
:10FFA000316861B9404A4748137A61F3820361F3CB
:10FFB000C303137241F28833012204F083FC3368D7
:10FFC00001330F2B336019D841F2883302223E49A6
:10FFD0003E4804F077FC3E49006806F04EFD236879
:10FFE00010B3032B0ADC3B4B01930023009340F238
:10FFF0009A4203232849294803F0A8FF2A490B7A8B
:020000040801F1
:1000000043F004030B7221680022062303293260A7
:100010002B703FF718AA0293214B8DE80C000323A5
:1000200040F2AD42FFF7C9BB042B09DC2A4B1A4949
:100030008DE8090040F29D420423184803F086FF32
:1000400033680F2B7FF4FFA922680423052A2B7045
:100050003FF73CAF0293124B01930023009340F211
:10006000A14205232EE704F021FD013038D122689A
:100070000023052A2B703FF7E6A9094A0293019253
:10008000009340F2B6420523FFF797BB89A701080A
:1000900090AC01089DA701089EAC0108B6A6010816
:1000A0002AA70108A88A0020D88500208BA801086B
:1000B00091A801089BA80108F7A8010807A9010851
:1000C00012A9010825A9010831A9010838A90108C8
:1000D00043A901084DA901085BA90108FDA8010871
:1000E000AE4EFFF715F8D6F80080B8F1000F40F0DB
:1000F000F680AB4B83F80380AA4B1A7A68F3C302ED
:100100001A7204F01DFDF0B12368052B0ADCA64B22
:100110000193CDF80080052340F2C442A349A448CE
:1001200003F014FF216800230422052933602A709C
:100130003FF789A902929F4A0192009340F22C5204
:100140000523FFF73ABB4FF4FA7302229A499B4802
:1001500004F0B8FB9A49006806F08FFC014600BB2A
:10016000DFF8A4824FF4FA730122404604F0AAFBA0
:10017000D0F800909349484606F07FFC88B9236880
:10018000052BCFDC904BCDF80C908DE80900CDF815
:100190000880052340F2CF428449854803F0D6FE0B
:1001A000C0E74FF4FA7302228849894804F08AFBB9
:1001B0008849006806F061FC0146E0B9DFF84C822E
:1001C0004FF4FA730122404604F07CFBD0F8009013
:1001D0007C49484606F051FC68B92368052BA1DC30
:1001E000794BCDF80C908DE80900CDF808800523F7
:1001F00040F2D942D0E74FF4FA73022276497748A9
:1002000004F060FB7649006806F037FC0146E8B967
:10021000DFF8FC814FF4FA730122404604F052FBF0
:10022000D0F800906749484606F027FC70B923686B
:10023000052B3FF777AF644BCDF80C908DE80900A4
:10024000CDF80880052340F2E342A5E732220021E1
:100250001DA805F02FFA6349DFF8B8811DA806F044
:10026000DBFB61491DA806F0BAFB60491DA806F03A
:10027000B6FB4FF4FA73012200211DA804F022FB03
:10028000002141F288330122404604F01BFBD0F8E4
:1002900000904C49484606F0F0FB00BB2368052B54
:1002A0000DDC494BCDF80C908DE80900CDF80880A5
:1002B000052340F2F7423D493D4803F047FE2268DE
:1002C0000423052A2B703FF7BEA80293394B0193F4
:1002D0000023009340F2F9420523FFF76EBA33681A
:1002E000552B24D84FF47A7301220021404804F0A2
:1002F000E9FA4368073B082B36D841F288330222DB
:100300003C493D4804F0DEFA3C49806806F0B5FB04
:100310002368E8B1032B0ADC394B019300230093D7
:1003200040F2095203232149214803F00FFE2168BE
:1003300000230722032933602A703FF784A8029222
:100340001C4A0192009340F225520323FFF735BA6D
:10035000032B09DC2B4B15498DE8090040F20C52A8
:100360000323134803F0F2FD3368542B3FF6DAAE53
:10037000FFF769B804F09AFB01304DD122680023E1
:10038000052A2B703FF75FA80A4A02930192009357
:1003900040F235520523FFF710BA00BFA88A0020AB
:1003A00078B60020D885002069A901089EAC010814
:1003B000B6A601082AA7010877A901087FA90108A4
:1003C0008BA9010890AC01089DA70108A3A9010809
:1003D000ACA90108B9A90108D3A90108DCA9010841
:1003E000E9A9010803AA01080CAA0108E4BA010856
:1003F0001FAA010829AA01082FAA01083DAA01087D
:100400004EAA010861AA010896A90108C5A9010818
:10041000F5A9010815AA01088C4E337A6FF3C303BE
:100420003372FEF775FE8A48D0F87B1044F62062DE
:1004300089B2633004F0B0FBE8B12368052B0ADC15
:10044000844B01930023009340F23F5205238249DD
:10045000824803F07BFD22680823052A2B703EF7B3
:10046000F2AF02937E4B01930023009340F262525D
:100470000523FFF7A2B97B4B7B480122DA70337A60
:1004800043F008033372794E3146FEF7A5FB43F67D
:10049000982201463046FEF785FE80460028DAD1D4
:1004A0004FF480620146304605F004F94FF4FA61DA
:1004B0003046FEF79FFF4FF4FA613044FEF79AFF93
:1004C00022680923032A2B703EF7BDAF0293644BC9
:1004D0000193CDF80080032340F25D52FFF76DB920
:1004E00004F0E4FA01300ED122680023052A2B70B3
:1004F0003EF7A9AF5A4A02930192009340F26B5221
:100500000523FFF75AB9FEF703FE41F288330122B3
:100510005749584804F0D6F9524A21680023D3704D
:1005200003294FF004022A703EF78DAF02924C4A25
:100530000192009340F279520323FFF73EB904F091
:10054000B5FA01304FF000060DD123682E70052B4F
:100550003EF779AF424B019302960096052340F295
:100560008952FFF72AB9FEF7D3FDDFF81C91DFF8B7
:10057000FC80D9F8001001221DA8FBF777FD1D9B18
:10058000102B06D11E9B08F806300136B6F5806F99
:10059000EFD13146384801F0B1F9002E3EF453AFA7
:1005A000314643F698223148DFF8C080FEF7FAFD65
:1005B000324B014606460A221868FBF72FFD7EB132
:1005C00022680823052A2B703EF73DAF0293244B87
:1005D00001930023009340F297520523FFF7EDB8F3
:1005E000274B41F2883140461E60FEF703FF8146EB
:1005F00000283EF428AF234E3068FBF78EFD0546F9
:1006000000287EF420AFFBF72DFE18F805103068A7
:1006100000220135FBF702FDA945F6D1FBF744FEA8
:10062000FEF711BF04F042FA01302FD122680023F7
:10063000052A2B703EF707AF094A029301920093F7
:1006400040F2AD520523FFF7B8B800BFD8850020AF
:100650000ADC00206CAA01089EAC0108B6A60108BD
:100660002AA7010878B60020D09A0020A78600208B
:100670007EAA010887AA010894AA0108C8B7002029
:10068000CC9A00209CB70020A8B70020B548B64CF3
:10069000B64DFAF7ADFAB348FAF7AAFAB44B1868B0
:1006A000FCF724FFB34B1868FCF720FFB24B186827
:1006B000FCF71CFF2046FAF79BFAFEF7EBFC002341
:1006C000AE482B70FEF732FDC822AC492846FEF733
:1006D000C5FC002840F0BD81C822A9492846FEF784
:1006E000BDFC002840F0B881A648FEF71FFDC822D7
:1006F000A4492846FEF7B2FC002840F0B0814FF430
:10070000FA729F492846FEF7A9FC002840F0AA810A
:100710009D48FEF70BFD4FF47A7299492846FEF783
:100720009DFC002840F0A1814FF4E1332046636036
:10073000F9F7AAFF914E924F1424A8463046FEF7CF
:10074000F5FC4FF4FA7239464046FEF787FC002864
:1007500000F008828D4801F0D1F8013C6420F4F7E4
:1007600087FC14F0FF04E9D140F2EB54224688499B
:100770000DA806F0A1F80DA8FEF7E8FC854B1B6854
:10078000062B3EF7A5AF844B019300230093029400
:10079000062340F2B3628149814803F0D7FBFEF79C
:1007A00097BF80492B20FEF743FC002840F0998139
:1007B000C8227D496D48FEF751FC002840F0948125
:1007C000C820FEF723FC312804D032283BD040F269
:1007D0009D64CBE7C82275493046FEF73FFC0028F0
:1007E00040F0AE800590C820FEF710FC3221834611
:1007F0000A20FEF71DFCBBF1310F059B0ED1B9F1AC
:10080000000F08D140F2B45269490DA806F054F81F
:100810000DA8FEF78BFC4FF0010995E2BBF1300FFC
:1008200068D05C4A1268052A00F39682614A0192F8
:100830000093CDF808B0052340F264625749584848
:1008400003F084FB88E2C82258493046FEF706FCD4
:10085000002878D1584B3070A946C822012148465B
:100860000593CB46FEF790FC00286FD1059B4B45C6
:100870006FD09BF800200A2A09F10109EDD144AAA2
:100880004E4942F89C0D304606F03AF8012863D1F3
:100890001D9B002BB6D0F4F703FC41F28832824650
:1008A0001D993046FEF770FC002858D1444BDDF806
:1008B00074901B78012B04D0022B2AD040F2846460
:1008C00054E70CB9FEF7E6FB04F100604A463146F6
:1008D00000F10410FEF7FEFB0028EFD11D9A394805
:1008E000144408F101082346414601F007F83B692A
:1008F0009C4287D13B69A34240F02E82304D0C943C
:100900002B78012B64D0022B00F0898040F2A46484
:100910002CE7DFF8B8B00CB9CBF80040DBF80030BA
:100920000593C3F580529145C8D827484A463146B9
:10093000204404F0B4FE059B4B44CBF80030CDE7D7
:1009400040F2526412E740F26E640FE740F27564C1
:100950000CE740F2776409E740F27B6406E74FF466
:10096000D06403E73CBA00207CBA0020A3DC00205E
:10097000A4B7002080B7002090B7002078AC010811
:1009800071AC01086BAC0108B0AA0108BFAA01084C
:100990000FAC01081CA000201AAC01089EAC010895
:1009A000B6A60108905F0100ABAB010854A701088F
:1009B000B4AB0108C4AB0108A9DC0020F4AC010809
:1009C000C88A0020D4AB0108C98A0020AC8A002064
:1009D00044A9043C41F8E04D04225548FEF77AFB57
:1009E000002893D1534B2978534A00241C70534B51
:1009F0000DA8012908BF1A46514905F05DFF0DA851
:100A0000FEF7A4FB4F4B1B68062B3EF761AE4E4B27
:100A100001930094062340F2AC62FEF7FCBE002175
:100A200099221DA804F046FE484800231DA903553D
:100A300000F078FF00287FF469AFFBF713FC9922E0
:100A40001DA9434804F02BFEFBF72EFC03F094FA9B
:100A5000C6E740F2CF5489E64FF4BA6486E640F226
:100A6000D45483E640F2D55480E640F2D9547DE672
:100A700040F2F3547AE640F2F65477E640F2FB5443
:100A800074E640F2FD5471E640F2FE546EE640F228
:100A900003646BE640F2076468E640F20B6465E6C7
:100AA00040F20F6462E640F212645FE640F21664C0
:100AB0005CE640F21C6459E640F21F6456E64FF4CF
:100AC000C46453E64FF4C56450E640F22A644DE630
:100AD00040F22D644AE640F22F6447E640F2366465
:100AE00044E640F24B6441E640F24C643EE640F29C
:100AF000EF543BE62268052A0BDC0293154B019369
:100B00000023009340F2BA6205231349134803F00F
:100B10001DFA22680023032A2B703EF794AC104A7A
:100B200002930192009340F2BD620323FEF745BE9B
:100B300000000408B08A00201BA7010807A70108CD
:100B400003AC01081CA00020C2A70108C98A00202C
:100B50000ADC002029AC01089EAC0108B6A60108F9
:100B60002AA701087E48FEF7E1FA4FF47A727D4920
:100B70007D48FEF773FA0028B9D17C4A7C490DA85C
:100B800005F09AFE0DA8FEF7D1FA4FF47A72754976
:100B90007548FEF763FA00287FF46AAF7548FEF7E0
:100BA000C5FA4FF47A726F496F48FEF757FA00287A
:100BB0007FF461AF7048FEF7B9FA41F288326F49AD
:100BC0006948FEF74BFA00287FF458AF64210A20E9
:100BD000FEF72EFA00287FF454AF4FF47A72614981
:100BE0006148FEF73BFA00287FF44EAF6448FEF7F9
:100BF0009DFA4FF47A725B495B48FEF72FFA0028A2
:100C00007FF445AF5F4A60490DA805F055FE0DA879
:100C1000FEF78CFA4FF47A7252495348FEF71EFAE7
:100C200000287FF437AF594A59490DA805F044FE12
:100C30000DA8FEF77BFA4FF47A724A494A48FEF74C
:100C40000DFA00287FF429AF524A53490DA805F048
:100C500033FE0DA8FEF76AFA4FF47A724149424812
:100C6000FEF7FCF900287FF41BAF4C48FEF75EFA54
:100C70004FF47A723B493C48FEF7F0F900287FF4C4
:100C800012AF474A47490DA805F016FE0DA8FEF71A
:100C90004DFA4FF47A7233493348FEF7DFF90028F2
:100CA0007FF404AF4048FEF741FA4FF47A722D49C1
:100CB0002D48FEF7D3F900287FF4FBAE3B492B20EB
:100CC000FEF7B6F900287FF4F7AEC8223849264867
:100CD000FEF7C4F900287FF4F2AE364F364E287086
:100CE0003861A6F10904C82201212046A046FEF77A
:100CF0004BFA00287FF4E6AEB4423FF4E6AE98F833
:100D000000300A2B04F10104EDD12C4A2C4916487D
:100D100005F0F6FD01287FF4DBAE3B69002B3FF4C4
:100D2000DAAE2848FEF702FA4FF4FA620D490E488F
:100D3000FEF794F9804600287FF4D0AEF4F7B0F9BE
:100D4000094E8246C1464446F4F7AAF91E4BA0EB71
:100D50000A0098427FF625AD40F2A16406E500BF87
:100D600042AC010871AC0108A3DC00200CAA010808
:100D7000D5AA0108EAAA0108F8AA010806AB0108E9
:100D800014AB0108BFA6010821AB0108D7A60108D2
:100D900030AB0108EFA601083DAB01084AAB0108E2
:100DA000B08A00205BAB010884AB0108905F0100B2
:100DB00090AB010878B60020ACDC002088B600209B
:100DC000F4AC01089EAB010820BF020008B5FEF795
:100DD00005F9094B1A68094B1A60094B1A68094B47
:100DE0001A6018B9BDE80840FEF762B8012801D1C1
:100DF0000520F7E708BD00BFFC80002030810020FF
:100E0000048100203481002080B58AB04FF0FF3289
:100E1000002102A8FBF74CF83B4F3C4E39684FF0DD
:100E2000FF3207A8FBF722F9079B102B0ED0384B97
:100E30001B68052BF2DC374B0193002300934F22F4
:100E400005233549354803F081F8E7E74FF47A7117
:100E500030689DF82080FBF753F80546002847D1FD
:100E60002F4C30497722204604F019FC84F8048086
:100E7000FEF7B4F800280CBF0223002384F84E309C
:100E8000294B306893ED097AD3ED077A17EE903A43
:100E9000B4EEE77AF1EE10FA17EE102AC4F84930F2
:100EA0004CBF01230023C4F8452084F84D30FBF7E4
:100EB000AFF8284606F0B8FC2060FBF7D3F977229C
:100EC00021461A4802F0A8FD60B1114B1B68052BA2
:100ED00008DC174B01930095052365220E490F4846
:100EE00003F034F8FBF7E0F9124800F007FD95E74E
:100EF000074B1B68052B91DC0F4B019300230093DC
:100F00006D2205239DE700BF84B7002094B7002021
:100F10001CA0002019AD010806AD0108F7AC0108BE
:100F2000F19A002030860020D88500201C0800207F
:100F300024AD010842AD010853AD01080422024965
:100F40000248F5F76BBC00BF7C9B0020CCB60020AC
:100F5000014B1868FBF738B8BCB7002008490B787C
:100F600063B1084A1368052B02D801331360704738
:100F700000231360044A0B7082F84D30704700BFA5
:100F80004C070020849B0020D88500200000000032
:100F900038B54D4DDFED4D7A2B884D4C9BB206EEAA
:100FA000903AF8EEE66A2DED048BF0EE088A66EED4
:100FB000A86A6B889FED478A66EEA76A9BB286EEA9
:100FC000889A06EE903AF8EEE66AAB8884ED0D9AC0
:100FD00066EEA86A9BB266EEA76A86EE887A84ED12
:100FE0000E7A07EE103AB8EEC77A27EE287A27EE87
:100FF000277AC7EE087A17EE900AF3F7BDFA30A306
:10100000D3E90023F3F75AF9F3F702FEEB88324DE8
:1010100060629BB207EE903AF8EEE77AB7EE087A94
:1010200067EEA87A95F88B102C4867EE877A87EEE2
:10103000887A84ED077AD5F88D3008EE103AB4EE50
:10104000C89AF1EE10FACCBF01220022012918BF84
:1010500082F001024FF40051F6F7EEFD236BD4ED60
:101060000E8A1E48B4EEC89AF1EE10FAD4BF23F0EF
:10107000010343F001032363D5F8913008EE103AE1
:1010800095F88C30F4EEC88AF1EE10FACCBF01224C
:101090000022012B18BF82F001024FF48051F6F7B5
:1010A000CBFDF4EEC88ABDEC048B236BF1EE10FA95
:1010B000D4BF23F0020343F00203236338BD00BF13
:1010C0009A9999999999C93F7C9B0020C74B7B417C
:1010D000D885002000F07F450ADC00200004024093
:1010E000810610B5044602D5002001F05FFDE2073D
:1010F00002D5012001F05AFDA30702D5022001F01C
:1011000055FD600702D5032001F050FD610609D5A9
:1011100040211348F6F77EFD124BB0FA80F04009EB
:1011200083F84C00E2050ED54FF480710C48F6F7B9
:1011300071FD0C4BB0FA80F093F82020400960F369
:10114000000283F82020630508D5074A01231370A5
:10115000064A00211160034A82F84D3010BD00BFDD
:1011600000000240D88500204C070020849B00200E
:101170002DE9F04F2DED028B4FF4806291B0AB4919
:10118000AB48AC4DF4F7F8F8AB4B4FF47A711868F4
:10119000FAF73AFEE989A94B4FF47A74614318686B
:1011A000FAF732FEA64B21461868A64CFAF72CFE39
:1011B0000020FFF795FF4FF0FF32002108A8FAF753
:1011C00077FE2068FAF700FF0595069400259E4CEF
:1011D0004FF4FA70FAF700FE94F84D00FDF7AAFEFE
:1011E0009A4A13680133012B7BD81360984B1A6815
:1011F0001D60013240F09C80964A136801331D2B1C
:1012000000F2F3801360944A13680133012B88BF06
:101210002B461360069B002118681646FAF7ACFEB1
:101220000028D5D131238DF83430059B30601B7CEC
:101230008DF8353006238DF836300DAE03469A5DB5
:10124000082480EA020111F0010F4FEA500018BF94
:1012500080F08C0004F1FF3418BFC0B214F0FF041A
:101260004FEA5202EDD10133032BE8D18DF837005C
:1012700001224FF480716D48F6F7DEFC4FF496734F
:10128000042231467548F9F771FA22464FF480710D
:101290006648F6F7D1FC4FF49673092231466F4841
:1012A000F9F7C1FA58B99DF937206D4B07EE902A2E
:1012B000F8EEE77ABDF83820C3ED017A1A60694C80
:1012C0004FF47A712068FAF71BFE00287FF47FAF95
:1012D000634B20681A68644BC3F83D20FAF798FE08
:1012E00075E7604E15604FF47A713068FAF708FEC2
:1012F00000287FF47BAF5C4B626BC3F82320A26BAA
:10130000C3F82720E26A83F83B20226B83F83C2055
:10131000E26BC3F82B20226CC3F82F20626CC3F859
:1013200033203068A26CC3F83720FAF771FE5DE70E
:101330003F48DFF8FC80DFF84491F4F7B5F84FF050
:10134000000B5F465E4608F1090AFAF78BFFF021B1
:101350003748F4F7AEF80790FAF7A6FF079880B180
:101360004248F3F7E9FF58B341480C21721C01FBD6
:101370000606DAF80000DAF8041003C6D6B2082E22
:10138000E3D9DFF8EC8088F86060364E88F8727038
:101390004FF47A71306888F871B0FAF7B1FD00281F
:1013A0007FF42AAF98F87220324BE2B158F8612FDF
:1013B0001A60D8F804205A603068FAF729FE1BE753
:1013C00098F80900DAF80010DAF80420012809BFBB
:1013D000294BC9F8001019605A600EBF8346C9F83E
:1013E00004200127CBE71A60E5E7214B156093F84D
:1013F00060209846002A43D11A4E4FF47A71306823
:10140000FAF77EFD00287FF4FEAE194B164F99685F
:1014100007EB800201300828C2F84F1003F10C03DB
:10142000F5D13068FAF7F4FDEDE600BF00040240A4
:10143000689B00200ADC002074B70020B8B70020A9
:1014400078B70020BCB70020D885002048070020CE
:10145000440700205007002040070020FCB900206E
:101460002886002094B7002030860020719B002041
:1014700094D300209F860020FDD30020F5D30020C8
:10148000FAF7F0FE3448344FF3F7C5FEFAF70CFFD5
:1014900050260A20FAF7A0FCFAF7E4FE3846F3F7E4
:1014A00051FF8146FAF700FFB9F1000F11D1013E5B
:1014B00016F0FF06EDD1294B1B68042B09DC284BE5
:1014C00001930096042340F239122649264802F07F
:1014D0003DFD264F9FED268ADFF88090DFF898B01B
:1014E000002698F86020F3B29A4225D9FAF7BAFE9E
:1014F00007F1080239461848F3F79CFE8246FAF7CE
:10150000D3FEBAF1000F11D1D9F8003087ED028A6D
:10151000052B0BDC174B01930296CDF800A0052399
:101520004FF4A4720F49104802F010FD0136082E46
:1015300007F10C07D5D15FE7D9F8003087ED028AB3
:10154000042BF3DC002300930296CDF804B00423AF
:1015500040F24D12E6E700BF689B00201CA000206F
:1015600083AD010872AD010865AD010894D3002078
:10157000008088C396AD0108B0AD0108BFF34F8F5E
:101580000549064BCA6802F4E0621343CB60BFF31F
:101590004F8F00BFFDE700BF00ED00E00400FA053B
:1015A00070B5054633248EB231462846FCF7DAFC86
:1015B00008B1013C00D170BD0120FAF70DFCF3E742
:1015C00070B50F4EADF5047D00240A22316801A8E4
:1015D000FAF74CFD019B102BA5B20CD104AB029A7B
:1015E000E2540134B4F5007FEFD12546294604A822
:1015F000FFF7D6FFE8E7002DF8D10DF5047D70BDAB
:1016000088B7002070B50C460546F2F7F3FD064694
:101610002046F2F7EFFD864207D12146284605F025
:101620002CFA003018BF012070BD002070BD0000F2
:101630002DE9F843794C7A487A4FDFF84482DFF895
:1016400044922DED028B05F073F82168764804F082
:10165000FBFFE288A188754804F0F6FF62892189C2
:10166000734804F0F1FFE289A189724804F0ECFFAD
:10167000217C714804F0E8FF704B617C70480029C0
:101680000CBF3946194604F0DFFFA17E6D4804F017
:10169000DBFFB4F81B106C4804F0D6FFD4F815300B
:1016A0006A4807EE103AB2EE048A67EE087A0A2317
:1016B000FDEEE77A264617EE902AFDEEC77A92FBFA
:1016C000F3F103FB112217EE901A04F0BDFF617EC7
:1016D0005F4804F0B9FF617F5E4804F0B5FF94F8FD
:1016E00020105D4804F0B0FFE18B5C4804F0ACFFD3
:1016F000B4F861105A4804F0A7FFD4F87B20594889
:1017000004F1630104F0A0FF94F87F10564B574A90
:10171000574800290CBF1146194604F095FF0025D3
:1017200096F8832096F884100135012A14BF4246AA
:101730004A4600296BD002296BD001296BD04D4855
:101740004D4B042908BF034629464C4804F07CFF52
:10175000042D06F10206E3D194F88B20484F494E40
:101760004948012A14BF3A463246012104F06CFF71
:1017700094F88C204448012A14BF3A46324602218C
:1017800004F062FFD4F88D30404807EE103A67EE5F
:10179000087A0A26FDEEE77A012117EE903AFDEE6F
:1017A000C77A93FBF6F206FB123317EE902A04F089
:1017B0004BFFD4F89130354807EE903A27EE888AEF
:1017C000FDEEE77ABDEEC87A022117EE103A93FBE0
:1017D000F6F206FB123317EE902A04F035FF2C4A7E
:1017E0002C48012104F030FF2B4A2A48022104F042
:1017F0002BFF2A4A2748032104F026FFBDEC028B69
:101800002946274A2348BDE8F84304F01DBF3B465C
:101810009AE7244B98E7244B96E700BF0ADC0020A8
:1018200075B001081FB00108A3B00108C3B00108DA
:10183000FFB001083BB1010877B101081CB00108F5
:1018400097B10108B7B10108DCB1010800B2010885
:1018500023B2010843B2010868B201088CB2010842
:10186000AEB20108CEB2010823B0010827B00108CA
:10187000F1B2010861B001085DB0010811B30108BF
:1018800038B001082AB0010845B3010865B3010862
:101890002BDC00208DB301083BDC00204BDC00205A
:1018A0005BDC002048B0010851B00108F8B5074FD3
:1018B0000D4604464618B44201D12846F8BD002220
:1018C00014F8011B3868FAF7A9FBF4E788B7002081
:1018D00070B5094E0446B1F5006F94BF451800F588
:1018E0000065AC4201D1002070BD002214F8011B3C
:1018F0003068FAF793FBF4E7C0B700200FB4084B49
:101900001B7807B54BB905A90498019106F0D2F9E7
:1019100003B05DF804EB04B070474FF0FF30F7E719
:1019200008DC00202DE9F04F2DED028B0C4683B032
:10193000222105F063F8054630B94FF0FF3003B0BF
:10194000BDEC028BBDE8F08FCB496A4604F0D8FFAE
:10195000012813BF0023009B236023701EBF637008
:10196000A370E370C549284605F087F80028E4D045
:10197000C34905F082F80028DFD0C24905F07DF8A0
:1019800005460028D9D06A46BF4904F0B9FF0128AE
:10199000D3D1BDF80030A3802846BC4905F06DF8CE
:1019A00005460028C9D06A46B94904F0A9FF0128B4
:1019B000C3D1BDF80030E380B649284605F05DF894
:1019C0000028BAD0AF4905F058F805460028B4D031
:1019D0006A46AD4904F094FF0128AED1BDF800304D
:1019E00023812846A94905F048F805460028A4D0D7
:1019F0006A46A74904F084FF01289ED1BDF8003053
:101A00006381A549284605F038F8002895D09D49FE
:101A100005F033F8054600288FD06A469A4904F04D
:101A20006FFF012889D1BDF80030A381284697496E
:101A300005F023F8054600283FF47FAF6A46944935
:101A400004F05EFF01287FF478AFBDF80030E38139
:101A50009249284605F011F800283FF46EAF9049EE
:101A600005F00BF8054600283FF467AF6A468D493C
:101A700004F046FF01287FF460AF009B23748A497D
:101A8000284604F0FAFF00283FF457AF874904F0D6
:101A9000F4FF00283FF451AF00F109050222844908
:101AA000284603F0EDFD002840F0BD81012363745A
:101AB0002846804904F0E1FF054600283FF43DAF89
:101AC0006A467D4904F01CFF01287FF436AF009B75
:101AD000A3762846794904F0D0FF054600283FF454
:101AE0002CAF6A46764904F00BFF01287FF425AF3E
:101AF0009DF80030A4F81B302846724904F0BDFF61
:101B0000054600283FF419AF01AB6A466E4904F060
:101B1000F7FE02287FF411AFDDED017A6B49B8EED4
:101B2000E77AB2EE048AC7EE087A28469DED007A7D
:101B3000B8EEC77A77EE877A17EE903AC4F8153088
:101B400004F09BFF054600283FF4F7AE6A46604963
:101B500004F0D6FE01287FF4F0AE009B63762846A1
:101B60005C4904F08AFF054600283FF4E6AE6A4669
:101B7000594904F0C5FE01287FF4DFAE009B63776E
:101B80002846564904F079FF054600283FF4D5AEB3
:101B90006A46534904F0B4FE01287FF4CEAE009BA0
:101BA00084F8203028464F4904F067FF0546002896
:101BB0003FF4C3AE6A464C4904F0A2FE01287FF40C
:101BC000BCAE9DF80030E3832846484904F055FF39
:101BD000054600283FF4B1AE6A46454904F090FE40
:101BE00001287FF4AAAE9DF80030A4F86130414985
:101BF000284604F042FF00283FF49FAE284904F035
:101C00003CFF00283FF499AE00F10A052221284646
:101C100004F0F4FE461B172E00963FF68EAE3246B9
:101C2000294604F16300264403F039FD00232846C9
:101C300086F86330304904F020FF054600283FF461
:101C40007CAE6A462D4904F05BFE012806467FF40F
:101C500074AE009BC4F87B302949284604F00DFF80
:101C600000283FF46AAE00F11005042225492846F9
:101C700003F006FD48E000BFECAD0108F5AD01083A
:101C8000FCAD010806AE010815AE010829AE010839
:101C900039AE01084EAE010859AE010862AE010826
:101CA0006DAE010875AE010882AE010887AE01086D
:101CB0004EB0010892AE01089FAE0108B1AE010816
:101CC000BDAE0108CEAE0108D7AE0108E9AE0108ED
:101CD000F8AE01080CAF010816AF010825AF0108E6
:101CE00036AF01084CAF01085FAF010877AF0108BC
:101CF0008EAF0108AAAF0108AFAF0108B4AF010869
:101D0000BEAF0108CCAF0108002840F0968084F8EF
:101D10007F607849284604F0B0FE064600283FF46C
:101D20000CAEDFF8D881DFF8F491DFF8F4A1254696
:101D300004F10807AF4240F08B806F49304604F051
:101D40009CFE054600283FF4F8AD6C4FDFF8CC81CF
:101D5000DFF8CC9104F18B0B04F18D064FF0010AF2
:101D6000B34540F0A9806649284604F086FE002865
:101D70003FF4E3AD634FDFF8AC810026394604F051
:101D80007CFE054600283FF4D8AD01AB6A464146CB
:101D900004F0B6FD02287FF4D0ADDDED017AB8EE97
:101DA000E77A04EB8603C7EE087A0136022E05F1C6
:101DB00001009DED007AB8EEC77A77EE877A17EECC
:101DC000902AC3F88D20D9D14F4904F056FE05461C
:101DD00000283FF4B2AD0026DFF84CA104F1210841
:101DE000B1465146284604F048FE00283FF4A5AD10
:101DF000851C2221284604F001FE471B0F2F009767
:101E00003FF69BAD3A464046294603F048FC04EBBA
:101E100006131F440136042E87F8219008F110089C
:101E2000DFD100208BE503223849284603F028FC47
:101E300000287FF482AD60743AE6052234492846D2
:101E400003F01EFC00287FF478AD84F87F0060E783
:101E50004146304604F011FE00283FF46EADC61D29
:101E600002224946304603F00BFCD0B9012385F825
:101E700083303046274904F000FE064600283FF430
:101E80005CAD6A46244904F03BFD01287FF455AD62
:101E9000009B042B05F102053FF74FAD85F882301A
:101EA00048E702225146304603F0EAFB00287FF45F
:101EB00044AD85F88300DCE73946284604F0DDFDB3
:101EC00000283FF43AADC51D02224146284603F0E2
:101ED000D7FB20B98BF800A00BF1010B40E70222E1
:101EE0004946284603F0CCFB00287FF426AD8BF84A
:101EF0000000F1E7D7AF0108E7AF0108DCAF010848
:101F0000EDAF010884AF010805B001088EAE0108ED
:101F1000D1AF010810AE01081FAE0108E1AF010802
:101F2000E4AF0108F2AF010819B001082DE9F04F44
:101F30002DED028BB1B0FBF7CFFF4FF47A70DFF8D5
:101F40000081354EF9F748FFC1460022D8F800104D
:101F500009A8FAF78BF8099B102B9DF828301CD1A3
:101F60000D2B1CD030A8012100F89D3DFFF718FB78
:101F70009DF82330082B02BF326802F1FF32326035
:101F800032683F2A84BF002232600A2BDDD03268DB
:101F9000511C316021498B54D7E70D2B13D10221FD
:101FA0001F48204FFFF7FCFA33681C491E484FF0CA
:101FB000000B01F803B0C6F800B004F02DFD3D7829
:101FC00025B1012D11D0FFF7FBFABEE717491648DE
:101FD000FFF718FB38B1164B16481D70164B1D70D5
:101FE00004F0A6FB01203870EDE7DFF858A09AF85E
:101FF0000040002C40F02D830C490B48FFF702FBFA
:1020000010B30B4B0D481D700B4B1D7004F090FB73
:1020100023463B70D7E700BF889B00208C9B0020A5
:1020200042B3010808DC0020CC9B0020C9B30108A2
:1020300038070020CBB3010830D3002029B50108B0
:10204000C0B7002009DC0020CD49CE48FFF7DAFAFE
:10205000002800F05982CC4CCC48DFF8E8B3CC4DD6
:1020600004F066FB23786278A178CA4804F0ECFAA1
:102070002279E3786179C84804F0E6FAC74BC8488A
:10208000196804F0E1FAC74804F052FB237AC64805
:1020900013F0010F0CBF5946294604F0D5FA237AF4
:1020A000C24813F0020F0CBF5946294604F0CCFA7F
:1020B000237ABF4813F0040F0CBF5946294604F099
:1020C000C3FA237ABB4813F0080F0CBF59462946C0
:1020D00004F0BAFAB84BE168B8480793002908BF82
:1020E000194604F0B1FA94F91010B54804F0ACFAAE
:1020F000B44804F01DFB227DAB4812F0010F0CBF69
:102100005946294604F0A0FA617D032900F0F081C8
:10211000AD4A079B022914BF19461146AB489C4D96
:10212000DFF820B304F090FA94ED068A09A8B0EE27
:10213000480A04F05FFBDFEDA67AA64820EE270AE6
:10214000B0EEC00AFDEEC07A17EE902AFDEEC87A16
:102150009FEDA18A17EE901A04F076FA9F4804F0DA
:10216000E7FAD4ED078A09A8B0EE680A04F042FB4A
:1021700020EE080A9A48B0EEC00AFDEEC07A17EECB
:10218000902AFDEEE87A17EE901A04F05DFA94F8C2
:1021900020309449944813F0010F944B18BF19460E
:1021A00004F052FA924804F0C3FAD4ED098A09A85F
:1021B000B0EE680A04F01EFB20EE080A8848B0EE74
:1021C000C00AFDEEC07A17EE902AFDEEE87A17EE0F
:1021D000901A04F039FA874804F0AAFA94F82830E3
:1021E000714813F0010F14BF2946594604F02CFA28
:1021F00094F84D10804804F027FA804804F098FACB
:1022000094F82930684813F0010F14BF2946594645
:1022100004F01AFA7A487B4D04F08AFAD4ED0D8A5C
:1022200009A8B0EE680A04F0E5FA20EE080A76483C
:10223000B0EEC00AFDEEC07A17EE902AFDEEE87A05
:1022400017EE901A04F000FAD4ED0E8A09A8B0EE49
:10225000680A04F0CFFA20EE080A6C48B0EEC00A13
:10226000FDEEC07A17EE902AFDEEE87A17EE901A8E
:1022700004F0EAF9664804F05BFAE16A654801F0A7
:10228000010104F0E1F9E16A6348C1F3400104F09F
:10229000DBF9E16A6148C1F3800104F0D5F9E16A34
:1022A0005F48C1F3C00104F0CFF95E4804F040FA82
:1022B00029685D4804F0C8F9D5ED017A5B485C4DAA
:1022C000FDEEE77A17EE901A04F0BEF9594804F0D3
:1022D0002FFA95F86010584804F0B6F9D5ED177A42
:1022E00095ED086AD5ED056A95ED027A5348FDEE45
:1022F000E77ACDED047AD5ED147AFDEEE77ACDEDEF
:10230000037AD5ED117AFDEEE77ACDED027AD5EDBF
:102310000E7AFDEEE77ACDED017AD5ED0B7AFDEE82
:10232000E77ACDED007AFDEEC67A17EE903AFDEE33
:10233000E67A17EE902AFDEEC77A17EE901A04F0AF
:1023400083F995F87230002B00F0D48095F8610085
:1023500095F8663095F8672095F86810049095F820
:102360006200039095F86300029095F86400019074
:1023700095F865000090324804F066F964E000BF0B
:1023800047B50108CC9B0020D885002049B501083D
:1023900090AC010877B5010897B501080ADC002068
:1023A000B7B50108D1B50108DAB50108F4B50108DF
:1023B0000EB6010828B601088FC4010854B60108FA
:1023C0006EB601088CB60108B0B3010896B60108D4
:1023D0000000C842B0B6010800007A44CFB6010838
:1023E000DCB60108B7B30108FDB60108B3B30108B4
:1023F00017B7010822B7010835B701084FB7010820
:102400005EB701082886002068B7010889B701086F
:10241000AAB70108B4B70108CEB70108E8B70108A8
:1024200002B801081CB8010833B801084DB801080A
:1024300094D3002067B8010873B801088DB801086B
:10244000C3B8010898AC010895F87130002B56D03C
:1024500095F8700095F86B3095F86A2095F869103A
:10246000049095F86F00039095F86E00029095F82F
:102470006D00019095F86C000090814804F0E4F83C
:10248000804B814A94F84E10804800290CBF1146B9
:10249000194604F0D9F87E4B7E4A93F810147E4B0F
:1024A0007E48012914BF1146194604F0CDF8A36CEB
:1024B000009304F13C010EC9794804F0C5F894F882
:1024C0004C10784B784A794800290CBF11461946C0
:1024D00004F0BAF87649774804F0B6F89AF8003074
:1024E00023B9FFF76DF8744804F022F9012390E551
:1024F000724913E66E49724804F0A6F8A4E76C49E5
:10250000704804F0A1F8BBE76F497048FFF77AF80C
:1025100010B1FFF78DF8E1E76D496C48FFF772F8ED
:10252000002859D06B4804F003F9FFF749F86A4ACC
:10253000D9F8001009A8F9F799FD099B102B40F074
:102540009C80664D0A9B2C4604F8013B2B46C82212
:10255000D9F80010079309A8A4EB030BF9F786FD3F
:1025600009990A9A102903D104F8012B079BEEE779
:102570000021992209A805F80B1003F09BF809A97E
:102580005648FFF7CFF928BBF9F76CFE992209A945
:10259000534803F084F8F9F787FE01F0EDFC98B991
:1025A000504804F0C5F8FFF70BF8FFF741F8FFF7C4
:1025B00007F84D4804F0BCF8FFF702F84FF4FA7042
:1025C000F9F70AFCFEF7DAFF484804F0B1F8FEF725
:1025D000F7FF83E74648F8E746493C48FFF712F81B
:1025E00058B102224449454804F02EF8FEF7E8FFAE
:1025F000434801F04AF84348E7E743493348FFF7C7
:1026000001F840B1022241493C4804F01DF8FEF7B0
:10261000D7FF3F48EDE73F492C48FEF7F3FFA0B155
:102620003D4804F085F8FEF7CBFF3C4B1B68062BBA
:10263000C8DC3B4B01930023009340F2BD220623EC
:102640003849394801F082FCBCE7384804F070F89A
:1026500044E71E48F1F7CEFD044658B934493548E1
:1026600003F0F2FF8AF80040134804F061F8FEF727
:10267000A7FF3BE78AF800B0F6E72F48A5E700BFC1
:102680001CB901081CB001081FB0010875B9010888
:1026900000000020C2B30108BAB301088FB90108D5
:1026A000A9B9010833B0010841B00108CFB9010848
:1026B0008FC40108E9B90108CBB30108ADB3010823
:1026C00002B901085BB90108A4A70108CC9B00204E
:1026D00008A5010803BA0108C0D4010008D40020ED
:1026E0000ADC002027BA01084BBA01085CBA0108CD
:1026F0007BBA010812AA01089ABA0108A1BA010816
:102700001C080020D9BA0108E6BA0108E9BA010894
:10271000E407002073B00108EEBA01081CA00020F5
:1027200013BB010807BB0108CBAD010825BB01089D
:102730003CBB01084ABB010856BB0108B0F8402069
:10274000036B816A92B2013B9A4270B504460CD980
:102750000023A0F8403080F83A300B70C26A137042
:102760002369E06BBDE870401847B0F84030C56B96
:102770009BB25A1C92B2A0F840202A78CA544368EF
:1027800098470128ECD094F83A30042BE8D8DFE8D9
:1027900003F003354B505600E36B1B780D2B03D130
:1027A000022384F83A30DBE70A2B09D1A26A0D2113
:1027B0001170A26A53700223A4F840300323F0E79B
:1027C0002B2B0BD1A26A0D211170A26A0A21517024
:1027D000A26A93700323A4F84030E2E7626C127897
:1027E0009A4204D194F838300BB10123D9E7B4F8F8
:1027F0004020A16A92B200238B54ECE7B4F8403039
:10280000616CE26B11FA83F3127813F8013C9A427F
:1028100008D1B4F84030A26C9BB29342A0D10123FE
:1028200084F836300023D6E7E36B1B780A2BF9D106
:10283000C4E7E36B1B780D2B92D10423B1E7E36B64
:102840001B780A2B4FF000024ED1B4F84030A56A35
:102850009BB2EA5494F83830002B41D0E16C023539
:1028600021B1226D284602F00BFFB8B102222049A7
:10287000284602F005FF88B105221E49284602F0CD
:10288000FFFE58B104221C49284602F0F9FE28B187
:1028900004221A49284602F0F3FE08BBE56A2846DE
:1028A000F1F7A8FC226BA16A013A121A284604F03B
:1028B000BBF894F8423094F854200133DBB29A42CA
:1028C00084F8423007D10023012284F8372084F8AD
:1028D000423084F838300023A4F84030002360E709
:1028E000236A20469847F6E7A4F84020F6E700BFA1
:1028F00090AC010898AC01087BBB010880BB0108C3
:10290000012380F83530704710B50123C26A80F882
:102910003930002380F83630044680F8373080F8AC
:10292000423080F8353080F83830A0F840301370ED
:1029300080F83A30436998472369E06BBDE810405E
:10294000184770B5C3690C46164605469847001BE4
:10295000B04204D92846FFF7D7FF012070BD002000
:1029600070BD000090F843302DE9F04704460F4653
:10297000002B32D1036A002B00F0B1800369002BD9
:1029800000F0AD804369002B00F0A9808368002B24
:1029900000F0A580C368002B00F0A1800368002B25
:1029A00000F09D804368002B00F099808369002B24
:1029B00000F09580036B002B00F09180C36A002B20
:1029C00000F08D80836A002B00F08980C36B002BA0
:1029D00000F08580012380F84330002384F83930EB
:1029E000E3699847064694F83A2002F0FF0342BB99
:1029F000012284F8363084F8373084F8353084F892
:102A00003820E26A84F8423013702368A16C606C4D
:102A100098470546F0B994F8353053B394F83630FA
:102A20008BB394F85430BBB194F83730A3B9A36991
:102A300098473A4631462046FFF783FF0028F3D0F7
:102A400008E0A36998473A4631462046FFF779FFE8
:102A50000028C8D04FF0FF35E3689847EDB14FF03C
:102A6000FF350023A4F8403084F83A302846BDE80A
:102A7000F087A36998473A4631462046FFF761FF41
:102A80000028C8D0E6E7A36998473A463146204671
:102A9000FFF757FF0028C1D0DCE7E06A114FA946D5
:102AA000A84694F854305FFA89FA5345D9D9394683
:102AB00003F0E3FF0028D2D004EBCA0A861CCAF850
:102AC00058603946304603F0D8FF09F10109002863
:102AD000C5D0861BCAF85C6000F8028BE1E74FF0B6
:102AE000FF35C3E742B30108F0B5144D2C78ACB9FB
:102AF000DFF850E0124F2346082613F0010F4FEA8B
:102B0000530318BF83EA0E03013EF6D147F8243081
:102B10000134B4F5807FEED101232B70084CD243F1
:102B20000144884201D1D043F0BD10F8015BD3B21B
:102B30006B4054F8233083EA1222F2E70C9C002009
:102B4000109C00202083B8ED08B5032813D8DFE8D7
:102B500000F0020B0E1009482021F5F75BF810F188
:102B6000FF3018BF012008BD01210548F5E702210B
:102B7000FBE70421F9E7002008BD00BF0008024080
:102B80000004024008B5084B03EB400393F8833080
:102B9000012B03D1BDE80840FFF7D6BFFFF7D4FFF4
:102BA000B0FA80F0400908BD0ADC0020F8B5044600
:102BB000FFF7E8FF1B4B0125D96A05FA04F221EA69
:102BC0000201194AD96202EB440292F88420AA4217
:102BD00017D004F10E0603EB860600FA04F4002772
:102BE0002143032A7760D96218D0042A18D0022A18
:102BF00006D1C01B18BF0120FCF784F90B4B1D70D8
:102C0000F8BD0B490A68501CD2070860F8D50E348D
:102C100003EB84035A6801325A60F8BD054BEEE7B6
:102C2000054BECE7D88500200ADC002010A000202E
:102C300014A0002011A0002012A000200C4B0A4676
:102C4000242101FB003110B40C7F94420DD00A778F
:102C5000497F09B182F001022421484319185DF827
:102C6000044B89881858F4F7E7BF5DF8044B7047A8
:102C700054070020F8B5044616461D460F46F9F7DE
:102C8000F1FA0A48242303FB0400002232230261E4
:102C9000B7FBF3F7B6FBF3F6B5FBF3F58760C66059
:102CA00045618261BDE8F840F9F7FEBA540700209B
:102CB000322200231146FFF7DDBF00231A461946D2
:102CC000FFF7D8BF2DE9F0410025244CA846A168A4
:102CD000EEB261B93046FFF7B1FF23690135013328
:102CE000042D236104F12404F1D1BDE8F081E768EB
:102CF00023694FB9994201D30121EBE739463046A8
:102D0000FFF79CFFA760E8E7B942E6D8994203D3F2
:102D100001213046FFF792FF2369A268934206D94A
:102D2000E268934203D800213046FFF787FF22690B
:102D3000E3689A42626908BFC4F81080002ACCD0C8
:102D4000A3699A4206D1236AC4F80880002BC4D034
:102D50009847C2E70133A361BFE700BF54070020D3
:102D6000034630B50122084C027000224270827086
:102D70001A715A719A712288A3F807200B20551CEA
:102D8000D8702580597230BD18A0002010B5064AB1
:102D90000144FF23884201D1184610BD10F8014BB1
:102DA0006340D35CF6E700BF85BB010810B5094C52
:102DB00001444FF6FF73884201D1184610BD10F848
:102DC000012B82EA132234F8122082EA03239BB2F9
:102DD000F1E700BF86BC010838B50446C078B4F8F6
:102DE00005200B1A9342C8BFA4F805300D462044B5
:102DF000B4F80510FFF7DAFF6053E1780139C9B282
:102E00002046FFF7C3FFA072022038BD2DE9F0472E
:102E10000446124F4518002060544E1D01F10B0866
:102E2000398868709A464B1C3B80F4424FF09C03F3
:102E3000914669802B7104D004F0F6FC08490144E6
:102E4000A15185F8099085F80AA0B4F805300B3334
:102E5000A4F805304046BDE8F08700BF1AA0002066
:102E600000C5C2B410B5B0F805400334A0F8054061
:102E70001488033414804354C81C10BD70B50D462B
:102E8000B0F805101631A0F8051011881631118020
:102E9000002116225A7099704619049B43516C1DEB
:102EA0004223044433710F22204602F003FC059BA9
:102EB000054A1021204603F0CBFC4FF40063B38297
:102EC00005F1160070BD00BFA3A7010870B5B0F8EA
:102ED0000540154D0D34A0F8054014886E780D346A
:102EE000148000220D245C709A700124431844540D
:102EF0006FF034005870102098702C20D870132078
:102F000018712878094D5C7240EA0620A3F8050084
:102F10006E7828789C7240EA0620DA721A73A3F859
:102F2000070001F10D0070BD08A6010805A6010803
:102F3000F8B52DED028BB0F80540089E1834A0F8C6
:102F40000540148818341480374618225A7000221D
:102F50009A7057F8052B544B13444350FB6808EE06
:102F6000903AF0EEE87A441817EE900A01F118054D
:102F7000F1F702FB00224D4BF1F77CFC48A3D3E9AB
:102F80000023F1F74DFBF1F723FE60603B6908EE8B
:102F9000103AF0EEC87A17EE900AF1F7EDFA002237
:102FA000434BF1F767FC3EA3D3E90023F1F738FB6D
:102FB000F1F70EFE96F82130237396F82020A060DA
:102FC000032A04BF02332373237BDFED3A6A03F144
:102FD000080222737A6807EE902AF5EEC07AF1EEC5
:102FE00010FAC8BF1833F5EEC08AC8BF2373F1EEDC
:102FF00010FA48BF237BB5EEC08A44BF2033237349
:10300000F1EE10FA48BF237BB2EE047A44BF40339E
:10301000237367EE877A237BFCEEE77A803B23738A
:1030200017EE903AC3F30D03A4F80D30BA6807EE1B
:10303000902AF5EEC07AF1EE10FA44BF43F48043D3
:10304000A4F80D30B6F81930E373FF2B81BFB4F844
:103050000D306FEA43436FEA5343A4F80D30D7F8BD
:10306000173006EE103A86EE267A2846FCEEE77A0E
:10307000BCEEC77A17EE103A23741A0A1B0C62745E
:10308000A37496F83B30E3743379237517EE903AC6
:1030900063751A0A1B0CA275E375BDEC028BF8BDB3
:1030A0000000E0FFFFFFEF4100C5C2B400805640C2
:1030B000008066400000C84230B5B0F80540039D6E
:1030C0009FED0F7A0434A0F805401488043414806E
:1030D00004225A7000229A700A234354D5F805300E
:1030E00007EE903A67EE877A4218FCEEE77A081D01
:1030F00017EE903AA2F80130EB7ED37030BD00BFDE
:103100000000C84230B5B0F80550039CDFED196AE5
:103110000935A0F8055015880935158000250922C4
:103120005A709D704554421894F83C3053700323F4
:10313000937054F8233F07EE103A27EE267AFCEE00
:10314000C77A17EE903AD370180A1B0C107153719E
:10315000636807EE903A67EEA67AFCEEE77A17EE20
:10316000903A180A93711B0CD071137201F1090087
:1031700030BD00BF0000C84230B5B0F80550039C18
:103180000D35A0F8055015880D3515800D225A70A3
:1031900000229A700F2242544318D4F82B205A7000
:1031A000100A120C9870DA70D4F82F201A71100AD5
:1031B000120C58719A71D4F83320DA71100A120C7B
:1031C00018725A72D4F837209A72100A120CD872F8
:1031D0001A7301F10D0030BD30B5B0F80550039CF5
:1031E0000535A0F805501588053515800025052200
:1031F0005A709D7094F84E304354D4F8453007EE21
:10320000103AF2EE046A27EE267A4218FCEEC77AEC
:10321000957017EE903A5370D4F8493007EE903A13
:1032200067EEA67AFCEEE77A17EE903AD37094F840
:10323000223094F84D009B0003F004030343137104
:10324000481D30BD10B5B0F805400734A0F8054062
:10325000148807341480002207249A705C70431885
:1032600042545A709A70029AD2F83D20C3F8032053
:10327000081910BD2DE9F04387B0FF23161E0C4638
:103280008DF80F008DF816308DF8173039DDC3B288
:10329000012E0CBF63F07F0363F03F0300224FF465
:1032A000805119488DF80F304FF47A77F4F7C4FC49
:1032B000009701230DF117020DF10F011348F6F7E6
:1032C00025FA054620B9DFF844802644B44209D1E6
:1032D00001224FF480510C48F4F7AEFC284607B0A9
:1032E000BDE8F0830097012322460DF11601404608
:1032F00004F10109F6F70AFA08B94C46E6E7054673
:10330000E6E74FF0FF35E9E700080240F4B7002098
:1033100070B586B006AC002204F8012D8DF80F00C0
:103320000E4610484FF480514FF47A75F4F784FC40
:103330000095012322460DF10F010B48F6F7E6F93F
:1033400030B900950123224631460748F6F7DEF9E9
:1033500001224FF480510348F4F76EFC002006B0C0
:1033600070BD00BF00080240F4B7002037B502ACC2
:10337000272304F8013D20202146FFF7C9FF012340
:10338000214621208DF80730FFF7C2FF4023214658
:1033900022208DF80730FFF7BBFF90232146232022
:1033A0008DF807300225FFF7B3FF214625208DF861
:1033B0000750FFF7ADFF2A23214630208DF8073054
:1033C000FFF7A6FF214632208DF80750FFF7A0FF38
:1033D0000323214633208DF80730FFF799FF03B010
:1033E00030BD07B502A901F8010D3220FFF790FFAB
:1033F00003B05DF804FB07B502A9002301F8013D05
:1034000001220F20FFF736FF9DF80700A0F13303DC
:103410005842584103B05DF804FB83692DE9F74336
:103420008B420CBF438983894FF0FF325E08A1F1C4
:10343000040904460F468D19009201929944042212
:103440002946684601F048FD20B1206963691844A7
:1034500001300DE00098042E88BF7608431C0CD183
:10346000BD4208D1A3699D4216BFE369E5622363AB
:1034700003B0BDE8F083AD1BE1E74D4505F104085D
:1034800007D3A3699F420CBFC4F82C80C4F83080D6
:10349000EEE7042241460DEB020001F01DFD00287D
:1034A000D3D1019B013308D1A36900989F420CBF7F
:1034B000C4F82C80C4F83080DAE73544BFE737B56C
:1034C0008389C269016B1344994204460AD20422DB
:1034D00004F1280001F070FEE0B9236B043323638C
:1034E00003B030BD02AD002345F8043D0422043989
:1034F000284601F0F1FC68B9E06901F0E7FD48B940
:103500000422E169284601F057FE18B9E169043147
:103510002163DCE74FF0FF30E2E773B50446C16A90
:1035200063898069034499420AD2042204F1240089
:1035300001F042FE50BBE36A0433E36202B070BDA7
:1035400001F0C4FD10BB04F124060422A169304639
:1035500001F032FED0B902ADA16945F8040D0B1D92
:10356000E3620422284601F0B7FC78B9A06901F0B3
:10357000ADFD58B90422A169284601F01DFE28B905
:10358000A1690431E16204223046D1E74FF0FF30F7
:10359000D4E77FB5836AADF806200D4681880446DE
:1035A000B3FBF1F001FB1030091A063291420DD342
:1035B000BDF806309A1DA36A1344A3622046FFF7A4
:1035C0007EFF48B34FF0FF3004B070BD0B4462691A
:1035D0002169A3620A44934228BFA162A06A01F054
:1035E00075FD0028EED1A388616AA26AB1FBF3F6EB
:1035F000B2FBF3F08642DBD19142D9D31344216967
:10360000626963620A44934228BF61622046FFF701
:1036100084FF0028CCD0D5E704AEA36A36F80A1D93
:10362000C1F1FF2101F57F01FA311944A1620222A3
:10363000304601F0C1FD0028C4D1A16ABDF80620C2
:103640000231284601F0B8FD02460028BAD1022115
:103650003046FFF749FABDF80610039002462846A7
:10366000FFF742FABDF80630A16A03900233042244
:10367000194403A801F0A0FD0028A3D1BDF806302D
:103680009A1DA36A1344A3629EE770B50546F8F736
:10369000E9FD00232C6985F83530AB89EA691344CC
:1036A0009C4203D3F8F700FE002607E0204601F015
:1036B000DBFC431C064603D1F8F7F6FD304670BD2F
:1036C00004F58034E9E72DE9F04385B0044600AF06
:1036D000002694F83430022B08D1002384F83430CB
:1036E0004FF0FF301437BD46BDE8F083A169204696
:1036F000FFF793FEE16960622046FFF78EFE626A83
:103700002369A0629A42014603D360691844824249
:1037100001D3013217D19942C0F01181626913447B
:10372000994280F00C8107F110054FF0FF3345F806
:103730000C3D0422284601F0CFFB40B194F8343010
:10374000013384F834302046FFF79FFFC1E7A26AB7
:103750002369216B9A4204D3606903449A42C0F002
:10376000F28004220839284601F0B6FB0028E5D192
:10377000A38821697A68B2FBF3F203FB0233626922
:10378000A3620A44934228BFA162A06A01F09EFC92
:103790000028D3D1A388616AA26AB1FBF3FEB2FB11
:1037A000F3F086450ED191420CD31344216962692E
:1037B00063620A44934228BF61622046FFF7ADFE70
:1037C0000028BBD1E069A389216BA0F10802134452
:1037D00099424ED20822B81801F07EFB0028ADD1E4
:1037E000BB68013344D1FB68013341D1216B042212
:1037F000284601F0E1FC0028A0D1236B04332363A9
:103800002046FFF75CFE002898D1616A4B1C00F04F
:10381000EB80042207F10800BE6001F05DFB002888
:103820008CD1626A23699A4204D361690B449A423B
:10383000C0F0D380E16A0422083907F1080001F0E2
:103840004BFB00287FF47AAF0222B968381D01F0E3
:1038500043FB00287FF472AFBB889A1D636A134450
:1038600063622046FFF759FE00287FF467AFBBE094
:10387000E06901F02BFC00287FF460AFE16921636F
:103880000422B5E703F10208093323F007036D466C
:10389000ADEB030D42467968684601F01DFB48B167
:1038A00094F83430013384F834302046FFF7EDFECD
:1038B000AD460EE779687B88BE6002310422194468
:1038C00007F1080001F008FB02460028E8D1414654
:1038D0006846FFF709F9BB6898422ED0A388A26A10
:1038E0002169B2FBF3F203FB02336269A3620A446B
:1038F000934228BFA162A06A01F0E8FB0028CFD163
:10390000A388616AA26AB1FBF3FEB2FBF3F08645BD
:103910000ED191420CD313442169626963620A4457
:10392000934228BF61622046FFF7F7FD0028B7D118
:103930002046FFF7C4FD0028B2D1AD4665E701314E
:103940007FF401AF61E77B6801337FF40AAF0422A3
:103950000839284601F0C0FA00287FF4EFAE07F1DD
:103960001003022223F80E0D7968184601F0B4FA0C
:1039700000287FF4E3AEA2887B889A4282D2A36AB1
:103980002169B3FBF2F302FB03226369A2620B44D9
:103990009A4228BFA162A06A01F098FB00287FF438
:1039A000CDAEA388616AA26AB1FBF3F5B2FBF3F076
:1039B00085427FF425AF9142FFF422AF1344216981
:1039C000626963620A44934228BF61622046FFF73E
:1039D000A4FD00283FF414AFB0E6BB68013303D167
:1039E000A36A9A423FF626AF012384F835300020BF
:1039F00078E610B50446F8F735FC94F8353013B97D
:103A00002046FFF760FEA06A646A031B5C425C41CB
:103A1000F8F74AFC204610BDF0B585B004AE044668
:103A200026F80A2D0D466FF0050794F83430022B66
:103A300005D1002384F834304FF0FF3027E094F8AC
:103A4000353093B1A36A5A1C15D12369A36263620E
:103A50002046FFF762FDF0B194F83430013384F86A
:103A600034302046FFF711FEDFE72046FFF72BFE3C
:103A70000028E7D0E0E7626A0132BDF8062008D0EE
:103A800029462046FFF785FD0028E5D1002005B036
:103A9000F0BD6362F4E7A06A01F018FB0028DBD1F7
:103AA000BDF806309A1DA36A1344A3622046FFF7AF
:103AB00006FD0028D0D1BDF80610A36A791A194472
:103AC000A1620222304601F077FB0028C4D1A16A2E
:103AD000BDF806200231284601F06EFB02460028A0
:103AE000BAD102213046FEF7FFFFBDF80610039061
:103AF00002462846FEF7F8FFBDF80630A16A03909B
:103B000002330422194403A801F056FB0028A3D174
:103B1000BDF806309A1DA36A1344A362B7E72DE9E6
:103B2000F04782B090F8353000AF0446894633B193
:103B30002046FFF75EFF38B14FF0000848E0FFF77E
:103B4000C2FD0028F4D0F7E7788078602046FFF7C0
:103B500050FF0028F0D1A588616AB1FBF5F302227D
:103B600005FB1313B818ED1A01F0B6F918B1204689
:103B7000FFF78BFDE0E7236A79889942636A01D8F1
:103B8000032D08D81D4422696369656213449D4270
:103B9000DCD36262DAE7042202311944B81801F07A
:103BA0009BF980460028E2D17B88616A03F1020A12
:103BB000093323F007036E46ADEB030D524668460A
:103BC00001F08AF9024640B12046FFF75EFDB54696
:103BD00040460837BD46BDE8F08751466846FEF7C7
:103BE00083FF7B68616A984209D0226963690D444A
:103BF00013449D42656200D36262B546A6E77A88A7
:103C00000231484601F068F90028DDD17B88626AFC
:103C1000216906331344626963620A44934228BFF0
:103C200061622046FFF779FC0028CDD1B7F8028009
:103C3000CDE700000369002210B51A7004468168C0
:103C40000848FDF75BFEF8F70DFBA4682046F0F787
:103C5000D1FA214682B20448FFF7DEFEBDE81040EB
:103C6000F8F722BBA4B90108E4070020024A0021AA
:103C70004FF6FF7000F064B9353C0108002910B51B
:103C800006DDC36802699C1AA142B8BF53180361DC
:103C900010BD03690A221A7081680269521A013242
:103CA000022003F0B7BD00002DE9F04F1646426830
:103CB000ADF51F7D14680D931EAB0F46A89D0F93A5
:103CC0001193E1070DF2762382460E95109337D5B6
:103CD00000210BA803F096FD15A90BA801F0B8FB75
:103CE000199A119810991A9BDDF860C0DDF85C8074
:103CF000DDF85890DDF854B002F1010E0D9A091A62
:103D000003F26C73013A01310793052A53D8DFE8B7
:103D100002F059035B4C4E5044220592CDF810B08E
:103D2000CDF80C90CDF80880CDF804C0CDF800E0B7
:103D3000079B7B4A02F08CFD01460DA8FFF79EFF12
:103D4000A20743D4002F40F0888014F008040CD060
:103D500011981099AA9BA99A1490091A013103F09D
:103D6000EBFF01460DA8FFF789FFDAF804300DA834
:103D70009A6859689047A6B19CB134688CB175684F
:103D80007DB1DAF800301099D3F80090149B03EB62
:103D90004906023606EB0902914202D32544A542A8
:103DA0007DD10DF51F7DBDE8F08F5722B5E7452287
:103DB000B3E74622B1E75B4B5B4A5C484FF4317195
:103DC00001F0DAFA5622A8E74922A6E7119B1293DE
:103DD000574B1B6893B9FDB9119B129A13939342E9
:103DE000B0D000222021119B10988342AAD2002A31
:103DF000A8D15A1C119219700122F4E7013B1199C4
:103E0000109A8A42E7D013F8012F0A70002AE2D0F4
:103E1000119A01321192F2E72B78002BDCD0129A22
:103E2000119B9A4206D000222E21119B10988342AA
:103E300000D26AB1013D119A109B9342CCD015F883
:103E4000013F1370002BC7D0119B01331193F2E790
:103E50005A1C119219700122E7E763077FF575AFCD
:103E6000344A3B6811981099002B08BF13467A68B2
:103E7000091A013196461EF8015B55B9BD688DE8F7
:103E800024002D4A02F0E4FC01460DA8FFF7F6FEDF
:103E90005BE72F2D01D05C2DEDD17246EBE72A1B9D
:103EA0009145B4BF04EB09022A4603F1020B711ECF
:103EB000A046904512D1A8EB040403EB4402202154
:103EC0003444964229D1DAF8042011945168946858
:103ED00007930DA8A0474446079B60E718F8017BAD
:103EE00008933809154B0992185C0BF8020C07F07F
:103EF0000F000791185C0BF8010C01F091FB38449E
:103F000007994078099A089B10F0970F08BF3F2740
:103F100001F8017F0BF1020BCBE702F8011BD0E7A0
:103F2000BFBE01088FBE010886BE0108A8BE0108F9
:103F300020A0002044B30108E1BE0108EBBE010847
:103F4000014B83E8070070475808002000B589B08E
:103F500007920CAA049202920B9A01920A9A059077
:103F60000691009205A900220248FFF79DFE09B0C4
:103F70005DF804FBFCBE01082DE9F04182B000AF02
:103F8000F8F770F9F3F7A0FB07F10801002441F8F6
:103F9000044D2D48DFF8C0802C4EF3F7ADFC24F023
:103FA000030308EB0401F25802200023F3F7D2FBCD
:103FB000054620B1F3F79AFBF8F776F93CE00434B4
:103FC000982CECD16C4682B096F898308DF8003081
:103FD000024699211D48FEF787FDC0F307238DF89F
:103FE0000230C0F307438DF801008DF80330C0F3B1
:103FF00007608DF804002B46009A15490220F3F75C
:10400000A9FB034698B9019A12490220F3F7A2FBD3
:1040100068B9A546F3F76AFB99220C490E4801F0EE
:104020002FFB04460028C7D1F8F73EF906E0F3F766
:104030005DFBF8F739F9A5464FF0FF342046083705
:10404000BD46BDE8F08100BF640800200ADC002006
:10405000980006089C00060800000608F8B5354CD4
:10406000F8F700F91E2323710823A37110220723F8
:10407000E371A2723C230E222372E2722373A373B4
:104080000F220523A376E27684F820304FF07F528A
:10409000642300250126C4F8152050270422A377A5
:1040A00025496276022304F1630084F861302570AB
:1040B0006570A570E570657165726573E57326744A
:1040C000657425776777E57784F8625002F0A4FC81
:1040D0006FF06A0384F87B302946184BC4F88D30A2
:1040E000402204F12100C4F8913084F87C7084F8F7
:1040F0007D5084F87E5084F87F6084F8836084F873
:10410000845084F8856084F8865084F8875084F859
:10411000885084F8895084F88A5084F88B6084F839
:104120008C6001F0C7FAF8F7BFF8BDE8F840FFF778
:1041300023BF00BF0ADC002004BF010800002041AB
:1041400010B50D4C002299212046FEF7CDFCD4F885
:10415000993098420AD1F8F785F899222146074804
:1041600001F09DFAF8F7A0F8002010BDFFF776FFE8
:104170004FF0FF3010BD00BF000006080ADC002031
:1041800008B5012204490548F6F7ADFB003018BF19
:104190000120404208BD00BF66A200203CBA0020BA
:1041A00010B50D4B0D4C1B7820680D49421C0A2B95
:1041B00022600B5407D10B4801F071FA002329202B
:1041C0002360F2F723FF2368FF2B84BF00232360C3
:1041D000BDE81040FFF7D4BF66A2002068A200200F
:1041E00066A1002066A00020064BDA6BDA6BDA6B62
:1041F000DA6B120742BF1A6851681268DA6BDB6B20
:10420000FFF7BEBF3CBA00207047000010B504465F
:10421000F8F728F8074B204603F1200253F8041B57
:1042200040F8041B9342F9D11B780370BDE810409D
:10423000F8F73AB824A00020034B044800224FF4BA
:1042400000411A70F3F7F8BC24A0002000000240DF
:1042500001224FF400410148F3F7EEBC0000024098
:1042600008B5FFF7E9FF6420F0F702FFBDE808405A
:10427000FFF7EEBF30B51348124C134DADF5117D6D
:10428000F6F7B6FC1149684602F0C6FB4FF4FA7324
:10429000112269462046F6F769FA10A94FF4FA731D
:1042A00032222046F6F7BFFA294610A802F0E5FBB5
:1042B0000028EBD0FFF7D4FFFFF762FF00200DF5D9
:1042C000117D30BD3CBA00205CBF01084ABF010827
:1042D00038B5144D144C002328462370F6F788FC9B
:1042E0006B68B3F5165F05D04FF4165328466B6024
:1042F000F6F7CAF9002202212920F2F72FFE292021
:10430000F2F76EFE21220021074801F0D3F9FFF7F2
:10431000A7FFFFF7AFFFFFF733FF01232370002054
:1043200038BD00BF3CBA002024A0002030B52DEDE0
:10433000028BADF5137D00231B480193F6F758FC63
:104340001A49194C1A4D02A802F066FB4FF4FA7391
:104350000F2202A92046F6F709FA4FF4FA63322237
:1043600012A92046F6F75FFA50B1BFEE008AFFF7B8
:1043700007FFB0EE480A0DF5137DBDEC028B30BD92
:10438000294612A802F079FB0028DFD06B2102F049
:1043900035FB01AA0749023002F0B2FA0128E4D144
:1043A0009DED018AE3E700BF3CBA002028BF010869
:1043B00038BF010847BF010830B5404940488FB0B9
:1043C00002F05BFB002853D03D4B0E2418462C21F5
:1043D00002F014FB431C002848D0013C14F0FF04F9
:1043E000F4D12C21364802F009FB2C21013002F0D7
:1043F00005FB2C21013002F001FB2C21013002F0E1
:10440000FDFA2C21013002F0F9FA2C21013002F0E2
:10441000F5FA2C21013002F0F1FA441C6A462949D0
:10442000204602F06DFA012802BF274B009A83F85C
:1044300020202C21204602F0E1FA441C01AA234945
:10444000204602F05DFA012802BF1F4B019A9A61D3
:104450002C21204602F0D2FA01AA1C49013002F0B8
:104460004FFA012802D1184B019ADA610FB030BD22
:104470001749134802F001FB60B3114B1124184691
:104480002C2102F0BBFA431C0028EFD0013C14F0B1
:10449000FF04F4D12C210A4802F0B0FA2C2101309B
:1044A00002F0ACFA6A460749013002F029FA012805
:1044B000DCD1054B009ADA70D8E700BF14BF0108C1
:1044C00066A00020F4AC010845A0002047BF010809
:1044D00018BF01089C499D4802F0CFFA0028C5D1B9
:1044E0009B499A4802F0C9FA002800F01081974BC6
:1044F0000C2418462C2102F081FA431C0028B5D068
:10450000013C14F0FF04F4D12C21904802F076FA1B
:10451000441C6A468F49204602F0F2F9012811D165
:10452000009B642293FBF2F002FB1031059190FB9B
:10453000F2F102FB1102069242F2107293FBF2F3C7
:10454000009307932C21204602F058FA441C6A4637
:104550008149204602F0D4F9012802BF7F4B009A1E
:104560009A702C21204602F049FA441C01AA7C4989
:10457000204602F0C5F901281DD10198EFF7FCFF94
:104580000022784BF0F776F941EC100B02A802F00C
:10459000D7F8002251EC100B724BF0F741F80022D3
:1045A000714BF0F767F9DDE90223EFF787FEF0F7CB
:1045B0002FFB6A4B98602C21204602F01FFA441C06
:1045C0006A466549204602F09BF9012808D19DF80A
:1045D0000030532B01BF614A936883F0004393601E
:1045E0002C21204602F00AFA441C01AA5C4920460C
:1045F00002F086F901281DD10198EFF7BDFF0022D6
:10460000584BF0F737F941EC100B02A802F098F87C
:10461000002251EC100B534BF0F702F80022524BE2
:10462000F0F728F9DDE90223EFF748FEF0F7F0FA9A
:104630004A4BD8602C21204602F0E0F9441C6A461F
:104640004549204602F05CF9012808D19DF8003068
:10465000572B01BF414AD36883F00043D3602C211C
:10466000204602F0CBF9441C01AA3D49204602F045
:1046700047F9012809D19FED3D7ADDED017A374BED
:1046800067EE877A17EE902A1A612C21204602F0F5
:10469000B5F9441C01AA3249204602F031F901283B
:1046A00002BF2E4B019A5A612C21204602F0A6F936
:1046B0006A462849013002F023F9012804467FF4B4
:1046C000D5AE009B642193FBF1F001FB10320A444C
:1046D0000A9290FBF1F201FB1202013A05A809923D
:1046E00042F2107293FBF2F30093089301F0CAF8C0
:1046F0001F4B9842194B07DD5C7058601D4B1860CA
:104700001868F9F715FEB1E600225A70AEE61A49AC
:104710000E4802F0B2F900283FF4A8AE174B0F4A3A
:10472000187802F12004194652F8045B43F8045B40
:10473000A242F9D112781A70114A0870137D43F021
:104740000103137592E600BF1CBF010866A000209C
:1047500020BF0108F4AC0108D1AB010845A000203E
:1047600047BF01080000594000004E40560EED3F83
:10477000841DBF5B3C07002024BF010824A000204B
:10478000D88500200EB403B07047000038B5856AA4
:104790000D490E4C284602F070F910B101236371E7
:1047A00038BD0B49284602F068F910B10123E370C7
:1047B00038BD0849284602F060F9012308B1237189
:1047C00038BDA37138BD00BF8BAC010878B600209E
:1047D0008CBF010897BF01080120F7F7FDBA000060
:1047E00008B50248F6F704FA002008BD7CBA00209C
:1047F000014608B501220448F6F775F8003018BFE5
:104800000120404208BD00BF7CBA002008B5024824
:10481000F5F758F9002008BDC4B800204FF6FE7324
:10482000984270B5054603D967210848F1F713FB94
:10483000074C2046F5F746F92368E56000265E62DE
:104840002046DD62F5F708F9304670BDF4BF010877
:10485000C4B800208AB208B501460448F6F766F8E5
:10486000003018BF0120404208BD00BF7CBA0020C4
:104870000148FDF763BF00BF7808002070470000C3
:104880000148FEF73DB800BF7808002008B505488C
:10489000FEF73AF8044A00231360044A5373538125
:1048A00008BD00BF7808002090B6002078B6002030
:1048B000024B0348D96B0122F6F715B8780800209F
:1048C0007CBA0020F8B5114C1E46606401230D46E9
:1048D000174684F83430EFF78DFCE564A064284671
:1048E000EFF788FC84F85470206531462046FEF7C7
:1048F00039F828B11822002104F1580000F0DAFE3E
:10490000002384F834300248F8BD00BF7808002046
:10491000D0080020F8B50F4E0F4F0F2402250021BC
:10492000C82301223046FFF7CDFF3946006802F068
:10493000A4F810B1012D0AD001250A20013CF7F797
