:020000040800F2
:1000000000800120F111000845060008470600089D
:10001000490600084B0600084D06000800000000D5
:100020000000000000000000000000004F06000873
:10003000510600080000000053060008550600089D
:100040004112000841120008411200084112000844
:100050004112000841120008411200084112000834
:100060004112000841120008411200084112000824
:100070004112000841120008411200084112000814
:10008000411200084112000841120008000000005F
:100090000000000000000000000000004112000805
:1000A00041120008411200084112000841120008E4
:1000B00041120008411200084112000841120008D4
:1000C00041120008411200084112000841120008C4
:1000D000411200084112000841120008000000000F
:1000E00041120008411200084112000800000000FF
:1000F00000000000000000000000000041120008A5
:1001000000000000411200084112000841120008DE
:1001100000000000000000000000000000000000DF
:100120004112000841120008411200084112000863
:100130004112000800000000000000000000000064
:100140000000000000000000000000004112000854
:100150004112000841120008411200084112000833
:1001600041120008411200080000000000000000D9
:10017000000000000000000000000000000000007F
:100180000000000041120008000000000000000014
:100190004112000810B5054C237833B9044B13B154
:1001A0000448AFF300800123237010BD20500020CD
:1001B000000000008C12000808B5034B1BB1034976
:1001C0000348AFF3008008BD000000002450002069
:1001D0008C12000853B94AB9002908BF00281CBF77
:1001E0004FF0FF314FF0FF3000F07AB9ADF1080C5D
:1001F0006DE904CE00F006F8DDF804E0DDE9022345
:1002000004B070472DE9F0478C460D460446089E21
:10021000002B51D18A4217466DD9B2FA82FEBEF147
:10022000000F0BD0CEF1200C01FA0EF520FA0CFCD9
:1002300002FA0EF74CEA050C00FA0EF44FEA174AE0
:10024000250CBCFBFAF81FFA87F90AFB18CC45EA23
:100250000C4508FB09F3AB420AD9ED1908F1FF324E
:1002600080F02381AB4240F22081A8F102083D4496
:10027000ED1AA4B2B5FBFAF00AFB105544EA0544A6
:1002800000FB09F9A14509D9E41900F1FF3380F019
:100290000A81A14540F2078102383C44A4EB0904DD
:1002A00040EA08400021002E61D024FA0EF4002319
:1002B00034607360BDE8F0878B4207D9002E54D0BC
:1002C000002186E821000846BDE8F087B3FA83F1F3
:1002D000002940F08E80AB4202D3824200F2FA80C5
:1002E000841A65EB03050120AC46002E3FD086E85A
:1002F0001010BDE8F08712B90127B7FBF2F7B7FA83
:1003000087FEBEF1000F34D1EB1B3A0C1FFA87FCBD
:100310000121B3FBF2F8250C02FB183345EA034533
:100320000CFB08F3AB4207D9ED1908F1FF3002D2FC
:10033000AB4200F2D1808046ED1AA3B2B5FBF2F0D9
:1003400002FB105543EA05440CFB00FCA44507D909
:10035000E41900F1FF3302D2A44500F2B880184638
:10036000A4EB0C0440EA08409DE731463046BDE866
:10037000F087CEF1200405FA0EF307FA0EF720FA03
:1003800004F83A0C25FA04F448EA0308B4FBF2F145
:100390004FEA184502FB11441FFA87FC45EA044561
:1003A00001FB0CF3AB4200FA0EF409D9ED1901F18F
:1003B000FF3080F08A80AB4240F2878002393D44B2
:1003C000EB1A1FFA88F5B3FBF2F002FB103345EA93
:1003D000034500FB0CF3AB4207D9ED1900F1FF38E0
:1003E0006FD2AB426DD902383D44EB1A40EA01416D
:1003F0008FE7C1F1200722FA07F88B4005FA01F4D4
:1004000048EA030320FA07FE4FEA134CFD404EEA88
:10041000040EB5FBFCF94FEA1E440CFB19551FFAFC
:1004200083F844EA054509FB08F4AC4202FA01F2FC
:1004300000FA01FA08D9ED1809F1FF3043D2AC42B5
:1004400041D9A9F102091D442D1B1FFA8EFEB5FBEF
:10045000FCF00CFB10554EEA054400FB08F8A045E3
:1004600007D9E41800F1FF3529D2A04527D9023871
:100470001C4440EA0940A4EB0804A0FB02894C4557
:10048000C6464D4615D312D056B1BAEB0E0364EBF7
:10049000050404FA07F7CB401F43CC403760746073
:1004A0000021BDE8F0871846F8E69046E0E6C24530
:1004B000EAD2B8EB020E69EB03050138E4E72846FF
:1004C000D7E7404691E78146BEE7014678E7023824
:1004D0003C4445E7084608E7A8F102083D442BE7FD
:1004E000704700BF82B000230193064B1A6B42F0A5
:1004F00001021A631B6B03F001030193019B02B01D
:10050000704700BF0038024010B594B00022224B63
:100510000192196C41F0805119641B6C1F4903F062
:1005200080530193019B02920B6823F4404343F4F0
:1005300000430B600B680E9203F440430293029B4E
:100540000A231021089308A801230C910B930D9303
:1005500000F042FB014600B1FEE70F230490059036
:100560000690079003A8039300F0E6FC044600B150
:10057000FEE700F07BFD4FF47A73B0FBF3F000F080
:1005800045F9042000F058F9224621464FF0FF308B
:1005900000F008F914B010BD0038024000700040AF
:1005A00008B500F0C1F8FFF7AFFFFFF79BFF00F0C1
:1005B00063FDFEE713B5224B002400945A6C42F40D
:1005C00080425A645A6C02F480420092009A01946C
:1005D0001A6C42F080521A641B6C03F08053019332
:1005E0000320019B00F0CCF8224621466FF00B005F
:1005F00000F0D8F8224621466FF00A0000F0D2F849
:10060000224621466FF0090000F0CCF82246214630
:100610006FF0040000F0C6F8224621466FF0030098
:1006200000F0C0F8224621466FF0010000F0BAF851
:10063000224621464FF0FF3000F0B4F802B010BD62
:10064000003802407047FEE7FEE7FEE7FEE770472E
:100650007047704708B500F081F8BDE8084000F029
:10066000F8B800000F49D1F8883043F47003C1F89E
:1006700088300D4B1A68002042F001021A60986021
:100680001A6822F0847222F480321A60074A5A6093
:100690001A6822F480221A60D8604FF000638B60E1
:1006A000704700BF00ED00E0003802401030002429
:1006B0007047000010B5094B4FF0FF3200241A625A
:1006C0001C625A625C621A611C615A615C619A61C7
:1006D0009C61FFF7EDFF204610BD00BF00380240CF
:1006E00038B50E4A0E4B054618784FF47A73B3FBB3
:1006F000F0F31068B0FBF3F000F088F8044658B946
:100700000F2D09D8024629464FF0FF3000F04AF875
:10071000044B20461D6038BD012038BD005000202C
:10072000045000200850002008B50B4B1A6842F412
:1007300000721A601A6842F480621A601A6842F401
:1007400080721A60032000F01BF80020FFF7C8FF3A
:10075000FFF730FF002008BD003C0240034A044B75
:1007600011681B780B441360704700BF4054002091
:1007700004500020014B1868704700BF405400200F
:10078000074AD36823F4E0631B041B0C43F0BF63E8
:10079000000243F4003300F4E0600343D360704789
:1007A00000ED00E0174B30B5DC68C4F30224C4F15F
:1007B0000703251D042B28BF0423062D4FF0010538
:1007C00005FA03F303F1FF338CBF033C0024194007
:1007D000A14005FA04F4013C2240002842EA01024B
:1007E0004FEA0212AFBF00F1604000F00F00064B6D
:1007F000D2B2A5BF00F56140D2B21A5480F80023EE
:1008000030BD00BF00ED00E014ED00E00138B0F1B4
:10081000807F0AD2064B074A5860F02182F82310E5
:100820000020072298601A6070470120704700BFBF
:1008300010E000E000ED00E0044B1A6804280CBF53
:1008400042F0040222F004021A60704710E000E057
:10085000704708B5FFF7FCFF08BD0000084910B558
:100860000C6924F440740C610C6944F440740C610C
:100870000C6944F001040C610260436010BD00BFCC
:10088000003C0240074B1A6922F440721A611A694F
:1008900042F400721A611A6942F001021A610160A1
:1008A000704700BF003C0240074B1A6922F44072B7
:1008B0001A611A6942F480721A611A6942F00102DF
:1008C0001A610180704700BF003C0240204BDA688B
:1008D000D00606D51F49CA6942F01002CA6110222B
:1008E000DA60DA68910606D51A49CA6942F0080248
:1008F000CA612022DA60164BDA68520606D515491D
:10090000CA6942F00402CA614022DA60DA6810065D
:1009100006D51049CA6942F00202CA618022DA6033
:100920000B4BDA68D10507D50A49CA6942F00102C2
:10093000CA614FF48072DA60DA68920706D5054919
:10094000CA6942F02002CA610222DA60704700BF21
:10095000003C024044540020064B1A69002ABFBFE5
:10096000054A5A6002F188325A60BABF1869C00F4E
:1009700000207047003C024023016745034A136989
:1009800043F0004313610020704700BF003C024069
:10099000F8B5124B124C00220546DA61FFF7EAFE69
:1009A00026460746E368DA030CD4E368DB0744BF56
:1009B0000123E360F06810F4F97002D0FFF786FFBE
:1009C0000120F8BD691CEDD00DB90320F8BDFFF77B
:1009D000D1FEC01B8542E5D2F7E700BF445400209A
:1009E000003C02402DE9F041204D98462B7E012B22
:1009F00007460E46144635D001234CF250302B7674
:100A0000FFF7C6FFB0B9CFB9194B1A6922F440728B
:100A10001A611A691A611A69E4B242F001021A6194
:100A200034704CF25030FFF7B3FF114A136923F0D2
:100A30000103136100232B76BDE8F081012F04D15F
:100A4000A1B23046FFF730FFEBE7022F04D1214679
:100A50003046FFF717FFE4E7224643463046FFF7EC
:100A6000FDFEDEE70220BDE8F08100BF4454002017
:100A7000003C0240074B1A6922F440721A611A695D
:100A800042F004021A611A6942F4803242EA0020FC
:100A900018617047003C024039B101291CD002297D
:100AA0000CBF4FF400714FF440710D4B1A6922F4E2
:100AB00040721A611A69114319611A6922F0F80229
:100AC0001A611A6942F0020242EAC00018611A690A
:100AD00042F480321A6170474FF48071E5E700BF3D
:100AE000003C0240144B1A6891050FD51A6822F495
:100AF00000721A601A6842F400621A601A6822F4DE
:100B000000621A601A6842F400721A600A4B1A688E
:100B100052050FD51A6822F480621A601A6842F4EE
:100B200080521A601A6822F480521A601A6842F4DD
:100B300080621A60704700BF003C02402DE9F84314
:100B4000234E337E012B044688463FD001234CF2CE
:100B500050303376FFF71CFF0546A8B94FF0FF333E
:100B6000C8F800302368012B13D1207CFFF782FFE7
:100B70004CF25030FFF70CFF164A136923F00403C0
:100B800005461361FFF7AEFF002333762846BDE824
:100B9000F883A768DFF83C90E368A26813449F429B
:100BA000F0D2217C3846FFF777FF4CF25030FFF748
:100BB000EFFED9F8103023F0FA03C9F8103018B15D
:100BC000C8F800700546DDE70137E5E70225DDE7F7
:100BD00044540020003C02402DE9F341044618B97A
:100BE000012002B0BDE8F0810368DD0710D423685E
:100BF000980758D423681A0700F19A8023685B0786
:100C000000F1B880A269002A40F019810020E8E7CD
:100C1000A64B9A6802F00C02042A07D09A6802F0E8
:100C20000C02082A0AD15B68590207D59F4B1B6842
:100C30009A03DCD56368002BD9D1D1E763689B4D5B
:100C4000B3F5803F11D12B6843F480332B60FFF75D
:100C500091FD964D06462B689B03C8D4FFF78AFD8D
:100C6000801B6428F7D90320BBE7B3F5A02F04D17C
:100C70002B6843F480232B60E5E72A6822F4803256
:100C80002A602A6822F480222A60002BDFD1FFF735
:100C900071FD06462B689F03A9D5FFF76BFD801BEE
:100CA0006428F7D9DFE7814B9A6812F00C0F07D060
:100CB0009A6802F00C02082A11D15B685E020ED419
:100CC0007A4B1A68950702D5E268012A88D11A681A
:100CD000216922F0F80242EAC1021A608AE7E2685A
:100CE000734BB2B101221A60FFF744FD6F4D064607
:100CF0002B68980707D52B68226923F0F80343EA8D
:100D0000C2032B6076E7FFF735FD801B0228EFD981
:100D1000A9E71A60FFF72EFD644D06462B68990778
:100D20007FF568AFFFF726FD801B0228F6D99AE70A
:100D30006269604B7AB101221A60FFF71BFD5B4DBF
:100D400006466B6F9F073FF559AFFFF713FD801BFA
:100D50000228F6D987E71A60FFF70CFD534D0646C7
:100D60006B6F98077FF54AAFFFF704FD801B0228E1
:100D7000F6D978E74D4B1A6C12F0805228D10192C7
:100D80001A6C42F080521A641B6C03F0805301937A
:100D9000019B0126484D2B68D9051BD5A368434DFF
:100DA000012B27D12B6F43F001032B67FFF7E2FCE8
:100DB0003E4D074641F288382B6F9B0739D5002EF0
:100DC0003FF420AF394A136C23F08053136419E7C2
:100DD0000026DFE72B6843F480732B60FFF7CAFC23
:100DE00007462B68DA05D9D4FFF7C4FCC01B0228DC
:100DF000F7D938E7052B04D12B6F43F004032B6799
:100E0000D0E72A6F22F001022A672A6F22F004023B
:100E10002A67002BCAD1FFF7ADFC41F2883807469C
:100E20002B6F9807CBD5FFF7A5FCC01B4045F7D922
:100E300019E7FFF79FFCC01B4045BDD913E71B4DC9
:100E4000AB6803F00C03082B3FF4CAAE1B4E002323
:100E5000022A336034D1FFF78DFC07462B689901D5
:100E60001ED4226AE3691343626A43EA8213E26A88
:100E700043EA0263A26A0D4C5208013A43EA024374
:100E80006B6001233360FFF775FC054623689A0108
:100E90003FF5BCAEFFF76EFC401B0228F6D9E2E638
:100EA000FFF768FCC01B0228D8D9DCE600380240F6
:100EB00000004742800E47420070004060004742F9
:100EC000FFF758FC04462B689B017FF59FAEFFF7A8
:100ED00051FC001B0228F6D9C5E600BF134908B52E
:100EE0008B6803F00C03042B03D0082B03D01048AD
:100EF00008BD104808BD4A684B68496813F4800370
:100F000014BF0C480A48C1F3881118BF002302F02F
:100F10003F02A1FB0001FFF75DF9044B5B68C3F3DF
:100F2000014301335B00B0FBF3F008BD0038024021
:100F30000024F40040787D012DE9F0410D4604467F
:100F400010B90120BDE8F081444B1A6802F00F028D
:100F50008A4228D321688F072DD4C80740D43F4B3D
:100F60001A6802F00F02954266D3226851076CD4CA
:100F7000130707D53A4A2169936823F4604343EA8B
:100F8000C1039360FFF7AAFF354B364A9B68C3F352
:100F90000313D35CD840344B18600020FFF7A0FB4C
:100FA0000020BDE8F081CAB21A701B6803F00F037D
:100FB0009942C6D1CEE72A4B11F0040F1EBF9A68A2
:100FC00042F4E0529A600E0742BF9A6842F46042CF
:100FD0009A609A68A06822F0F00202439A60BCE727
:100FE00062681F4B012A1DD11B6813F4003FA8D073
:100FF0001B4EB36823F003031343B360FFF7BAFB40
:1010000041F288380746B368626803F00C03B3EB1B
:10101000820FA4D0FFF7AEFBC01B4045F3D90320DD
:10102000BDE8F081911E01291B6802D813F0007FF2
:10103000DDE713F0020FDAE7EAB21A701B6803F07B
:101040000F039D427FF47DAF8FE70549E0688B6811
:1010500023F4E05303438B608AE700BF003C024067
:1010600000380240A412000800500020014B18680C
:10107000704700BF005000202DE9F0413B4B82B08B
:101080001C683B4B621E9A4200AF39D8214604F1DE
:1010900000640022374804F1041400F079F8236852
:1010A00098422DD1FFF758FC07F1080398464246B5
:1010B000002342F8043D304D2E4E0123AB60114613
:1010C000052328469046EB60FFF738FDA6F5703102
:1010D000B442A1F1040107D016F8012B002300202F
:1010E000FFF780FC0028F1D000237B600623AB6073
:1010F000414602232048EB60FFF720FDFFF73EFC4E
:10110000FFF7D8FA72B600226FF07F41930003F127
:10111000604303F561430132082AC3F88010C3F825
:101120008011F3D1154A00234FF0FF311360536053
:101130009360D36013615161A2F580629360D360C4
:10114000136153610E4A11680E4A136093600E4B8F
:101150005A6842F000725A600C4A9A60136883F32E
:10116000088888470837BD46BDE8F08100000408BC
:10117000FBFF0300040004080C500020003C014069
:101180000440000810E000E000ED00E0004000082E
:10119000F0B5144D2C78ACB9DFF850E0124F23466F
:1011A000082613F0010F4FEA530318BF83EA0E031A
:1011B000013EF6D147F824300134B4F5807FEED1FA
:1011C00001232B70084CD2430144884201D1D04303
:1011D000F0BD10F8015BD3B26B4054F8233083EAC2
:1011E0001222F2E73C500020405000202083B8ED4E
:1011F000DFF834D0002103E00C4B5B58435004313E
:101200000B480C4B42189A42F6D30B4A02E00023DB
:1012100042F8043B094B9A42F9D3FFF723FA00F056
:1012200011F8FFF7BDF9704700800120C4120008D3
:101230000050002020500020205000206454002046
:10124000FEE7000070B50D4E0D4CA41BA410002548
:10125000A54209D10B4E0C4C00F018F8A41BA410A9
:101260000025A54205D170BD56F8253098470135B7
:10127000EEE756F8253098470135F2E7BC12000832
:10128000BC120008BC120008C0120008F8B500BF6C
:10129000F8BC08BC9E467047F8B500BFF8BC08BC57
:1012A0009E46704700000000000000000102030499
:1012B0000607080950EFFF7F01000000B901000890
:1012C000950100080024F400010000001000000057
:1012D000000000000100000000000000000000000D
:0412E0000200000008
:1040000000800120799F0108CD610008E16100086E
:10401000F5610008096200081D6200080000000048
:1040200000000000000000000000000041CA00087D
:104030003162000800000000D1CA000835CB00083A
:10404000C99F0108C99F0108C99F0108C99F0108AC
:10405000C99F0108C99F010833620008396200083E
:104060003F620008C99F0108C99F0108C99F010854
:10407000C99F0108C99F0108C99F0108C99F01087C
:10408000C99F010845620008516200080000000055
:104090000000000000000000000000005D62000859
:1040A000796200088562000891620008C99F0108D2
:1040B000C99F0108C99F0108C99F0108C99F01083C
:1040C000C99F0108C99F0108C99F0108C99F01082C
:1040D000C99F01089D620008A96200080000000055
:1040E000B5620008ED860108C99F010800000000C4
:1040F000000000000000000000000000C99F01084F
:1041000000000000C99F0108C99F0108C99F01085C
:10411000000000000000000000000000000000009F
:10412000BD620008C99F0108C9620008C99F010853
:10413000C99F01080000000000000000000000000E
:10414000000000000000000000000000D562000830
:10415000C99F0108E1620008ED620008F9620008E9
:10416000C99F0108C99F010800000000000000006D
:10417000000000000000000000000000000000003F
:1041800000000000C99F01080000000000000000BE
:04419000C99F0108BA
:1041A00010B5054C237833B9044B13B10448AFF371
:1041B00000800123237010BD1420002000000000A7
:1041C00060EF010808B5034B1BB103490348AFF387
:1041D000008008BD000000001820002060EF0108EA
:1041E00010F8012B11F8013B012A28BF9A42F7D0A1
:1041F000D01A7047034613F8012B002AFBD1181A76
:1042000001387047000000000000000000000000BE
:1042100001F0FF01102A2BDB10F0070F08D010F877
:10422000013B013A8B422DD010F0070F42B3F6D17B
:10423000F0B441EA012141EA014122F007047FF094
:1042400000070023F0E80256083C85EA010586EAEB
:10425000010685FA47F5A3FA87F586FA47F6A5FA27
:1042600087F68EB9EED1F0BC01F0FF0102F0070233
:1042700032B110F8013B013A83EA010313B1F8D1DE
:104280000020704701387047002D06BF35460338BF
:10429000073815F0010F07D1013015F4807F02BFF8
:1042A000013015F4C03F0130F0BC0138704700BF49
:1042B00081F0004102E000BF83F0004330B54FEAD7
:1042C00041044FEA430594EA050F08BF90EA020F44
:1042D0001FBF54EA000C55EA020C7FEA645C7FEAD7
:1042E000655C00F0E2804FEA5454D4EB5555B8BFFA
:1042F0006D420CDD2C4480EA020281EA030382EA6B
:10430000000083EA010180EA020281EA0303362DFC
:1043100088BF30BD11F0004F4FEA01314FF4801CCF
:104320004CEA113102D0404261EB410113F0004FE1
:104330004FEA03334CEA133302D0524263EB430398
:1043400094EA050F00F0A780A4F10104D5F1200E36
:104350000DDB02FA0EFC22FA05F2801841F1000191
:1043600003FA0EF2801843FA05F359410EE0A5F165
:1043700020050EF1200E012A03FA0EFC28BF4CF096
:10438000020C43FA05F3C01851EBE37101F000454C
:1043900007D54FF0000EDCF1000C7EEB00006EEB59
:1043A0000101B1F5801F1BD3B1F5001F0CD34908E3
:1043B0005FEA30004FEA3C0C04F101044FEA44523A
:1043C00012F5800F80F09A80BCF1004F08BF5FEAC1
:1043D000500C50F1000041EB045141EA050130BDA1
:1043E0005FEA4C0C404141EB010111F4801FA4F144
:1043F0000104E9D191F0000F04BF01460020B1FA99
:1044000081F308BF2033A3F10B03B3F120020CDAD0
:104410000C3208DD02F1140CC2F10C0201FA0CF0AE
:1044200021FA02F10CE002F11402D8BFC2F1200C13
:1044300001FA02F120FA0CFCDCBF41EA0C019040C9
:10444000E41AA2BF01EB0451294330BD6FEA040412
:104450001F3C1CDA0C340EDC04F11404C4F12002FD
:1044600020FA04F001FA02F340EA030021FA04F30F
:1044700045EA030130BDC4F10C04C4F1200220FA66
:1044800002F001FA04F340EA0300294630BD21FAA4
:1044900004F0294630BD94F0000F83F4801306BF6A
:1044A00081F480110134013D4EE77FEA645C18BF5E
:1044B0007FEA655C29D094EA050F08BF90EA020FF5
:1044C00005D054EA000C04BF1946104630BD91EAED
:1044D000030F1EBF0021002030BD5FEA545C05D1F0
:1044E0004000494128BF41F0004130BD14F580042F
:1044F0003CBF01F5801130BD01F0004545F0FE41A3
:1045000041F470014FF0000030BD7FEA645C1ABFD7
:10451000194610467FEA655C1CBF0B46024650EA0E
:10452000013406BF52EA033591EA030F41F400213A
:1045300030BD00BF90F0000F04BF0021704730B5C0
:104540004FF4806404F132044FF000054FF0000195
:1045500050E700BF90F0000F04BF0021704730B556
:104560004FF4806404F1320410F0004548BF40422B
:104570004FF000013EE700BF42004FEAE2014FEA80
:1045800031014FEA02701FBF12F07F4393F07F4F5B
:1045900081F06051704792F0000F14BF93F07F4F8D
:1045A000704730B54FF4607401F0004521F00041D0
:1045B00020E700BF50EA010208BF704730B54FF056
:1045C00000050AE050EA010208BF704730B511F05B
:1045D000004502D5404261EB41014FF4806404F193
:1045E00032045FEA915C3FF4DCAE4FF003025FEA15
:1045F000DC0C18BF03325FEADC0C18BF033202EB9D
:10460000DC02C2F1200300FA03FC20FA02F001FAF6
:1046100003FE40EA0E0021FA02F11444C1E600BF95
:1046200070B54FF0FF0C4CF4E06C1CEA11541DBF48
:104630001CEA135594EA0C0F95EA0C0F00F0DEF813
:104640002C4481EA030621EA4C5123EA4C5350EAF8
:10465000013518BF52EA033541F4801143F4801349
:1046600038D0A0FB02CE4FF00005E1FB02E506F0DA
:104670000042E0FB03E54FF00006E1FB03569CF02F
:10468000000F18BF4EF0010EA4F1FF04B6F5007F35
:1046900064F5407404D25FEA4E0E6D4146EB0606A7
:1046A00042EAC62141EA55514FEAC52040EA5E5030
:1046B0004FEACE2EB4F1FD0C88BFBCF5E06F1ED8DA
:1046C000BEF1004F08BF5FEA500E50F1000041EB11
:1046D000045170BD06F0004646EA010140EA0200BE
:1046E00081EA0301B4EB5C04C2BFD4EB0C0541EAE0
:1046F000045170BD41F480114FF0000E013C00F3F5
:10470000AB8014F1360FDEBF002001F0004170BD18
:10471000C4F10004203C35DA0C341BDC04F1140431
:10472000C4F1200500FA05F320FA04F001FA05F2BD
:1047300040EA020001F0004221F0004110EBD3708A
:1047400021FA04F642EB06015EEA430E08BF20EAB6
:10475000D37070BDC4F10C04C4F1200500FA04F359
:1047600020FA05F001FA04F240EA020001F00041EB
:1047700010EBD37041F100015EEA430E08BF20EA5E
:10478000D37070BDC4F1200500FA05F24EEA020EA6
:1047900020FA04F301FA05F243EA020321FA04F0D5
:1047A00001F0004121FA04F220EA020000EBD3708C
:1047B0005EEA430E08BF20EAD37070BD94F0000F8C
:1047C0000FD101F00046400041EB010111F4801FC0
:1047D00008BF013CF7D041EA060195F0000F18BF71
:1047E000704703F00046520043EB030313F4801FAD
:1047F00008BF013DF7D043EA0603704794EA0C0F67
:104800000CEA135518BF95EA0C0F0CD050EA41067C
:1048100018BF52EA4306D1D181EA030101F00041F9
:104820004FF0000070BD50EA410606BF1046194621
:1048300052EA430619D094EA0C0F02D150EA01362D
:1048400013D195EA0C0F05D152EA03361CBF10466E
:1048500019460AD181EA030101F0004141F0FE410D
:1048600041F470014FF0000070BD41F0FE4141F491
:10487000780170BD70B54FF0FF0C4CF4E06C1CEA91
:1048800011541DBF1CEA135594EA0C0F95EA0C0F46
:1048900000F0A7F8A4EB050481EA030E52EA033501
:1048A0004FEA013100F088804FEA03334FF0805522
:1048B00045EA131343EA12634FEA022245EA11154F
:1048C00045EA10654FEA00260EF000419D4208BF00
:1048D000964244F1FD0404F5407402D25B084FEAAD
:1048E0003202B61A65EB03055B084FEA32024FF459
:1048F00080104FF4002CB6EB020E75EB030E22BFB6
:10490000B61A754640EA0C005B084FEA3202B6EB75
:10491000020E75EB030E22BFB61A754640EA5C0024
:104920005B084FEA3202B6EB020E75EB030E22BFB4
:10493000B61A754640EA9C005B084FEA3202B6EBB5
:10494000020E75EB030E22BFB61A754640EADC0074
:1049500055EA060E18D04FEA051545EA16754FEAD6
:1049600006164FEAC30343EA52734FEAC2025FEAF4
:104970001C1CC0D111F4801F0BD141EA00014FF083
:1049800000004FF0004CB6E711F4801F04BF014354
:104990000020B4F1FD0C88BFBCF5E06F3FF6AFAE70
:1049A000B5EB030C04BFB6EB020C5FEA500C50F100
:1049B000000041EB045170BD0EF0004E4EEA113183
:1049C00014EB5C04C2BFD4EB0C0541EA045170BD8A
:1049D00041F480114FF0000E013C90E645EA060ECE
:1049E0008DE60CEA135594EA0C0F08BF95EA0C0FFC
:1049F0003FF43BAF94EA0C0F0AD150EA01347FF444
:104A000034AF95EA0C0F7FF425AF104619462CE71A
:104A100095EA0C0F06D152EA03353FF4FDAE10467D
:104A2000194622E750EA410618BF52EA43067FF4CE
:104A3000C5AE50EA41047FF40DAF52EA43057FF45E
:104A4000EBAE12E74FF0FF3C06E000BF4FF0010C69
:104A500002E000BF4FF0010C4DF804CD4FEA410CCD
:104A60007FEA6C5C4FEA430C18BF7FEA6C5C1BD09A
:104A700001B050EA410C0CBF52EA430C91EA030F1B
:104A800002BF90EA020F0020704710F1000F91EA78
:104A9000030F58BF994208BF90422CBFD8176FEA46
:104AA000E37040F0010070474FEA410C7FEA6C5C14
:104AB00002D150EA013C07D14FEA430C7FEA6C5C1B
:104AC000D6D152EA033CD3D05DF8040B704700BF47
:104AD0008446104662468C461946634600E000BF95
:104AE00001B5FFF7B7FF002848BF10F1000F01BD67
:104AF0004DF808EDFFF7F4FF0CBF012000205DF832
:104B000008FB00BF4DF808EDFFF7EAFF34BF0120B6
:104B100000205DF808FB00BF4DF808EDFFF7E0FF4F
:104B200094BF012000205DF808FB00BF4DF808EDA0
:104B3000FFF7CEFF94BF012000205DF808FB00BF07
:104B40004DF808EDFFF7C4FF34BF012000205DF8E9
:104B500008FB00BF4FEA410C7FEA6C5C02D150EACF
:104B6000013C0AD14FEA430C7FEA6C5C02D152EA65
:104B7000033C02D14FF0000070474FF00100704736
:104B80004FEA410212F5001215D211D56FF4787375
:104B9000B3EB625212D94FEAC12343F0004343EA18
:104BA000505311F0004F23FA02F018BF40427047F3
:104BB0004FF00000704750EA013005D111F000407D
:104BC00008BF6FF0004070474FF00000704700BF13
:104BD0004A0011D212F5001211D20DD56FF478737C
:104BE000B3EB62520ED44FEAC12343F0004343EAD1
:104BF000505323FA02F070474FF00000704750EA1C
:104C0000013002D14FF0FF3070474FF00000704785
:104C10004FEA4102B2F1E04324BFB3F5001CDCF1DE
:104C2000FE5C0DD901F0004C4FEAC0024CEA507016
:104C3000B2F1004F40EB830008BF20F00100704745
:104C400011F0804F21D113F13872BCBF01F0004048
:104C5000704741F480114FEA5252C2F11802C2F17A
:104C6000200C10FA0CF320FA02F018BF40F00100FB
:104C70004FEAC1234FEAD32303FA0CFC40EA0C00AD
:104C800023FA02F34FEA4303CCE77FEA625307D1EA
:104C900050EA01331EBF4FF0FE4040F44000704721
:104CA00001F0004040F0FE4040F40000704700BFBB
:104CB00053B94AB9002908BF00281CBF4FF0FF3183
:104CC0004FF0FF3000F07AB9ADF1080C6DE904CE79
:104CD00000F006F8DDF804E0DDE9022304B07047D7
:104CE0002DE9F0478C460D460446089E002B51D115
:104CF0008A4217466DD9B2FA82FEBEF1000F0BD080
:104D0000CEF1200C01FA0EF520FA0CFC02FA0EF797
:104D10004CEA050C00FA0EF44FEA174A250CBCFBCE
:104D2000FAF81FFA87F90AFB18CC45EA0C4508FB8C
:104D300009F3AB420AD9ED1908F1FF3280F0238163
:104D4000AB4240F22081A8F102083D44ED1AA4B222
:104D5000B5FBFAF00AFB105544EA054400FB09F9DB
:104D6000A14509D9E41900F1FF3380F00A81A1457A
:104D700040F2078102383C44A4EB090440EA0840B1
:104D80000021002E61D024FA0EF4002334607360F9
:104D9000BDE8F0878B4207D9002E54D0002186E869
:104DA00021000846BDE8F087B3FA83F1002940F0FE
:104DB0008E80AB4202D3824200F2FA80841A65EB05
:104DC00003050120AC46002E3FD086E81010BDE858
:104DD000F08712B90127B7FBF2F7B7FA87FEBEF1E9
:104DE000000F34D1EB1B3A0C1FFA87FC0121B3FBF7
:104DF000F2F8250C02FB183345EA03450CFB08F3D7
:104E0000AB4207D9ED1908F1FF3002D2AB4200F2F4
:104E1000D1808046ED1AA3B2B5FBF2F002FB10552B
:104E200043EA05440CFB00FCA44507D9E41900F152
:104E3000FF3302D2A44500F2B8801846A4EB0C045C
:104E400040EA08409DE731463046BDE8F087CEF1A4
:104E5000200405FA0EF307FA0EF720FA04F83A0CCC
:104E600025FA04F448EA0308B4FBF2F14FEA1845C6
:104E700002FB11441FFA87FC45EA044501FB0CF3D1
:104E8000AB4200FA0EF409D9ED1901F1FF3080F0C0
:104E90008A80AB4240F2878002393D44EB1A1FFA08
:104EA00088F5B3FBF2F002FB103345EA034500FB43
:104EB0000CF3AB4207D9ED1900F1FF386FD2AB42CA
:104EC0006DD902383D44EB1A40EA01418FE7C1F148
:104ED000200722FA07F88B4005FA01F448EA030399
:104EE00020FA07FE4FEA134CFD404EEA040EB5FBD4
:104EF000FCF94FEA1E440CFB19551FFA83F844EAEB
:104F0000054509FB08F4AC4202FA01F200FA01FA85
:104F100008D9ED1809F1FF3043D2AC4241D9A9F1CB
:104F200002091D442D1B1FFA8EFEB5FBFCF00CFB85
:104F300010554EEA054400FB08F8A04507D9E418CF
:104F400000F1FF3529D2A04527D902381C4440EA98
:104F50000940A4EB0804A0FB02894C45C6464D4617
:104F600015D312D056B1BAEB0E0364EB050404FA64
:104F700007F7CB401F43CC40376074600021BDE889
:104F8000F0871846F8E69046E0E6C245EAD2B8EB6C
:104F9000020E69EB03050138E4E72846D7E74046EF
:104FA00091E78146BEE7014678E702383C4445E791
:104FB000084608E7A8F102083D442BE7704700BF08
:104FC0000C4BDA6822F08072DA60DA6842F08072A4
:104FD000DA60094B1A6822F001021A601A6842F07E
:104FE00001021A6000225A605A6800BF00BF586868
:104FF000801A7047F0ED00E0001000E070470000FC
:10500000184AF8B5136801331360174B1A6812B1C8
:105010001A68013A1A60154E002537463378ECB20B
:10502000A34202D8FFF7EAFFF8BDA400331958687D
:10503000B0B103789B0713D583680BB1013B836044
:1050400083686BB93C44C3680169984762685368D8
:105050009360137813F0010104BF61F341031370EF
:105060000135DBE7482000204C20002030200020C4
:10507000EFF3058313B1084B38B97047074B196834
:105080001A68521A9042FBD870471A68D20348BF78
:1050900000F1FF30F0E700BF10E000E04820002002
:1050A000014B1868704700BF4820002030B500232E
:1050B000032541FA03F2D20706D502685C0005FA1F
:1050C00004F422EA040202600133102BF1D130BD56
:1050D000F0B500230325012641FA03F2D20709D5D2
:1050E00002685C0005FA04F722EA070206FA04F4F3
:1050F000224302600133102BEED1F0BD064A00F1CD
:105100003F4000F57E00116BC0F38F2301209840D3
:1051100008431063704700BF003802402DE9F04F8C
:1051200085B000F13F459DF83840029405F57E05B5
:105130009DF83C40DFF8A480039402F1FF3C01930A
:105140000024C5F387254FF0030A5FFA8CFC41FA6F
:1051500004F6F3073BD5012338F81560D0F80CE0CE
:1051600003FA04F949EA060628F8156004FA03F67A
:105170000AFA06F7029BFF4303FA06FB07EA0E0E44
:105180004EEA0B0EC0F80CE0D0F800E002FA06FB85
:105190000EEA070E4EEA0B0EBCF1010FC0F800E05C
:1051A00015D8D0F804E0019B2EEA090903FA04FEA1
:1051B0001FFA8EFE49EA0E09C0F80490D0F808E004
:1051C000039B07EA0E0703FA06F6374387600134AC
:1051D000102CBCD105B0BDE8F08F00BF50200020DE
:1051E0002DE9F047054616461F469DF820809DF89C
:1051F00024900C4669B1FFF781FFCDF82490CDF8DB
:1052000020803B46324621462846BDE8F047FFF75E
:1052100085BFBDE8F08710B5044600F0BFF8204612
:10522000CC2100F01FF920464421BDE8104000F0D9
:1052300019B90000F0B50B78282B85B007460C464D
:10524000154610D0002005B0F0BDC4F3420207EEB1
:10525000902AFAEEEE7A5DE004F00F0207EE902A53
:10526000FAEECE7A56E000F0DFF80028EAD03846B1
:1052700000F094F82146384600F085F9BE21384602
:1052800000F0F0F8002401AE384600F0FBF830558D
:105290000134092CF8D10821304600F084F99DF83A
:1052A0000C308342CED19DF805309DF8046046EA6B
:1052B000032636B2384600F071F8B4B2002EBCBFF7
:1052C0006442A4B24FEA141303F0700244F30713CC
:1052D00043EA02039DF80820C2F3411202F10902D9
:1052E000B4BF012100210B2AAFD00C2AB4D00A2A66
:1052F0001BBFC4F3C00207EE902AC4F38102F8EE8C
:10530000E77A0DBF07EE902AB6EE007A67EE877A4D
:10531000FAEECF7A07EE103AB8EEC77A77EE277A30
:1053200019B19FED047A77EE677A17EE903A012073
:105330002B6088E7000000000078A0F128035842A5
:105340005841704700F070B837B5094C0190656856
:1053500003F064FF019B074AB0FBF2F04343019363
:105360006368019A5B1B9342FAD303B030BD00BF60
:10537000001000E040420F0073B50E46154604468B
:10538000FFF71EFE012201920092002329463046BB
:10539000FFF726FF2660A58002B070BD10B5044659
:1053A0000068A1880B048361FFF792FE4FF4F07050
:1053B000FFF7CAFFA1882068FFF778FE4620FFF7B5
:1053C000C3FF2368A2881B691A4214BF012400246A
:1053D0004FF4CD70FFF7B8FF204610BD10B504465E
:1053E0000068A3881A04826191B11946FFF770FE24
:1053F0000A20FFF7A9FF2068A188FFF757FE372092
:10540000FFF7A2FFA1882068BDE81040FFF74EBE5D
:105410001946FFF75DFE4120FFF796FF2068A1883F
:10542000FFF744FE0520EBE710B504460068A188AD
:105430000B048361FFF74CFE0320FFF785FFA18873
:105440002068FFF733FE0A20FFF77EFF2368A2885B
:105450001B691A4214BF012400243220FFF774FF95
:10546000204610BD70B506460D460924013C14F0D7
:10547000FF0400D170BD05F001013046FFF7AEFF1B
:105480006D08F3E770B5064609250024013D15F0C7
:10549000FF0501D1204670BD3046FFF7C5FF640807
:1054A00044EAC014E4B2F1E7002383710372C371CC
:1054B00070472DE9F843037A04460D461BB9FFF700
:1054C0006DFF814628B10020A0712072E071BDE817
:1054D000F88329462046FFF7C5FF01264F4635468B
:1054E0002046FFF7A1FF80462046FFF79DFFB8F159
:1054F000010F10D101282ED1402DE4D984F8069057
:10550000B9F1000F01D101232372637A002BDAD0A5
:105510000120BDE8F883804504EB070310D1A27990
:10552000954212D25A7A164214BF4FF001084FF03A
:105530000008B8F1000F0ED1082D00D8E571A9467A
:105540005A7A22EA06025A720BE00CBF4FF00108A9
:105550004FF00008EDE7E2194FF00108537A3343AA
:105560005372414620467600FFF738FF16F0FF06DB
:1055700004BF0137FFB205F1010508BF0126072F5F
:10558000EDB2ADD9B8E770B50C4655210646FFF728
:1055900069FF651E073415F8011F3046FFF762FFEB
:1055A000A542F8D170BD30B501440023884201D135
:1055B000184630BD10F8014B082283EA040515F0A7
:1055C000010F4FEA530318BF83F08C0302F1FF323F
:1055D00018BFDBB212F0FF024FEA5404EDD1E5E749
:1055E00010B58EB01022002101A815F085F82422F4
:1055F000002105A815F080F839483A4B3A4A8262F2
:105600004FF4803480E818000622002301248360D0
:10561000046183610362C362C360C2610463436166
:1056200001F06CF908B100F085FC0423019301A995
:1056300003232B480294039301F018FC08B100F0F7
:1056400079FC0523019301A902232548029301F067
:105650000DFC08B100F06EFC0723019301A90323A0
:105660001F48029301F002FC08B100F063FC0E2316
:10567000019304230DEB03011948029301F0F6FB9B
:1056800008B100F057FC1023019301A90523144829
:10569000029301F0EBFB08B100F04CFC11230193E5
:1056A00001A906230E48029301F0E0FB08B100F0C7
:1056B00041FC042305930123069309930B4A0848F0
:1056C0000C92002305A907930D930B930A9308935B
:1056D00001F080FC08B100F02DFC0EB010BD00BF41
:1056E000F43A0120002001400100000F01000F00EA
:1056F00070B5064688B01422002103A814F0FCFF00
:1057000032682C4B9A4252D1002503F58C33009518
:105710005A6C294842F480725A645A6C02F48072BE
:105720000092009A01951A6B42F001021A631A6BFB
:1057300002F001020192019A02951A6B42F00402F2
:105740001A631B6B03F0040302930324029B04946B
:10575000B02303A9039302F08FFB10231748039390
:1057600003A904940595164C02F086FB154BA56021
:1057700084E828004FF4806323614FF40063636181
:1057800020464FF40053E560A361E5612562656240
:1057900001F022FE08B100F0CDFBB463122000221C
:1057A0000521A66301F07CFD122001F0BBFD08B0CD
:1057B00070BD00BF00200140000002400008024010
:1057C0003C3B01201064024013B5204B00240094A0
:1057D0001A6B42F480021A631A6B02F48002009280
:1057E000009A01941A6B42F400121A631B6B03F4C3
:1057F00000132246019305211120019B01F050FD69
:10580000112001F08FFD22460521382001F048FDCE
:10581000382001F087FD224605213A2001F040FDA5
:105820003A2001F07FFD22460521452001F038FD98
:10583000452001F077FD22460521462001F030FD8C
:10584000462001F06FFD02B010BD00BF00380240DD
:105850007047002070470000F0B5BFB03EA800249C
:1058600040F8F44D06F032FF8C4B8D4D18603EA889
:105870002F4640F8F04D07F041F88A4B18603EA8DB
:105880001BAE40F8EC4D07F039F8874B18603EA886
:1058900040F8E84D07F032F8844B18603EA801212B
:1058A00040F8E44D06F03EFF814B18603EA8012110
:1058B00040F8E04D06F036FF7E4B18603EA801210F
:1058C00040F8DC4D06F02EFF7B4B18603EA801210E
:1058D00040F8D84D06F026FF784B18603EA801210D
:1058E00040F8D44D06F01EFF754B18603EA8754B6E
:1058F00040F8D03D2246012106F060FE724B186050
:105900003EA8724B40F8CC3D2246012106F056FEDF
:105910006F4B18603EA86F4B40F8C83D22460121EE
:1059200006F04CFE6C4B18603EA86C4B40F8C43D32
:105930002246012106F042FE694B18603EA8694BE1
:1059400040F8C03D2246012106F038FE664B186043
:105950000FCF0FC63B68336021461BA806F00EFE32
:10596000624B05F1140718600FCF20AE0FC63B68DD
:105970003360214620A806F001FE5D4B05F12807A3
:1059800018600FCF25AE0FC63B683360214625A8AF
:1059900006F0F4FD574B05F13C0718600FCF2AAE17
:1059A0000FC63B68336021462AA806F0E7FD524B3C
:1059B00005F1500718600FCF2FAE0FC63B6833605C
:1059C00021462FA806F0DAFD4C4B05F1640718605C
:1059D0000FCF34AE0FC63B683360214634A806F0C3
:1059E000CDFD474B05F1780718600FCF39AE0FC6D4
:1059F0003B683360214639A806F0C0FD414B05F1F4
:105A00008C06186096E803000FAB83E8030021467C
:105A1000184606F0E9FE3C4B186096E8030011AB0F
:105A200083E803002146184606F0DEFE374B05F1F9
:105A30009402186092E8030013AB83E80300214648
:105A4000184606F0D1FE324B05F19C02186092E830
:105A5000030015AB83E803002146184606F0C4FE98
:105A60002C4B05F1A402186092E8030017AB83E801
:105A700003002146184606F0B7FE274BAC351860E8
:105A800095E8030019AB83E803002146184606F0A9
:105A9000ABFE224B18603FB0F0BD00BFB83B012009
:105AA00078EF0108E83B0120C03B0120E03B0120EA
:105AB000DC3B0120D43B0120C83B0120F43B01200A
:105AC000EC3B0120F9180108043C01200DF9000805
:105AD000D83B0120613F01089C3B0120753F010834
:105AE000E43B0120813F0108A03B0120BC3B012099
:105AF000B03B0120CC3B0120FC3B0120B43B01200A
:105B0000A43B0120003C0120F03B0120AC3B0120E4
:105B1000D03B0120C43B0120F83B0120A83B0120E1
:105B20002DE9F04F8DB01422002107A814F0E4FDF8
:105B30000024894B02941A6B884F894EDFF82CB2EF
:105B400042F004021A631A6B02F004020292029AF3
:105B500003941A6B42F080021A631A6B02F08002FF
:105B60000392039A04941A6B42F001021A631A6BAF
:105B700002F001020492049A05941A6B42F00202A8
:105B80001A631A6B02F002020592059A06941A6BC8
:105B900042F008021A631B6B03F0080306933846B1
:105BA000012243F20101069B02F03AFB22463846ED
:105BB00040F2023102F034FB304601224FF48061A2
:105BC00002F02EFB224630464FF4734102F028FBD0
:105BD000584601224FF4004102F022FB614B019331
:105BE000184601220421012502F01AFB42F2033279
:105BF00007A938464FF003080792089509940A94BC
:105C000002F03AF94FF4404207A938460792CDF81E
:105C10002080099402F030F940F6044207A9384682
:105C20004FF0280907920894099402F025F94E4A8A
:105C3000089207A938460092CDF81C90099402F00A
:105C40001BF94FF4A861009A0791584607A94FF035
:105C5000070A0892099402F00FF9009A089207A91E
:105C60003046CDF81CA0099402F006F94FF480628A
:105C7000079207A911223046089209940A9502F06A
:105C8000FBF84FF4704207A9304607920895099433
:105C90000A9402F0F1F84FF4004207A9584607921F
:105CA000089509940A9402F0E7F84FF4805207A986
:105CB0003846079208950995CDF8288002F0DCF85F
:105CC000019B0895042207A9184602270792099507
:105CD000CDF8288002F0D0F84FF4807307A9304641
:105CE000079308950997CDF8288002F0C5F84FF47E
:105CF000007307A930460793089509950A9402F0A6
:105D0000BBF822463946062001F0CAFA062001F007
:105D100009FB22463946504601F0C2FA504601F0CE
:105D200001FB22463946082001F0BAFA082001F0AA
:105D3000F9FA22463946172001F0B2FA172001F08D
:105D4000F1FA22462946484601F0AAFA484601F0EF
:105D5000E9FA0DB0BDE8F08F0038024000080240BB
:105D600000040240000C024000003110000002401C
:105D70000748084908B5042240F6FF7380E80E0082
:105D800002F074FA18B1BDE8084000F0D3B808BDBD
:105D9000083C0120003000400C4B00221A609A6041
:105DA000D3F8F42C42F00072C3F8F42C084AC3F87C
:105DB000F82C62B6074A084B5169D9639169196496
:105DC000D169126A59649A64704700BF10E000E01C
:105DD000004000081418002090EA002010B530227E
:105DE00098B000210DEB020014F086FC1422002173
:105DF00002A814F081FC1422002107A814F07CFCF6
:105E0000254B002100911A6C42F080521A641B6CE1
:105E1000224A03F080530093009B0191136823F4FE
:105E2000404343F400431360136803F44043019379
:105E3000019B09230C934FF480330D93012311939D
:105E40004FF480031393102314934FF4A873159306
:105E50000423022416930CA807231294179302F02C
:105E6000CBFE00B1FEE70F23029304904FF4805362
:105E70000690214602A80394059303F0DBF800B1D5
:105E8000FEE74FF4007307A807940A9303F00AFA99
:105E900000B1FEE718B010BD0038024000700040AD
:105EA00008B5FFF779FF124B124A1A6000F00CFD9B
:105EB000FFF794FFFFF734FEFFF786FC00F060FB6E
:105EC000FFF78EFB00F038F800F078FB00F05AF88E
:105ED00000F03AFB00F0D8FA00F0AEFA00F07AFADF
:105EE000FFF746FFFFF7B8FC06F043FBFEE700BFF5
:105EF0008C3C01200048014003680A4A934201D1CA
:105F0000FFF77EB8084A934201D108F061BE074A04
:105F1000934201D113F06EB8054A934201D110F0BB
:105F2000B5BC7047004801400008004000440140F3
:105F300000400140FEE770470A4808B57F220A4B3F
:105F4000036082600023FF224360C26003614361FB
:105F5000836103F0CFFA18B1BDE80840FFF7EABF4C
:105F600008BD00BF143C0120002800400268034B1C
:105F70009A4202BF024B01221A607047002800407B
:105F80003C0E474208B50E480E4B4FF4827E80E827
:105F9000084000238360C360036143614FF40072D3
:105FA000C3610362436283620A238261C36203F0B6
:105FB0007DFD18B1BDE80840FFF7BCBF08BD00BFBC
:105FC000343C01200030014010B5044688B0142252
:105FD000002103A814F090FB2268154B9A4224D1AB
:105FE00003F58433002101915A6C124842F4805227
:105FF0005A645A6C02F480520192019A02911A6B0F
:1060000042F002021A631B6B03F002030293029B2D
:106010003823039302230493012305930323069358
:1060200003A90523079301F027FF08B010BD00BFA7
:10603000003001400004024007B50F4B00220092DF
:10604000596C41F480415964596C01F480410091CC
:1060500000990192196C41F0805119641B6C03F096
:10606000805301930F216FF00100019B01F018F99B
:1060700003B05DF804FB00BF0038024030B50146B4
:1060800089B000221A2001F00BF91A2001F04AF918
:106090000025144B02955A6C134C42F480225A642A
:1060A0005B6C03F48023029301A903A8029B03F015
:1060B000DBF803F0C9F80D4B236040F2E733E360EF
:1060C0000B4BB0FBF3F00138606020462561A56002
:1060D00004F0E4FB20B9204603F0F6FF09B030BD20
:1060E0000120FBE7003802408C3C012000480140C1
:1060F00040420F0008B51F4B02681A601E4B4268F1
:106100001A601E4B82681A601D4BC2681A601D4BD4
:1061100002691A601C4B42691A601C4B82691A6042
:106120001B4BC2691A601B4B1A681B4B1A601B4B36
:106130001A681B4B1A601B4B1A681B4B1A601B4BCF
:106140001A681B4B1A601B4B1A681B4B1A601B4BBF
:106150005A6A1B4B1A601B4B1B68DB0700D500BE3D
:106160000921194808F04AFB0020BDE808400AF060
:1061700023BB00BF90200020942000209C20002002
:10618000A0200020982000208420002088200020CB
:106190008C20002038ED00E07020002028ED00E089
:1061A000742000202CED00E07C20002030ED00E089
:1061B000782000203CED00E06C20002000ED00E0A5
:1061C00080200020F0ED00E095F001081EF0040FA3
:1061D0000CBFEFF30880EFF3098000F097B8704729
:1061E0001EF0040F0CBFEFF30880EFF3098000F0FE
:1061F00085B8FEE71EF0040F0CBFEFF30880EFF345
:10620000098000F07DB8FEE71EF0040F0CBFEFF32D
:106210000880EFF3098000F075B8FEE71EF0040F68
:106220000CBFEFF30880EFF3098000F06DB8FEE7D4
:106230007047012002F00EB8022002F00BB80420D3
:1062400002F008B8014801F0FDBA00BF9C3E0120F1
:10625000014800F04FBD00BFF43A012008B52020EE
:1062600001F0F8FF402001F0F5FF4FF48070BDE829
:10627000084001F0EFBF0000014804F021BA00BF60
:10628000403D0120014804F01BBA00BF043D01203D
:10629000014804F015BA00BF8C3C0120014804F00D
:1062A000E7BF00BFFC3E0120014804F0E1BF00BF92
:1062B0007C3F01204FF4806001F0CCBF014801F029
:1062C000C1BA00BF3C3B0120014801F0BBBA00BF8E
:1062D0003C3E0120014802F09BB800BF4054012021
:1062E000014801F0AFBA00BFDC3D0120014801F0D8
:1062F000A9BA00BF7C3D012011F0F4BFFFF7FABE40
:10630000FFF7F8BEFFF7F6BEFFF7F4BEFFF7F2BEE9
:106310000DF04EBE0DF040BF0268084B9A4210B51A
:10632000044601D112F060FE2268054B9A4203D167
:10633000BDE8104012F002B810BD00BF004400409C
:10634000001401400368084A934201D112F044BE90
:10635000064A934201D111F0C5BF054A934201D1CB
:106360000DF0C2BF704700BF004400400014014060
:10637000001001400268034B9A4201D112F032BE74
:10638000704700BF004400400F49D1F8883043F403
:106390007003C1F888300D4B1A68002042F00102EA
:1063A0001A6098601A6822F0847222F480321A60AF
:1063B000074A5A601A6822F480221A60D8604FF0A7
:1063C00000638B60704700BF00ED00E000380240C2
:1063D000103000247FB51022002102A814F08CF99F
:1063E0001348144A002380E80C0041F2680200932D
:1063F00001938360C260036104F050FA08B1FFF7B3
:1064000099FD4FF4805302A90948029303F0D2FE8C
:1064100008B1FFF78FFD00236946054800930193FB
:1064200004F098FA08B1FFF785FD07B05DF804FBAA
:10643000C83C0120000800401FB51022002168461A
:1064400014F05AF90E480F4942F20F7380E80A001F
:106450004FF4D27200238360C260036104F01EFA1D
:1064600008B1FFF767FD4FF4805369460448009375
:1064700003F0A0FE08B1FFF75DFD05B05DF804FB79
:10648000403D01200040014009480A4908B54AF250
:10649000104380E80A00642200238360C260036125
:1064A00004F0FCF918B1BDE80840FFF743BD08BD92
:1064B000043D0120004401401FB503681E4A934279
:1064C0000ED1002301931D4B1A6C42F004021A6492
:1064D0001B6C03F004030193019B05B05DF804FB02
:1064E000174A934213D1154B00220292596C41F482
:1064F000803159645B6C03F48033029318200521CA
:10650000029B00F0CDFE182000F00CFFE5E70D4ADD
:106510009342E2D1094B00220392596C41F40031BD
:1065200059645B6C03F40033039319200521039B2A
:1065300000F0B6FE1920E7E70008004000380240EE
:10654000004001400044014008B50B480B4B4FF49C
:10655000964E80E808400C2200238360C3600361EC
:1065600042618361C36104F0C7FB18B1BDE8084014
:10657000FFF7E0BC08BD00BFFC3E01200010014059
:1065800008B50C480C4B0C224FF4165E80E808400E
:10659000426100234FF440728360C36003618261F3
:1065A000C36104F0A9FB18B1BDE80840FFF7C2BC05
:1065B00008BD00BF7C3F01200044004008B50B48E7
:1065C0000B4B4FF4165E80E808400C2200238360DA
:1065D000C360036142618361C36104F08DFB18B144
:1065E000BDE80840FFF7A6BC08BD00BF3C3F012046
:1065F00000140140F0B505468DB01422002107A813
:1066000014F07AF82B687B4A93425ED100267A4BCD
:1066100001965A6C79487A4C42F010025A645A6CCE
:1066200002F010020192019A02961A6B42F00202E5
:106630001A631B6B03F002030293029BC0230793B0
:10664000022308930123099303230A9307A907232D
:106650000B9301F011FC6B4BA6604FF0006784E8D0
:10666000880020464FF48063E66023616661A6617E
:10667000E6612662666200F0AFFE08B1FFF75AFCE1
:106680006C636148A563614C40234FF0006184E86E
:106690000B004FF4806200232046E36022616361B7
:1066A000A361E3612362636200F096FE08B1FFF725
:1066B00041FC2C63252000220121A56300F0F0FDA0
:1066C000252000F02FFE0DB0F0BD514A93424AD173
:1066D0000026494B03961A6C4E4842F400321A6465
:1066E0001A6C02F400320392039A04961A6B42F079
:1066F00001021A631B6B03F00103049302270724B2
:10670000049B0897032307A907930A930B9401F0AE
:10671000B3FB0C2307933F480897012307A909936C
:106720000B940A963C4C01F0A7FB3C48E6604FF006
:106730000063402784E889004FF48063204623618A
:106740006661A661E6612662666200F045FE08B1F8
:10675000FFF7F0FB2C63262000220521A56300F043
:106760009FFD2620ADE72E4A9342ACD10026224B56
:1067700005965A6C2B482C4C42F020025A645A6CF5
:1067800002F020020592059A06961A6B42F0040266
:106790001A631B6B03F004030693069BC023079345
:1067A000022308930123099303230A9307A90823CB
:1067B0000B9301F061FB1D49E66040234FF020621E
:1067C00084E80E0020464FF4806323616661A66171
:1067D000E6612662666200F0FFFD08B1FFF7AAFBE2
:1067E0002C63472000220221A56300F059FD4720B9
:1067F00067E700BF0010014000380240000402407B
:106800003C3E012040640240B86402407C3D0120CF
:1068100000440040000002409C3E0120A060024075
:106820000014014000080240DC3D0120A064024049
:1068300003681F4A934210B5044614D102F59432FE
:10684000C021536C1B4823F01003536401F040FC3B
:10685000606B00F0E9FE206B00F0E6FE2520BDE84D
:10686000104000F075BD144A93420ED102F5FA3281
:106870000F21136C114823F40033136401F028FC3A
:10688000206B00F0D1FE2620E9E70D4A93420ED19D
:1068900002F59232C021536C0A4823F0200353645E
:1068A00001F016FC206B00F0BFFE4720D7E710BDBB
:1068B000001001400004024000440040000002407B
:1068C000001401400008024008B50B4B1A6842F45E
:1068D00000721A601A6842F480621A601A6842F400
:1068E00080721A60032000F0BDFC0020FFF7C6FB99
:1068F000FFF7A2FB002008BD003C024010B5044693
:10690000002800F022810268914B9A4204D040F2A4
:106910000B119048FFF70FFB636833F4403304D04A
:106920004FF486718B48FFF706FBA36833F0407382
:1069300004D040F20D118748FFF7FDFA2369012BBF
:1069400004D94FF487718348FFF7F5FAA369012B47
:1069500004D940F20F117F48FFF7EDFAA36A33F034
:10696000407223F0807114D0B2F1806F11D0B2F177
:10697000006F0ED0B1F1406F0BD0B3F1606F08D053
:1069800003F17143012B04D94FF488717148FFF76B
:10699000D2FAE36833F4006304D040F211116D4879
:1069A000FFF7C9FAE369013B0F2B04D94FF4897152
:1069B0006848FFF7C0FA236B012B04D940F213118A
:1069C0006448FFF7B8FA6369022B04D94FF48A715F
:1069D0006048FFF7B0FA236A012B04D940F2151181
:1069E0005C48FFF7A8FAA26A5B4B9A4208D0E36AB8
:1069F00033F0405304D040F219115648FFF79BFA88
:106A0000236C2BB9636484F83C302046FEF770FE9B
:106A1000236CDB0600F19780236C23F4885323F06A
:106A2000020343F0020323644C4B5A6822F44032C1
:106A30005A605A6861680A435A60236821695A6833
:106A400022F480725A605A6842EA01225A605A68F7
:106A5000A16822F040725A605A680A435A609A68E4
:106A6000E16822F400629A609A680A439A603A499F
:106A7000A26A8A425BD0996821F070619960996836
:106A80000A439A609A68E16A22F040529A609A68D2
:106A90000A439A609A68A16922F002029A609A6891
:106AA00042EA41029A60226A002A48D0636A013BA6
:106AB000072B04D940F227612648FFF73CFA2368E8
:106AC000616A5A6842F400625A605A6822F460426D
:106AD0005A605A68013942EA41325A602368E169D2
:106AE000DA6A22F47002DA62DA6A013942EA0152A1
:106AF000DA629A68216B22F400729A609A6842EA1C
:106B000041229A609A68616922F480629A609A6868
:106B1000002042EA81229A606064236C23F0030320
:106B200043F001032364002384F83C3010BD9A68CD
:106B300022F070629A609A6822F04052A9E75A687F
:106B400022F40062C9E70120EDE7012010BD00BF7B
:106B500000200140B7F001080100000F00230140B0
:106B600073B5002301938369012B04460D46164635
:106B700004D940F205413B48FFF7DDF9E36A33F001
:106B8000405304D040F206413648FFF7D4F994F858
:106B90003C30012B64D02168012384F83C308B68A1
:106BA000D80705D58B68DA0714D4002002B070BD71
:106BB0008B682D4A43F001038B602C4B1B68B3FBA1
:106BC000F2F303EB43030193019B002BEAD0019BFB
:106BD000013BF8E7236CA06B23F4E06323F001038F
:106BE00043F4807323644B685B0541BF236C23F43B
:106BF000405343F480532364236C13F480531CBF2D
:106C0000636C23F006036364002384F83C30184B64
:106C1000C363184B0364184BC3646FF022030B600B
:106C20004B6843F080634B608B6843F480738B60E8
:106C30002A4633464C3100F059FD104B5B6813F087
:106C40001F0F236808D1986810F04050ADD19A68A2
:106C500042F080429A60A9E7094A9342A5D1F2E73F
:106C60000220A3E7B7F0010840420F0000190020FE
:106C7000856C0008E76C0008556E00080023014091
:106C800000200140836B1A6C12F0500F10B524D114
:106C90001A6C42F400721A641A68916811F0405F2D
:106CA00017D19969A9B9D16A11F4700F02D091680E
:106CB00049050ED4516821F0200151601A6C22F46C
:106CC00080721A641A6CD2045EBF1A6C42F0010220
:106CD0001A641846FFF71CFB10BD9B6BBDE8104003
:106CE000DB6C1847704708B5806BFFF7FBFF08BDEA
:106CF0007047704738B58369012B044604D940F2C8
:106D000073315348FFF717F9E369013B0F2B04D99F
:106D10004FF45D714E48FFF70EF96369022B04D9F9
:106D200040F275314A48FFF706F9236819685A6836
:106D30008D072BD5900629D5226CD1065EBF226C1B
:106D400042F4007222649A6812F0405F17D1A2697F
:106D5000AAB9DA6A12F4700F02D09A6852050ED4FA
:106D60005A6822F020025A60236C23F48073236453
:106D7000236CDB045EBF236C43F0010323642046D5
:106D8000FFF7C6FA23686FF012021A6023681968C9
:106D90005A684D0732D5100630D5226CD1065EBF39
:106DA000226C42F4005222649A6812F4401F1ED1F1
:106DB0009A6B12F4401F02D09A68520517D45A6891
:106DC000550514D49A6812F0405F10D1A26972B9C7
:106DD0005A6822F080025A60236C23F480532364A3
:106DE000236CD8055EBF236C43F001032364204667
:106DF00000F0EEF823686FF00C021A60236819683F
:106E00005A68C9070FD555060DD51B68D8070AD58E
:106E1000236C43F4803323642046FFF769FF236823
:106E20006FF001021A60236819685A6889060DD547
:106E300052010BD5626C6FF0200542F002026264D1
:106E400020461D60FFF755FF23681D6038BD00BF59
:106E5000B7F00108806B08B540230364436C43F02E
:106E600004034364FFF745FF08BD0000F7B50023A6
:106E700001930B68122B04460F4604D940F21551BA
:106E80004E48FFF758F87B68013B0F2B04D940F2BE
:106E900016514A48FFF74FF8BB68072B04D940F258
:106EA00017514648FFF747F894F83C30012B00F0A3
:106EB00082803D68BA6820680123092D84F83C303F
:106EC000AEB229D906EB4603C1681E3B4FF0070E50
:106ED0000EFA03FE21EA0E01C160C16802FA03F353
:106EE0000B43C3607A68062A4FEA820324D813440E
:106EF000476B591F1F238B4027EA03034363426BF1
:106F000006FA01F1114341632D4B984233D0002022
:106F100084F83C0003B0F0BD016905EB45034FF078
:106F2000070E0EFA03FE21EA0E010161016902FA61
:106F300003F30B430361D5E70C2A0ED81344016B0E
:106F4000A3F123021F23934021EA03030363036B8E
:106F500006FA02F21A430263D6E71344C16A413BC0
:106F60001F229A4021EA0202C262C26A06FA03F1B3
:106F70001143C162C8E7122D04D1124A536843F489
:106F800080035360A5F11003012BC0D80D4A53684C
:106F9000102D43F400035360B9D10B4B0B4A1B680F
:106FA000B3FBF2F20A2353430193019B002BAED0B3
:106FB000019B013BF8E70220ACE700BFB7F00108F6
:106FC00000200140002301400019002040420F0032
:106FD00070470000F8B50B68122B05460C4604D923
:106FE00040F23A319A48FEF7A6FF6368013B032B53
:106FF00004D940F23B319648FEF79DFFA368072B6A
:1070000004D94FF44F719248FEF795FFE36933F4CA
:10701000403223F4803114D0B2F5802F11D0B2F574
:10702000002F0ED0B1F5402F0BD0B3F5602F08D054
:10703000A3F57023012B04D940F23D318448FEF7BB
:107040007AFF2369013B032B04D940F23E3180488B
:10705000FEF771FFA369012B04D940F23F317C4850
:10706000FEF769FF6369012B04D94FF4507178482A
:10707000FEF761FF2B685B6813F0407340F0978068
:10708000E368B3F5805F80F0A080E269714B9A42BB
:1070900008D0236A33F4401304D040F249316C48DD
:1070A000FEF749FF95F83C30012B00F0CF802168B6
:1070B000A2680123092985F83C308EB22B6840F282
:1070C000908006EB4600DF681E384FF0070E0EFA80
:1070D00000FE27EA0E07DF60DF6802FA00F038439F
:1070E000D8609A6BD4F810E0676822F440129A6373
:1070F000986B0EF1FF3240EA0250FA1CA2EB0E022E
:107100009863D2B2986B02EB82024FF01F0E0EFA18
:1071100002FE20EA0E009863986B06FA02F2024320
:107120009A634C48E26982426BD0986820F47020E0
:107130009860986802439A609A68206A22F4401224
:107140009A609A6802439A60A269002A61D05A68DC
:1071500042F480625A606269002A5ED05A6842F442
:1071600080525A60022FE2683B485AD0032F5FD00A
:10717000012F64D15C6920405861586902435A610B
:10718000364A93420FD1122905D1D2F8043343F481
:107190008003C2F804331039012904D8304A5368F7
:1071A00043F400035360002085F83C00F8BDB3F1C0
:1071B000807F03D1E368B3F5806F64E7B3F1007FAC
:1071C00009D1E368FF2B7FF660AF4FF4517120487F
:1071D000FEF7B1FE59E7B3F1407FF6D1E3683F2BEC
:1071E000F1E71F6901EB41004FF0070E0EFA00FEB8
:1071F00027EA0E071F611F6902FA00F03843186181
:107200006FE79A6822F470229A609A6822F440121A
:1072100099E75A6822F480629CE75A6822F4805207
:107220009FE79C6920409861986902439A61A7E7AB
:10723000DC692040D861D8690243DA61A0E71C6AA2
:1072400020401862186A02431A6299E70220F8BDCA
:10725000EFF0010801000F0000F0FFFF00200140E7
:1072600000230140C31E042B10B5044603D9A221FC
:107270000948FEF760FE094AD36823F4E0631B0463
:107280001B0C43F0BF63240243F4003304F4E064B6
:107290001C43D46010BD00BF2AF1010800ED00E0DE
:1072A0000F2A70B504460E46154603D9BA211A486E
:1072B000FEF741FE0F2E03D9BB211748FEF73BFE18
:1072C000164BD968C1F30221C1F107030A1D042B33
:1072D00028BF04230120062A8CBF0339002100FAAD
:1072E00003F2013A8840324001388A400540002CC0
:1072F00042EA05024FEA0212AFBF04F1604404F013
:107300000F04074BD2B2A5BF04F56144D2B21A559F
:1073100084F8002370BD00BF2AF1010800ED00E0F1
:1073200014ED00E010B5041E03DACE210648FEF786
:1073300002FE6209012304F01F0403FA04F4034B64
:1073400043F8224010BD00BF2AF1010800E100E02F
:1073500010B5041E03DADE210648FEF7ECFD6309D2
:10736000012204F01F0402FA04F42033024A42F816
:10737000234010BD2AF1010800E100E010B5041E11
:1073800004DA40F295110748FEF7D5FD63090122A2
:1073900004F01F0402FA04F44033034A42F8234085
:1073A00010BD00BF2AF1010800E100E00368DAB275
:1073B00023F47F7323F003031821103AB2FBF1F298
:1073C0000449032A88BF0433895C8365C165806DE5
:1073D000704700BF9DF1010870B50446FDF760FEDF
:1073E0000546002C00F0178123688C4A934231D067
:1073F000183293422ED0183293422BD01832934237
:1074000028D01832934225D01832934222D0183215
:1074100093421FD0183293421CD002F55672934209
:1074200018D01832934215D01832934212D0183225
:1074300093420FD0183293420CD01832934209D0A5
:107440001832934206D01832934203D0C8217448B0
:10745000FEF771FD636833F0C06306D0B3F1006FCF
:1074600003D0C9216E48FEF766FDA36833F04002E1
:1074700005D0802B03D0CA216948FEF75CFDE36884
:1074800033F4007303D0CB216548FEF754FD236924
:1074900033F4806303D0CC216148FEF74CFD63696F
:1074A00033F4006206D0B3F5805F03D0CD215C4891
:1074B000FEF741FDA36933F4005206D0B3F5804FC7
:1074C00003D0CE215648FEF736FDE36933F02002A3
:1074D00006D0B3F5807F03D0CF215148FEF72BFDB6
:1074E000236A33F4403303D0D0214D48FEF723FD07
:1074F000636A33F0040303D0D1214948FEF71BFD32
:10750000636AB3B1A36A032B03D9D6214448FEF7BB
:1075100012FDE36A33F0C07303D0D7214048FEF771
:107520000AFD236B33F4C00303D0D8213C48FEF797
:1075300002FD002384F834302268022384F83530B9
:10754000136823F00103136021680B68D8073CD44B
:107550000B68344D6268A0691D40A3681343E2685C
:1075600013432269134362691343E26903431343DC
:10757000226A1343626A042A43EA050301BF266BA9
:10758000E56A35432B430B604B69042A23F007035C
:1075900043EA02030BD1A26AE56A13433DB1F8B98D
:1075A000012A2DD001D3022A01D1EA012BD44B614B
:1075B0002046FFF7FBFEE26D3F23934083600020EF
:1075C0000123606584F8353070BDFDF769FD401B0F
:1075D0000528B9D920236365032084F8350070BDE0
:1075E000B0F5005F13D1032AE1D801A050F822F0D2
:1075F00007760008AB7500080776000801760008DA
:10760000B5F1C07FD3D1402363650120E5E7022AAD
:10761000F9D9032AC8E7012070BD00BF10600240FD
:1076200065F101083F8010F038B50546002856D0B6
:1076300090F83500C0B2022852D02B68294A9342F4
:1076400032D0183293422FD0183293422CD01832B5
:10765000934229D01832934226D01832934223D035
:107660001832934220D0183293421DD002F5567240
:10767000934219D01832934216D01832934213D045
:107680001832934210D0183293420DD018329342E0
:107690000AD01832934207D01832934204D04FF4E4
:1076A000AC711148FEF747FC2B681A6822F0010202
:1076B00000241A6021221C6028465C609C60DC600B
:1076C0001C615A61FFF772FEEA6D3F2393408360AD
:1076D0006C6585F8344085F83540204638BD01207A
:1076E00038BD00BF1060024065F101082DE9F0418E
:1076F000174698465A1E4FF6FE739A4204460D46A8
:10770000866D04D94FF4EA712248FEF714FC94F810
:107710003430012B3AD0012384F8343094F83530DA
:10772000012B4FF002004FF000012BD184F83500FF
:1077300061652168A3680868E26D402B4FF03F0344
:1077400003FA02F320F480200860C1F804800BBF24
:107750008F608D60CD60CF60B3600B6843F016031F
:107760000B604B6943F080034B61236C1BB10B68CA
:1077700043F008030B600B6843F001030B6000202B
:10778000BDE8F08184F83410BDE8F0810220BDE846
:10779000F08100BF65F1010870B50446856DFDF705
:1077A0007FFC94F83530022B064606D080236365B3
:1077B000002384F83430012070BD23681A6822F059
:1077C00016021A605A6922F080025A61226C0AB9C4
:1077D000A26C1AB11A6822F008021A601A6822F024
:1077E00001021A602368186810F0010009D1E26DE7
:1077F0003F239340AB60012384F8340084F8353094
:1078000070BDFDF74DFC801B0528EBD92023636577
:107810000320002384F8343084F8350070BD90F8DC
:107820003530022B03D08023436501207047026866
:10783000052380F83530136823F00103136000201E
:1078400070470000F7B5002301935A4B856D1F6800
:10785000C36D2E6808229A40164204460CD0016877
:107860000868400708D5086820F004000860AA608E
:10787000626D42F00102626501229A40164208D010
:1078800021684969090641BFAA60626D42F002029F
:10789000626504229A40164208D021680968880768
:1078A00041BFAA60626D42F00402626510229A40F4
:1078B000164210D02368196809070CD5AA601A6807
:1078C000500335D51B68190301D4236C00E0A36C69
:1078D0000BB120469847E16D20228A40164238D0ED
:1078E00023681868C60634D5AA6094F83520052A9E
:1078F0001A6825D122F016021A605A6922F0800215
:107900005A61226C0AB9A26C1AB11A6822F00802F4
:107910001A603F238B40AB60002384F8343001238E
:1079200084F83530236D0BB12046984703B0F0BD85
:107930001A68D2055EBF1A6822F008021A60C4E70E
:10794000500328D51B68190332D4636C0BB1204651
:107950009847636D002BE9D0636DDA0719D50523CD
:10796000226884F83530136823F0010313604FF464
:107970001653B7FBF3F7019B01339F42019302D3E8
:107980001368DB07F7D4002384F83430012384F82C
:107990003530E36CC7E71A6812F4807208D11968B1
:1079A00021F010011960012384F8342084F8353067
:1079B000E36BCBE700190020204BDA68D00606D530
:1079C0001F49CA6942F01002CA611022DA60DA68FF
:1079D000910606D51A49CA6942F00802CA612022F6
:1079E000DA60164BDA68520606D51549CA6942F0C4
:1079F0000402CA614022DA60DA68100606D510492E
:107A0000CA6942F00202CA618022DA600B4BDA686E
:107A1000D10507D50A49CA6942F00102CA614FF48B
:107A20008072DA60DA68920706D50549CA6942F0C1
:107A30002002CA610222DA60704700BF003C0240A7
:107A4000BC3F012038B500F17843B3F5002F044660
:107A50000D460BD300F1604303F50843B3F5047FF3
:107A600004D340F2C5210848FEF765FA074B1A69AE
:107A700022F440721A611A691A611A6942F001020D
:107A80001A61257038BD00BFA5F10108003C024015
:107A900038B500F17843B3F5002F04460D460BD3FB
:107AA00000F1604303F50843B3F5047F04D34FF4BA
:107AB0002B710948FEF73FFA084B1A6922F440720D
:107AC0001A611A6942F480721A611A6942F001025D
:107AD0001A61258038BD00BFA5F10108003C0240B5
:107AE00038B500F17843B3F5002F04460D460BD3AB
:107AF00000F1604303F50843B3F5047F04D340F27B
:107B000093210948FEF717FA084B1A6922F44072CC
:107B10001A611A6942F400721A611A6942F001028C
:107B20001A61256038BD00BFA5F10108003C024084
:107B300070B51E4600F17843B3F5002F0446154694
:107B40000BD300F1604303F50843B3F5047F04D37E
:107B500040F277210948FEF7EEF90949086920F457
:107B600040700861086940F440700861086940F09D
:107B7000010008612560666070BD00BFA5F10108C5
:107B8000003C0240064B1A69002ABFBF054A5A60F2
:107B900002F188325A60BABF1869C00F00207047DE
:107BA000003C024023016745034A136943F0004348
:107BB00013610020704700BF003C0240F8B5124B33
:107BC000124C00220546DA61FDF76AFA264607469E
:107BD000E368DA030CD4E368DB0744BF0123E36006
:107BE000F06810F4F97002D0FFF7E6FE0120F8BD4E
:107BF000691CEDD00DB90320F8BDFDF751FAC01B8B
:107C00008542E5D2F7E700BFBC3F0120003C0240BF
:107C10002DE9F0411E4C9846237E012B07460D4668
:107C2000164632D001230328237603D9B4211948FC
:107C3000FEF781F94CF25030FFF7C0FF68B987B901
:107C4000F1B22846FFF7FEFE4CF25030FFF7B6FFC8
:107C5000114A136923F00103136100232376BDE861
:107C6000F081012F04D1B1B22846FFF711FFEBE7F5
:107C7000022F04D131462846FFF732FFE4E73246AF
:107C800043462846FFF754FFDEE70220BDE8F081B7
:107C9000BC3F0120A5F10108003C0240032838B593
:107CA00004460D4604D94FF473710D48FEF743F9AD
:107CB000012D04D040F2CD310948FEF73CF9094BC3
:107CC0001A6922F440721A611A6942F004021A61B8
:107CD000186940F4803040EA0420186138BD00BFC4
:107CE000DFF10108003C0240072838B505460C4684
:107CF00004D940F2EB311748FEF71DF9032C21D9C6
:107D00004FF47B711348FEF716F9022C0CBF4FF4A9
:107D100000744FF44074104B1A6922F440721A61D7
:107D20001A6914431C611A6922F0F8021A61186971
:107D300040F0020040EAC50018611A6942F480323E
:107D40001A6138BD002CE6D0012CDED14FF48074CE
:107D5000E1E700BFDFF10108003C0240144B1A6864
:107D600091050FD51A6822F400721A601A6842F45D
:107D700000621A601A6822F400621A601A6842F4FB
:107D800000721A600A4B1A6852050FD51A6822F45D
:107D900080621A601A6842F480521A601A6822F4EB
:107DA00080521A601A6842F480621A60704700BFFD
:107DB000003C02402DE9F8432C4E337E012B044653
:107DC000884651D0012333760368012B03D9BB21A8
:107DD0002748FEF7B0F84CF25030FFF7EFFE0546AB
:107DE000B0B94FF0FF33C8F800302368012B14D12D
:107DF0006168207CFFF752FF4CF25030FFF7DEFE47
:107E00001C4A136923F0040305461361FFF7A6FF1C
:107E1000002333762846BDE8F883E368A26813445C
:107E2000013B072B03D9D3211148FEF784F8A7683B
:107E3000DFF84090E368A26813449F42E6D2217CB9
:107E40003846FFF751FF4CF25030FFF7B7FED9F834
:107E5000103023F0FA03C9F8103018B1C8F80070D8
:107E60000546D3E70137E5E70225D3E7BC3F01200C
:107E7000DFF10108003C02408F4B98422DE9F74F9B
:107E800004460D4617D003F58063984213D003F5DE
:107E9000806398420FD003F5806398420BD003F5BE
:107EA0008063984207D003F54063984203D0C32112
:107EB0008248FEF740F82B689AB212B11B0C1B04E3
:107EC0001BB1C4217D48FEF736F86B68032B17D928
:107ED000A3F11102012A13D9794923F400128A422D
:107EE0000ED001F580118B420AD0A1F570218A4293
:107EF00006D0744A934203D0C5217048FEF71BF8A0
:107F0000AB68022B03D9C6216C48FEF714F8DFF8E2
:107F1000BC81002601232A6803FA06F707EA020952
:107F20004F4540F0BB806A6822F01002022A1BD144
:107F300029690F2904D849F2F772CA40D20703D43D
:107F4000D7215E48FDF7F7FFF10804EB810106F049
:107F5000070290000B6A0F22824023EA020E2A6970
:107F6000824042EA0E020A626A6820684FEA460BC3
:107F70004FF0030A0AFA0BFA02F003016FEA0A0A49
:107F800022F0100200EA0A0001FA0BF1013A014363
:107F9000012A216017D8EA68032A03D9EA21474851
:107FA000FDF7C9FFA168EA686B680AEA010102FAF5
:107FB0000BF20A43A2606268C3F3001322EA0702CD
:107FC000B34013436360E36868680AEA030AAB6876
:107FD00003FA0BF343EA0A03E360C3005ED53A4AAF
:107FE00000230193516C41F480415164526C26F09E
:107FF000030101F1804102F4804201F59C310192BC
:1080000006F0030E019AD1F808C04FEA8E0E0F2237
:1080100002FA0EF22CEA020C274A944213D003F122
:10802000804303F501339C423FD003F580639C42BB
:108030003DD003F580639C423BD003F580639C42B6
:1080400014BF0723042303FA0EF343EA0C038B60E7
:10805000D8F800206FEA0901C70354BF0A4049EA73
:108060000202C8F80020D8F80420830354BF0A4055
:1080700049EA0202C8F80420D8F80820C70254BF11
:108080000A4049EA0202C8F80820D8F80C308202F7
:1080900054BF0B4049EA0303C8F80C300136102ED8
:1080A0007FF438AF03B0BDE8F08F0123CBE70223A4
:1080B000C9E70323C7E700BF000002401CF2010824
:1080C000000011100000221000380240003C014066
:1080D0002DE9F84F454B98420446884618D003F5E1
:1080E0008063984214D003F58063984210D003F562
:1080F000806398420CD003F58063984208D003F562
:108100004063984204D04FF4A0713948FDF713FF43
:108110003849DFF8E4B000224FF001094FF0030ABC
:108120004FF00F0E09FA02F333EA080050D1500065
:1081300025680AFA00F0C043D608054004EB86061D
:10814000256002F00705376AAD000EFA05F527EA4B
:1081500005053562A5680540A5606568DB431D40DF
:108160006560E5682840E06022F0030000F180408F
:1081700000F59C3002F003061C4D8768B6000EFA2D
:1081800006FCAC4207EA0C0727D005F58065AC4237
:1081900025D005F58065AC4223D005F58065AC425D
:1081A00021D05C450CBF04250725B540AF420FD157
:1081B000856825EA0C0585600868184008604868ED
:1081C00018404860886818408860C8680340CB60E1
:1081D0000132102AA6D1BDE8F88F0025E5E7012578
:1081E000E3E70225E1E70325DFE700BF00000240E7
:1081F0001CF20108003C01400010024038B5054661
:108200000C4621B94FF4C7710448FDF794FE2B6961
:108210001C4214BF0120002038BD00BF1CF2010821
:1082200070B5054616460C4621B940F2AF11084814
:10823000FDF781FE012E06D94FF4D8710448FDF7F1
:108240007AFEAC6170BD002EFBD12404F9E700BFBB
:108250001CF2010808B5044B5969014202D058616B
:10826000FEF758F808BD00BF003C014038B5044691
:10827000002832D002681A4B9A4203D0AD21194827
:10828000FDF759FE6368062B03D9AE211548FDF7AB
:1082900052FEA368B3F5805F03D3AF211148FDF709
:1082A0004AFE23684CF6CC421A6045F255521A60D9
:1082B00062685A60A2689A60FCF7F2FE054623687D
:1082C000D86818B94AF6AA221A6038BDFCF7E8FE49
:1082D000401B3028F3D9032038BD012038BD00BF32
:1082E0000030004055F2010803684AF6AA221A60DD
:1082F00000207047F0B505468BB000286DD00368AC
:10830000B3F1A04F03D094213548FDF714FE0323A9
:108310002C4685F8B933284606F0D8FA54F8100BE5
:1083200003F00CF90FCC6E460FC60FCC0FC694E8C5
:10833000030086E803002F1D97E80E00286803F06D
:10834000BDF80021286803F0FFF800212B462A46DB
:1083500005F110040126084682F83810D187013152
:108360000F2982F8396082F83B0010645064D064B1
:1083700002F11C02F0D10022D5F800E0114602F112
:10838000400083F8F821DA870EEB800001320F2AD3
:1083900083F8F91183F8FB11C3F80012C3F8041233
:1083A000C3F80C12416003F11C03E8D10FCC6E46F8
:1083B0000FC60FCC0FC694E8030086E80300704692
:1083C00097E80E0003F0D8F8012385F8B933286840
:1083D00003F0F5FB00200BB0F0BD0120FBE700BF70
:1083E0008EF2010890F8B833012B10B504460CD07A
:1083F000012380F8B833006803F0D5FB206803F050
:1084000097F8002084F8B80310BD022010BD0000CA
:108410002DE9F04FD0F8009087B00446484603F0AD
:1084200008FC0290002840F02E81206803F0D3FB66
:10843000002800F02881206803F0CDFB850748BFA5
:108440002268206842BF536903F00203536103F0BE
:10845000C2FB10F400250AD0206803F0C0FB09F528
:1084600030660746A2460025002F40F00F812068A5
:1084700003F0B1FB41030BD5206803F0B8FB26469F
:10848000039009F510680025039B002B40F03F8105
:10849000206803F0A0FB00280DDAD9F8043823F097
:1084A0000103C9F80438204606F090FA226853699F
:1084B00003F000435361206803F08DFB06050BD5E4
:1084C000D9F80838D80702D5204606F067FA22689E
:1084D000536903F400635361206803F07CFBC1041B
:1084E00037D509F500667368206823F001037360CF
:1084F000102103F0DDF8616809F51063FF2202988E
:10850000884240F092814FF0FF33B361F36943F04A
:108510000113F361236B002B00F08F81D6F88430B8
:1085200043F00B03C6F88430736C43F00B037364A1
:10853000D9F80038217C206823F4FE63C9F800389C
:1085400004F56F7203F094FB2268536903F48053BF
:108550005361206803F03FFB82041DD5206803F0BF
:108560006CFB2068C36823F47053C36003F0C9F840
:10857000002840F06B812268E0604FF40073636173
:10858000D36843F41053D360204606F0F6F922680E
:10859000536903F400535361206803F01CFBC306C6
:1085A0002BD52268936923F010039361D9F82060DA
:1085B000C6F34343022B06F00F0840F0A88147F6AC
:1085C000F0731E4214D01C2707FB0847C6F30A1697
:1085D0003246D7F80412484603F08FFAD7F804322F
:1085E0003344C7F80432D7F810321E44C7F810627B
:1085F0002268936943F010039361206803F0EBFA5B
:10860000070707D5204606F0B4F92268536903F03E
:1086100008035361206803F0DEFAC60208D5E9B208
:10862000204606F0DBF92268536903F48013536196
:10863000206803F0D0FA800208D5E9B2204606F09F
:10864000C9F92268536903F400135361206803F0E9
:10865000C2FA410007D5204606F0C4F922685369E2
:1086600003F080435361206803F0B5FA42070AD54E
:1086700023685D686B0702D5204606F0B7F92368CA
:108680005A6815435D6007B0BDE8F08FF80738D52C
:108690005FFA85FB5946206803F0B1FA10F0010F2C
:1086A000804621D0216901239942B3600CD1316900
:1086B000DAF80002C1F31201411ACAF81012DAF80E
:1086C00004120844CAF804025946204606F040F94C
:1086D0002169012908D13DB9D4F80C2222B904F549
:1086E0006F72206803F0C4FA18F0080F04D0204617
:1086F00006F028F90823B36018F0100F1CBF1023F0
:10870000B36001357F0820360AF11C0AACE6039BF2
:10871000DA0758D55FFA85FB5946206803F079FAE5
:10872000C307074620D5D9F834380121A94023EAE8
:108730000103C9F834380123C8F808302369012B34
:1087400001BF736C326C9B1873645946204606F067
:1087500008F92169012907D135B9E36C23B904F57A
:108760006F72206803F084FA380744BF0823C8F802
:108770000830F90644BF1023C8F808307A0644BF11
:108780004023C8F80830BB0744BF0223C8F80830AC
:108790003F0618D523680493F76C336DFF1A336CCA
:1087A0009F4228BF1F46049B03F5106307F1030A8D
:1087B00003EB45134FEA9A0A0593059B9B699BB20D
:1087C000534508D82FB3039B5B08013503931C3630
:1087D00008F1200858E6326DF36C9342F2D9002B71
:1087E000F0D0376C04989B1A9F4228BF1F46237C09
:1087F00000935A46BBB2716C03F06BF9736C3B4447
:108800007364336D07F1030A3B444FEA9A0A3365F8
:10881000D3E7049B012203F5006BD3F83438AA4058
:1088200023EA0203CBF83430CDE702989A60013096
:10883000C3F808220290203361E6736943F00B030A
:108840007361336943F00B03336171E60323E36023
:108850004023636100F0E2FC344B354A0344934209
:10886000236804D8DA6842F47052DA608CE6314A40
:10887000314902448A4203D8DA6842F46052F4E78C
:10888000A0F574022D49A2F510528A4203D8DA6885
:1088900042F45052E9E7A0F183722949A2F5E74278
:1088A0008A4203D8DA6842F44052DEE7254A264974
:1088B00002448A4203D8DA6842F43052D5E7234AA8
:1088C000234902448A4203D8DA6842F42052CCE7B2
:1088D000204A214902448A4203D8DA6842F41052FD
:1088E000C3E7A0F1B7721D49A2F558528A4203D8D6
:1088F000DA6842F40052B8E7194A1A4902448A4237
:10890000DA6894BF42F4E05242F4C052ADE7062B5D
:108910007FF46EAE082204F56F7148461C2703F001
:10892000ECF807FB0847C6F30A165CE6405327FF3E
:10893000FF340C00401E1BFF3F420F007F4F120010
:108940001FD6130060B6E5FE5FE3160000D3CEFE2F
:108950003F771B00C05BB3FEBF9121001F7538003D
:10896000E05459FEDF9C410090F8B833012B10B55C
:10897000044609D0012380F8B833006803F003F9F6
:10898000002084F8B80310BD022010BD70B54EB2AF
:10899000002E04464FF01C0501F07F00B5BF05FB1B
:1089A000004105FB0141383101F5FC71C0B2002ED8
:1089B000B8BFC880022BCB704FEAD67504BF002326
:1089C0000B7108704D7094F8B8338A60012B09D090
:1089D000012384F8B833206802F0AEFE002084F84A
:1089E000B80370BD022070BD4BB2002B10B54FF024
:1089F0001C02044601F07F00B5BF02FB004102FBF0
:108A00000141383101F5FC71DB0F08704B7094F8AF
:108A1000B833012B09D0012384F8B833206802F061
:108A2000CAFE002084F8B80310BD022010BD38B57E
:108A300001F07F051C2404FB050104FB050401F57E
:108A4000FC71C4F80C320023C4F80422C4F81032BC
:108A500084F8F93184F8F85103690068012B08BFE4
:108A6000C4F80822DAB21DB902F0C6FF002038BDF2
:108A700002F0FCFEFAE71C2301F00F0103FB0101E9
:108A8000B1F81002704738B501F07F051C2404FBD3
:108A9000050104FB05043831E36400232365012349
:108AA000626484F8393084F8385003690068012B17
:108AB00008BFA264DAB21DB902F09EFF002038BDE3
:108AC00002F0D4FEFAE738B54BB2002B01F07F0577
:108AD0004FF01C02B5BF02FB050102FB010138315A
:108AE00001F5FC710122DB0FEDB28A700D704B7045
:108AF00090F8B833934204460FD080F8B82300684A
:108B000003F009F82DB904F56F72217C206803F099
:108B1000AFF8002084F8B80338BD022038BD38B55E
:108B20004BB2002B05464FF01C0201F07F00B5BF91
:108B300002FB005102FB0151383101F5FC71DB0FE2
:108B400000248C7008704B7095F8B833012B09D055
:108B5000012385F8B833286802F0FCFF85F8B84394
:108B6000204638BD022038BD006870B5436A21B97F
:108B700043EA02438362002070BD846A002503EB50
:108B800014434E1EECB2B44205F1010506DB3F3141
:108B900000EB810043EA02434360ECE7403400EB22
:108BA0008404646803EB1443ECE703680020596213
:108BB00070470000012810B50C4604D94FF4C0716D
:108BC0000B48FDF7B8F9631E012B04D940F281115F
:108BD0000748FDF7B0F9074A1369012C23F0040395
:108BE000136101D130BF10BD40BF20BF20BF10BDF9
:108BF000C6F2010800ED00E02DE9F341044618B982
:108C0000012002B0BDE8F08103680F2B03D9F821E1
:108C1000A248FDF790F92368D80718D4236899076C
:108C20006BD42368190700F1BE8023685A0700F14E
:108C3000E480A369022B04D940F2DF119748FDF7C5
:108C40007AF9A269002A40F051810020D9E76368CF
:108C500033F4803206D0B3F5A02F03D0FD218F4826
:108C6000FDF769F98E4B9A6802F00C02042A07D0CE
:108C70009A6802F00C02082A0AD15B685A0207D5EA
:108C8000874B1B689B03C9D56368002BC6D1B7E728
:108C90006368834DB3F5803F11D12B6843F4803373
:108CA0002B60FCF7FDF97E4D06462B689F03B5D47B
:108CB000FCF7F6F9801B6428F7D90320A1E7B3F588
:108CC000A02F04D12B6843F480232B60E5E72A68AA
:108CD00022F480322A602A6822F480222A60002B43
:108CE000DFD1FCF7DDF906462B68980396D5FCF733
:108CF000D7F9801B6428F7D9DFE7E368012B04D993
:108D000040F22F116548FDF716F923691F2B04D98E
:108D10004FF498716148FDF70EF9614B9A6812F0B3
:108D20000C0F07D09A6802F00C02082A12D15B6877
:108D300059020FD45A4B1A68920703D5E268012AE8
:108D40007FF45EAF1A68216922F0F80242EAC1029C
:108D50001A6066E7E268534BB2B101221A60FCF771
:108D60009FF94F4D06462B689F0707D52B68226950
:108D700023F0F80343EAC2032B6052E7FCF790F9B3
:108D8000801B0228EFD998E71A60FCF789F9444D57
:108D900006462B6898077FF544AFFCF781F9801BE6
:108DA0000228F6D989E76369012B04D94FF4B87119
:108DB0003A48FDF7C0F862693B4B7AB101221A606C
:108DC000FCF76EF9364D06466B6F9B073FF52DAFEE
:108DD000FCF766F9801B0228F6D96EE71A60FCF7EB
:108DE0005FF92F4D06466B6F9F077FF51EAFFCF7AF
:108DF00057F9801B0228F6D95FE7A368012B06D933
:108E0000052B04D04FF4CE712448FDF794F8244B81
:108E10001A6C12F0805228D101921A6C42F08052E2
:108E20001A641B6C03F080530193019B01261F4DB4
:108E30002B68D8051BD5A368194D012B27D12B6FA3
:108E400043F001032B67FCF72BF9154D074641F260
:108E500088382B6F9A0743D5002E3FF4EAAE104AAC
:108E6000136C23F080531364E3E60026DFE72B68DE
:108E700043F480732B60FCF713F907462B68D90580
:108E8000D9D4FCF70DF9C01B0228F7D915E7052B3B
:108E90000ED12B6F43F004032B67D0E7FEF20108DD
:108EA0000038024000004742800E474200700040F8
:108EB0002A6F22F001022A672A6F22F004022A6731
:108EC000002BC0D1FCF7ECF841F2883807462B6F35
:108ED0009B07C1D5FCF7E4F8C01B4045F7D9ECE689
:108EE000FCF7DEF8C01B4045B3D9E6E63B4EB3685D
:108EF00003F00C03082B3FF483AE022A384D5ED1F9
:108F0000E36933F4800304D04FF4F4713548FDF77E
:108F100012F8236A3F2B04D940F2E9113148FDF7DA
:108F20000AF8636A323BB3F5BF7F04D94FF4F57199
:108F30002C48FDF700F8A26A082A04D84FF4AA7357
:108F4000D340D80704D440F2EB112648FCF7F3FFD6
:108F5000E36A023B0D2B04D94FF4F6712148FCF76C
:108F6000EAFF00232B60FCF79BF81C4E0746336892
:108F700099011ED4226AE3691343626A43EA8213A9
:108F8000E26A43EA0263A26A144C5208013A43EAD5
:108F90000243736001232B60FCF782F805462368C7
:108FA0009A013FF552AEFCF77BF8401B0228F6D938
:108FB00083E6FCF775F8C01B0228D8D97DE60023AC
:108FC0002B60FCF76DF8044633689B017FF53DAEDE
:108FD000FCF766F8001B0228F6D96EE6003802405E
:108FE00060004742FEF20108104908B58B6803F0A3
:108FF0000C03082B18D14A684B6849680C4813F4D5
:109000008003C1F3881118BF002302F03F02A1FBC7
:109010000001FBF74DFE054B5B68C3F301430133D1
:109020005B00B0FBF3F008BD014808BD003802400A
:109030000024F4002DE9F0410D46044610B901204A
:10904000BDE8F0810368013B0E2B04D94FF4147185
:109050006D48FCF770FF072D04D940F251216A4892
:10906000FCF769FF694B1A6802F00F0295423DD880
:109070002268960742D42368D9076CD4634B1A68D8
:1090800002F00F029542C0F09C8023685A0700F15D
:10909000A18023681B0718D5236933F480520CD0B4
:1090A00023F40062B2F5A05F07D0B3F5C05F04D02F
:1090B0004FF430715448FCF73EFF554A21699368DC
:1090C00023F4604343EAC1039360FFF78DFF504BE5
:1090D000504A9B68C3F30313D35CD8404E4B1860CF
:1090E0000020FCF7CBFF0020BDE8F081EAB21A7047
:1090F0001B6803F00F039D42A1D1B9E7444B12F066
:10910000040F1EBF996841F4E0519960100742BFF7
:109110009A6842F460429A60A36833F0800212D0E9
:1091200023F02002902A0ED023F04002A02A0AD079
:1091300023F01002C02A06D0F02B04D04FF41D718A
:109140003148FCF7F8FE324AA168936823F0F00337
:109150000B4393608FE76368032B04D940F27B21B4
:109160002948FCF7E8FE6268294B012A1FD11B68D9
:1091700013F4003F3FF463AF254EB36823F00303BD
:109180001343B360FBF78CFF41F288380746B3689E
:10919000626803F00C03B3EB820F3FF46FAFFBF791
:1091A0007FFFC01B4045F2D90320BDE8F081911E2E
:1091B00001291B6802D813F0007FDBE713F0020FD0
:1091C000D8E7EAB21A701B6803F00F039D427FF4E0
:1091D00036AF5AE7E36833F480520CD023F40062D0
:1091E000B2F5A05F07D0B3F5C05F04D040F2B9215B
:1091F0000548FCF7A0FE064AE168936823F4E053B3
:109200000B43936045E700BFFEF20108003C0240BB
:10921000003802409FF0010800190020014B186837
:10922000704700BF00190020044B054A9B68C3F338
:109230008223D35C034A1068D8407047003802404C
:10924000AFF0010800190020044B054A9B68C3F3E6
:109250004233D35C034A1068D8407047003802405C
:10926000AFF00108001900200F2303600B4B9A6830
:1092700002F0030242609A6802F0F00282609A688B
:1092800002F4E052C2609B68DB0803F4E053036120
:10929000034B1B6803F00F030B607047003802405C
:1092A000003C02400368013B0E2BF7B5044604D98D
:1092B00040F6DD116D48FCF73EFE236813F0050F04
:1092C0000BD123689A0743D4206810F008001FBF11
:1092D000674B227C1A60002038E0A368023B052B14
:1092E00004D940F6E4116148FCF725FE6368323B7F
:1092F000B3F5BF7F04D940F6E5115C48FCF71BFECF
:109300005C4D5D4E00232B60FBF7CAFE07463368B9
:109310001B0115D4A36862681B0743EA8213C6F8D1
:10932000843001232B60FBF7BBFE534D06462B68B0
:109330001801C6D4FBF7B4FE801B0228F7D904E05D
:10934000FBF7AEFEC01B0228E1D9032003B0F0BD3D
:10935000E368B3F5807F2ED0B3F5007F2BD0474A6A
:1093600023F4A020904223F4803124D023F4102051
:1093700002F5003290421ED0414823F4403282422E
:1093800019D023F4881300F5C020834213D03D4B3D
:109390009A4210D003F580239A420CD003F5802323
:1093A0009A4208D003F58023994204D040F6162152
:1093B0002E48FCF7C0FD002301932F4B324D1A6C51
:1093C00042F080521A641B6C03F080530193019B9E
:1093D0002B6843F480732B60FBF762FE06462B6814
:1093E000D9051AD5244D2B6F13F440731BD1E368B4
:1093F00003F44072B2F5407F1F4A33D1916823F0E5
:10940000704021F4F81120F4407001439160116F15
:10941000C3F30B030B43136756E7FBF741FE801BB7
:109420000228DCD991E7E26802F440729342DED070
:109430002B6F164A0121116023F440730021116043
:109440002B672B6FDA07D2D5FBF72AFE41F288375C
:1094500006462B6F9B07CAD4FBF722FE801BB8423F
:10946000F7D972E7916821F4F811CFE736F30108D4
:10947000E011474268004742003802400003020002
:10948000000308000003100000700040400E474237
:10949000026838B5D36823F0A003D3600446FBF715
:1094A000FFFD05462368DB689B0601D5002038BD1B
:1094B000FBF7F6FD401BB0F57A7FF3D9032038BDEA
:1094C00038B50368DA685206044601D5002038BD75
:1094D0004FF0FF32DA60FBF7E3FD05462368DB68F7
:1094E0005B06F3D4FBF7DCFD401BB0F57A7FF5D9C2
:1094F000032038BD38B50446002847D0436833F010
:10950000400303D0D2213B48FCF715FDA3687F2B15
:1095100003D9D3213748FCF70EFDE368B3F5004FBC
:1095200003D3D4213348FCF706FD236933F4C00389
:1095300003D0D5212F48FCF7FEFC636933F4801378
:1095400003D0D6212B48FCF7F6FCA36933F4802323
:1095500003D0D7212748FCF7EEFC637F03F0FF021E
:109560001BB922772046FCF701FD022363772368AD
:10957000CA225A6253225A622046FFF7A1FF23688B
:10958000054628B1FF225A620423637701252EE0A5
:109590009A68206922F4E00222F040029A60626830
:1095A00099680243606902430A439A60E2681A615B
:1095B0001A69A16842EA01421A61DA6822F080025F
:1095C000DA609B689B0605D42046FFF761FF08B16F
:1095D0002368D7E72368A1691A6C22F480221A64F1
:1095E0001A6C0A431A64FF225A62012363772846E1
:1095F00038BD00BF71F301080023092803D840EAF1
:109600000310C0B270470A380133C0B2F5E703094E
:1096100003EB830300F00F0000EB4300C0B2704780
:10962000012AF8B506460C46154604D94FF4E071F8
:109630006D48FCF780FCE368B3F5003F07D033F4D6
:10964000803304D040F2C1116748FCF774FC2369F1
:1096500033F4802304D04FF4E1716348FCF76BFCD2
:10966000337F012B4FF002074FD00123337733684C
:10967000777720789B68002D4FD15A0647D501385F
:109680000B2804D940F2CD115748FCF754FCE3787D
:1096900013F0BF0F04D04FF4E7715348FCF74BFCB5
:1096A00063783B2B04D940F2D5114F48FCF743FCBB
:1096B000A3783B2B04D94FF4EB714B48FCF73BFCF0
:1096C0002078FFF799FF02466078FFF795FF05467F
:1096D000A078FFF791FFE37840EA034040EA0240B8
:1096E00040EA05253368CA225A6253225A6230463C
:1096F000FFF7E6FE3368074600284BD0FF225A6288
:10970000042373770023337701273846F8BD1728E1
:10971000E570C5D940F2D311BFE713F0400331D053
:10972000FFF775FF01380B2804D94FF4F1712E486B
:10973000FCF701FCE37813F0BF0F04D040F2E31113
:109740002948FCF7F8FB6078FFF761FF3B2804D954
:109750004FF4F5712448FCF7EEFBA078FFF757FFB4
:109760003B2804D940F2EB111F48FCF7E4FB60787A
:109770002578000240EA0540A5782843E57840EACC
:109780000545AFE7E370FFF742FF1728DBD94FF439
:10979000F471D5E705F07F3525F0FE451D609A6828
:1097A000E16822F480229A609A680A4321690A4398
:1097B0009A60DA6822F08002DA609B689B060AD41D
:1097C0003046FFF765FE30B13368FF225A6204234A
:1097D0007377377798E73368FF225A6201237377EC
:1097E0000023337791E700BF71F30108012AF8B530
:1097F00005460C46174604D94FF411711448FCF77E
:109800009AFB2B689A6A19691D68626005F07F33BC
:1098100023F0FE43C1F30E011E0C06F03F00A160D1
:1098200005F07F05C3F3062106F040062070617045
:10983000A570E67057B9FFF7EAFE20700846FFF7FB
:10984000E6FE60702846FFF7E2FEA0700020F8BD3B
:1098500071F30108012A70B505460E46144604D975
:1098600040F271214E48FCF766FB2B7F012B4FF035
:10987000020300F0938001222A776B7734B9737862
:10988000DA0642BF23F010030A3373703378013BCA
:10989000062B04D940F27D214148FCF74CFBF078BF
:1098A000002C3ED1632804D940F281213C48FCF7CA
:1098B00042FB7378013B0B2B04D940F282213848DC
:1098C000FCF739FBB378013B1E2B04D940F283210E
:1098D0003348FCF730FBF078FFF78EFE02467078D5
:1098E000FFF78AFE0446B078FFF786FE337840EA39
:1098F000433040EA024040EA04242B68CA225A62FC
:1099000053225A622846FFF7DBFD2B68064630B328
:10991000FF225A6204236B7700232B7701263046FF
:1099200070BDFFF774FE632804D94FF423711C48FF
:10993000FCF701FB40F28D211948FCF7FCFA1848AE
:1099400040F28E21FCF7F7FA7078F478000240EAD2
:109950000440B4782043347840EA4434CDE724F01E
:109960007F4424F0C0045C60DA6822F08002DA6090
:109970009B689B060AD42846FFF78AFD30B12B6806
:10998000FF225A6204236B772E77C7E72B68FF22EA
:109990005A6201236B7700232B77C0E71E46BEE790
:1099A00071F30108012A70B505460C46164604D924
:1099B00040F2DF211048FCF7BEFA2B68596821F00D
:1099C0007F4323F0C003180CC3F3042501F03F01CB
:1099D000C3F34233E0706570A170237056B9FFF78E
:1099E00016FEE0702846FFF712FE60700846FFF78B
:1099F0000EFEA070002070BD71F301082DE9F0414A
:109A0000069E0446884617461D462268936838EA33
:109A100003030CBF012300239F4202D10020BDE8B5
:109A2000F0816B1CF2D055BB23685A6822F0E0022B
:109A30005A606268B2F5827F0AD1A268B2F5004F1F
:109A400002D0B2F5806F03D11A6822F040021A608A
:109A5000A26AB2F5005F09D11A6822F4005212041A
:109A6000120C1A601A6842F400521A60012384F83A
:109A70005130002384F850300320BDE8F081FBF71B
:109A80000FFB801B8542C0D8CEE713B50B46009272
:109A9000802100220446FFF7B1FF20B1636D43F03F
:109AA00020036365032002B010BD000010B504461A
:109AB000002800F0A8800368544A934210D0A2F511
:109AC000784293420CD002F58062934208D002F5AE
:109AD0007842934204D04FF487714D48FCF72BFA3B
:109AE00063683BB1B3F5827F04D040F20F11484860
:109AF000FCF721FAA36833F4806207D0B3F5004F76
:109B000004D04FF488714248FCF715FAE36833F447
:109B1000006304D040F211113D48FCF70CFAA36930
:109B200033F4007207D0B3F5802F04D04FF489715D
:109B30003748FCF700FAE36933F0180306D0202B0E
:109B400004D040F213113248FCF7F5F9236A33F0E0
:109B5000800304D04FF48A712D48FCF7ECF9636A56
:109B600033F0100304D040F215112948FCF7E3F953
:109B7000636A83B9236933F0020304D04FF48C7114
:109B80002348FCF7D8F96369012B04D940F2191175
:109B90001F48FCF7D0F90023A36294F8513003F07A
:109BA000FF0223B984F850202046FCF70DFA216803
:109BB000A068A269022384F851300B6823F04003A7
:109BC0000B6063680343E0680343206903436069F3
:109BD0000343E0690343206A0343A06A034302F49A
:109BE000007003430B60120C636A02F004021A4314
:109BF0004A60CB6923F40063CB61002001236065D8
:109C000084F8513010BD012010BD00BF003001406C
:109C1000A9F301082DE9FF411E46836833F4004390
:109C200004460D46904604D040F2C5115248FCF758
:109C300082F994F85030012B00F09C80012384F8C5
:109C40005030FBF72DFA074694F85100C0B20128B6
:109C500040F08E80002D4ED0B8F1000F4BD0032382
:109C600084F8513000236365A363A4F83680A3878A
:109C7000E38763642364A3682563B3F5004F236817
:109C8000A4F8348002BF1A6842F480421A601A684D
:109C900052065EBF1A6842F040021A60E268B2F5EE
:109CA000006F626838D11AB1E28E92B2012A06D1F1
:109CB00035F8022BDA60E38E013B9BB2E386E38E3C
:109CC0009BB293B900973346012202212046FFF749
:109CD00095FE78B93A4631462046FFF7D6FE002871
:109CE00038D020236365012005E023689A68900737
:109CF000DED44EB90320012384F85130002384F8C8
:109D0000503004B0BDE8F081711CD8D0FBF7C8F921
:109D1000C01B8642D3D8EDE71AB1E28E92B2012A77
:109D200006D115F8012B1A73E38E013B9BB2E38633
:109D3000E38E9BB2002BC5D023689A689207F0D4BB
:109D4000002ED7D0731CF3D0FBF7AAF9C01B8642B4
:109D5000EED8CFE7A36833B903932368DA68039298
:109D60009B680393039B606D003018BF0120C2E71E
:109D70000220C0E70220C4E7A9F301082DE9F0435F
:109D8000994685B083680C9F04460D46164623B15C
:109D900040F23A317B48FCF7CEF894F85030012B72
:109DA00000F0ED80012384F85030FBF779F994F846
:109DB00051306168DBB2012B80460AD0B1F5827F59
:109DC00040F0DB80A268002A40F0D780042B40F0EE
:109DD000D480002D4ED0002E4CD0B9F1000F49D0C8
:109DE00094F85130A663012B04BF052384F8513049
:109DF00000236365236463642368A4F83E90A4F899
:109E000036901A68A4F83C90500658BF1A6825632B
:109E100058BF42F04002A4F8349058BF1A60E2687C
:109E2000B2F5006F5DD119B1E28E92B2012A06D16E
:109E300035F8022BDA60E38E013B9BB2E3864FF0EC
:109E40000109E38E9BB2BBB9E38F9BB2A3B9CDF8F6
:109E500000803B46012202212046FFF7CFFD00286B
:109E600035D1424639462046FFF70FFE002879D00B
:109E70002023636501202BE0B9F1000F0FD0E38EA2
:109E80009BB263B123689A68910708D535F8022B15
:109E9000DA60E38E013B9BB2E3864FF00009E38F6B
:109EA0009BB263B123689A68D20708D5DB6826F8AD
:109EB000023BE38F013B9BB2E3874FF00109781C23
:109EC000BFD0FBF7EDF8A0EB08008742B9D803201C
:109ED000012384F85130002384F8503005B0BDE8E8
:109EE000F08319B1E28E92B2012A06D115F8012B46
:109EF0001A73E38E013B9BB2E3864FF00109E38EB8
:109F00009BB21BB9E38F9BB2002BA0D0B9F1000F1D
:109F10000FD0E38E9BB263B123689A68910708D58E
:109F20002A781A73E38E013B9BB2E38601354FF02A
:109F30000009E38F9BB263B123689A68D20708D502
:109F4000DB683370E38F013B9BB2E38701364FF050
:109F500001097B1CD3D0FBF7A3F8A0EB08008742D4
:109F6000CDD8B4E7A368002BB2D123680390DA6898
:109F700003929B680393039BAAE70220A8E70220B1
:109F8000ACE700BFA9F301082DE9F3411E46436881
:109F9000B3F5827F04460D4690460CD1836853B9D1
:109FA000042380F85130134600960A46FFF7E6FE78
:109FB00002B0BDE8F08194F85030012B00F08180B0
:109FC000012384F85030FBF76BF8074694F85100F2
:109FD000C0B2012873D1002D58D0B8F1000F55D070
:109FE000042384F85130002363652363A4F83E8082
:109FF000A386E38623646364A368A563B3F5004F77
:10A000002368A4F83C8002BF1A6822F480421A60D8
:10A010001A6852065EBF1A6842F040021A60E3688E
:10A02000CBB1E38F9BB2D3B123689A68D2073CD5FA
:10A03000DB6825F8023BE38F013B9BB2E387F0E747
:10A0400023689A68D0071FD51B7B05F8013BE38F77
:10A05000013B9BB2E387E38F9BB2002BF0D1636897
:10A06000B3F5827F0BD1A368B3F5004F02D0B3F5EF
:10A07000806F04D12268136823F040031360606D81
:10A08000003018BF012001E03EB90320012384F80D
:10A090005130002384F850308AE7711CDBD0FAF786
:10A0A000FFFFC01B8642D6D8EFE7002EEDD0731C11
:10A0B000B7D0FAF7F5FFC01B8642B2D8E5E7022019
:10A0C000E4E7022074E700000368184A934210B5E1
:10A0D00004461FD0B3F1804F1CD0A2F57C429342BE
:10A0E00018D002F58062934214D002F58062934248
:10A0F00010D002F59A3293420CD002F5806293425E
:10A1000008D002F58062934204D04FF4B171084840
:10A11000FBF711FF2368DA6842F00102DA601A687F
:10A1200042F001021A60002010BD00BF0000014093
:10A13000E1F3010803681D4A934210B504461FD09D
:10A14000B3F1804F1CD0A2F57C42934218D002F5A7
:10A150008062934214D002F58062934210D002F5DF
:10A160009A3293420CD002F58062934208D002F5F5
:10A170008062934204D040F277110D48FBF7DBFE7A
:10A180002368DA6822F00102DA60196A41F21112DA
:10A19000114208D1196A40F24442114202BF1A68C2
:10A1A00022F001021A60002010BD00BF0000014033
:10A1B000E1F3010890F83830012B70B505460C46E4
:10A1C0004FF002002ED0012385F838300B6885F857
:10A1D0003900B3F5805F0CD0B3F5005F09D033F0E0
:10A1E000300306D0402B04D040F67771A948FBF726
:10A1F000A2FE2B689A6822F47F4222F077029A60CE
:10A200002268402A00F09C8134D8102A00F00B828A
:10A2100009D8002A00F0E5810123002085F83930B3
:10A2200085F8380070BD202A00F01F82302AF3D153
:10A23000994A934217D0B3F1804F14D0A2F57C42D3
:10A24000934210D002F5806293420CD002F58062F6
:10A25000934208D002F59A32934204D040F6F2714C
:10A260008C48FBF768FE2A68936823F0700343F07C
:10A270003703C6E0702A00F0C6804ED8502A00F09E
:10A280000D81602AC8D1844A934217D0B3F1804F20
:10A2900014D0A2F57C42934210D002F58062934222
:10A2A0000CD002F58062934208D002F59A329342B4
:10A2B00004D040F6C4717748FBF73DFE6368B3F500
:10A2C000004F09D033F0020206D00A2B04D040F62A
:10A2D000C7717048FBF72FFEE3680F2B04D940F6D7
:10A2E000C8716C48FBF727FE2B686668186AE4683B
:10A2F00020F01000186299691A6A21F4704122F066
:10A30000A00242EA061241EA043199611A629A688F
:10A3100022F0700242F0670210E1B2F5805F49D08E
:10A32000B2F5005F7FF478AF5B4A934213D0B3F18C
:10A33000804F10D0A2F57C4293420CD002F580628F
:10A34000934208D002F58062934204D040F6A47193
:10A350005048FBF7F0FD6368B3F5004F09D033F0C8
:10A36000020206D00A2B04D040F6A6714948FBF73A
:10A37000E2FDA36833F4405304D040F6A77145488A
:10A38000FBF7D9FDE3680F2B04D940F6A8714148CB
:10A39000FBF7D1FD2A686068A36891680343E06811
:10A3A00021F47F4143EA00230B439360936843F415
:10A3B000804326E0384A93421FD0B3F1804F1CD02F
:10A3C000A2F57C42934218D002F58062934214D0E9
:10A3D00002F58062934210D002F59A3293420CD07B
:10A3E00002F58062934208D002F58062934204D065
:10A3F00040F683712748FBF79EFD2A68936823F097
:10A400000703936008E7244A934213D0B3F1804FC7
:10A4100010D0A2F57C4293420CD002F580629342A8
:10A4200008D002F58062934204D040F68C7119483E
:10A43000FBF781FD6368B3F5004F09D033F00202EA
:10A4400006D00A2B04D040F68E711248FBF773FD3C
:10A45000A36833F4405304D040F68F710D48FBF7E6
:10A460006AFDE3680F2B04D94FF479610948FBF7C3
:10A4700062FD2A686068A36891680343E06821F47C
:10A480007F4143EA00230B439360936843F07703D3
:10A49000B7E700BFE1F3010800000140844A93429E
:10A4A0001FD0B3F1804F1CD0A2F57C42934218D04C
:10A4B00002F58062934214D002F58062934210D07C
:10A4C00002F59A3293420CD002F58062934208D092
:10A4D00002F58062934204D040F6B6717548FBF7EE
:10A4E0002AFD6368B3F5004F09D033F0020206D0AD
:10A4F0000A2B04D040F6B9716E48FBF71CFDE368E7
:10A500000F2B04D940F6BA716A48FBF714FD2B688B
:10A510006168186AE6681C6A24F001041C629A6982
:10A5200020F00A0022F0F00242EA061201439A618A
:10A5300019629A6822F0700242F057029A606BE644
:10A540005B4A93421FD0B3F1804F1CD0A2F57C42EE
:10A55000934218D002F58062934214D002F58062D3
:10A56000934210D002F59A3293420CD002F58062E9
:10A57000934208D002F58062934204D040F6D27133
:10A580004C48FBF7D8FC6368B3F5004F09D033F0B3
:10A59000020206D00A2B04D040F6D5714548FBF7DD
:10A5A000CAFCE3680F2B04D940F6D6714148FBF78B
:10A5B000C2FC2B686168186AE6681C6A24F0010412
:10A5C0001C629A6920F00A0022F0F00242EA0612A8
:10A5D00001439A6119629A6822F0700242F04702C0
:10A5E000ACE7334A934217D0B3F1804F14D0A2F5B1
:10A5F0007C42934210D002F5806293420CD002F567
:10A600008062934208D002F59A32934204D04FF40C
:10A610007E612848FBF78FFC2A68936823F070035B
:10A6200043F00703EDE6224A934217D0B3F1804F7F
:10A6300014D0A2F57C42934210D002F5806293427E
:10A640000CD002F58062934208D002F59A32934210
:10A6500004D040F6E6711748FBF76DFC2A68936852
:10A6600023F0700343F01703CBE6114A934217D04F
:10A67000B3F1804F14D0A2F57C42934210D002F582
:10A68000806293420CD002F58062934208D002F5BA
:10A690009A32934204D040F6EC710648FBF74BFC2B
:10A6A0002A68936823F0700343F02703A9E600BFEC
:10A6B00000000140E1F301087047704770477047A0
:10A6C00003681A69910710B504460ED5DA68920737
:10A6D0000BD56FF002021A619B6901229B0702767B
:10A6E00077D0FFF7EAFF0023237623681A69500723
:10A6F00010D5DA6851070DD56FF004021A619B6915
:10A70000022213F4407F2276204668D0FFF7D5FF5F
:10A710000023237623681A6912070FD5DA68100719
:10A720000CD56FF008021A61DB69042299072276C2
:10A7300020465AD0FFF7C1FF0023237623681A6909
:10A74000D20610D5DA68D0060DD56FF010021A6166
:10A75000DB69082213F4407F227620464BD0FFF7B6
:10A76000ACFF0023237623681A69D10708D5DA687D
:10A77000D20705D56FF001021A612046FBF7BCFB3A
:10A7800023681A69100608D5DA68110605D56FF036
:10A7900080021A61204600F032F923681A695206D5
:10A7A00008D5DA68500605D56FF040021A612046D8
:10A7B000FFF785FF23681A69910622D5DA689206A9
:10A7C0001FD56FF0200220461A61BDE8104000F04E
:10A7D00015B9FFF771FF2046FFF770FF83E7FFF71A
:10A7E0006BFF2046FFF76AFF92E7FFF765FF204601
:10A7F000FFF764FFA0E7FFF75FFF2046FFF75EFF6C
:10A80000AFE710BD224A036890420ED0B0F1804FEE
:10A810000BD0A2F57C42904207D002F580629042B4
:10A8200003D002F58062904219D14A6823F0700388
:10A830001343174A904204D1CA6823F44073134368
:10A8400018E0B0F1804FF7D0124A9042F4D002F5F0
:10A8500080629042F0D002F580629042ECD00E4AC5
:10A860009042E9D002F580629042E5D002F5806224
:10A870009042E1D003608B68C3620B688362044B33
:10A88000984204BF0B69036301234361704700BF13
:10A8900000000140000400400040014010B50446A3
:10A8A000002851D00368294A93421ED0B3F1804F4B
:10A8B0001BD0A2F57C42934217D002F580629342EE
:10A8C00013D002F5806293420FD002F59A32934280
:10A8D0000BD002F58062934207D002F5806293426A
:10A8E00003D0D7211A48FBF726FBA36833F01002E8
:10A8F00009D023F04002202A05D0402B03D0D821D4
:10A900001348FBF718FB236933F4807206D0B3F5C4
:10A91000007F03D0D9210E48FBF70DFB94F83930A6
:10A9200003F0FF0223B984F838202046FBF7C4FD6A
:10A93000022384F839302068211DFFF763FF0123CB
:10A9400084F83930002010BD012010BD0000014006
:10A95000E1F3010838B5274A0368934204460D46DF
:10A9600013D0B3F1804F10D0A2F57C4293420CD0AB
:10A9700002F58062934208D002F58062934204D0CF
:10A9800040F24A611C48FBF7D6FA2B6833F03003DB
:10A9900006D0402B04D040F24B611748FBF7CBFAAE
:10A9A0006B6833F0800304D040F24C611248FBF72F
:10A9B000C2FA94F83830012B4FF0020018D0236807
:10A9C00084F839005A68296822F070025A605A687F
:10A9D0000A435A609A68696822F080029A609A680D
:10A9E0000A439A600020012384F8393084F8380043
:10A9F00038BD00BF0000014019F4010870477047DE
:10AA00000368DA6822F49072DA605A6922F001026F
:10AA10005A61202380F83A307047000042689E4B0C
:10AA20009A422DE9F047044604D940F685119B4827
:10AA3000FBF781FAE36833F4005304D040F6861143
:10AA40009648FBF778FA236933F4806207D0B3F5B0
:10AA5000C06F04D040F687119048FBF76CFA636929
:10AA60004FF6F372134200D123B940F688118B4898
:10AA7000FBF761FA2668E26833692069E16923F42B
:10AA8000405313433361A368F2680343606922F4BF
:10AA90001642034322F00C020B431343F360736925
:10AAA000A26923F440731343B1F5004F73617C4BEB
:10AAB0007CD19E4203D003F580639E4244D1FEF7D1
:10AAC000C3FB192505FB00F360684FF064094000E3
:10AAD000B3FBF0F3B3FBF9F34FEA0318FEF7B4FB53
:10AAE000636868435B00B0FBF3F7FEF7ADFB636898
:10AAF00068435B00B0FBF3F3B3FBF9F309FB13739B
:10AB0000DB003233B3FBF9F35B0003F4F877FEF7B5
:10AB10009BFB626868435200B0FBF2FAFEF794FBBD
:10AB2000636868435B00B0FBF3F3B3FBF9F309FB25
:10AB300013A3DB003233B3FBF9F303F00703434401
:10AB40003B44B360BDE8F087FEF76EFB192505FBBB
:10AB500000F360684FF064094000B3FBF0F3B3FB0F
:10AB6000F9F34FEA0318FEF75FFB636868435B0085
:10AB7000B0FBF3F7FEF758FB636868435B00B0FB7C
:10AB8000F3F3B3FBF9F309FB1373DB003233B3FBCD
:10AB9000F9F35B0003F4F877FEF746FB626868435D
:10ABA0005200B0FBF2FAFEF73FFBB9E79E4202D03B
:10ABB0003C4B9E4240D1FEF747FB676819254FF09A
:10ABC000640905FB00F3BF00B3FBF7F3B3FBF9F334
:10ABD0001F01FEF739FB636868439B00B0FBF3F885
:10ABE000FEF732FB636868439B00B0FBF3F3B3FBF3
:10ABF000F9F309FB13831B013233B3FBF9F303F0C1
:10AC0000F008FEF721FB626868439200B0FBF2FA9D
:10AC1000FEF71AFB636868439B00B0FBF3F3B3FBDA
:10AC2000F9F309FB13A31B013233B3FBF9F303F070
:10AC30000F0343EA080383E7FEF7F6FA676819256E
:10AC40004FF0640905FB00F3BF00B3FBF7F3B3FB60
:10AC5000F9F31F01FEF7E8FA636868439B00B0FB55
:10AC6000F3F8FEF7E1FA636868439B00B0FBF3F387
:10AC7000B3FBF9F309FB13831B013233B3FBF9F385
:10AC800003F0F008FEF7D0FA626868439200B0FB68
:10AC9000F2FAFEF7C9FABDE7A037A00054F40108A4
:10ACA0000010014000140140F8B504460E46174656
:10ACB0001D4621680B6836EA030301D10020F8BD68
:10ACC0006B1CF7D095B92368DA6822F4D072DA6089
:10ACD0005A6922F001025A61202384F8393084F83D
:10ACE0003A30002384F838300320F8BDFAF7D8F959
:10ACF000C01B8542DDD2E6E710B50446002864D0CB
:10AD000081690368324A002953D093420CD0A2F5DE
:10AD10004C42934208D002F55042934204D04FF483
:10AD200080712C48FBF707F9A36933F4407304D012
:10AD300040F201112748FBF7FEF8A36833F4805373
:10AD400004D040F207112348FBF7F5F8E36933F428
:10AD5000004304D04FF484711E48FBF7ECF894F8DC
:10AD6000393003F0FF0223B984F838202046FBF77E
:10AD700041FC2268242384F83930D36823F400533B
:10AD8000D3602046FFF74AFE23681A6922F49042F6
:10AD90001A615A6922F02A025A61DA6842F40052B2
:10ADA000DA6000202023E06384F8393084F83A30F8
:10ADB00010BD9342C1D0084A9342BED002F5504222
:10ADC0009342BAD040F20511B4E7012010BD00BF94
:10ADD0000010014054F401080044004010B504463E
:10ADE000F8B10368104A93420CD0A2F54C4293424A
:10ADF00008D002F55042934204D04FF4FC710B4846
:10AE0000FBF799F82423204684F83930FBF710FD2E
:10AE10000020E06384F8380084F8390084F83A00B0
:10AE200010BD012010BD00BF0010014054F4010806
:10AE30002DE9F0411F4690F83930202B04460D468D
:10AE400090464FD100294AD0002A48D090F8383097
:10AE5000012B47D0012380F838300023C36321231E
:10AE600080F83930FAF71CF9A4F824800646A4F8D3
:10AE70002680E38C9BB26BB93B463246402120468C
:10AE8000FFF712FFB0B9202384F8393084F8380076
:10AE9000BDE8F081E38C013B9BB2E384A368B3F58A
:10AEA000805F32463B464FF0800120460ED1FFF7CF
:10AEB000FBFE10B10320BDE8F0812B882268C3F3AC
:10AEC00008035360236943B90235D2E7FFF7ECFE6C
:10AED0000028EFD123682A785A600135C9E701209C
:10AEE000BDE8F0810220BDE8F0812DE9F0411F4668
:10AEF00090F83A30202B04460D46904652D1002956
:10AF00004DD0002A4BD090F83830012B4AD0012385
:10AF100080F838300023C363222380F83A30FAF7F0
:10AF2000BFF8A4F82C800646A4F82E80E08D80B2ED
:10AF300030B9202384F83A3084F83800BDE8F08135
:10AF4000E38D013B9BB2E385A368B3F5805F324696
:10AF50003B464FF02001204612D1FFF7A5FE10B16D
:10AF60000320BDE8F081236822695B6822B9C3F33E
:10AF7000080325F8023BD9E7DBB225F8013BD5E70A
:10AF8000FFF792FE0028EBD1236821695B686A1CF9
:10AF900011B92B701546C9E703F07F03F9E70120CB
:10AFA000BDE8F0810220BDE8F08190F83A30202B16
:10AFB0001CD1C9B1C2B190F83830012B16D0C2856E
:10AFC000828500232222C36380F83A2002688162CE
:10AFD000516980F8383041F001015161D16841F484
:10AFE0009071D16018467047012070470220704769
:10AFF00038B50446134694F83920202A2AD139B3AB
:10B0000033B394F83820012A24D0012284F8382060
:10B01000206BE38400252122E56384F839200E4A61
:10B02000A3842162C2630D4A02640D4AC26422688D
:10B0300005650432FCF75AFB23686FF040021A6082
:10B040005A6984F8385042F080025A61284638BD67
:10B05000012038BD022038BD31B100085FB10008C1
:10B0600021B20008134690F83A20202A73B505460D
:10B0700038D1002934D0002B32D090F83820012A62
:10B0800030D00122002480F838202222C46381625B
:10B09000838580F83A20406B134AC2632E68134AB6
:10B0A0000264134AC26404650A46311DFCF71EFBA4
:10B0B0002B6801941A6801925A680192019ADA6821
:10B0C00085F8384042F48072DA605A6942F0010231
:10B0D0005A615A6942F040025A61204602B070BD7E
:10B0E0000120FBE70220F9E769B1000817B2000868
:10B0F00021B200080368DA6822F4907210B5DA60B1
:10B100005A6922F001025A615A695206044609D569
:10B110005A69406B22F040025A6118B1002303655E
:10B12000FCF73AFB00202023E08584F83A3010BD7C
:10B1300008B50368826B1B6813F480730AD1D3844B
:10B1400013685A6922F080025A61DA6842F04002BC
:10B15000DA6008BD1046FBF7DFF808BD704708B598
:10B16000806BFFF7FBFF08BD08B50368826B1B68A7
:10B1700013F4807310D1D3851368D96821F48071DA
:10B18000D960596921F001015961596921F04001E3
:10B190005961202382F83A301046FBF7D3F808BDF6
:10B1A00090F83A30222B10B532D1836801690268D9
:10B1B000B3F5805F836A1FD15268C9B9C2F3080230
:10B1C00023F8022B8362C48D013CA4B2C4856CB900
:10B1D0000368DA6822F49072DA605A6922F0010298
:10B1E0005A61202380F83A30FBF7ACF8002010BDFC
:10B1F000D2B223F8012BE5E721B9591C52688162CC
:10B200001A70E0E75268591C816202F07F02F7E78A
:10B21000022010BD704708B5806BFFF7FBFF08BD2B
:10B22000816B08B50B685A6991F8390021280AD159
:10B23000120608D50022CA84DA6822F0C002DA6059
:10B24000202281F839205B6991F83A20222A06D120
:10B250005B0604D50023CB850846FFF7D1FBCB6BFB
:10B2600043F01003CB630846FBF784F808BD0000E9
:10B2700003681A68D96870B5160704465D6907D176
:10B2800096065AD58D0658D5BDE87040FFF788BFA1
:10B2900015F0010502D111F4907F4ED0D30705D5EA
:10B2A000CE0542BFE36B43F00103E363500704D5CF
:10B2B0001DB1E36B43F00203E363930704D51DB1B3
:10B2C000E36B43F00403E363160704D51DB1E36B9E
:10B2D00043F00803E363E36B002B66D0950604D5C7
:10B2E000880602D52046FFF75BFF23685D69E26BA5
:10B2F0001107204602D415F040051AD0FFF780FB55
:10B3000023685A69520610D55A69606B22F04002D0
:10B310005A6150B1254B0365FCF781FA002844D0EF
:10B32000606BBDE87040036D18472046FBF722F8BC
:10B3300070BDFBF71FF8E56370BD160627D50D0637
:10B3400025D594F83920212A2FD1A268B2F5805F43
:10B35000226A17D11188C1F308015960216979B9AE
:10B3600002322262E28C013A92B2E284EAB9DA68ED
:10B3700022F08002DA60DA6842F04002DA6070BDE2
:10B380000132EEE7511C216212785A60EAE750065A
:10B390000BD54A0609D5DA6822F04002DA6020238C
:10B3A00084F839302046FAF7B7FF70BDB1B3000812
:10B3B00008B5806B0023C385C384FAF7DBFF08BDA3
:10B3C000704700000368DA6822F4F07210B5DA60A2
:10B3D0005A690446006B22F001025A6128B15A6989
:10B3E00012F0800218BF1F4A0265616B29B15A69C9
:10B3F00012F0400218BF1C4A0A655A6912061DD491
:10B40000012322685169490627D55169606B21F0F3
:10B410004001516108B3FCF702FA00B3636B0022EC
:10B420001A650023E384E385E363202384F839303D
:10B43000204684F83A30FFF7C3FF10E05A6922F043
:10B4400080025A610028DBD0FCF7E9F918B1236BC0
:10B4500000221A65D4E70346D3E7002BE1D1002090
:10B4600010BD00BF95B400086DB40008806B426B3E
:10B4700008B500231365026B0AB1126D4AB9C38483
:10B48000C385C363202380F8393080F83A30FFF752
:10B4900097FF08BD806B026B08B500231365426BF4
:10B4A0000AB1126D4AB9C384C385C363202380F8EF
:10B4B000393080F83A30FFF783FF08BD84B038B5E3
:10B4C00005AD85E80E000A9B012B044626D1836B4F
:10B4D00023F480338363C36823F4840323F040039D
:10B4E000C360C36823F44013C360119B012B02BFE8
:10B4F000C36843F48013C36000F0DEFB089B012B9C
:10B5000007D1A36843F00603A360A36843F02003B8
:10B51000A360BDE83840002004B07047C36843F022
:10B520004003C36000F0C8FB4FF48033A363E5E73A
:10B53000836843F00103836000207047836823F031
:10B54000010383600020704708B5C368012923F018
:10B55000C043C36008D1C36843F00053C3603220C6
:10B56000F9F786FD002008BD0029F8D1C36843F033
:10B570008043C360F3E7000084B02DE9F041044646
:10B5800007A880E80E00119E0A9FA36B8846A6B903
:10B5900043F40013A3630023C4F8003ED4F800383A
:10B5A000C4F800380C9B012B04F500655ED10999A5
:10B5B00039B9204600F09EF807E043F40023A36366
:10B5C000E9E71946204600F095F81021204600F0E2
:10B5D0006FF8204600F07EF800234FF0FF322B6119
:10B5E00019466B614FF09040AA614FF0FF0EEB617E
:10B5F00004F5106243453BD1002104F53062084652
:10B600004FF0904E4FF0FF0C8B423ED12B69012F33
:10B6100023F480732B6108D1234B2B632B6B43F4F2
:10B62000803343F003032B632B6B0023A3616FF084
:10B63000804363611FB9A36943F01003A361A2694A
:10B640001A4B1343A3610D9B1BB1A36943F008037D
:10B65000A361012E01BFA36943F0804343F00403BB
:10B66000A361BDE8F041002004B070470321A0E7CA
:10B67000D2F800C0BCF1000FB4BF106011600133FC
:10B680001161C2F808E02032B4E7D2F80080B8F1C6
:10B69000000FB4BFC2F800E0106001311061C2F8C1
:10B6A00008C02032B0E700BF0001800000383C80B5
:10B6B000890141F02001064A0161013A05D0036980
:10B6C00013F02003F9D1184670470320704700BFDC
:10B6D000410D03001023064A0361013A05D00369B6
:10B6E00013F01003F9D1184670470320704700BFCC
:10B6F000410D0300D0F800381943C0F800180020AD
:10B70000704700F50062D0F8080810F0060012D06B
:10B71000936803F00603022B0CD0936803F0060332
:10B72000062B07D0936803F00603042B14BF0020F8
:10B73000022070470320704730B54B780C78D0F862
:10B740001C5800F50062012B1BD1A3409BB22B4378
:10B7500000F51060D36100EB44131A6812040ED494
:10B760008A68C8781D68C2F30A0242F0805242F427
:10B77000004242EA804040EA84502843186000209A
:10B7800030BD4FF48033A34000F530602B4300EB15
:10B790004410D36103681B04F1D48B68C978026834
:10B7A000C3F30A0343F0805343F4004343EA814365
:10B7B00013430360E3E700F001B8000070B54B7875
:10B7C000012B0E46054609784FF0200326D100F5DF
:10B7D000106213FB01231A6822F400421A604FF032
:10B7E00000621A604FF080421A601F4A013A01D18C
:10B7F000032070BD9C6814F08044F7D110212846C6
:10B80000FFF756FF3178D5F81C2801238B409BB2F7
:10B8100022EA0303C5F81C38204670BD00F53062EB
:10B8200013FB01231A6822F400421A604FF00062F1
:10B830001A604FF080421A600B4A013AD8D09868DB
:10B8400010F01000F9D1D5F8043843F48063C5F83E
:10B850000438D5F81C384FF480328A4023EA0203BA
:10B86000C5F81C3870BD00BF410D0300F7B54B781B
:10B870000C78012B4B6977D1202600F5106516FB5B
:10B8800004542669002B38D126F0FF5626F4C01642
:10B890002661266946F4002626612669F60CF60420
:10B8A0002661012A50D10C780E6905EB44146661BB
:10B8B000CE78012E0FD1D0F808480F7814F4807F8D
:10B8C0004FF0200414FB075427680CBF47F00057C3
:10B8D00047F0805727600F7805EB4715012E2C683D
:10B8E00044F004442C6005D100929BB23A46C968EA
:10B8F00000F0EFF8002003B0F0BDF60CF60426616E
:10B9000026698F6826F0FF5626F4C0162661DE19D8
:10B91000013EB6FBF7F7374ED4F810E006EAC7460B
:10B9200046EA0E0626612769C3F312063E432661E6
:10B93000CE78012E5AD1266926F0C04626612669A6
:10B9400046F000562661ACE7CE78012EB3D0002B2E
:10B95000AED091F800E0D0F83478012404FA0EF467
:10B960003C43C0F83448A3E700F5306505EB4414C8
:10B970002569ED0CED042561256925F0FF5525F4B9
:10B98000C01525618D68FBB92369C5F312051D43F8
:10B990002561236943F400232361012A04BFCB6896
:10B9A0006361CB78012B0AD1D0F8083813F4807F7B
:10B9B00023680CBF43F0005343F080532360236897
:10B9C00043F00443236095E70A4E27692B44013B6B
:10B9D000B3FBF5F306EAC3463E4326619BB22669F4
:10B9E0005D43C5F3120535432561D6E7012AAED183
:10B9F00059E700BF0000F81F4B78012B70B50B789A
:10BA00004D6943D1202400F5106614FB03631C69C3
:10BA1000CDB924F0FF5424F4C0141C611C6944F413
:10BA200000241C611C69E40CE4041C610D7806EB25
:10BA30004513012A1C6844F004441C601BD10A69A8
:10BA40005A61002070BDE40CE4041C611C6924F000
:10BA5000FF5424F4C0141C618C68A54288BF4C615B
:10BA60001C6944F400241C614C691D69C4F3120470
:10BA70002C431C61DAE74B69002BE2D0D0F8342864
:10BA80000123AB401343C0F83438DAE700F53060E7
:10BA900000EB43100369DB0CDB040361036923F053
:10BAA000FF5323F4C01303618B6805B14B61046934
:10BAB00044F4002404610469C3F312032343012AFC
:10BAC000036104BFCB684361036843F00443036030
:10BAD000B7E710B59DF808404CB9033300F5805026
:10BAE00023F0030300EB02320B44994201D1002002
:10BAF00010BD51F8040B1060F7E7033222F0030287
:10BB00000A4400F58050914201D10846704703680D
:10BB100041F8043BF7E74B780A78012B4FF02003FC
:10BB20000BD100F5106013FB02000368002B0BDB48
:10BB3000036823F08043036006E000F5306013FBE8
:10BB400002000368002BF3DA036843F40013036078
:10BB5000002070474B780A78012B0CBF00F510606D
:10BB600000F53060202313FB0200036823F4001368
:10BB70000360CB78023B012B9EBF036843F08053E8
:10BB8000036000207047D0F8003823F4FE63C0F84B
:10BB90000038D0F80038090101F4FE611943C0F8FB
:10BBA00000180020704708B5D0F8043823F00203CD
:10BBB000C0F804380320F9F75BFA002008BD08B587
:10BBC000D0F8043843F00203C0F804380320F9F732
:10BBD0004FFA002008BD4269806910407047D0F8D4
:10BBE000183800F50060C0691840000C7047D0F8A4
:10BBF000183800F50060C069184080B2704700F541
:10BC0000306303EB411100F500608A684069104021
:10BC1000704710B5D0F81048D0F8343800EB411018
:10BC2000CB4000F51060DB018068DBB22343184095
:10BC300010BD406900F001007047D0F8003923F4CE
:10BC4000FF6323F00703C0F8003900F500639A682A
:10BC500002F00602042A02BFD0F8002942F00302D3
:10BC6000C0F800295A6842F480725A600020704778
:10BC700010B50024C0F8104BD0F8104B44F4002449
:10BC8000C0F8104BD0F8104B44F01804C0F8104B1B
:10BC9000D0F8104B012900F5306344F0C04408BFD0
:10BCA0004FF08023C0F8104B04BFC0F8142BC0F82D
:10BCB000003B002010BD00000A4B013B01D10320D6
:10BCC00070470269002AF8DA0369064A43F0010363
:10BCD0000361013AF3D0036913F00103F9D1184667
:10BCE000704700BF410D0300D0F818321BB100208F
:10BCF000C3F81402704702207047D0F81C3210B508
:10BD0000D0F818425BB194F80002FF2807D09B6876
:10BD100094F8012221469847FF2384F8003200203E
:10BD200010BD000043230380004870473C190020E9
:10BD30004323038000487047801900204323038079
:10BD400000487047D01900200A230380004870473C
:10BD5000C419002038B50546D0F8184202F000FF9B
:10BD6000D5F81832C4F80C024BB1D5F81C32D4F80F
:10BD70000402DB6804F503719847002038BD0220F7
:10BD800038BD0000F8B50F7817F0600306460C4682
:10BD900023D0202B19D1CA884B78C2B13906D0F8EC
:10BDA00018520BD5D0F81C1218468F682946B84790
:10BDB000E2882946304600F09AFB06E085F800321A
:10BDC00085F80122294600F0A7FB0020F8BDD0F835
:10BDD0001C0284681846A047F7E74B780A2BF4D179
:10BDE00001220149E7E700BFA420002010B581210E
:10BDF000044602F04DFE0121204602F049FE822158
:10BE0000204602F045FED4F8183253B1D4F81C3263
:10BE10005B689847D4F818020EF03AFC0023C4F887
:10BE20001832002010BDF8B5037C04467BBB4FF4EC
:10BE300000730222812102F01BFE4FF400730222E4
:10BE40000121204602F014FE08230322822120460D
:10BE500002F00EFE4FF407700EF012FC0646C4F816
:10BE6000180220B3D4F81C321B689847277C0025A1
:10BE7000C6F81452C6F8185287B94FF40073D6F8B2
:10BE800004220121204602F05DFE3846F8BD402321
:10BE90000222812102F0ECFD4023D0E74023D6F8B6
:10BEA00004220121204602F04DFE2846F8BD012063
:10BEB000F8BD19B1C0F81C1200207047022070476D
:10BEC000D0F818320020C3F80812C3F810227047C7
:10BED000D0F818320020C3F804127047D0F81822A6
:10BEE00010B572B1D2F81442012364B9C2F8143209
:10BEF0008121B2F81032D2F8082202F015FE204655
:10BF000010BD022010BD184610BDD0F8182210B583
:10BF100062B1047C44B94FF40073D2F804220121C9
:10BF200002F010FE002010BD4023F6E7022010BDF5
:10BF300008B580B1D0F8143213B10023C0F8143220
:10BF400009B1C0F81012012380F8FC31027002F030
:10BF500051FD002008BD022008BD19B1C0F814121F
:10BF6000002070470220704708B502F073FD0020E2
:10BF700008BD08B5D0F814320BB9022008BD1B6803
:10BF800098470028F9D108BD08B5D0F814325B688D
:10BF90009847002008BD38B5044600F502752846CC
:10BFA00000F075FA012394F80812C4F8F431B4F8DB
:10BFB0000E32C4F8F83101F01F03012B0ED007D365
:10BFC000022B10D001F08001204602F06FFD03E04B
:10BFD0002946204600F0E6F8002038BD29462046D4
:10BFE00000F0DAF9F8E72946204600F0EDF9F3E72A
:10BFF00038B50446154611BBD0F8F431032B0FD1E8
:10C00000D0F80C31D0F8102193420BD99B1A9A42E8
:10C0100028BF1A46C0F80C3192B2294600F08BFABC
:10C02000002038BDD0F814321B6923B190F8FC21F0
:10C03000032A00D19847204600F085FAF0E7D0F8AF
:10C0400014329B69002BEBD090F8FC21032AE7D136
:10C050009847E5E770B5134604460E4600293DD1E2
:10C06000D0F8F421022A0FD1C569026A954214D989
:10C07000AA1AC261194692B200F046FA33461A462D
:10C080001946204602F05EFD94F80032012B02D1E1
:10C09000002384F80032002070BD8369B3FBF2F501
:10C0A00002FB153565B99A420AD8D0F8F8219342B7
:10C0B00006D22A4600F028FAC4F8F8512B46DEE7EB
:10C0C000D4F81432DB682BB194F8FC21032A01D197
:10C0D00020469847204600F041FAD5E7D0F81432C0
:10C0E0005B69002BD7D090F8FC21032AD3D1984765
:10C0F000D1E738B50022044611464025402302F01E
:10C10000B7FC2B46C4F8105100228021204602F0D3
:10C11000AFFC012384F8FC31D4F8183225622BB12E
:10C12000D4F8143221795B6820469847002038BD46
:10C1300001740020704790F8FC3180F8FD31042331
:10C1400080F8FC310020704790F8FD3180F8FC3118
:10C150000020704708B590F8FC21032A04D1D0F8DC
:10C160001432DB6903B19847002008BD00207047F6
:10C17000002070470020704708B5012280F8FC219C
:10C18000D0F81422017952689047002008BD10B5FC
:10C190008021044602F08AFC20460021BDE81040C0
:10C1A00002F084BC37B54B7804460D46092B79D88C
:10C1B000DFE813F0C900E5007800D90078006D00D1
:10C1C0000A007800B9008D004B881A0A013A062A45
:10C1D00068D8DFE802F0041C296767495200D0F8EC
:10C1E00010321B68207C0DF106019847BDF806202F
:10C1F000002A67D0EB88002B64D09A4228BF1A46E9
:10C20000ADF806200146204600F071F95AE0027CA4
:10C21000D0F8143232B99B6A0DF106009847022318
:10C220004370E3E7DB6AF7E7DBB2052B3AD8DFE8D8
:10C2300003F003070B0F1317D0F810325B68D1E738
:10C24000D0F810329B68CDE7D0F81032DB68C9E730
:10C25000D0F810321B69C5E7D0F810325B69C1E72E
:10C26000D0F810329B69BDE7037CDBB9D0F81432FB
:10C270000DF106005B6B9847B8E7037C93B9D0F8E3
:10C2800014320DF106001B6B98470723C8E78B8813
:10C2900043B9CB8833B990F8FC318D78032B05F086
:10C2A0007F0503D12046FFF772FF0BE080F8FE51B7
:10C2B000294602F02BFC204600F045F92DB102235F
:10C2C00084F8FC31002003B030BD0123F8E7897801
:10C2D000304D01292970E5D890F8FC31022B0CD0A3
:10C2E000032BDFD1B1B9022380F8FC314160FFF7A5
:10C2F0004BFE204600F027F9E4E70029F9D00121A0
:10C300000323416080F8FC312046FFF732FE02280B
:10C31000EFD1C7E741680129EBD0C9B2FFF734FE7E
:10C3200029786160F0E7CA88012ABBD190F8FC3116
:10C33000022B03D0032BB5D1011D64E70146002376
:10C3400041F8083F5FE790F8FC31023B012BA9D888
:10C350000123C360D0F804320BB10323C36002226F
:10C3600004F10C014FE74B88012BABD1C4F8043228
:10C37000D4F8143229469B6820469847B9E790F8CC
:10C38000FC31023B012B8DD84B88012B9AD1002325
:10C39000ECE700BFA520002038B590F8FC31032B56
:10C3A00004460D460DD10B79012B0AD8D0F8143272
:10C3B0009B689847EB8813B9204600F0C4F800202A
:10C3C00038BDFFF7E4FEFAE770B50A788E8802F010
:10C3D0006002202A04460D46F3B205D1D0F814328B
:10C3E0009B689847002070BD4A78012A1CD02AD348
:10C3F000032AF7D190F8FC21022A40D0032A02D068
:10C40000FFF7C5FEEEE74A8822B95E0602D019465C
:10C4100002F04CFBD4F8143229469B68204698471A
:10C42000204600F090F8DDE790F8FC21022A26D0A3
:10C43000032AE5D14A88002AD4D15906F0D01946FA
:10C4400002F042FBE6E790F8FC21022A17D0032A0B
:10C45000D6D103F07F0516F0800F00EB05151946C5
:10C4600014BF143505F5827502F03CFB68B1012359
:10C470002B6002222946204600F039F8B2E75A061E
:10C48000B0D0194602F012FBACE72860F1E70B7858
:10C4900003704B784370CA788B7803EB0223438098
:10C4A0004A790B7903EB02238380CA798B7903EBFA
:10C4B0000223C380704730B588B105462B1A15F8A2
:10C4C000014BDBB2002CF9D15B00023313800B70FF
:10C4D00003234B700138022310F8015F05B930BD0A
:10C4E0005A1CD2B2CD540233DBB28C54F4E710B5EF
:10C4F00013460222C0F8F42183610A46C361002179
:10C5000002F012FB002010BD08B513460A460021B8
:10C5100002F00AFB002008BD10B513460322C0F844
:10C52000F421C0F808310A46C0F80C31002102F0AD
:10C5300009FB002010BD08B513460A46002102F091
:10C5400001FB002008BD08B50423C0F8F431002326
:10C550001A46194602F0E8FA002008BD08B505237E
:10C56000C0F8F43100231A46194602F0EBFA002015
:10C5700008BD08B501F0E6F9002008BD30B5B0F9F6
:10C580000840028A0B4690E8220085B0842C14BF34
:10C590000334002403A801900094284601F0FAF81F
:10C5A00001280CBF0398002005B030BD08B5002855
:10C5B00008BF012001F020FB002008BD07B503687B
:10C5C0000093013913464A424A410348012101F0D0
:10C5D0005BFF03B05DF804FBBE1F02081FB500241B
:10C5E0000394A14214BF0A460122EFF30583A3B1CD
:10C5F000009403AB092101F06BFF012813D1039BC9
:10C6000013B9002004B010BD084B4FF080521A60DF
:10C61000BFF34F8FBFF36F8FF3E70093042101F057
:10C6200057FF0128EDD0FF20ECE700BF04ED00E04C
:10C630001FB504AB0022029243F8042DEFF30582EC
:10C64000BAB102AA0092012201F02CFE012804D006
:10C650004FF0004005B05DF804FB029B3BB1084B76
:10C660004FF080521A60BFF34F8FBFF36F8F039864
:10C67000F0E7012201F0AEFD0128F8D0E8E700BFA5
:10C6800004ED00E030B585B0002304461546029362
:10C69000EFF3058010B18223019307E0134602AA4D
:10C6A00001F052FD01280BD045B9019504AB13E907
:10C6B000070084E80700204605B030BD4023EBE7C3
:10C6C000029B002BB4BF86230823E5E7012000F07E
:10C6D0008DBD000013B500240A460194E8B1EFF3C4
:10C6E0000583A3B101AA214600F04CFF012802D026
:10C6F000FF2002B010BD019B3BB1094B4FF08052AF
:10C700001A60BFF34F8FBFF36F8F0020F1E7194618
:10C7100000F052FE0128EBD1F7E78020E9E700BFE7
:10C7200004ED00E0012910B508460CD103220021D8
:10C7300000F082FC044620B100231A46194600F09E
:10C740009FFC204610BD0024FBE7000013B5002429
:10C750000A460194E8B1EFF30583A3B101AA21468B
:10C7600000F010FF012802D0FF2002B010BD019B95
:10C770003BB1094B4FF080521A60BFF34F8FBFF3AC
:10C780006F8F0020F1E7194600F016FE0128EBD16B
:10C79000F7E78020E9E700BF04ED00E013B50024CF
:10C7A0000194EFF3058393B101A900F0B1FD0128D5
:10C7B00013D1019B13B9002002B010BD084B4FF0FC
:10C7C00080521A60BFF34F8FBFF36F8FF3E71A46A3
:10C7D000194600F055FC0128EDD0FF20ECE700BF22
:10C7E00004ED00E0FFF7DABF002203C800F024BC2C
:10C7F0001FB5002401910394A24208BF0122EFF368
:10C800000583ABB1234603AA01A900F01FFD01284F
:10C8100002D0FF2004B010BD039B3BB1074B4FF08B
:10C8200080521A60BFF34F8FBFF36F8F0020F1E784
:10C8300001A900F025FC0128EBD1F7E704ED00E0A9
:10C84000F0B585B0002604461746084603910296C7
:10C8500001AD11B98023019317E00096EFF3058332
:10C86000D3B16A4602A900F08DFE012804BF10234F
:10C870000193009B18BF01963BB10D4B4FF08052C6
:10C880001A60BFF34F8FBFF36F8F95E8070084E8FE
:10C890000700204605B0F0BD02A900F08DFD01287B
:10C8A00001D11023D7E7002F0CBF00234023D2E78C
:10C8B00004ED00E07FB5044616460846039101AD3D
:10C8C00041B98023019395E8070084E807002046DA
:10C8D00004B070BD012302A900F06EFD012801D152
:10C8E0001023EFE7002E0CBF00234023EAE7EFF30D
:10C8F00005830BB100F0A9BE00F094BE042000F047
:10C9000075BC08B500F084FC012814BFFF2000208E
:10C9100008BD08B530B100F013FE012814BFFF2098
:10C92000002008BD802008BD00F1080343604FF0DF
:10C93000FF32C360036100238260036070470023FD
:10C940000361704743684B609A688A609A685160D7
:10C950009960036808610133036070470A68531CDB
:10C9600030B50AD103695A684A6091608B6059609A
:10C97000036808610133036030BD00F108035C689F
:10C980002568AA42EFD32346F9E741688268036924
:10C990008A60826851605968884208BF5A600022E4
:10C9A0000261186801381860704700000A4B1B6864
:10C9B000013308D04FF0500383F31188BFF36F8F1A
:10C9C000BFF34F8FFEE74FF0500383F31188BFF39F
:10C9D0006F8FBFF34F8FFEE7141A002006480068E0
:10C9E000006880F3088862B661B6BFF34F8FBFF36B
:10C9F0006F8F00DF00BF000008ED00E0DFF80C00E3
:10CA0000016841F4700101607047000088ED00E0AA
:10CA10004FF0807340F8043C074B40F80C3C21F089
:10CA200001016FF0020340F8081C40F8202C40F888
:10CA3000243C4438704700BFADC900080000000026
:10CA4000074B19680868B0E8F04F80F30988BFF316
:10CA50006F8F4FF0000080F311887047AFF30080B4
:10CA6000C4E000204FF0500383F31188BFF36F8FB1
:10CA7000BFF34F8F0A4A13680133012B13600DD1A6
:10CA8000084B1B6813F0FF0F08D04FF0500383F3DF
:10CA90001188BFF36F8FBFF34F8FFEE7704700BF62
:10CAA000141A002004ED00E0084A136843B94FF05F
:10CAB000500383F31188BFF36F8FBFF34F8FFEE7EF
:10CAC000013B13600BB983F311887047141A0020DF
:10CAD000EFF30980BFF36F8F154B1A681EF0100F2C
:10CAE00008BF20ED108A20E9F04F10604DF8043D9A
:10CAF0004FF0500080F31188BFF34F8FBFF36F8F5B
:10CB000001F0DAF84FF0000080F3118808BC1968D2
:10CB10000868B0E8F04F1EF0100F08BFB0EC108AA4
:10CB200080F30988BFF36F8F704700BFAFF30080B9
:10CB3000C4E0002008B54FF0500383F31188BFF321
:10CB40006F8FBFF34F8F00F04DFF18B1034B4FF0C5
:10CB500080521A60002383F3118808BD04ED00E0C1
:10CB6000064B4FF47A721B68B3FBF2F3044A013BA5
:10CB70001360044B07221A60704700BF00190020A1
:10CB800014E000E010E000E0314B324A13B51968C0
:10CB9000914208D14FF0500383F31188BFF36F8F98
:10CBA000BFF34F8FFEE71A682B4B9A4208D14FF024
:10CBB000500383F31188BFF36F8FBFF34F8FFEE7EE
:10CBC000264B1A78D2B20192FF221A701B78244A9F
:10CBD000DBB28DF803309DF8033003F0500313707F
:10CBE000204B07221A6000219DF80300000602F185
:10CBF000FF3423D401B11A601A68120202F4E06211
:10CC00001A60019B154ADBB21370174B1A6842F485
:10CC100070021A601A6842F070421A60FFF7A0FFB3
:10CC2000124B00221A60FFF7E9FE114A136843F025
:10CC300040431360FFF7D2FEFFF7B8FE9DF80320D4
:10CC40005200D2B28DF8032001212246CCE700BF6A
:10CC500000ED00E071C20F4170C20F4100E400E03E
:10CC6000A6200020A820002020ED00E0141A0020BB
:10CC700034EF00E0EFF305830F2B0ED9104A9B5CD5
:10CC8000104A12789A4208D94FF0500383F3118862
:10CC9000BFF36F8FBFF34F8FFEE70B4B0B4A1B6841
:10CCA000126803F4E063934208D94FF0500383F312
:10CCB0001188BFF36F8FBFF34F8FFEE7704700BF40
:10CCC000F0E300E0A62000200CED00E0A82000200A
:10CCD00010B50F4B1A68824218D35C681919884244
:10CCE00001BF4168184609195960446801198A4210
:10CCF00007D1084909688A421FBF5168126809199B
:10CD000041609842026018BF186010BD1346E1E709
:10CD1000BCE00020AC2000202DE9F041044600F0EA
:10CD200053FE4049404D0B680BBB404A56071FBF9E
:10CD3000D01D20F0070002F540431B1A14BF024625
:10CD40004FF440431344083B23F00703384E0B6075
:10CD500000207060326058601860981A1360354B7C
:10CD600050601860344B18604FF000432B602F6800
:10CD7000274216D1002C41D004F1080358071CBFEC
:10CD800023F00703083363B12B4A1668B342904679
:10CD900007D8274A15686868834204D809688D4215
:10CDA00007D100242AE02C68002CF7D02A4625461B
:10CDB000F1E7296814681160C21A102A0FD9E8181F
:10CDC000410708D04FF0500383F31188BFF36F8FF2
:10CDD000BFF34F8FFEE742606B60FFF779FF1549A5
:10CDE0006B680868F61A1F4386424FF00003C8F8C4
:10CDF000006038BF0E6008346F602B6000F084FE66
:10CE00000CB901F0D7FE630708D04FF0500383F34D
:10CE10001188BFF36F8FBFF34F8FFEE72046BDE849
:10CE2000F08100BFAC200020B0E00020B020002046
:10CE3000BCE00020B8E00020B4E0002010B50446BB
:10CE400070B3184A50F8043C1268134208D14FF0EE
:10CE5000500383F31188BFF36F8FBFF34F8FFEE74B
:10CE600050F8081C41B14FF0500383F31188BFF311
:10CE70006F8FBFF34F8FFEE723EA020340F8043CB5
:10CE800000F0A2FD084A54F8043C1168A4F108001F
:10CE90000B441360FFF71CFFBDE8104000F034BEE8
:10CEA00010BD00BFB0E00020B4E00020014B1868C6
:10CEB000704700BFB4E0002070B51546026C866B69
:10CEC000044642B905689DB9406801F0E1F8656023
:10CED0000136A66370BD6DB980680DF002FCA368D1
:10CEE000226C13446268A360934201D32368A36059
:10CEF0000020EDE7C0680DF0F4FB236CE2682168C8
:10CF00005B421A448A42E2603EBF62689B18E3605B
:10CF1000022DEDD10EB1013EEAE73046D8E70346D7
:10CF200010B41A6C084662B1D9685C681144A14219
:10CF3000D96024BF1968D960D9685DF8044B0DF039
:10CF4000D0BB5DF8044B704770B50446FFF78AFD0F
:10CF500094F8455004F124066DB2002D14DCFF2333
:10CF600084F84530FFF7A0FDFFF77CFD94F84450AE
:10CF700004F110066DB2002D12DCFF2384F844305A
:10CF8000BDE87040FFF790BD636A002BE7D03046E4
:10CF900000F090FF08B101F019F8013D6DB2DCE737
:10CFA0002369002BE9D0304600F084FF08B101F07E
:10CFB0000DF8013D6DB2DEE738B50D46044640B9C7
:10CFC0004FF0500383F31188BFF36F8FBFF34F8F80
:10CFD000FEE7FFF747FD206CE36B2268A260434346
:10CFE000D1181B1A13446160E3600021FF23A16381
:10CFF00084F8443084F8453095B9236963B104F16D
:10D00000100000F057FF38B10A4B4FF080521A6001
:10D01000BFF34F8FBFF36F8FFFF746FD012038BD81
:10D0200004F11000FFF780FC04F12400FFF77CFC02
:10D03000F2E700BF04ED00E0F8B50D4617460646DE
:10D0400040B94FF0500383F31188BFF36F8FBFF3E4
:10D050004F8FFEE748435030FFF75EFE044648B16D
:10D0600055B92060E663256401212046FFF7A4FF3F
:10D0700084F84C702046F8BD00F150030360F1E7DE
:10D080002DE9FF47894601921F46044640B94FF0FB
:10D09000500383F31188BFF36F8FBFF34F8FFEE709
:10D0A000002940F08880036C002B00F084804FF052
:10D0B000500383F31188BFF36F8FBFF34F8FFEE7E9
:10D0C000019E002E00F082804FF0500383F3118800
:10D0D000BFF36F8FBFF34F8FFEE7019D1DB9FFF7C1
:10D0E000E3FC002058E016B902A800F025FFFFF786
:10D0F000DBFC00F069FCFFF7B5FC94F84430FF2B33
:10D1000008BF84F8448094F84530FF2B08BF84F8AA
:10D110004580FFF7C9FC01A902A800F01DFF002807
:10D1200043D1FFF79FFCA66BE56BFFF7BDFCAE425A
:10D1300035D1019904F1100000F084FE2046FFF77C
:10D1400003FF00F0E1FC38B94FF08053CAF800301B
:10D15000BFF34F8FBFF36F8F0126FFF783FCA26BE6
:10D16000E36B9A4201D3022FB7D13A464946204693
:10D17000FFF7A2FE636A1BB104F1240000F09AFEDF
:10D1800038B1194B4FF080521A60BFF34F8FBFF385
:10D190006F8FFFF789FC012004B0BDE8F0872046BF
:10D1A000FFF7D2FE00F0B0FCD6E72046FFF7CCFE3A
:10D1B00000F0AAFC95E7022F02D1E36B012B0AD104
:10D1C00000F010FF00283FF47BAF00264FF000086E
:10D1D000DFF814A0C1E74FF0500383F31188BFF3C9
:10D1E0006F8FBFF34F8FFEE704ED00E010B50246EE
:10D1F00000210120FFF720FF044638B100234360DF
:10D200000360C3601A461946FFF73AFF204610BD77
:10D2100038B5044640B94FF0500383F31188BFF38B
:10D220006F8FBFF34F8FFEE7456800F0D5FE854254
:10D230000AD1E368013BE36023B91A461946204648
:10D24000FFF71EFF012038BD002038BD2DE9F8434F
:10D25000884691461F46044640B94FF0500383F379
:10D260001188BFF36F8FBFF34F8FFEE709BB036CCD
:10D27000FBB14FF0500383F31188BFF36F8FBFF3FF
:10D280004F8FFEE704F1240000F014FE002834D094
:10D29000B9F1000F31D00120C9F8000086F31188E0
:10D2A000BDE8F88301356DB284F8455025E00020D3
:10D2B000F4E7022F02D1E36B012B20D1FFF7DAFC58
:10D2C000EFF311864FF0500383F31188BFF36F8F94
:10D2D000BFF34F8FA26BE36B9A4201D3022FE6D1CB
:10D2E00094F845503A466DB241462046FFF7E4FDBA
:10D2F0006B1CD7D1636A002BC4D10120CEE74FF05D
:10D30000500383F31188BFF36F8FBFF34F8FFEE796
:10D3100070B50D46044640B94FF0500383F31188B1
:10D32000BFF36F8FBFF34F8FFEE7036C43B14FF036
:10D33000500383F31188BFF36F8FBFF34F8FFEE766
:10D3400003680BB9436873BBFFF794FCEFF31186D6
:10D350004FF0500383F31188BFF36F8FBFF34F8FEC
:10D36000A26BE36B9A4201D3002014E094F845309D
:10D3700001325BB2A2635A1C10D1636A0BB901205F
:10D3800009E004F1240000F095FD0028F7D0002DFD
:10D39000F5D00120286086F3118870BD01335BB29F
:10D3A00084F84530EBE74FF0500383F31188BFF367
:10D3B0006F8FBFF34F8FFEE72DE9FF47884601923D
:10D3C0009946044640B94FF0500383F31188BFF3E8
:10D3D0006F8FBFF34F8FFEE7002940F0A580036CED
:10D3E000002B00F0A1804FF0500383F31188BFF3AE
:10D3F0006F8FBFF34F8FFEE7019E002E00F09A80E3
:10D400004FF0500383F31188BFF36F8FBFF34F8F3B
:10D41000FEE7636AE660002B6DD004F124005FE054
:10D42000019D1DB9FFF740FB284667E016B902A829
:10D4300000F082FDFFF738FB00F0C6FAFFF712FBA1
:10D4400094F84430FF2B08BF84F8447094F84530BA
:10D45000FF2B08BF84F84570FFF726FB01A902A83F
:10D4600000F07AFD002852D1FFF7FCFAA56BFFF718
:10D470001BFB002D45D1236833B9FFF7F3FA606831
:10D4800000F0C0FDFFF710FB019904F1240000F04B
:10D49000D9FC2046FFF758FD00F036FB38B94FF0B5
:10D4A0008053CAF80030BFF34F8FBFF36F8F012650
:10D4B000FFF7D8FAA56B002DB2D041462046E668AA
:10D4C000FFF72DFDB9F1000FA3D12368013DA5633E
:10D4D00013B900F02DFE6060236963B104F1100000
:10D4E00000F0E8FC38B1154B4FF080521A60BFF3E2
:10D4F0004F8FBFF36F8FFFF7D7FA012004B0BDE85D
:10D50000F0872046FFF720FD00F0FEFACFE7204627
:10D51000FFF71AFD00F0F8FAFFF7A4FAA56BFFF782
:10D52000C3FA002DC3D17FE700F05CFD00283FF473
:10D5300063AF00260027DFF804A0B9E704ED00E0A0
:10D5400070B50D46044640B94FF0500383F311887F
:10D55000BFF36F8FBFF34F8FFEE7466800F03CFDCF
:10D56000864204D1E3680133E360012070BD0023EB
:10D570002A4619462046FFF71FFF10B1E368013322
:10D58000E36070BD2DE9F84389469046054640B9F1
:10D590004FF0500383F31188BFF36F8FBFF34F8FAA
:10D5A000FEE771BB036C63B34FF0500383F3118844
:10D5B000BFF36F8FBFF34F8FFEE795F84460494686
:10D5C00076B22846FFF7ABFC013C731CAC6313D169
:10D5D0002B690BB901200BE005F1100000F06AFC8B
:10D5E0000028F7D0B8F1000FF4D00120C8F80000EF
:10D5F00087F31188BDE8F883013676B285F8446078
:10D60000E8E7FFF737FBEFF311874FF0500383F3A1
:10D610001188BFF36F8FBFF34F8FAC6B002CCCD151
:10D620002046E5E710B5044640B94FF0500383F3B8
:10D630001188BFF36F8FBFF34F8FFEE7FFF712FA2A
:10D64000A46BFFF731FA204610BD40B94FF05003EC
:10D6500083F31188BFF36F8FBFF34F8FFEE7806BAB
:10D660007047000030B5074A002352F8335002EBF0
:10D67000C3041DB942F83310606030BD0133082B7C
:10D68000F3D130BDDC3F012070B504460D4616468F
:10D69000FFF7E8F994F84430FF2B04BF002384F827
:10D6A000443094F84530FF2B04BF002384F8453004
:10D6B000FFF7FAF9A36B2BB93246294604F124008F
:10D6C00000F0DAFB2046BDE87040FFF73DBC0000EB
:10D6D000064A13681968064B19B94FF0FF321A60F1
:10D6E00070471268D268D2685268F8E7C8E0002034
:10D6F000A4E10020F8B51B4B1B4E1D6804463068A2
:10D7000004300F46FFF741F9334640B93168174EF0
:10D71000C96A32680120884022EA00023260621C35
:10D7200007D137B1196812480431BDE8F840FFF756
:10D7300009B92C441A68A542546007D90D4A1068EB
:10D740001968BDE8F8400431FFF708B90A4A1068C3
:10D7500019680431FFF702F9084B1A68944238BF80
:10D760001C60F8BDECE10020C4E0002074E1002062
:10D77000C4E10020CCE00020C8E00020A4E10020AB
:10D780004FF0500383F31188BFF36F8FBFF34F8FB8
:10D79000FEE700002DE9F84F4FEA820A8046504626
:10D7A0000D4699460B9EFFF7B7FA0746002800F092
:10D7B0009F806020FFF7B0FA0446002800F09580B3
:10D7C00052460763A52138460CF096FF236BAAF159
:10D7D000040A9A442AF0070A6B1E04F134020F353A
:10D7E000597802F8011B13F8011F09B1AB42F7D1B8
:10D7F0000A9D062D28BF06254FF0000B271DE56268
:10D80000E564384684F843B0C4F850B0FFF797F8A1
:10D81000C5F1070504F11800FFF791F8C4F858B0F6
:10D820002461A5616462C4F854B084F85CB04A46CF
:10D8300041465046FFF7ECF8206006B13460FFF730
:10D8400011F9324B324E1A68DFF8F08001321A605B
:10D850003568002D4FD134601B68012B1DD108EBBA
:10D8600005001435FFF760F88C2DF8D1DFF8D09063
:10D87000284D4846FFF758F82846FFF755F8264840
:10D88000FFF752F82548FFF74FF82548FFF74CF807
:10D89000244BC3F80090244B1D60244A244913688C
:10D8A000086801331360E26A6364012505FA02F334
:10D8B000034314200B6000FB02803946FFF742F857
:10D8C000FFF7F2F81B4B1B6863B13368DA6AE36A4F
:10D8D0009A4207D2184B4FF080521A60BFF34F8F15
:10D8E000BFF36F8F2846BDE8F88F3846FFF7A6FADA
:10D8F0004FF0FF35F6E70F4B1B68002BCDD1336897
:10D90000DA6AE36A9A4298BF3460C6E760E10020B1
:10D91000C4E000208CE10020ACE10020D8E1002030
:10D92000C4E10020C8E00020CCE0002070E100202D
:10D9300074E10020C0E1002004ED00E0D0E0002010
:10D9400078E1002013B51A4B01930024009423467C
:10D95000802218491848FFF71DFF01281AD100F04E
:10D960006DFD012816D14FF0500383F31188BFF3EA
:10D970006F8FBFF34F8F114B4FF0FF321A60104B78
:10D980001860104B1C60F7F763FF02B0BDE8104051
:10D99000FFF7FAB8013008D14FF0500383F3118834
:10D9A000BFF36F8FBFF34F8FFEE702B010BD00BF14
:10D9B000A0E100208DF4010841DC0008A4E1002072
:10D9C000C0E10020ECE10020024A1368013313603B
:10D9D000704700BF6CE10020014B1868704700BF22
:10D9E000ECE100202DE9F84F3C4B1B68002B53D194
:10D9F0003B4B1C6801341C60BCB93A4B1A68126876
:10DA000042B14FF0500383F31188BFF36F8FBFF320
:10DA10004F8FFEE7344A1968106818601160334A66
:10DA2000136801331360FFF753FE314D314F2B68FC
:10DA30009C424FF0000B3ED3DFF8A880DFF8C49083
:10DA4000D8F80020126872BB4FF0FF322A6032E033
:10DA500006F1040A5046FEF798FFB16A19B106F1C3
:10DA60001800FEF792FFF06AD9F80030012202FA9E
:10DA700000F11943204BC9F800104FF0140E514625
:10DA80000EFB0030FEF75EFF3868F16AC26A914211
:10DA900028BF4FF0010BD3E7184A13680133136016
:10DAA0004FF0000B11E0D8F80020D268D6687168FA
:10DAB0008C42CDD229603A680F4BD16A14224A4376
:10DAC0009A58022A28BF4FF0010B0D4A1268002A0B
:10DAD00018BF4FF0010B5846BDE8F88F6CE10020ED
:10DAE000ECE10020C8E00020CCE00020A8E100200C
:10DAF000A4E10020C4E00020D0E0002068E1002084
:10DB0000F0E1002074E100202DE9F843314C236856
:10DB100043B94FF0500383F31188BFF36F8FBFF306
:10DB20004F8FFEE7FEF79EFF2368013B23602468CA
:10DB30002CB10024FEF7B8FF2046BDE8F883264B41
:10DB40001B68002BF5D0DFF8A890244FDFF8A480E5
:10DB5000D9F80030E3B90CB1FFF7BAFD204D2C68BD
:10DB600044B1204E0127FFF73DFF00B13760013C73
:10DB7000F9D12C601B4B1B68002BDAD01A4B4FF0ED
:10DB800080521A60BFF34F8FBFF36F8F0124D1E72C
:10DB9000D9F80C30DC68261D04F11800FEF7F5FEFC
:10DBA0003046FEF7F2FEE26A3968012505FA02F313
:10DBB00014200B4300FB028031463B60FEF7C2FE9F
:10DBC0000A4BE26A1B68DB6A9A4224BF054B1D6060
:10DBD000BEE700BF6CE1002060E1002074E100209E
:10DBE00068E10020F0E1002004ED00E0C4E0002046
:10DBF000ACE10020D0E0002008B540B90E4B4FF05A
:10DC000080521A60BFF34F8FBFF36F8F08BD0B4B6D
:10DC1000196841B14FF0500383F31188BFF36F8F40
:10DC2000BFF34F8FFEE7FFF7CFFEFFF763FDFFF770
:10DC30006BFF0028E2D008BD04ED00E06CE100209D
:10DC400008B5184E184C236873B9184B1B68012B84
:10DC500007D9174B4FF080521A60BFF34F8FBFF3B5
:10DC60006F8F00F095FFEDE7FFF7AEFE3568FFF729
:10DC70004BFF002DE7D0FEF7F5FEF368DD68281DA9
:10DC8000FEF783FE0B4A1368013B13602368013BD8
:10DC90002360FEF709FF286BFFF7D0F82846FFF74F
:10DCA000CDF8D0E7D8E1002064E10020D0E00020EA
:10DCB00004ED00E060E1002038B5294B1A68294BDB
:10DCC00012B101221A6038BD1A60F7F7C2FD264A68
:10DCD000264C1568A84204D921684B6D5B1B034490
:10DCE0004B65236810601B6B1A68B2F1A53F0BD11E
:10DCF0005A68B2F1A53F07D19A68B2F1A53F03D1A6
:10DD0000DB68B3F1A53F04D020682168343100F00E
:10DD100043FF174B1B68B3FA83F3DBB2C3F11F0356
:10DD2000142214495A4388188D5845B94FF05003AE
:10DD300083F31188BFF36F8FBFF34F8FFEE7456802
:10DD400008326D6845600A44954204BF6A684260C3
:10DD5000142202FB03135B68DB68236038BD00BF3D
:10DD60006CE10020F0E100205CE10020C4E0002034
:10DD700074E10020D0E0002070B50446294EFEF783
:10DD800071FE04B93468251D2846FEF7FEFD60B912
:10DD9000E06A254B142141435B5833B923490122E2
:10DDA0000B68824023EA02030B60A36A1BB104F1F3
:10DDB0001800FEF7EAFD29461D4D1E48FEF7C2FD7C
:10DDC000FEF772FE2A682AB1FEF74CFEFFF780FCD0
:10DDD000FEF76AFE33689C4222D12B68A3B1164B32
:10DDE0001B6843B14FF0500383F31188BFF36F8F6B
:10DDF000BFF34F8FFEE7114B4FF080521A60BFF315
:10DE00004F8FBFF36F8F70BD0D4A0A4912680968C2
:10DE1000914201D1336070BDBDE87040FFF74CBF47
:10DE200070BD00BFC4E00020D0E0002074E10020FD
:10DE3000C0E10020C4E100206CE1002004ED00E01E
:10DE400060E1002010B50C4640B94FF0500383F359
:10DE50001188BFF36F8FBFF34F8FFEE7054B196833
:10DE60001831FEF77BFD20460121BDE81040FFF789
:10DE700041BC00BFC4E0002038B50D46144640B98F
:10DE80004FF0500383F31188BFF36F8FBFF34F8FB1
:10DE9000FEE7074B19681831FEF754FD002C2146A8
:10DEA0000CBF28464FF0FF30BDE83840FFF722BCDA
:10DEB000C4E0002038B5C368DC6844B94FF05003B3
:10DEC00083F31188BFF36F8FBFF34F8FFEE704F129
:10DED00018052846FEF759FD114B1B68E3B9251DAF
:10DEE0002846FEF752FD0F49E26A08680123934075
:10DEF00003430B600C4B1420294600FB0230FEF755
:10DF000021FD0A4BE26A1B68DB6A9A4283BF084B19
:10DF100001201860002038BD29460648EFE700BF01
:10DF20006CE1002074E10020D0E00020C4E000207B
:10DF3000F0E10020ACE1002008B508B9FFF720FCB3
:10DF4000034B1B680360034B1B68436008BD00BFA5
:10DF5000A8E10020ECE1002038B50D46044640B9A8
:10DF60004FF0500383F31188BFF36F8FBFF34F8FD0
:10DF7000FEE741B94FF0500383F31188BFF36F8F71
:10DF8000BFF34F8FFEE7FEF76DFD0E4B19682B6850
:10DF90005A1C10D00C4A206812689042626801D066
:10DFA00091420DD2881A83420AD95B1A13442B601E
:10DFB0002046FFF7C1FF0024FEF776FD204638BD5E
:10DFC0000124F9E7ECE10020A8E10020014B012247
:10DFD0001A607047F0E10020014B1868704700BFDD
:10DFE000C4E00020054B1B6833B1054B1B68002BB8
:10DFF0000CBF02200020704701207047C0E10020C4
:10E000006CE100202DE9F0410446002838D01D4D78
:10E01000C36A2A68D26A934232D282691A4E002AAF
:10E02000A1BF2A68D26AC2F107028261142742693D
:10E0300007FB03639A4220D100F104084046FEF733
:10E04000A4FC124A48B9E06A4743F3592BB9136854
:10E050000121814023EA010313602B681168D86A0B
:10E06000E062012383400B4313601423414603FB0A
:10E070000060BDE8F041FEF765BC2B68DB6AC36257
:10E08000BDE8F081C4E00020D0E0002074E1002071
:10E09000F8B5044608B90020F8BD224B1B68984229
:10E0A00008D04FF0500383F31188BFF36F8FBFF395
:10E0B0004F8FFEE7036D43B94FF0500383F3118890
:10E0C000BFF36F8FBFF34F8FFEE7C16AC26C013B96
:10E0D00091420365DFD0002BDDD1051D2846FEF7F8
:10E0E00054FC114E114A50B9E76A14217943735810
:10E0F0002BB913680120B84023EA00031360E36CD6
:10E10000E362C3F10701A1611168012404FA03F07D
:10E1100008431060142000FB03602946FEF712FC40
:10E120002046F8BDC4E00020D0E0002074E10020CB
:10E13000044B1A681AB119680A6D01320A65186829
:10E14000704700BFC4E000202DE9F0411F4C1E467F
:10E1500080460F461546FEF785FC236893F85C3031
:10E16000022B14D023689A6D22EA08029A6523686C
:10E17000012183F85C1056B13046FFF7BBFA144B0F
:10E180004FF080521A60BFF34F8FBFF36F8FFEF7CF
:10E190008BFCFEF767FC15B123689B6D2B60236831
:10E1A00093F85C30012B1FBF2368996DB9439965C3
:10E1B00023684FF0000214BF0125002583F85C207E
:10E1C000FEF772FC2846BDE8F08100BFC4E00020E5
:10E1D00004ED00E0F8B50F4616461D46044640B96A
:10E1E0004FF0500383F31188BFF36F8FBFF34F8F4E
:10E1F000FEE7FEF737FC0DB1A36D2B6094F85C5081
:10E200000223721EEDB284F85C30032A0AD8DFE8DC
:10E2100002F002060410A16D0F43A76502E0A36D92
:10E220000133A365012D08D00125FEF73DFC2846EA
:10E23000F8BD022DF1D10025F7E7261D3046FEF787
:10E24000A4FB1449E26A086805FA02F303430B6071
:10E25000114B142000FB02303146FEF773FBA36A1A
:10E2600043B14FF0500383F31188BFF36F8FBFF3B7
:10E270004F8FFEE7094BE26A1B68DB6A9A42D3D9EB
:10E28000074B4FF080521A60BFF34F8FBFF36F8F71
:10E29000CBE700BF74E10020D0E00020C4E0002004
:10E2A00004ED00E02DE9F843089F894690461D469D
:10E2B000044640B94FF0500383F31188BFF36F8FCA
:10E2C000BFF34F8FFEE7FEF7D5FCEFF311864FF05B
:10E2D000500383F31188BFF36F8FBFF34F8F0DB1DE
:10E2E000A36D2B6094F85C50022308F1FF32EDB26D
:10E2F00084F85C30032A07D8DFE802F0020D13111E
:10E30000A16D41EA0901A165012D0DD0012086F31F
:10E310001188BDE8F883A36D0133A365F4E7022DEE
:10E3200033D0C4F85890EFE7A36A43B14FF05003DD
:10E3300083F31188BFF36F8FBFF34F8FFEE7144B4A
:10E340001B68DBB904F104084046FEF71EFB114AC6
:10E35000E36A11689D400D4315600F4A1420414641
:10E3600000FB0320FEF7EEFA0C4BE26A1B68DB6A47
:10E370009A42CBD901202FB13860C8E704F11801C7
:10E380000748EFE7074B1860C1E70020BFE700BF71
:10E390006CE1002074E10020D0E00020C4E0002007
:10E3A000ACE10020F0E10020F8B50F4CFEF75AFB7D
:10E3B0002568ADB90D4F0E4E3846FEF7B5FA30461A
:10E3C000FEF7B2FA0B4B1F600B4B2A460C210A20BA
:10E3D0001E60FEF731FE206010B10849FFF742F9D8
:10E3E000BDE8F840FEF760BB28E20020FCE1002019
:10E3F00010E20020F4E10020F8E1002092F401088E
:10E40000914208B5416000610AD8D21A83699A42E4
:10E410000DD2084B011D1868FEF7A0FA002008BDB8
:10E420009A4201D2994202D2011D034BF3E7012027
:10E4300008BD00BFF8E10020F4E1002007B5FFF7B8
:10E44000B3FF0D4B1B685BB10C4B0193052300938D
:10E450004FF4007200230A490A48FFF79BF940B9BC
:10E460004FF0500383F31188BFF36F8FBFF34F8FCB
:10E47000FEE703B05DF804FB28E200202CE2002058
:10E4800097F40108A5E500082DE9F04180462C200D
:10E490000D4617461E46FEF73FFC0446A8B145B997
:10E4A0004FF0500383F31188BFF36F8FBFF34F8F8B
:10E4B000FEE7FFF779FF069BC4F80080A561E761DE
:10E4C00026626362201DFEF73AFA2046BDE8F0811D
:10E4D00030B5154685B01A46034640B94FF0500393
:10E4E00083F31188BFF36F8FBFF34F8FFEE70D4C9F
:10E4F000206880B105290191029503930DDCFFF797
:10E5000071FD0023022808BF089A206818BF1A4628
:10E5100001A9FEF7B5FD05B030BD002301A9FEF746
:10E5200095FEF8E728E200202DE9F3411B4D4FF05E
:10E5300000082B681A6832B9194A116829601360FB
:10E5400002B0BDE8F081DB68DC681E68271D384634
:10E55000FEF71BFA636A20469847E369012BE8D16E
:10E56000A36933449E4206D2636024613946286819
:10E57000FEF7F4F9DDE70023CDF8008032461946B6
:10E580002046FFF7A5FF0028D3D14FF0500383F3B7
:10E590001188BFF36F8FBFF34F8FFEE7F4E10020C8
:10E5A000F8E100202DE9F04F6C4DDFF8C08189B013
:10E5B0002F462B68D3F800B0BBF1000F42D0DB68C8
:10E5C000D3F80090FFF700FAFFF706FA644B1A68D9
:10E5D000904282461E4637D20393FFF7A5FF039B66
:10E5E0000124C3F800A0002C7ED1BBF1000F60D045
:10E5F000D14577D8FFF788FA3B68DB68D3F80CB0D1
:10E600000BF10400FEF7C1F9DBF81C30012B1DD122
:10E61000DBF818104B46524649445846FFF7F0FEC7
:10E62000A0B1009423464A4621465846FFF750FFC2
:10E6300060B94FF0500383F31188BFF36F8FBFF3BE
:10E640004F8FFEE7D946BDE70024CAE7DBF8243048
:10E6500058469847DFF81091D9F8000000231A4671
:10E6600005A9FEF7A9FE0028A3D0059B002BF3DB2C
:10E67000079C636913B1201DFEF787F9FFF7ACF91A
:10E6800033689842834601D2FFF74EFF059AC6F8D9
:10E6900000B0092AE0D80123934013F4047A4AD148
:10E6A00013F0C70F23D19B06D6D52046FEF7C6FB35
:10E6B000D2E72C4B1B681A68B2FA82F252092A4B35
:10E6C000A9EB0A011868FEF7DFFFFFF71DFA002823
:10E6D000C0D14FF08053C8F80030BFF34F8FBFF365
:10E6E0006F8FB7E72246EAE7FFF70EFAB2E7A169B4
:10E6F000069B5A4619442046FFF782FE0028ABD0FD
:10E70000636A20469847E369012BA5D1A26906995F
:10E71000CDF800A00A44534651462046FFF7D8FEE4
:10E72000002899D14FF0500383F31188BFF36F8F06
:10E73000BFF34F8FFEE70699A16141B94FF0500337
:10E7400083F31188BFF36F8FBFF34F8FFEE75B46F4
:10E750005A4659442046FFF753FE7DE7F4E1002076
:10E7600024E20020F8E1002028E2002004ED00E08F
:10E7700010B5094C094900222046FDF7D9FB08498C
:10E780002046FDF7EAFB20460649FDF792FB2046AE
:10E79000BDE81040FDF7E8BB1C400120281A00200E
:10E7A00004190020181A002000207047002070472C
:10E7B00038B5074C0968054606F0FAFA294620469E
:10E7C000FDF786FB2046FDF7A0FB002038BD00BF0B
:10E7D0001C40012010B5064C064900222046FDF7DA
:10E7E0006FFB05492046FDF773FB002010BD00BFFD
:10E7F0001C400120404A01204042012010B5094C34
:10E80000D4F81832D3F814320A4643B901462046E8
:10E81000FDF756FB2046BDE81040FDF75FBB012029
:10E8200010BD00BF1C40012012230B800048704720
:10E83000441A002004230B8000487047581A002017
:10E8400010B5044C04480A462146FDF734FE204624
:10E8500010BD00BF40520120B8F4010810B5044CAF
:10E8600004480A462146FDF726FE204610BD00BF9B
:10E8700040520120C5F4010810B5044C04480A4672
:10E880002146FDF718FE204610BD00BF4052012072
:10E89000E2F4010810B5044C04480A462146FDF78D
:10E8A0000AFE204610BD00BF405201209FF401081F
:10E8B00010B5044C04480A462146FDF7FCFD2046ED
:10E8C00010BD00BF40520120AAF4010810B5036832
:10E8D000B3F1A04F86B02ED100244FF4007301A9EC
:10E8E0001648019302940394F9F7C6FA4FF4C05303
:10E8F0000193022302930323049301A90A230F48DF
:10E9000005930394F9F7B8FA0D4B5A6B42F0800265
:10E910005A6300945A6C42F480425A645B6C03F46C
:10E9200080430093432022460521009BF8F7B8FC62
:10E930004320F8F7F7FC06B010BD00BF000002400E
:10E940000038024000F56F71D0F8EC03FDF723BBEF
:10E950001C2303FB0103D0F8EC03D3F80422FDF7DA
:10E9600047BB1C2303FB0103D0F8EC035A6CFDF7F3
:10E9700071BBD0F8EC03FDF7EDBB10B5C1680446E0
:10E98000003118BF0121D0F8EC03FDF7D1FBD4F81A
:10E99000EC03BDE81040FDF7ACBB000010B5044629
:10E9A000D0F8EC03FDF7C7FB2268D2F8003E43F035
:10E9B0000103C2F8003E236A23B1034A136943F0FE
:10E9C0000603136110BD00BF00ED00E0D0F8EC03BA
:10E9D000FDF7BABBD0F8EC03FDF7CABBD0F8EC03E7
:10E9E000FDF7C4BBD0F8EC03FDF7C4BBD0F8EC03D3
:10E9F000FDF7C2BB08B5027842BB154B0421C3F832
:10EA0000EC03C0F820324FF0A04083E8030002215D
:10EA1000D9609961184601211A615A61DA611A6256
:10EA20005A62D9621A63F9F765FC08B1F7F782FAFE
:10EA300080210748FAF7B9F8402200210448FAF784
:10EA400093F8802201210248FAF78EF8002008BDD1
:10EA50004054012008B5D0F82002F9F7C3FC032880
:10EA60009ABF024B185C022008BD00BFEFF40108FA
:10EA700010B51C46D0F8200213462246F9F786FF4F
:10EA800003289ABF014B185C022010BDEFF4010867
:10EA900008B5D0F82002F9F7A7FF03289ABF024B68
:10EAA000185C022008BD00BFEFF4010808B5D0F8DB
:10EAB0002002FAF708F803289ABF024B185C0220DC
:10EAC00008BD00BFEFF4010808B5D0F82002FAF73E
:10EAD00026F803289ABF024B185C022008BD00BF2D
:10EAE000EFF4010811F0800FD0F820324FF01C0233
:10EAF0001BBF01F07F0102FB013102FB013191F8E4
:10EB00003A0008BF91F8FA017047000008B5D0F844
:10EB10002002F9F729FF03289ABF024B185C022054
:10EB200008BD00BFEFF4010808B5D0F82002F9F7DE
:10EB3000AAFF03289ABF024B185C022008BD00BF41
:10EB4000EFF4010808B5D0F82002F9F770FF0328A8
:10EB50009ABF024B185C022008BD00BFEFF4010809
:10EB600008B5D0F82002F9F786FF08BD064A1368F9
:10EB70001843431C01D0106070476FF00303034833
:10EB80001360F9F7B1BB00BF641A0020083C0120F4
:10EB900001210020FAF70EB808B50E210348FFF74F
:10EBA0002DFE0348BDE8084001F006BEB8F6010896
:10EBB000C7F6010808B50D210348FFF71FFE0348FB
:10EBC000BDE8084001F0F8BD9DF60108ABF601086C
:10EBD0007047000030B589B008AB184D43F81C0DE4
:10EBE00018460BF045FC836901338DF80830036942
:10EBF00001338DF80930C3688DF80A304369643BEE
:10EC00008DF80B3083688DF80C3043688DF80D302B
:10EC100003688DF80E3000244023224602A92846BE
:10EC20008DF80F3006940794FAF714FE224603A9D4
:10EC30002846FAF7F5FC09B030BD00BF143C0120AE
:10EC400010B5144C90B002A900222046FAF7CEFD70
:10EC5000002201A92046FAF7A5FE9DF804300D9385
:10EC60009DF80530013B0B939DF806300A939DF803
:10EC7000073064330C939DF80830099310A89DF871
:10EC8000093008939DF80A3040F8243D0BF01CFE33
:10EC900010B010BD143C01202DE98048C82091B06F
:10ECA000FDF784FC9348944E944C06F097F8FEF7D9
:10ECB000FDF80146924806F091F8924A936843F4B1
:10ECC000805393604FF0FF30FFF750FF01F094FB4B
:10ECD0003388A4F80330B37863718B4B1A889B7820
:10ECE000A3708A4B22805A6F12012AD58848FFF7F9
:10ECF00071FF884B8549884D4A6FDFF8608242F08A
:10ED000080724A672B60854B1868FDF747FDFFF757
:10ED100097FF01F013FC8248FBF7D6F940F2097720
:10ED2000A94694F8293013F0010540F0CD81013F48
:10ED300028D17C4806F052F809F06EF909F050FA33
:10ED4000C4E15A6F970113D45A6FD50012D45A6F89
:10ED5000002A11DB5A6F500010D45A6F91000FD463
:10ED60005B6F714A13F0806F704B08BF1346C1E7A9
:10ED70006F4BBFE76F4BBDE76F4BBBE76F4BB9E71F
:10ED80006F4BB7E76420FDF711FC1021D8F80000A5
:10ED9000FDF74EFC0BF0BCF810A840F8045D0AF03B
:10EDA000E9FE0028BDD10F9B002BBAD06FF07F4247
:10EDB00093421EBF94F8293043F0010384F82930B0
:10EDC000AFE795ED010A04F0CFFEA9E1022007F0BC
:10EDD00058FD03204AE216F0020808D14FF47A7376
:10EDE0004FF4FA72FA21012007F028FD48E216F0EC
:10EDF00004084FF0010002D107F03EFD40E216F09A
:10EE000010060AD107F03DFD4FF47A734FF4FA7201
:10EE1000FA21304607F012FD35E207F032FD0020FE
:10EE200007F02AFD2FE2BA8933689A4200F2438242
:10EE300005203EE2C9ED007A70E2012387E283ED0E
:10EE4000008AB1E201238BF8003022E3002269E35B
:10EE5000DBF8003041F28832C31A934240F28583D6
:10EE6000DAF80030042B0ADC364B019300230093C0
:10EE70004FF4FA7204233449344808F0C1FF09F012
:10EE8000FFFA002800F06F83314801F095FC6AE337
:10EE9000DBF800302F4AA8EB0303934240F26D8366
:10EEA000DAF80030042B0ADC2B4B0193002300938B
:10EEB00040F2032204232449244808F0A1FF09F06A
:10EEC000DFFA002800F05783214801F075FC52E377
:10EED000B8F1000F40F07183002E40F06E832320C4
:10EEE00001F08CFB304605F045F8012001F004FCF0
:10EEF00063E300BF5FF501085F1A002090EA00207D
:10EF000075F50108002004E09AF601080038024077
:10EF1000841DBF5B20F5010888E20020F43B01203E
:10EF2000403D012085F6010854F501084DF5010822
:10EF300027F501082EF5010835F501083DF5010812
:10EF400045F50108DAF50108A0F50108F3F4010818
:10EF5000F2F50108C0D401000BF60108003C0120C5
:10EF600057A3D3E9002340464946F5F7D5FD88B1BC
:10EF7000494B1A7872B11E70DAF80030052B09DCA3
:10EF8000464B01930096052340F2892244494548A7
:10EF900008F036FFE069F5F7EFFA3DA3D3E9002367
:10EFA000F5F7BAFD002800F03883DAF80030062BB8
:10EFB0000ADC3D4B01930023009340F28D2206238F
:10EFC0003749384808F01CFF052609F06DFB431C43
:10EFD00003D1013E39D109F0FFF9344B34491868A7
:10EFE000FDF797FC4FF0FF30FFF7C0FD314B18687D
:10EFF000FEF7C2FE0C9B1868FEF7BEFE0B9B18685E
:10F00000FEF7BAFE2C4B1868FEF7B6FE0A9B18688E
:10F01000FEF7B2FE0AF00CF90AF052FF012007F0E9
:10F0200030FC002007F02DFC032007F02AFC022012
:10F0300007F027FCD4ED097AF4EEC87AF1EE10FA65
:10F0400006D9002001F0B8FBE7E2FFF78FFDBCE72F
:10F050004FF47A70FDF7AAFA4FF0FF30FFF786FD04
:10F06000E8E7013B2B2B40F211834FF4007113486A
:10F07000F9F7C4F8002840F0098300F1804001222C
:10F080004FF4007100F50130FEE200BFAFF30080E5
:10F09000CDCCCCCCCCCC0C405E1A002026F601089E
:10F0A000A0F50108FFF4010847F60108E83B01203C
:10F0B000C0D40100BC3B0120003C01200004024000
:10F0C0006666666666660E4009F098F8C94FB7F83E
:10F0D000C25008F079F850B194F8283043F0010399
:10F0E00084F8283008F02CF8E8B208F063F8C24D34
:10F0F00008F0EAFCD5F8248001F0F0F980453FF4EF
:10F1000060AE01220023AA70D7F8F4212B706B7037
:10F110006A60AA60EA602B746B61AB61EB612B6281
:10F120006B69E363AB692364EB6963642B6AA36473
:10F13000DFF8108341F6080358F803A001F0BEF988
:10F14000824509D041F60403012208F8032008F59E
:10F15000C0580023C8F80030002007F0DBFA012077
:10F1600007F0D8FA022007F0D5FA032007F0D2FA08
:10F170004021A248F9F742F8B0FA80F040094FF474
:10F18000807184F84C009D48F9F738F8421E5042CF
:10F1900094F82030504160F30003A87884F82030C0
:10F1A00001F0AAFA287801F083FA09F069F910B1A0
:10F1B000934801F001FB05F03FF810226FF07E014B
:10F1C00090480BF099FA904B1A68062A9A4619DC77
:10F1D0003378089373780793B378069320230593C5
:10F1E0000123049372230393D9F800300293874BD1
:10F1F00001930023009340F251320623844985484D
:10F2000008F0FEFDDFF84092DFF84082824E0820D1
:10F2100001F0F4F90121D9F80000FDF709FA7F4B5C
:10F2200001211868FDF704FA0121D8F80000FDF764
:10F23000FFF901213068FDF7FBF9CDF82890CDF8F2
:10F240002C800C96764EF5F72BFF3368C01AB0F57C
:10F250007A7F18D3F5F724FF724B30609B78412BEF
:10F260007FF4B4AD032007F00CFB022007F004FB91
:10F27000267A16F001087FF4AEAD012007F001FBFD
:10F28000404607F0FEFA684EF5F70AFF3368C01AE9
:10F29000B0F57A7FC0F01C82F5F702FF306001F014
:10F2A00085FA624E00287FF4BEAD7A8933689A42AF
:10F2B00001D801F0A3F93368DFF89481DFF8949165
:10F2C00001333360574E304609F070F8F3786375B8
:10F2D000012B8CBF326A0022012B97F8753014BFC6
:10F2E000D6ED067ADFED527AA26107EE103AB8EE5B
:10F2F000C77AF4EEC77AF1EE10FA7FF59BADF5F719
:10F30000CFFED8F80030B7F87620C01A4FF47A73E1
:10F310005343984206D90023C9F80030F5F7C0FEE0
:10F32000C8F80000434BD9ED008A18684FF47A7191
:10F33000FDF7D0F9002840F00A81DFF81C8132780F
:10F3400088F82D20C346002A3FF477ADF37888F87B
:10F350002B30002A00F0B280012B00F0AF80364B3A
:10F3600096ED078A83ED008A01F020FA334B0028DE
:10F370007FF465AD0D93FDF775FB0D9BD3ED007A22
:10F3800097F8803038EE678A07EE903AF8EE677AA1
:10F39000B0EEC88AB4EEE78AF1EE10FA02DB022082
:10F3A00001F02CF9FDF780FB18EE903AC8F80C300C
:10F3B000DBF81400DBF8181000220023F5F798FBA7
:10F3C00000284DD0DBF81C00DBF8201000220023C1
:10F3D000F5F78EFB002843D0194B01221A70B26852
:10F3E000F368C8F81830C8F8142032697369C8F88F
:10F3F000203033E08C1B0020141800200000024055
:10F400008EF50108C0EB002038230120ADF501087E
:10F41000A0F5010817F50108A43B0120FC3B0120E1
:10F4200084E200203CE200207CE200208CE200200C
:10F4300000000000B83B012030E2002078E200200C
:10F440005C1A002000000020B03B0120B43B0120EA
:10F4500038E2002034E2002054EB0020C8F81C20E1
:10F46000F5EEC08AF1EE10FADFF8BCB27FF7EAAC35
:10F4700001F030F900283FF4E5AC00238BF80030B0
:10F480009B4BB068F1689961586130697169196284
:10F49000D861D6ED077AFCEEE77A17EE903AA8F835
:10F4A0002830736AC8F81030336AC8F808306B68BF
:10F4B000C8F8243096F8283088F82A308C4B93F816
:10F4C0002D1000293FF4C2AC93F82B1001293FF412
:10F4D000BDACB17841297FF4B9AC97F86C1001B399
:10F4E0009968D7ED1C7A07EE101AF4EEC77AF1EEA0
:10F4F00010FAFFF6ABAC93F82A0097F87410884224
:10F50000FFF4A4AC97F87810DA6807EE901A07EECB
:10F51000102AF8EE677AF4EEC77AF1EE10FAFFF6E9
:10F5200095AC0122DFF8048283F82C2093F82CB0EC
:10F5300098F800302BB9BBF1000F02D0072001F082
:10F540005DF86C4B88F800B01868FDF74BF9F5F7DB
:10F55000A7FD694BF26A1968DFF8D4B18A42804688
:10F560003FF476AC1A60CBF80080B378DFF8C4B112
:10F57000412B7FF48DACCBF8008001F0ABF8F6782E
:10F58000012E804608D0D9ED007AF5EE407AF1EEF2
:10F5900010FA14BF0126002601F008F901287FF4B3
:10F5A00097ACB8F1000F08D0002001F0A5F8232097
:10F5B00001F024F8002004F0DDFCD4ED098A4F4E60
:10F5C000B1EE088AF4EEC88AF1EE10FAACBF4FF043
:10F5D00001084FF0000808DA337833B195ED010ADD
:10F5E00004F0DAFA0B2001F009F8F4EEC88AF1EE23
:10F5F00010FA86F800800DDAE069F4F7BDFF3AA34F
:10F60000D3E9002380468946F5F79AFA0646002892
:10F610003FF4A6AC3A4B01221A703A4B1A682AB151
:10F620001A680D20013A1A6000F0E8FF364B1A689C
:10F630002AB11A680420013A1A6000F0DFFF334B48
:10F640001A682AB11A680620013A1A6000F0D6FF3B
:10F650002F4E94F84C8033782BB9B8F1000F02D0BC
:10F660000A2000F0CBFF236D86F800805A1F232A62
:10F670003FF6F7AC4FF400712648F8F7BFFD28B10C
:10F68000244800224FF40071F8F7CAFDEFF3108808
:10F6900072B6FFF7D5FA4346064603B962B600F0E4
:10F6A00057FF301A022811DDDAF80030042B0ADC8B
:10F6B000194B01930023009340F2073204231749AA
:10F6C000174808F09DFB304600F038FF04F0C2FAFE
:10F6D000144B10211868FCF7ABFF3220FCF766FFD3
:10F6E000B0E500BFAFF300803333333333330F4023
:10F6F00054EB0020B83B012070E2002082E20020A1
:10F700005E1A00202C210120302101202821012017
:10F7100080E20020000402406CF60108A0F5010818
:10F720000AF50108003C01205C1A002081E200205B
:10F730006CE2002074E200201FB5014602AA2148B5
:10F7400007F02EF90446002830D19DF80830012B2F
:10F750001AD0032B1C4B1B6819D1042B09DC1B4B43
:10F7600001930090042340F229121949194808F026
:10F7700047FB0398C389112B04D017491030F4F7C5
:10F780002FFD08B104F024FA204604B010BD032B6D
:10F7900009DC124B0193009003234FF49E720C4935
:10F7A0000C4808F02DFB4FF0FF34EDE7064B1B68CB
:10F7B000032BF8DC094B0193002300934FF4A07254
:10F7C0000323ECE790E600203823012091F901089B
:10F7D00082F901080DF701089EF90108ADF9010849
:10F7E00030B50D2187B01F480CF03EF908B1002359
:10F7F00003701D4C2268032A0CDC1A4B02931B4B2E
:10F800000193002300934FF4087203231849194809
:10F8100008F0F6FA05AA1849124800F0FFFF01287F
:10F8200001D1059B43B90F4D144928460CF05BF9F3
:10F83000854204D104F0CCF9002007B030BD236824
:10F84000052B0BDC0E4B019300230093029505233F
:10F850004FF40B720649074808F0D2FA4FF0FF3018
:10F86000EBE700BF90E6002038230120BEF9010835
:10F8700082F9010863F70108D2F901089EF901082D
:10F88000D9F9010830B5114C87B0024621686846A5
:10F89000FDF710F8009B102B16D10122216803A858
:10F8A000FCF7CEFF039B102B0ED1049D65B12946BA
:10F8B000074851F8044B22460AF013FF2846FDF78B
:10F8C000BDFA204607B030BD0024FAE7C43B012052
:10F8D00090E6002083888B4215D18179DA1F21B907
:10F8E000A2F1750358425841704701290BD1083BDA
:10F8F000342B08D80623B2FBF3F003FB1020B0FA38
:10F9000080F040097047002070470000014B1868E4
:10F91000FCF744BFC83B0120F0B52C4B1A7985B0E9
:10F9200006460C46002A3CD11B68039323B903AA60
:10F930002749093000F072FF0121204606F0F4FF4C
:10F940002518074600200CF0A7FF01231A46394668
:10F950000090204607F00CF92A460146271801239B
:10F96000204607F02BF9039B01962A460146009397
:10F9700020463B4607F02EF92A4601462618022368
:10F98000204607F01BF92A4601463346204607F079
:10F9900049F905460146204607F0D0F8284405B04D
:10F9A000F0BD02460B4920460BF0BCFF0022054685
:10F9B000C11EE01C06F034FE0749024660190BF038
:10F9C000B1FF2046F4F716FCE9E700BF8C1B0020CE
:10F9D000352102088AF7010898F7010810B5204B75
:10F9E0001B7986B00446DBB904AA06F0D9FF20B91A
:10F9F0009DF81030013B012B30D91A4B1B68052BA9
:10FA00000BDC194B0293194B019300230093F8224E
:10FA100005231749174808F0F3F94FF0FF301DE0B0
:10FA20000D210CF021F808B1002303701249204683
:10FA30000CF059F888B90B4B1B68052BEDDC0F4B0C
:10FA400002930F4B03948DE8090040F2EF12052357
:10FA500007490C4808F0D4F9DFE7002006B010BDD4
:10FA60008C1B0020382301209DF70108A2F7010814
:10FA700082F90108D5F60108B9F70108BFF70108B6
:10FA8000C6F7010827F701082DE9F04F2DED028B8D
:10FA900099B04FF0FF32012111A8FCF7F3FD119B43
:10FAA000082BF6D1129BDB07F3D50120FFF7EAFE06
:10FAB000A0B1B54B1B7913BBFFF73EFE70B1B34B42
:10FAC0001B68052B0ADCB24B01930023009340F224
:10FAD00071220523AF49B04808F092F9AF4B4FF4BB
:10FAE0007A711868FCF732FE60B1AD4807F07AFE13
:10FAF00040B1AC4B08211868FCF79AFDD5E7FFF739
:10FB00006FFEDBE7A84B1A78002A59D153F8046C32
:10FB1000002E55D0A54C00F0E9FC2068FCF7E7FE6C
:10FB200005460028E5D1301DFDF7F6F80746002808
:10FB3000DFD032469E4940F8046B0AF0D2FD2A46D7
:10FB400039462068FCF754FE002840F00C84994D9B
:10FB5000944C29684FF47A7214A8FCF771FE149B38
:10FB6000102B40F00584159B002BC2D1864C94F8D5
:10FB70004031E3B142F21070FFF784FE002800F03C
:10FB800000842379002B40F0F983FFF7D5FD70B195
:10FB90007E4B1B68052B0ADC7D4B019300230093F1
:10FBA0004FF4237205237B497B4808F029F97E4BEB
:10FBB00001221A70002243F8042C00F097FC98E709
:10FBC000714C2579002D40F00181012178487A4F50
:10FBD00006F0AAFEAB4606460E947749704807F039
:10FBE000B9FE0146002800F0C1803846FFF772FEDA
:10FBF0000446002800F0A9803B686D4C0093022366
:10FC00001A463146204606F0B3FFBB793519064641
:10FC1000002B67D1014610232A46204606F0CEFF6E
:10FC2000A31901462A460097204607F02DF8112314
:10FC3000014606192A46204606F0C0FF3346014613
:10FC40002A460097204607F0DFF8122301460619DE
:10FC50002A46204606F0B2FF0123014601932A46B8
:10FC600033460097204607F0F5F81223014606199F
:10FC70002A46204606F0A2FF0223014601932A46A7
:10FC800033460097204607F0E5F81323014606198E
:10FC90002A46204606F092FF334601462A46009740
:10FCA000204607F04FF91523014606192A4620463B
:10FCB00006F084FF3346014600972A46204607F0A7
:10FCC00071F906460BF1010BBBF10A0F85D15946BC
:10FCD0003A4805F083F83146354806F02FFF00EB2F
:10FCE000060B46E0012B2ED1B7F80480DFF8D8A030
:10FCF000A8F1070806234FF00009B8FBF3F85FFAF4
:10FD000088F8C145DEDAB9F1080FDBD03319314686
:10FD100009932A461B23264806F050FF9AF805301F
:10FD20000E9A02EB43020146D27C029201935AF8EA
:10FD3000063B00932A46099B1D4807F069F909F123
:10FD400001090646DDE70026BCE7154807F086FBFB
:10FD50000E4B1B68042B09DC194B01930094042300
:10FD600040F20F120B49174808F04AF8BBF1000F98
:10FD7000ADD15E46002E3FF4BCAE0B4B00221A7094
:10FD800043F8046CC6E600BF8C1B0020382301201A
:10FD9000E3F7010882F901087FF70108C83B012059
:10FDA000481B0020003C012004180020D03B01200B
:10FDB00000000020F83B012090E2002018F8010824
:10FDC000FEF70108F4F6010897E20020D449D5486F
:10FDD0000BF058FED348F4F70DFA00268346D24CB8
:10FDE000D248214607F0B6FD0146002800F0B78250
:10FDF0002046FFF76FFD0546002800F09F82C94DA1
:10FE00000BEB05030993A379002B40F040822046B9
:10FE10000AF02EFB0268036903924268029282682C
:10FE200001924269C249643A00920133C26809985A
:10FE30000BF078FD099B1D1894F82B30012B00F076
:10FE4000F381D4F81890D4F81480CDF8288029F0E4
:10FE500000430B9314A89DED0A0B0BF0A7FC0022A6
:10FE600051EC100BB34BF4F7DBFB0022B24BF4F771
:10FE700001FDDDE91423F4F721FA0022AE4BF4F77B
:10FE8000CFFB41EC100B14A80BF090FCDDE9140142
:10FE90008DED0E0BF4F774FE9DED0E0B9EA3D3E9D2
:10FEA0000023074651EC100BF4F7BAFBF4F768FE99
:10FEB00000238246494600224046F4F737FE0028D8
:10FEC00014BF4E2353233A469C4900932846534679
:10FED0000BF028FDD4F82090D4F81C80CDF83080A9
:10FEE00029F000430D9305449DED0C0B14A80BF075
:10FEF0005DFC002251EC100B8E4BF4F791FB0022BD
:10FF00008D4BF4F7B7FCDDE91423F4F7D7F90022A1
:10FF1000894BF4F785FB41EC100B14A80BF046FC61
:10FF2000DDE914018DED0E0BF4F72AFE9DED0E0BAD
:10FF300079A3D3E90023074651EC100BF4F770FBCB
:10FF4000F4F71EFE00238246002240464946F4F79D
:10FF5000EDFD002814BF452357233A460093784906
:10FF6000534628460BF0DEFCD4F808800544404692
:10FF7000F4F702FB41EC100B14A80BF017FCE3683C
:10FF8000278D002251EC100B08EE103A6A4BF4F763
:10FF900047FBF4F7F5FD07EE908AFDEEE77A039054
:10FFA000CDED027A94F82A3001932369654907EE72
:10FFB000903ABDEEC88AFDEEE77A2846CDED007A8C
:10FFC0003B4618EE102A0BF0ADFC0544564C9FED55
:10FFD0005E8A94F82C30B4F84610DFF88881DFF898
:10FFE0008891002B0CBF002280220A4394F84830ED
:10FFF000564928460BF096FCD4F82E30054400EE06
:020000040801F1
:10000000103A14A80BF02CFC20EE080A5049FDEE23
:10001000C07A284617EE903ADDED147AFDEEE77AC5
:10002000002717EE902A0BF07DFCD4F832300544FF
:1000300000EE103A14A80BF013FC20EE080A454914
:10004000FDEEC07A284617EE903ADDED147AFDEE0B
:10005000E77A17EE902A0BF065FC054428463E49E6
:100060000BF010FD0635E31993F86C20002A00F020
:10007000E18093F96D2012F17F0F284614BF02F240
:100080001112002249460BF04DFC05440237102F97
:10009000E9D128463149DFF8CC90234CDFF8CC80F9
:1000A0000BF0F0FC04354FF0000A15F8013C3B2B37
:1000B00004D0284649460BF0E5FC01350AF101075A
:1000C0000AF10A0A04EB8A0A2846DAF80E303A46A0
:1000D00041460BF027FC042F0544BA46E5D1D4F87D
:1000E0004930DFF88C9014A800EE103A0BF0B8FB02
:1000F000B0EEC00A20EE080A1949FDEEC07A284683
:1001000017EE903ADDED147AFDEEE77A002717EE50
:10011000902A2FE0AFF30080000000000088C34069
:100120002DF801080000002090E20020481B00206C
:1001300031F8010800004E40000059404BF801081A
:1001400059F8010867F801080000C84298F801084A
:1001500073F801089FF80108A8F8010849F9010897
:10016000C3F801089A100208AFF80108B6F80108B0
:10017000F4F801080BF0D6FBD4F84D30054400EE3E
:10018000103A14A80BF06CFBB0EEC00A20EE088AFF
:100190008249FDEEC87A284617EE903ADDED147AD2
:1001A000FDEEE77A17EE902A0BF0BCFB626A7C4901
:1001B0007C4C07EE902AFDEEE77A0544284617EEC0
:1001C000902A0BF0AFFBA4F15408054498F8533083
:1001D0009F4204F1080433DB98F807300D2B4ED111
:1001E000714928460BF04EFC083528466F490BF044
:1001F00049FC099B0135ED1A01360A2EAB447FF408
:10020000EEAD31466A4804F0E9FD0022ABF103018E
:10021000684806F005FA02466748684958440BF0FA
:1002200081FB00EB0B06A5E5284665490BF02AFC8F
:100230001B35CBE6284641460BF024FC013525E76B
:1002400014F8082C14F8013C069214F8072C0592B7
:1002500014F8062C049214F8052C039214F8042CBC
:10026000029214F8032C019214F8022C0092013728
:1002700028463A4649460BF055FB0544A6E70A2BAB
:1002800001D15049ADE70B2BAFD14F49A9E7012B65
:1002900052D1B4F80480DFF85C9120460623A8F11F
:1002A0000708B8FBF3F80AF0E3F802680369039261
:1002B000426802928268019242694449643A00921B
:1002C000C268099801330BF02DFB099B3C491D18AE
:1002D00028460BF0D7FB05F11B003D490BF0D2FB84
:1002E00026350027A2465FFA88F39F42BFF67DAF0E
:1002F000082F3FF47AAF15F8013C3B2B04D0284679
:1003000049460BF0BFFB01350623227B314903FB35
:1003100007A30132D3F8073028460BF003FB227BFA
:1003200094F90B302C490544284601320BF0FAFAB7
:10033000013705440634D6E700255DE7274807F076
:100340008DF8274B1B68042B09DC264B0193009585
:10035000042340F207222449244807F051FD002ECF
:100360003FF408AD4DE73846FCF768FDFFF7C1BB29
:1003700008212068FCF75CF9FFF7EBBBFFF730FAC8
:1003800005E4174A1268052A3FF711AC184A019292
:10039000009005234FF4247205E400BFD6F801084D
:1003A000E9F80108E4E2002025F9010840F9010814
:1003B00018F80108030000200000002098F7010849
:1003C0007CF801082EF9010837F9010831F8010815
:1003D00042F901084EF901085DF90108481B0020A7
:1003E00038230120FEF7010882F9010848F70108C7
:1003F0006AF901089A100208F0B587B014224FF488
:100400000065002101A80AF077F9294627480195DF
:10041000F7F7F4FE0124074601A924480394F7F7EF
:100420002BFD29462148F7F7E9FE022301A90646DC
:100430001E480393F7F720FD29461C48F7F7DEFE18
:10044000A7421B4B06D1A6422DD1A0422BD10022A0
:100450001A7026E03FBB36BB28BB1C70154B00F161
:10046000804083F8654083F889405C7783F8414099
:1004700022464FF4807100F50230F7F7D1FE224694
:100480004FF400710948F7F7CBFE22464FF4804144
:100490000948F7F7C5FE22464FF400410648F7F732
:1004A000BFFE07B0F0BD0222D2E700BF0008024045
:1004B0005F1A0020841A002000040240002241F646
:1004C0000801014806F0C4B8000000200022042101
:1004D000014806F0BDB800BF0C18002000222421FE
:1004E000014806F0B5B800BF1418002008B5FCF7A5
:1004F000B9FAFFF7E3FF41F60803034AD050BDE81D
:100500000840FCF7D1BA00BF0000002008B5FFF793
:10051000DDFF024BC3F8180708BD00BFF81000202C
:1005200010B5EFF3108472B6FFF7D8FF024BC3F893
:10053000400704B962B610BDF8100020EFF3108335
:1005400072B6024A106003B962B67047681A00209A
:10055000EFF3108372B6024A106803B962B67047AF
:10056000681A002030B50E4D87B0002300930FCDE0
:1005700001AC0FC42B682360F7F704FB694601A8A0
:10058000F7F718FC0446F7F70FFB34B90098013071
:1005900018BF4FF0FF3007B030BD4FF0FF30FAE723
:1005A0002CF00108F8B5134B984206460D46174645
:1005B0001CD9114B82189A4218D8F7F7E3FA2F4446
:1005C0000124761BBD4205EB060108D015F8012B6E
:1005D00000230020F7F71CFB04460028F2D0F7F7B1
:1005E000E3FA201C18BF01204042F8BD4FF0FF3055
:1005F000F8BD00BFFFFF03080000088037B50546BF
:10060000FCF730FA104B1A68104B1A60104B00249C
:100610001C6003F0A1FAFCF747FA0E4B642229464E
:100620001868FCF7E5F860B10B4B1B68052B08DC7C
:100630000A4B019300940523CC220949094807F08D
:10064000DFFB03B030BD00BF30E2002078E20020C5
:100650008CE20020A83B01203823012076FA010813
:1006600066FA0108F4F901080C4B07B56422402131
:100670001868FCF7BDF868B1094B1B68052B09DC4D
:10068000084B019300230093D22205230649074813
:1006900007F0B6FB03B05DF804FB00BFA83B0120E8
:1006A0003823012076FA010866FA01080EFA0108DB
:1006B000064B83F85400064B93F81C27824203D064
:1006C00083F81C07FFF72CBF704700BF90EA00209B
:1006D000F8100020014B93F81D077047F810002018
:1006E000044B93F81D27824203D083F81D07FFF7C0
:1006F00017BF7047F8100020F0B5204B204E214F57
:1007000085B004464FF47A7500282FD1F188186817
:100710006943FBF763FFF18938686943FBF75EFFC4
:10072000194A00231360194A1360194B93F81E27C6
:10073000A24203D083F81E47FFF7F2FE154B1B6859
:10074000042B11DC144A154B15491648002C0CBF1C
:100750001C461446144B0193002300930294042377
:1007600040F2031207F04CFB05B0F0BD3189186868
:100770006943FBF733FF318ACEE700BFD83B012046
:100780008C1B0020E43B012050EB00208CE2002079
:10079000F8100020382301204AFA010843FA010822
:1007A00066FA010826FA010852FA0108014B93F88B
:1007B0001E077047F810002007B50446FCF752F9F1
:1007C000104B93ED010A03F0CFF96CB10E4B1B688F
:1007D000062B09DC00230093019406234FF4887252
:1007E0000A490B4807F00CFBBFF34F8F09490A4B2E
:1007F000CA6802F4E0621343CB60BFF34F8F00BFBF
:10080000FDE700BF141800203823012066FA010814
:1008100036FA010800ED00E00400FA050EB417B541
:1008200005AA52F8041BEFF3108472B601920CF083
:10083000EDFA04B962B603B0BDE8104003B07047EA
:1008400007B5034601220DF107010548FAF74DFBF4
:1008500020B99DF8070003B05DF804FBFF20FAE71C
:100860007C3F01202DE9F04387B099464FF4806327
:100870000D4617460593804668BB4FF4FA73022273
:100880002C492D4808F0C8FB05AA04462B490068EE
:10089000FFF7C4FF01281BD0059BCBB1284B1B6879
:1008A000052B05DD4FF0FF34204607B0BDE8F0838F
:1008B00023680393234B0293234B0193CDF80080CD
:1008C00005234FF4C0722149214807F099FAE9E75E
:1008D0006420FBF76BFE002F0CDC194B1B68032B0D
:1008E0004FF00004E0DC1B4B0193009403234FF412
:1008F000CA7217E0059EBE4228BF3E464B463246AE
:100900002946404608F054FD431C04460FD10C4BC9
:100910001B68052BC6DC104B0193002300934FF49A
:10092000C672052309490A4807F06AFABCE7BF1BEB
:100930003544D0E7140602081D0602082A060208FC
:10094000382301204606020852060208390602082A
:100950008EFA01086A0602085B060208F8B504462A
:100960000F46F4F79DFB06464FF0FF30FEF7FEF80A
:100970000020FFF765FF0546F4F792FB801BB842A5
:1009800003D8A542F0D10020F8BD4FF0FF30F8BDEC
:1009900010B50446F3F72EFC214682B20348FAF75D
:1009A00027FB003018BF0120404210BD7C3F0120D2
:1009B00030B591B00D461446F3F712FC18B3224639
:1009C0002B46134904A80AF0ADFF00214FF4FA7337
:1009D000012204A808F020FB04680E4920460BF011
:1009E00082F890B90C4B1B68052B0ADC0B4B029468
:1009F0008DE809004FF41E7205230949094807F0E4
:100A0000FFF94FF0FF3011B030BD0020FBE700BF11
:100A10007B060208E01F0208382301209206020824
:100A2000390602089AFA010810B5084C237A13F027
:100A3000010308D008F006FC20B190F900302374BF
:100A40004378637410BD2374FBE700BF90EA002075
:100A500010B586B00E4A0F49044668460AF062FF98
:100A60004FF4FA7301220C49684608F0D5FA60B1D8
:100A700043F6982302220949204608F0CDFAB0FA3D
:100A800080F04009404206B010BD4FF0FF30FAE759
:100A90003418012094010208A2010208A5010208ED
:100AA00010B586B00B4A0C49044668460AF03AFF76
:100AB0006846FFF76DFF4FF4FA70F4F7D9FA204655
:100AC000FFF766FF4FF4FA60F4F7D2FA002006B0A1
:100AD00010BD00BF341801209401020870B50C4607
:100AE0000646F3F787FB234682B2054608490948C4
:100AF000074CFAF7FAF928B92A463146204609F098
:100B0000E1FD18B1002323704FF0FF3070BD00BF2E
:100B1000166301207C3F0120F8B5054608B9002086
:100B2000F8BD104E3068FBF7E2FE074610B14FF0FB
:100B3000FF30F8BD281DFCF7EFF804460028F6D07A
:100B40002A46094940F8045B09F0CBFD3A462146A4
:100B50003068FBF74DFE0028E1D02046FCF76EF927
:100B6000E5E700BFC43B0120E0EB002008B51346D9
:100B70008AB201460348FAF7B8F9003018BF0120DD
:100B8000404208BD7C3F012070B505460E46541E0C
:100B9000631C01D1002009E00120FBF707FD31466D
:100BA000284608F0D3FD013C0028F1D070BDF8B50F
:100BB0000D461F46064688B181B1114628460AF007
:100BC00053FF58B1441BBC4208DC2246294630463C
:100BD00009F087FD002333552046F8BD4FF0FF3460
:100BE000FAE700002DE9F04FB74E3378042BADF54E
:100BF000337D40F29B80B549B5484FF47A730322A8
:100C000008F00AFA05460220FDF7B0FFB14928694D
:100C10000AF069FF002870D02868AF490AF063FF26
:100C2000841CAE4920460AF05EFF102207460021D0
:100C3000AB4809F061FD3A1B2146A94809F051FD76
:100C400014ACA968A74D802220460AF037FF2B6814
:100C5000042B0BDCA44B0193002300930294042388
:100C600040F20332A149A24807F0CAF8A14F00217F
:100C700041F288330122384608F0CEF9804602203E
:100C8000FDF774FFD8F80080924940460AF02BFF28
:100C900000BB2B683070052B0CDC974BCDF80C801B
:100CA0008DE809000297052340F20A328F499048E7
:100CB00007F0A6F82B68052B0CDC337802938F4BDA
:100CC00001930023009340F20B32052387498848A3
:100CD00007F096F88A4920460AF005FF844229D198
:100CE00018220DF1590187480AF0E8FE0122864BCF
:100CF0001A70864B1868FBF751FD824B1B78ABB11D
:100D00003378072B40F0AD85764A12680A23032A10
:100D100033700BDC0293794B01930023009340F274
:100D20008F5203237149724807F06AF80DF5337D3D
:100D3000BDE8F08F764920460AF0D5FE844207D1FF
:100D400018220DF159016F480AF0B8FE0222CEE7D1
:100D5000704920460AF0C7FE844240F085800DF1BC
:100D6000590A2C2150460AF07FFE0746A0EB0A09DB
:100D700000285ED0B9F1230F5BD80DF1D0084A46A8
:100D8000514640464FF0000A09F0ABFC08F809A0B4
:100D900007F101092C2148460AF066FE0746A0EB40
:100DA000090B002845D0BBF1070F42D85A464946E7
:100DB000C34401373DA809F094FC2C2138468BF838
:100DC00024A00AF051FE8146A0EB070B88B3BBF1CB
:100DD000170F2ED85A4639463FA8C34409F081FC64
:100DE00020468BF82CA0F3F705FA09F10109044419
:100DF000A4EB0904172C1CD82246494645A84444B4
:100E000009F06FFC5C224146434884F844A009F095
:100E100068FC032007F03CFA58B90220FDF7A6FE53
:100E20003E48FFF715FE0220FDF7A0FE3C48FFF705
:100E3000C3FC2B68052B0ADC3A4B0193002300937B
:100E400040F24D3205232949294806F0D9FF0220F6
:100E5000FDF78CFE3448FFF7FBFD0220FDF786FE10
:100E60001F4B00221A7048E7304920460AF03BFE2B
:100E700084420DD10220FDF779FE2D48FFF7E8FDF1
:100E80004FF4FA60FBF792FB2A48FFF795FC34E732
:100E9000294920460AF027FE844257D1274B28498A
:100EA00093F8C45003F58072019203F1E8020092B6
:100EB000244A002D18BF0A462349C4330AF032FDE4
:100EC000204600F09EBC00BF24180120C301020888
:100ED000C9010208E01F0208D401020899100208A3
:100EE0003418012038230120D701020839060208EE
:100EF000BDFA0108E801020852060208FC010208D6
:100F000011020208E807012000080120DC3B012053
:100F10001B02020825020208D01C00202F02020832
:100F200049020208620202087202020804F601087D
:100F3000790202087D020208880202088C1B002048
:100F4000B2010208AD0102088D020208C349204621
:100F50000AF0C9FD844273D10DF154092C21484691
:100F60000AF082FD054600283CD14846F3F742F9D5
:100F70004FF0010809EB0005A5EB090A002D3FF42D
:100F8000BCAEBAF1230F3FF6B8AE34AF4946524675
:100F900038464FF0000909F0A4FB07F80A90B8F1B1
:100FA000000F22D0182249463DA809F0A5FB1822BF
:100FB000494643A809F0A0FB54223946A84809F045
:100FC00090FB032007F064F900287FF496AE02201E
:100FD000FDF7CCFDA348FFF73BFD0220FDF7C6FD62
:100FE000A14852E74FF00008C6E701352C212846FA
:100FF0000AF03AFD8146A0EB050A00283FF47DAED9
:10100000BAF1170F3FF679AE524629463DA8BA44C9
:1010100009F067FB20468AF82480F3F7EBF809F122
:1010200001090444A4EB0904172C3FF666AE2246DE
:101030003C44494643A809F054FB84F83C80BBE794
:101040008A4920460AF04FFD84422FD1884991ED0C
:101050001C7A91F8792091F86CC091F8753005925E
:10106000F2EE047A67EE277A91F878200492FDEE8A
:10107000E77A4FF00A0E17EE905ABDEEC77A91F854
:10108000742095FBFEF70EFB1755039202958DED2C
:10109000017AB1F8762000927649774ABCF1000FC8
:1010A00008BF0A4675490AF03DFC09E77449204625
:1010B0000AF019FD844257D14FF4FC726C4934A8F0
:1010C00009F00FFB03233B220DF1570107A8FFF79F
:1010D0006EFD041E40F38E83674907A80AF003FDE6
:1010E00000283ED1634907A80AF0FDFC002800F063
:1010F00081834FF00008601C0DF1570E0CAC0BAD56
:101100000AAF0DF13809039402950197CDF80090CC
:1011100009AB08AA5B497044FFF780FB062840F042
:101120006983534B089A83F87520099AA3F87620AF
:10113000D9F800201A673A6883F874202A6883F87F
:1011400078200320226883F86C8083F8792007F0E8
:101150009FF8002840F04E834B48FFF779FC4B483E
:1011600093E64FF00108C6E7494920460AF0BBFC68
:1011700084420CD13E49B1F8C25091F8803091F8C8
:101180007C200195B1F87E100091424996E64249D3
:1011900020460AF0A8FC84422BD1354C4FF4FC7257
:1011A000214634A80EAD0CAF09F09BFA01950097CB
:1011B0000BAB0AAA39490DF15600FFF72FFB0428A3
:1011C00040F018830A9B84F87C300B9B84F88030B5
:1011D0003B68A4F87E3003202B68A4F8C23007F0E7
:1011E00057F8002840F006832748FFF731FC2C48C9
:1011F0004BE62C4920460AF076FC84425AD11C4921
:10120000294A91F8CA7191F8CCE191F8CEC1274DE5
:1012100091F8C88191F8CB9191F8C93191F8CDA19D
:1012200091F8CF110591012F0CBF17462F46BEF143
:10123000010F0CBF9646AE46BCF1010F0CBF9446A1
:10124000AC46CDF810C0CDF80CA08DE88042B8F1C6
:10125000010F18BF2A46164925E700BF9A02020867
:10126000501C00209F020208B4020208C8020208B3
:101270008C1B0020B9010208C3F70108D002020844
:10128000FF020208070302082F03020833030208C3
:101290004A03020851030208720302087903020894
:1012A00099030208AF030208BD010208C001020849
:1012B000B5030208C14920460AF015FC84424AD110
:1012C0004FF4FC72BE49DFF83C83DFF83C93DFF853
:1012D0003CA334A809F005FA00270DF1590B0223AD
:1012E0002C2259460CA8FFF762FC041E40F38282B0
:1012F00041460CA80AF0F7FB054650BB49460CA82E
:101300000AF0F1FB002800F075820134A3440EAA14
:1013100051465846FFF782FA012840F06B820E9A38
:10132000042A00F36782A64B3B440237082F83F858
:10133000C85183F8C9210BF1070BD0D1032006F067
:10134000A7FF002840F056829E48FFF781FB9E4889
:101350009BE50125D9E79D4920460AF0C4FB84425C
:1013600026D1974B93ED756AD3ED766AF2EE047A47
:1013700026EE277A66EEA77ABDEEC77AFDEEE77A0B
:101380000A2117EE902A17EE103A92FBF1F5FDEEC6
:10139000E66AFDEEC67A01FB152293FBF1F7019296
:1013A00001FB1733CDED006A17EE902A884985E5D9
:1013B000884920460AF097FB844221D1804C4FF4A3
:1013C000FC72214634A809F08CF90EAB0CAA8249B4
:1013D0000DF15500FFF722FA022840F00B820C9B1A
:1013E000C4F8D4310E9BC4F8D831032006F050FF66
:1013F000002840F0FF817348FFF72AFB774844E557
:10140000774920460AF06FFB844209D1754A019260
:10141000A2F1100300937449A2F12003303A4DE584
:10142000724920460AF05FFB84425ED14FF4FC72A1
:101430006349DFF88C9134A80EAF09F052F90F23FD
:101440003B220DF159013846FFF7B1FB0546002854
:1014500000F0D081024609F5F271384609F032F900
:1014600038B12A466249384609F02CF9002840F084
:10147000C18105350DF159031D444FF0000A0F23BA
:10148000292229463846FFF792FBB0F10008C0F246
:10149000B181002444451ED10AF18108C8441022BC
:1014A0000021404609F028F91CB1394640460AF0AF
:1014B000E9FA0AF1100A0634BAF1400F2544DED1E8
:1014C000032006F0E5FE002840F094813D48FFF738
:1014D000BFFA4848D9E409F0C5F83B5D18444378A1
:1014E0005A0740F187810134D4E7434920460AF086
:1014F000FAFA844222D1DFF8C880DFF81491DFF8CD
:1015000014A10127254698F812308BB198F81330B2
:101510003A46514628460AF005FA0137092F054494
:1015200008F10208EFD13549681E0AF0ABFAC7E4AA
:101530003A46494628460AF0F5F9EEE73049204692
:101540000AF0D1FA844267D14FF4FC721C491C4D59
:10155000DFF8B8A034A809F0C4F805F1100916AFF7
:101560000DF138080323292239464046FFF71FFBB7
:10157000B0F1000BC0F23E8100245C450FD1CCB12C
:101580000CAA514640460AF0F1F90C9BEB7401237A
:10159000AB7402350634A9452744E3D190E709F03E
:1015A00061F818F80430184443785B0740F1228151
:1015B0000134E2E7EC74AC74EBE700BFE20302082D
:1015C0008C1B00202F030208E8030208FD03020819
:1015D000030402081A040208200402083004020866
:1015E000450402083D1C00204F0402087004020854
:1015F0007A040208830402089C040208E00302083B
:10160000B3040208BD010208C0010208390802083B
:10161000AB040208A10402089C4920460AF063FAC0
:1016200084420ED19A490D8A0B89CA880395CD89C7
:1016300002958D8901954989009196490AF072F9C0
:101640003EE4954920460AF04EFA844236D1904C49
:101650004FF4FC72214634A80EAD0CAF0DF12C08EE
:101660000DF1280909F03DF803950297CDF80480A3
:10167000CDF8009009AB08AA88490DF15700FFF793
:10168000CDF8062840F0B680089BE380099B2381B3
:10169000D9F800306381D8F80030A3813B68E3813A
:1016A00003202B68238206F0F3FD002840F0A2807F
:1016B0007B48FFF7CDF97B48FFF7E7BB7A49204627
:1016C0000AF011FA844222D17149784A91F8E33143
:1016D00091F8DC5191F8DD71059391F8E2310493B2
:1016E00091F8E131039391F8E031029391F8DF3101
:1016F000019391F8DE3100936D4B6E49002F08BFC6
:1017000013466D4A002D08BF0A466C49CBE46C496C
:1017100020460AF0E8F9844277D14FF4FC725C4924
:1017200034A808F0DEFF03233B220DF15A010CA878
:10173000FFF73DFA041E5DDD5F490CA80AF0D3F9FE
:101740000746002852D15B490CA80AF0CCF90028C2
:1017500050D00DF15A03053403EB04083B22062355
:1017600041460CA8FFF723FA051E43DD50490CA89B
:101770000AF0B9F9044600283AD14C490CA80AF0FD
:10178000B2F9002836D013AB039312AB029311AB1E
:101790000193013510AB00930EAA0FAB494908EB3A
:1017A0000500FFF73BF8062824D1394B0E9A83F841
:1017B000DE210F9A83F8DF21109A83F8E021119A35
:1017C00083F8E121129A83F8E2210320139A83F827
:1017D000DC7183F8DD4183F8E32106F059FD48B957
:1017E0002F48FFF735F93848FFF74FBB0127B0E71F
:1017F0000124C8E74FF4FC7234A9254808F071FFB2
:101800003248FFF725F9FFF778BA314920460AF048
:101810006AF9844209D12F494B788A780978009176
:101820002D490AF07FF8FFF74BBB2C4920460AF000
:101830005AF9844204D12A4B194807221A70E0E76A
:101840002B68042B3FF759AA264B019300230093E2
:1018500040F2855204232449244806F0D1FAFFF7C8
:101860004CBA092B7FF462AA214A12680823032A82
:1018700033703FF75BAA02931E4B01930023009342
:1018800040F296520323FFF74DBA00BFB804020896
:101890008C1B0020C0040208DE040208E6040208D3
:1018A0002F030208030502081A050208B201020804
:1018B000AD010208B9010208C3F7010825050208B5
:1018C0004E050208E80802085905020872020208DB
:1018D0007305020890EA00207C05020898050208BA
:1018E0006C1A00209F05020839060208BDFA01089B
:1018F00038230120FC010208014B1868FAF74EBF9B
:10190000DC3B01202DE9F04F894BADF51F7D4FF4F5
:101910007A711868FAF762FE4FF0FF32012108A8C9
:10192000FAF7B0FE089B082BF6D1099BDA07F3D52E
:10193000804DDFF8588298F80830DB0704D57E4BDD
:1019400004211868FAF774FE7C4CFFF74BF92378F2
:10195000032B69D97A4E3378002B65D008F02AF82A
:1019600008B1062333703378013B062B5CD8DFE8DF
:1019700013F007000B001F003A004500CD00DC000B
:1019800008F040F8022311E0DFF804926D4F0321C4
:10199000484607F015FF38704FF47A70FAF706FEE4
:1019A00097F90030002BF2D019DD032333703BE0B0
:1019B000DFF89891634F4946387807F071FF60B1BE
:1019C00099F80030012B01D10523EFE7022B01D15B
:1019D0000623EBE743BB0423E8E797F90030013324
:1019E00022D10123E2E7584803F0F8F9554B187863
:1019F00007F078FFC0B1554B5870E5E75448DFF861
:101A00004C9103F0EBF91E2199F8010007F088FFD3
:101A100007460028F7D001286DD14E4803F0DEF9C3
:101A20000623337088F855702378042B9EBF4A4BE9
:101A300005221A70494B4FF47A711868FAF786FE3E
:101A400070B1474B1B68052B0ADC464B0193002302
:101A500000934FF4C96205234349444806F0D0F986
:101A6000FEF7A4FE424E434F01280CBF3389F38892
:101A70003A6803EB430301329A423A6025D93B6846
:101A8000B42B22D9DFF8D890D9F800200023042AFB
:101A90003B6009DC384A0192009340F24E62042315
:101AA0003149324806F0ACF9D9F800200023042A65
:101AB00023700ADC314A0293019200934FF4CA6208
:101AC00004232949294806F09BF92D4A13789146A9
:101AD00003B9237023780A2B01F26B85DFE813F03A
:101AE0005A00B60034031A04DB048E061307AF084D
:101AF0008E09C409B30A471C96D1224803F06EF937
:101B0000002389F8013089F800306AE707F048FFC0
:101B100038B9022333700D4B88F85500587018708F
:101B200082E7194803F05AF97EE707F08FFF29E7AB
:101B3000043C012016630120003C012024180120F0
:101B40006C1A002001180120F2FA01080218012085
:101B50000CFB010838FB01086D1A0020DC3B01205A
:101B6000382301209FFB010839060208C6FA010844
:101B70008C1B002050EB0020BAFB0108FC0102087E
:101B80005E1A002054FB010878FB010890EA00204F
:101B90006A1D00200220FCF7E9FF874B00261E602B
:101BA0005E609E60854B1E6007F004FB07F012FB31
:101BB00058B107F007FB31464FF4FA6007F016FB07
:101BC0006420FAF7F3FC07F0F5FA07F031FB7C4EDE
:101BD00099F800306BB34FF49670FAF7E7FC07F012
:101BE0001FFB4FF42F70FAF7E1FC07F0EBFA40F21D
:101BF000DC50FAF7DBFC07F0DDFA012140F6B830E3
:101C000007F0F4FA00283FF494AE6E4A12680123FC
:101C1000032A23703FF78DAE02936B4B0193002391
:101C2000009340F2836203236849694806F0E8F8AC
:101C30007FE64FF47A70FAF7B9FC04213068FAF7BE
:101C4000F7FC4FF0FF30FCF791FFC1E7DFF86C9134
:101C5000D9F800301BB9584A1360536093600220D2
:101C6000FCF784FF07F024FA564F30B33B68042B8F
:101C70000ADC584B0193002300934FF4D2620423F3
:101C80005249534806F0BCF8D9F800300133092B0B
:101C900002D8C9F800304CE60023C9F800303A6891
:101CA0000023052A23703FF744AE474A029301926E
:101CB000009340F204720523B6E73B68C9F80000C0
:101CC000032B09DC444B41498DE8090040F29D6239
:101CD00003233F4806F094F898F80830DFF80491A1
:101CE00043F0010388F8083000214FF4FA73012211
:101CF000484607F091F9D0F800A03849504609F05D
:101D0000F2FE88B93B68052BC9DC354BCDF80CA039
:101D10008DE80900CDF80890052340F2A3622B4915
:101D20002B4806F06DF8BAE796F8DC31DFF8B8908A
:101D300013B107F02BFD022389F80030DFF8AC90D7
:101D400000214FF4FA730122484607F065F9D0F8F4
:101D500000A02249504609F0C6FE68B93B68052B31
:101D60009DDC1F4BCDF80CA08DE80900CDF8089044
:101D7000052340F2B362D2E7DFF8749000214FF4FC
:101D8000FA730122484607F047F9D0F800A013493A
:101D9000504609F0A8FE68BB3B68052B3FF77FAFB4
:101DA0000F4BCDF80CA08DE80900CDF80890052365
:101DB00040F2BA62B3E700BF98EA0020E0070120D2
:101DC000003C012038230120FC01020839060208EA
:101DD000C6FA0108D5FB0108EBFB0108E01F020869
:101DE00052060208FDFB01086C1A002008FC0108DD
:101DF00013FC010800214FF4FA730222B74807F0E0
:101E00000BF9B7498146806809F06DFE00287FD044
:101E1000B44B99E80600184608F063FCD9F80410A2
:101E2000C8F80C0000224254AF4909780129034642
:101E3000804610D11E92D9F80400AC4906381EAA7B
:101E40001844FEF7EBFC1E9B32689A4203D0032035
:101E5000336006F01DFAA649A648F2F7C1F9C0BBE7
:101E6000014603460DF1380918F80320303A49F8C5
:101E7000232001330F2B1144F6D100220DF17808F5
:101E80004FF00A0C59F8223002F1010E03FB01E376
:101E90004B4093FBFCFA0CFB1A3348F82230724695
:101EA0000F2AEFD1944A24A951F8043F30338354C8
:101EB00001300828F8D100238D498F481372F2F7BA
:101EC0008FF930B18C498B4809F0DCFD032006F016
:101ED000DFF900214FF4FA730122884807F09CF8DB
:101EE000D0F800807E49404609F0FDFDF8B93B6816
:101EF000052B3FF7D4AE824B0293824BCDF80C807A
:101F00008DE809004FF4217205237F497F4808E7D7
:101F10003B68052B3FF7C3AE7D4B7B498DE809003D
:101F20007C48052340F2DA6205F06AFFB7E6DFF885
:101F30000C9279494FF4FA730222484607F06CF884
:101F400067498046806809F0CEFD78B93B68052B6B
:101F50003FF7A5AED8F8003003936A4BCDF8089050
:101F60008DE8090040F28B220523CEE7D8F8001057
:101F7000DFF8CCA1DFF8CCB11EA809F083FD4FF04B
:101F800001090DF178086549404609F0ACFD0028CB
:101F90004DD000F10208152200210EA808F0ACFB7C
:101FA0000EAA5F494046FEF739FCB9F1010F31D165
:101FB0005C494A460EA8FEF7FBFC00287FF46FAE92
:101FC00009F10109B9F11F0F0AF1100ADBD196F8E6
:101FD000DC3113B196F8DD31B3B3534E00214FF429
:101FE000FA730122304607F017F8D0F800803C4918
:101FF000404609F078FD38BB3B68052B3FF74FAEF4
:10200000404BCDF80C808DE809000296052340F284
:10201000E76284E6A9F10203032B5FFA89F204DC8C
:102020009AF800300BB15146C4E75946C2E73B6805
:10203000052B3FF734AE3D4B33498DE809004FF493
:102040002D72052331486FE7394E00214FF4FA73A2
:102050000122304606F0E0FFD0F8008020494046DB
:1020600009F041FD68B93B68052B3FF718AE254BD9
:10207000CDF80C808DE80900029605234FF4DE624E
:102080004DE62C4E00214FF4FA730122304606F043
:10209000C3FFD0F800801249404609F024FD68B91A
:1020A0003B68052B3FF7FBAD164BCDF80C808DE858
:1020B00009000296052340F2F76230E63A680223EF
:1020C000032A23703FF735AC02931B4B0193002387
:1020D000009340F2FE620323A6E500BF1FFC010847
:1020E000E01F0208041801201261012035210208B6
:1020F0007A040208701D0020251801202FFC010819
:1021000040FC01085206020839060208ABFA010831
:1021100027FC0108C6FA010851FC0108D401020895
:102120006FFC010875FC01089CFC010885FC010896
:10213000A4FC0108B1FC0108FC0102085FFC0108D5
:10214000FD1B002081FC01080220FCF70FFD07F0B9
:1021500077F80130A34E0DD132680023052A237091
:102160003FF7E7ABA04A02930192009340F20D7251
:10217000052359E59D4FFEF757FC3A685AB998F880
:10218000083062F3410362F3820362F3C30362F334
:10219000041388F80830DFF87CA20220FCF7E6FC84
:1021A00041F2883302229249504606F035FF8146BB
:1021B0000220FCF7DBFCD9F800B08E49584609F044
:1021C00092FC814610B33368032B0ADC8A4B0193DF
:1021D0000023009340F2227203238849884805F0C7
:1021E0000FFE98F80830316843F0020388F8083091
:1021F0000323002299423A6023703FF79AAB7A4951
:1022000000920293019140F251720DE57D495846CA
:1022100009F069FC002860D00DF1780A4B467A4A33
:102220001021504609F04AFB0220FCF79FFC41F2C6
:10223000883301224946504606F0EEFE83460220CE
:10224000FCF794FCDBF800B07049584609F04BFCF1
:10225000336858B3032B0ADC6D4B0193CDF8009023
:10226000032340F22E726549654805F0C9FD02203E
:10227000FCF77CFC5E49674841F28833022206F095
:10228000CBFE81460220FCF771FC5A49D9F80000C8
:1022900009F029FCD0B13368032BA2DC564B019323
:1022A0000023009340F23572032396E7042B0DDCE4
:1022B000594BCDF80CB08DE80900CDF808A00423E7
:1022C00040F23B724D494E4805F09AFD3B680133A0
:1022D000042B10D83B60FFF72CBB3368042BF5DCD4
:1022E0004D4BCDF80CB08DE80900CDF808A00423C3
:1022F00040F23F72E6E732680023052A3B60237014
:102300003FF717AB384A02930192009340F24772AD
:10231000052389E40220FCF729FC06F091FF013037
:10232000304E0DD132680023052A23703FF701ABF0
:102330002D4A02930192009340F25A72052373E4EE
:10234000364F4FF4FA70FAF731F9FEF76DFB0021C2
:102350004FF4FA730122384606F05EFED0F8008092
:102360002A49404609F0BFFBE8B93368052B0CDC6D
:10237000294BCDF80C808DE809000297052340F227
:1023800065721E491E4805F03BFD32680023052A90
:1023900023703FF7CEAA144A02930192009340F2B1
:1023A0008372052340E41E4F0220FCF7DFFB00216F
:1023B0004FF4FA730122384606F02EFED0F8008062
:1023C0001249404609F08FFB60BB3368052BDCDC0B
:1023D000114BCDF80C808DE809000297052340F2DF
:1023E0006D72CEE738230120FC010208E0070120CE
:1023F000BEFC0108CEFC0108DBFC0108390602081E
:10240000C6FA0108E8FC0108F7FC0108E01F020811
:1024100005FD0108C4FC01085206020810FD010870
:102420001BFD01080220FCF7A1FBBA4F4FF47A70A4
:10243000FAF7BCF80220FCF799FB00214FF4FA737D
:102440000122384606F0E8FDD0F80080B249404647
:1024500009F049FB78B93368042B0CDCAF4BCDF89D
:102460000C808DE809000297042340F27972AC4990
:10247000AC4805F0C5FC32680423032A23703FF7FB
:1024800058AA0293A84B01930023009340F27D7257
:102490000323FFF7C9BB0220FCF768FB06F0D0FE60
:1024A0000130A24F0ED13A680023052A23703FF76E
:1024B00040AA9D4A02930192009340F28D72052337
:1024C000FFF7B2BBDFF87492FEF7AEFAD9F800302E
:1024D0004BB998F8082063F3820263F3C30263F3F5
:1024E000041288F8082001335A2BC9F8003000F292
:1024F000C8800220FCF73AFB8D498E4841F28833B0
:10250000022206F089FD80460220FCF72FFB8A4953
:10251000D8F8000009F0E7FAA0B93A680223052AC2
:1025200023700ADC0293804B40F2A4728DE809000C
:1025300005237B497B4805F063FC804B00221A6031
:10254000FFF7F7B97E497F484FF4FA73022206F08D
:1025500063FD7D498246006809F0C5FA90B13B6889
:10256000032B0CDC794B0293794B019300230093EE
:1025700040F2AF7203236A496A4805F041FC4FF00C
:10258000010800E08046DAF800A07249504609F0E0
:10259000AAFA002800F08A803B68032B0CDC6E4B03
:1025A00002936B4B01930023009340F2B372032319
:1025B0005B495C4805F024FC102200216748DFF8E5
:1025C000C08108F099F8052388F8003000214FF405
:1025D000FA730222624806F01FFD4F498246806866
:1025E00009F081FAA8B19AE806005C4808F079F889
:1025F00003225C49594808F065F8002840F0E08063
:1026000002225949594808F05DF8002877D188F826
:10261000000098F80020052A1BD10DF1780A4FF030
:10262000000B4E49CDF878B05046ADF87CB009F0BB
:1026300045FA3B68042B0CDC4D4B0193CDF808A008
:10264000CDF800B0042340F2DC723549354805F07E
:10265000D7FB96F8C430474A002B00F0C38096F8A9
:10266000E800454B1360002803F1240108BF002156
:10267000516096F80011002903F13C0308BF0023C4
:10268000936000260220C9F80060FCF76FFA3A68F0
:102690000523032A23703FF74CA90293224B019391
:1026A0000096032340F2FD72FFF7BEBAB8F1000FA7
:1026B00082D13B68042B0EDC224B0293174B019313
:1026C000CDF80CA0CDF80080042340F2EB72144941
:1026D000144805F095FBD9F80030592B7FF629A94D
:1026E0003A680223052A23703FF727AF02930E4B67
:1026F00001930023009340F2EF72052319E70222B1
:102700001E491A4807F0DEFFE0BB012388F80030BD
:102710007FE700BFE8010208E01F02085206020836
:1027200039060208C6FA0108FC0102083823012014
:10273000BEFC0108C4FC0108CEFC0108E007012032
:102740002AFD010830FD01083AFD010845FD010898
:102750004AFD010861FD01086CFD01081418012003
:1027600074FD01087DFD0108DB080208171801202F
:1027700094FD0108D4EB0020501C002081FD0108CD
:102780006D1A00200222B349B34807F09BFF28B11D
:102790000222B249B04807F095FF08B90223B5E715
:1027A0000222AF49AC4807F08DFF38B10222AD4993
:1027B000A94807F087FF00287FF42BAF0323A5E784
:1027C0000322A949A94807F07DFF00287FF421AF23
:1027D0000222A749A04807F075FF00287FF419AF2F
:1027E000042393E798F80010A2480C234B43C11828
:1027F000C35813604B6853608B6841E70220FCF7B5
:10280000B5F906F01DFD01309B4E0ED13268002354
:10281000052A23703FF78DA8984A029301920093EE
:1028200040F606020523FFF7FFB9954FFEF7FCF8C7
:10283000396879B998F80830924861F3820361F3F6
:10284000C30361F3041388F80830012241F288338E
:1028500006F0E2FB3B6801330F2B3B601CD80220E3
:10286000FCF784F941F2883302228749874806F051
:10287000D3FB8749006809F036F9336820B3032B8E
:102880000ADC844B01930023009340F621020323CA
:102890008149824805F0B4FA98F80830316843F06D
:1028A0000403002288F8083003294FF006033A6039
:1028B00023703FF73EA80293704B8DE80C00032372
:1028C00040F63402FFF7B0B9042B09DC744B7249AF
:1028D0008DE8090040F624020423704805F090FAC0
:1028E0003B680F2B7FF425A832680423052A237048
:1028F0003FF723AE0293614B01930023009340F610
:102900002802052315E60220FCF730F906F098FCB2
:1029100001300FD1584A12680023052A23703FF76F
:1029200008A8564A02930192009340F63D020523FF
:10293000FFF77AB9524EFEF777F83768002F40F06C
:102940004D81584BDF7098F8083067F3C30367F385
:10295000041388F8083006F0BDFCF8B1464B1B683C
:10296000052B09DC504B01930097052340F64C02E0
:1029700049494A4805F044FA3F49096800230422BE
:102980000529336022703EF7D4AF02923B4A019290
:10299000009340F6B7020523FFF746B90220FCF783
:1029A000E5F84FF4FA7302224049414806F034FB3F
:1029B0004049006809F097F80146F8B9DFF80C8142
:1029C0004FF4FA730122404606F026FB07683A49A5
:1029D000384609F088F888B9274B1B68052BCBDCF3
:1029E000364B03978DE80900CDF80880052340F6A3
:1029F00057022949294805F003FABDE74FF4FA7355
:102A000002222F492F4806F007FB2F49006809F0E2
:102A10006AF8014600285DD1DFF8B4804FF4FA73FC
:102A20000122404606F0F8FA07682349384609F0C3
:102A30005AF800284ED1104B1B68052B9CDC1F4B0D
:102A400003978DE80900CDF80880052340F6610260
:102A5000CFE700BF84FD01081718012087FD01089A
:102A60008AFD01088DFD010890FD01081418012060
:102A700081FD01084C01020838230120FC010208F5
:102A8000E0070120A9FD0108B5FD0108BCFD010812
:102A9000C7FD0108D1FD010839060208C6FA010880
:102AA000DFFD0108A03A0120EDFD0108FBFD010852
:102AB00003FE01080FFE0108E01F0208520602088B
:102AC00027FE010830FE01083DFE01081AFE01083C
:102AD00049FE01084FF4FA730222B149B14806F0E9
:102AE0009BFAB149006808F0FEFF0146E0B9DFF843
:102AF00004834FF4FA730122404606F08DFA07680A
:102B0000AA49384608F0EFFF70B9A94B1B68052B9E
:102B10003FF732AFA74B03978DE80900CDF8088047
:102B2000052340F66B0264E7A34F542200211EA840
:102B300007F0E2FD3A68A1491EA808F0F3FED7F8B5
:102B40000480B8F1000F0BD0BF684FB11EA8F1F799
:102B500051FB3B461EAF42469949384408F0E2FE1D
:102B60009849DFF894821EA808F06FFF4FF4FA73BB
:102B7000012200211EA806F04FFA0220FBF7F6FF03
:102B8000002141F288330122404606F045FA0768E9
:102B90008649384608F0A7FF00BB854E3368052BF1
:102BA0000CDC844B03978DE80900CDF808800523E1
:102BB00040F683028449854805F022F932680423EF
:102BC000052A23703EF7B5AE0293814B0193002393
:102BD000009340F685020523FFF726B833680133DA
:102BE000552B336011D80220FBF7C0FF4FF47A73E6
:102BF00001220021774806F00FFA4368073B082BB3
:102C00004FF0020013D8FBF7B1FF694909680023B0
:102C100007220329336022703EF78BAE02926C4A82
:102C2000019200934FF40B620323FEF7FDBFFBF705
:102C30009DFF3368542B3FF69FAEFEF77ABE02200D
:102C4000FBF794FF06F0FCFA0130594F0ED13A68B9
:102C50000023052A23703EF76CAE5D4A0293019271
:102C600000934FF40C620523FEF7DEBF98F808309E
:102C700003F0F7036FF3041388F80830FDF7D4FE70
:102C800044F62063B6F83C215349002006F052FB7D
:102C90008146E8B13B68052B0ADC504B01930023C9
:102CA000009340F6CB0205234749484805F0A8F8B1
:102CB0003A680823052A23703EF73BAE0293444B43
:102CC00001930023009340F6FB020523FEF7ACBFFF
:102CD000434B4FF0010A83F803A098F8083043F003
:102CE000080388F8083004F013FFB0B142F2107303
:102CF000B6F8C4213B49504606F01CFB68B13B685E
:102D0000042B0ADC384B0193CDF80090042340F6E5
:102D1000D7022D492D4805F073F834493448FCF7A3
:102D2000FBFD43F69823024630490020FDF79AFD4B
:102D300080460028BCD196F840317BB93A68092317
:102D4000032A23703EF7F5AD0293214B0193002334
:102D5000009340F6F6020323FEF766BF01464FF4E8
:102D60008062224807F0C8FC20494FF4FA624046CE
:102D7000FDF70AFF01461D48FCF730FE002897D1F9
:102D80003379002BDAD119494FF47A72FDF7FCFE42
:102D900001461648FCF722FE002889D1CEE700BF85
:102DA00057FE010860FE01086DFE0108E01F0208E1
:102DB0003823012052060208D4EB002087FE0108C8
:102DC00092FE0108F413020839060208C6FA010847
:102DD000FC010208A3FE0108A41C0020ADFE0108AE
:102DE000A03A01202C1D0020BFFE0108E0EB0020CE
:102DF0000418012079FE010899FE01080220FBF762
:102E0000B5FE06F01DFA01309A4E0ED1326800234D
:102E1000052A23703EF78DAD974A029301920093E5
:102E200040F604120523FEF7FFBEFDF7FDFD41F25B
:102E3000883301229149924806F0EEF80220FBF710
:102E400095FE904A31680023D37003294FF00402A5
:102E500022703EF76EAD0292874A0192009340F6CF
:102E600012120323FEF7E0BE0220FBF77FFE06F0FE
:102E7000E7F901300FD17F4A12680023052A237039
:102E80003EF757AD7C4A02930192009340F622121E
:102E90000523FEF7C9BEDFF804920122494600204F
:102EA000FDF772FE8246002800F0A283FDF734FE93
:102EB000F3E798F80830C7F800A043F0100388F84B
:102EC00008303379012B39D101226F491EA808F04F
:102ED00029FD6E494FF4FA7302221EA806F09CF8F1
:102EE0006B490446806808F0FEFD38B369492068E4
:102EF00008F0F9FD10B36848F1F77CF941F2883326
:102F0000024665490120FDF7ADFC0446002851D179
:102F100041F288334A4661490120FDF7A3FC68B1BC
:102F2000544B1B68052B09DC5D4B01930094052372
:102F300040F656125B495C4804F062FF41F2883269
:102F400056490020FDF720FE08B1FDF7E5FD0122FE
:102F50004D491EA808F0E6FC4C494FF4FA730222D2
:102F60001EA806F059F84A490446806808F0BBFDDF
:102F700000283EF4DEAC4749206808F0B4FD002884
:102F80003EF4D7AC494C23782746002B2FD023782A
:102F9000002B3EF4CEAC4548F1F72CF942F2107309
:102FA000024642490120FDF75DFC002839D120701E
:102FB000FEF7BFBC2F4B1B68052BBFDC384B0193C2
:102FC0000023009340F65A120523B3E7294A1268FA
:102FD0000823052A23703EF7ACAC0293264B0193DD
:102FE0000023009340F669120523FEF71DBEDFF8AB
:102FF000A890DFF8C0A00626A04604F089FD0028AE
:10300000C5D004F073FD834640B14046F1F7F2F8B5
:103010005B464A465146384408F084FC013EECD1F8
:10302000B5E7144B1B68052B3EF783AC204B01938F
:103030000023009340F6861205231A491A4804F02B
:10304000DFFEFEF776BC0220FBF790FD06F0F8F8F5
:10305000013031D1074A12680023052A23703EF758
:1030600068AC054A02930192009340F6951205233D
:10307000FEF7DABD38230120FC010208E2FE010858
:10308000EBFE0108A03A0120F8FE010809FF010843
:10309000E01F020814FF010804180120E0EB0020E3
:1030A0003AFF010839060208C6FA0108E0030120C8
:1030B00050FF01084AFF0108B94BBA48BA4C012237
:1030C0001A70F8F77FF9B748F8F77CF9B74B18682A
:1030D000FAF752FEB64B1868FAF74EFEB54B186871
:1030E000FAF74AFE4FF0FF30FBF740FD2046F8F7B5
:1030F00069F90023B0482B70FDF74AFCC821AE489F
:10310000FDF7ECFC002840F0FD81C821AB48FDF73D
:10311000E5FC002840F0F981A948FDF739FCC821F9
:10312000A748FDF7DBFC002840F0F2814FF4FA716C
:10313000A248FDF7D3FC002840F0ED81A148FDF73F
:1031400027FC4FF47A719D48FDF7C8FC002840F039
:10315000E5814FF4E13320466360F7F7CDFD964FEC
:10316000DFF85882984E14243846FDF711FC4FF4CE
:10317000FA714046FDF7B2FC002800F0DB823046D1
:1031800001F02CFE6420F1F773FF013C4FF0FF309B
:10319000FBF7ECFC14F0FF04E6D140F6D1120EACC4
:1031A0008A49204608F0BEFB2046FDF779FC884B93
:1031B0001B68062B09DC002300930194062340F6CC
:1031C000AA228449844804F01BFE4FF4FA60F9F700
:1031D000EDF90020FDF7F0FAFEF7ABBBA368002B7A
:1031E00000F0C8827D490EA808F09CFB0EA8FDF7F0
:1031F000CFFB4FF47A717148FDF770FC002840F066
:1032000096817749A2680EA808F08CFB0EA8FDF7FE
:10321000BFFB4FF47A716948FDF760FC002800F0AD
:10322000A98240F6E212BAE74FF0FF30FBF79EFCAE
:103230006C492B20FDF792FB002840F0B181C8219A
:103240006948FDF74BFC002840F0AD81C820FDF730
:10325000F7FA312804D0322837D040F691229EE781
:10326000C8216248FDF73AFC002840F0E480059050
:10327000C820FDF7E5FA322181460A20FDF76EFBF2
:10328000B9F1310F059B0BD147B940F2B4525849FF
:103290000EA808F047FB0EA8FDF77AFB012755E3BF
:1032A000B9F1300F6CD04A4A1268052A00F35683F0
:1032B000504A01920093CDF80890052340F6582219
:1032C0004449454804F09CFD48E3C8214748FDF7C0
:1032D00005FC002840F0B28028702F46C82201214A
:1032E0003846B946FDF742FC002840F0AA80424B20
:1032F000BB4200F0A98099F800300A2B07F10107C2
:10330000ECD11E901EAA3D492846FDF787FA0128F8
:1033100040F09D801E9B002BB7D0F1F7C1FE41F21B
:10332000883282461E992846FDF720FC002840F08E
:1033300091804FF0FF30FBF719FC314B1E9F1B783B
:10334000012B04D0022B5FD040F6782227E70CB97E
:10335000FDF708F904F100603A46294600F104102F
:10336000FDF720F90028EFD11E9A264814440136B3
:103370002346314601F032FDDBF810309C4284D107
:10338000D8F810309C4240F0E9821D4F07943B78FA
:10339000012B62D0022B00F0918040F69822FEE6CD
:1033A000D0EB00203C3F01207C3F0120CC3B0120A2
:1033B000A43B0120B43B01205FFF010863FF01082B
:1033C0006AFF010870FF01087FFF01080901020878
:1033D0003823012039060208C6FA0108B8FF01089F
:1033E000CEFF0108905F0100A50002089A100208B4
:1033F000AE000208BE0002081C6301203908020862
:1034000000080120CE000208DFF820930CB9C9F8AB
:103410000040D9F800300593C3F58052974293D805
:10342000AE483A462946204407F05BF9059B1F4405
:10343000C9F8007098E740F64622B0E640F66222EE
:10344000ADE640F66922AAE640F66B22A7E640F612
:103450006F22A4E640F67422A1E6043C042207A9E8
:103460009F480794FDF79EF8002896D19D4B397828
:103470009D4A00261E709D4B0EAC012918BF1A46AE
:1034800020469B4908F04EFA2046FDF709FB994B70
:103490001B68062B08DC0194009606234FF42A6271
:1034A0009549964804F0ACFC4FF4FA60F9F77EF8C1
:1034B0000020FDF781F94FF0FF3270E64FF4FC7207
:1034C00000211EA807F018F98448002306AA1EA9A7
:1034D000ADF81830035501F095FC00287FF45DAF7E
:1034E000F9F7C0FA1EA94FF4FC72854807F0F9F805
:1034F000844BBDF818201A80F9F7D6FA032004F09F
:10350000C7FEB1E740F6B51249E640F6B61246E608
:1035100040F6BA1243E640F6BB1240E640F6BF1250
:103520003DE640F6D9123AE640F6E61237E640F6B6
:10353000DE1234E640F6EB1231E640F6ED122EE6EE
:1035400040F6EE122BE640F6F31228E640F6F712AC
:1035500025E640F6FB1222E640F6FF121FE640F693
:1035600003221CE640F6062219E640F60A2216E679
:103570004FF4216213E640F6132210E640F61422BF
:103580000DE640F61C220AE640F61E2207E640F64B
:10359000212204E640F6232201E640F62A22FEE537
:1035A00040F63F22FBE54FF42462F8E540F6D512E1
:1035B000F5E5504E3268052A0BDC0293524B01931D
:1035C0000023009340F6B32205234B494B4804F0F7
:1035D00017FC32680023032A23703EF7AAA94B4A3E
:1035E00002930192009340F6B6220323FEF71CBB20
:1035F000FDF71AFA98F8112096F87C309A42FEF4FA
:1036000098A9524642491EA808F08CF941494FF446
:10361000FA7302221EA805F0FFFC3F49814680682C
:1036200008F061FA00283FF4D1AC3C49D9F8000019
:1036300008F059FA00283FF4C9ACDFF8F4900122F1
:10364000D9F800100BA8F9F735F90B9B102B7FF474
:103650007EAC0122D9F800100EA8F9F7F1F80E9B04
:10366000102B7FF474ACDDF83CB0BBF1000F3FF4DD
:103670006EAC59462A4851F8049B4A4607F031F887
:103680005846F9F7DBFBB9F1000F3FF460AC49464F
:10369000244801F0A3FB43F698234A4620495046AC
:1036A000FDF7E0F8204B824601460A221868F9F738
:1036B0009FF8BAF1000F3FF4FCAB0E4A12680823E2
:1036C000052A23703EF735A90293104B019300237E
:1036D000009340F641120523FEF7A6BA0108012027
:1036E00000000408E8070120CFFA0108E3FA010806
:1036F000FD0002083823012039060208C6FA010835
:103700008C1B00201261012018010208FC01020834
:10371000F8FE010809FF0108E01F020814FF010874
:10372000E0EB00201EFF0108F83B0120E407012028
:10373000D03B01208B48FDF72BF94FF47A718A4872
:10374000FDF7CCF900287FF431AF884C8849226816
:103750000EA808F0E7F80EA8FDF71AF94FF47A71F1
:103760008148FDF7BBF900287FF4DBAE6268002AD0
:103770007FF434AD7F48FDF70BF94FF47A717A4846
:10378000FDF7ACF900287FF4CFAE4FF0FF30FBF728
:10379000EDF97948FDF7FCF841F288317748FDF7FB
:1037A0009DF900287FF4C6AE64210A20FDF7D6F803
:1037B00000287FF4C2AE4FF47A716B48FDF78EF9A2
:1037C00000287FF4BDAE4FF0FF30FBF7CFF96C4817
:1037D000FDF7DEF84FF47A716348FDF77FF90028B2
:1037E0007FF4B1AE6749684A0EA808F09BF80EA8AE
:1037F000FDF7CEF84FF47A715B48FDF76FF90028BA
:103800007FF4A4AE6149624A0EA808F08BF80EA8B6
:10381000FDF7BEF84FF47A715348FDF75FF90028C1
:103820007FF497AE5B495C4A0EA808F07BF80EA8BF
:10383000FDF7AEF84FF47A714B48FDF74FF90028C9
:103840007FF48AAE5549564A0EA808F06BF80EA8C8
:10385000FDF79EF84FF47A714348FDF73FF90028D1
:103860007FF47DAE4F48FDF793F84FF47A713E48F0
:10387000FDF734F900287FF475AE4B494B4A0EA88A
:1038800008F050F80EA8FDF783F84FF47A71364827
:10389000FDF724F900287FF468AE4FF0FF30FBF706
:1038A00065F94348FDF774F84FF47A712E48FDF737
:1038B00015F900287FF45CAE3E492B20FDF74EF849
:1038C00000287FF458AEC8213B48FDF707F90028CF
:1038D0007FF454AEDFF8F880384E2870C8F8100036
:1038E000A6F10904C346C822012120462746FDF758
:1038F0003DF900287FF445AEA6423FF445AE3B7843
:103900000A2B04F10104EED12D4A2E492846FCF77A
:1039100085FF01287FF43BAED8F81030002B3FF430
:1039200039AE4FF0FF30FBF721F92748FDF730F8AB
:103930004FF4FA610C48FDF7D1F8064600287FF4F1
:103940002CAEF1F7ADFB374682463446F1F7A8FBC3
:103950001E4BA0EB0A0098427FF666AC40F695221B
:103960001DE400BF3101020863FF0108D4EB002011
:1039700095FF0108AAFF0108E3FF0108F1FF010814
:10398000FFFF01080C000208D01C00201B000208E9
:10399000F41C00202A000208FC1C0020370002084A
:1039A000141D00204400020855000208E807012009
:1039B0007E000208905F01008A0002081F63012058
:1039C000B03A0120390802089800020820BF02001E
:1039D000A03A0120F0B5484E484F89B03446F1F77F
:1039E0005FFB04AD306000227E212846F8F74AFED6
:1039F00095E80700082887E80700414A1CD18D0791
:103A000044BF33681360480742BF3E4B20681860CC
:103A10000B0742BF3C4B20681860CD0642BF3B4BB2
:103A200020681860880642BF394B206818604B0632
:103A300042BF384B2168196011682368364A591A09
:103A4000914221D82F490968591A914249D82E49E3
:103A50000968591A914246D82C490968591A914265
:103A600043D82B490968591A914240D82949096815
:103A70005B1A93423DD84FF0FF30FBF777F84FF4D5
:103A80007A70F8F793FDAAE7244C254B00211868BB
:103A9000F8F73FFF0146B8B9224B1868F8F739FF2D
:103AA00090B9214B1B68062B09DC204B02948DE852
:103AB0000900582206231E491E4804F0A1F91E4B96
:103AC00093ED010A00F050F8BFF34F8F1B491C4BD8
:103AD000CA6802F4E0621343CB60BFF34F8F00BFAC
:103AE000FDE7184CD1E7184CCFE7184CCDE7184C40
:103AF000CBE7184CC9E700BF4C1801205018012033
:103B0000681801205C180120481801204418012081
:103B10006018012064180120C0D40100DD060208ED
:103B2000E83B0120E03B012038230120F106020898
:103B3000E0060208AE0602081418002000ED00E0BE
:103B40000400FA05D9060208D3060208CF060208C7
:103B5000C6060208BB060208024B5A689A60FCF7C8
:103B6000DFBC00BF14180020094BD3ED7D7AF4EEC2
:103B7000407AF1EE10FA09D083ED7D0A054B1B78EF
:103B800013B1012004F084BB0320FBE7704700BFA2
:103B90008C1B0020D0EB002010B50C4C2DED028BBF
:103BA0004FF4FA712068B0EE408AF8F7B2FE50B9CF
:103BB000B0EE480AFFF7D8FFBDEC028B2068BDE8E5
:103BC0001040F8F79EBEBDEC028B10BDC03B01203B
:103BD00038B51C4D2DED028B4FF4FA712868F8F7BB
:103BE00098FE58BB9FED188AB0EE480A04F01EFDFF
:103BF000044640B14FF0FF342868F8F782FEBDEC70
:103C0000028B204638BD04F0D1FCB5EE400AF1EE3F
:103C100010FAEFD1EFF3108372B60C4A82ED018AED
:103C200082ED028A03B962B6FCF77AFC084B9FED7D
:103C3000060A83ED008AFFF7AFFFDDE74FF0FF34A0
:103C4000DDE700BFC03B0120000000001418002089
:103C5000701801203E4A38B513683E4C0133012BE1
:103C60002DED028B29D81360F1F71AFA3A4B3B4934
:103C70001A6894ED017AD4ED037A821A8A4277EEBB
:103C8000677A06D9F3EE046AF4EEE67AF1EE10FAFA
:103C900006DCDFED336AF4EEE67AF1EE10FA53DD7E
:103CA000186084ED037AFCF73BFCBDEC028B94EDCD
:103CB000010ABDE83840FFF76FBF0023294D1360AC
:103CC00004F074FCD5ED007AF4EEC07AF1EE10FA4F
:103CD000B0EE408AC8D5244B5B7D012BC4D0234B6A
:103CE0001B780BB185ED000AD5ED007A78EE677A86
:103CF000F5EEC07AF1EE10FA0CD4F5EE407AF1EE62
:103D000010FA07D094ED017A77EE277AC4ED017AA4
:103D1000FCF706FC164B94ED027AD4ED017AB3F869
:103D20007E3085ED008A77EEC77A07EE103AB8EE5E
:103D3000477AF0EEE77AF4EEC77AF1EE10FA93DB09
:103D40000120FCF75BFC8FE7BDEC028B38BD00BFA8
:103D50006C180120141800207418012080CBA400D6
:103D600000B808477018012090EA00205C1A002073
:103D70008C1B00202DE9F04F87B04FF0FF3201215E
:103D800003A8F8F77FFC039B082BF6D1049BDB0705
:103D9000F3D5554F554B4FF47A72196803A8F8F7CD
:103DA0004FFD039B102B05D0514B20211868F8F7CD
:103DB0003FFCEFE74FF47A713868049DF8F78AFC0E
:103DC000064600287FD108F067FD4A4CEDB2072176
:103DD000402D0246206021716671A64642D1464DB3
:103DE0000123A37130463346AA4604EB010C4FF081
:103DF000060B95F80C90B9F1070F14D803EB4308A4
:103E00000CEB4800013380F805900BFB06A9063146
:103E1000D9F807904CF8189095F80B8080F804803A
:103E2000DBB289B201200136082E05F10605E0D18A
:103E300000B1A1800BB1BEF80430304801211D460D
:103E400000F0CCFF3868F8F7CDFC002D3BD0AAB2CB
:103E500028492B4803F0E4FC0028A5D02948FCF7AA
:103E6000ABFCA1E775222849A671E01D06F039FCDC
:103E7000E571FCF79BFC00280CBF0223002384F8AB
:103E80005230224BA58893ED097AD3ED077AA179B8
:103E90001F4817EE903AB4EEE77A17EE102AF1EECB
:103EA00010FAC4F84D3005F175054CBF012300230D
:103EB000C4F8492084F85130ADB22368E279A58076
:103EC00000F08CFFBEE7134B1B68042B3FF76CAF71
:103ED000114B019300230093742204230F491048CF
:103EE00003F08EFF60E700BFB83B0120A83B012034
:103EF000003C01207818012018EB00201807020868
:103F0000481B00206B0702085BEB002090EA0020B2
:103F10003C070208382301209C0702088907020891
:103F20000907020830B501440023884201D1184630
:103F300030BD10F8014B082283EA040515F0010F8B
:103F40004FEA530318BF83F08C0302F1FF3218BF0E
:103F5000DBB212F0FF024FEA5404EDD1E5E70000B6
:103F6000062202490248F2F7FBBD00BF8C1C01206B
:103F7000F43A0120014B1868F8F710BCEC3B012023
:103F8000074B084A1B7813B10A2313607047136864
:103F90002BB1013B136013B9034A82F84D307047CF
:103FA0007C1A00209C1C012090EA002000000000E8
:103FB0006D4ADFED6E6A128838B56D4D6D4C6B89B8
:103FC00007EE102A9BB207EE903AB8EEC77AF8EEE9
:103FD000E77A27EE267A2DED048B87EE278A2B8948
:103FE000654A9BB2128807EE903AF8EEE77A634B87
:103FF00067EE887A1B8887EEA67A9B1A07EE902ACE
:10400000F8EEE77A37EE677ADFED5D7A27EE277A0A
:1040100007EE903AF8EEE77AC7EE276AF3EE0E7AEB
:1040200076EEA77A17EE900AF0F7A6FA41EC100B9D
:104030000AF000FF51EC100BF0F7A2FDDFED517A12
:104040002B882065C8EE278A9BB206EE903AF8EEE0
:10405000E66ADFED4D7A6B889FED4C8A66EEA86AC2
:104060009BB266EEA76A86EE889A06EE903AF8EE64
:10407000E66AAB8884ED0D9A66EEA86A9BB266EE9E
:10408000A76A86EE887A84ED0E7A07EE103AB8EECB
:10409000C77A27EE287A27EE277AC7EE087A17EE36
:1040A000900AF0F769FA2EA3D3E90023F0F706F996
:1040B000F0F7AEFDEB88364D60629BB207EE903AAA
:1040C000F8EEE77AB7EE087A67EEA87A95F8D0119D
:1040D000304867EE877A87EE887A95ED758A84EDA9
:1040E000077AB4EEC89AF1EE10FACCBF0122002292
:1040F000012918BF82F001024FF40051F4F790F843
:10410000236BD4ED0E8A2348B4EEC89AF1EE10FA70
:1041100095ED768AD4BF23F0010343F00103F4EE5A
:10412000C88A236395F8D131F1EE10FACCBF012291
:104130000022012B18BF82F001024FF48051F4F7E6
:104140006FF8F4EEC88ABDEC048B236BF1EE10FA25
:10415000D4BF23F0020343F00203236338BD00BF42
:104160009A9999999999C93F2A7AFF1F00404E451B
:104170008C1C012090EA00202C7AFF1F2E7AFF1F52
:104180000000A04200007A44C74B7B4100F07F450D
:104190008C1B002000040240810610B5044602D5A5
:1041A000002002F0B7FAE20702D5012002F0B2FACD
:1041B000A30702D5022002F0ADFA600702D5032062
:1041C00002F0A8FA610609D540211748F4F716F85D
:1041D000164BB0FA80F0400983F84C00E2050ED58A
:1041E0004FF480711048F4F709F8104BB0FA80F0E2
:1041F00093F82020400960F3000283F82020630533
:104200000FD54FF480610848F3F7F8FF084B48B921
:1042100001221A70074B0A221A60044B012283F80C
:104220004D2010BD0022F4E70000024090EA00207B
:104230007C1A00209C1C012070B5274E4FF47A7127
:104240003068F8F747FA002844D1244D244C2B6BF2
:104250006A6BC4F82E20AA6B84F84830C4F8322068
:104260001B0195F82C2003F030031343A4F84630CB
:104270001C4B1B78012B10D100F180404FF4806162
:1042800000F50230F3F7BAFFB4F8463000280CBF4F
:10429000402200221343A4F8463095F84D20B4F98B
:1042A00046303068002A14BF4FF480720022134356
:1042B000A4F84630EB6BC4F836302B6CC4F83A30B7
:1042C0006B6CC4F83E30AB6CC4F84230BDE8704053
:1042D000F8F788BA70BD00BFB83B012090EA002013
:1042E00054EB00205F1A0020014B01221A70704726
:1042F000981C01202DE9F04F4FF4806293B0B24931
:10430000B248B34CF1F738F80020FFF729FEB14B63
:104310004FF47A711868F8F761F9AF4B218A186881
:104320004FF47A756943F8F759F9AC4B2946186888
:10433000F8F754F906944FF0FF3201210CA8F8F772
:10434000A1F90C9B082BF6D10D9BDB07F3D5A44CF0
:104350002068F8F723FA08944FF0000B4FF4FA7036
:10436000F8F724F99F4B40211868F8F761F99E4B44
:1043700093F84D00FCF7B4F99C4A13680133012B04
:1043800000F2B38013609A4B1A68C3F800B0013290
:1043900040F0B080974A136801331D2B00F2E7808C
:1043A0001360954D2B680133012B88BF5B462B6052
:1043B000089B00211868F8F7C9F90028CED12860B9
:1043C0008E4D834EDFF854822F460446AA46B37CB6
:1043D000002B00F0D681F37C8DF82D30312206239E
:1043E00003210BA88DF82E308DF82C2088F800B012
:1043F000FFF798FD01228DF82F004FF4807172486D
:10440000F3F70EFFC82304220BA97D48F6F710FD31
:1044100000224FF480716C48F3F702FF09220FA9C4
:104420007748F6F71FFE8146002840F09281F0F7AA
:1044300037FE0790F0F734FE079BC01AC72804D850
:1044400098F80030002B00F0718198F80030002BB4
:1044500000F07F8108210FA8FFF764FD9DF844302C
:10446000834240F067819DF83F303B7106236343F0
:10447000BDF840204AF8032001237B710134082C49
:1044800007F1060706F10206A1D15E4E4FF47A71DC
:104490003068F8F71FF900287FF460AF5A4B0446E4
:1044A0001F464FF0FF0E4FF0060C6A79C1B2002A8A
:1044B00000F06A8119730CFB00F17C185AF80110A6
:1044C000C4F807102979D97214460130082805F17B
:1044D000060503F10603E8D13068F8F783F9002CEC
:1044E0003FF43CAFFCF7C0F836E7C2F800B0FFF786
:1044F000A3FE48E73548354D444EF0F7D5FF00247C
:10450000274605F10908F8F7ADFAF0212F48F0F732
:10451000D0FF8146F8F7C8FAB9F1000F00F03781F3
:104520003B48F0F709FF80B1072FECD839490C233D
:104530007A1C03FB0717D8F80030C7F80130D8F809
:104540000430C7F80530D7B2DDE76B7A012BDAD13A
:10455000022CD8D8621C06EBC404D8F80030C4F88A
:104560000130D8F80430C4F80530D4B2CBE7294F75
:10457000C2F800B03B783E46002B51D1DFF884A052
:104580004FF47A71DAF80000F8F7A4F800287FF405
:1045900008AF3B78204D079304460C23069AA218D7
:1045A00092F8222085F86C20002A00F0B280069A4A
:1045B00004F1230991440027079A9742C0F29280A0
:1045C0006FF07E02A3E000BF00040240781C0120CF
:1045D0008C1B00209C3B0120E43B0120A03B0120E0
:1045E000EC3B0120003C012090EA0020781A0020DA
:1045F000741A0020801A0020701A0020E8EA0020B7
:10460000FC3E0120B83B012018EB00209658012009
:10461000811C0120AF58012054EB0020981C012080
:10462000F8F720FA6848684CF0F7F5FDF8F73CFA1F
:1046300050250A20F7F7BAFFF8F714FA2046F0F7EA
:1046400081FE8046F8F730FAB8F1000F11D1013D34
:1046500015F0FF05EDD15D4B1B68042B09DC5C4BAD
:104660000193009504234FF4B4725A495A4803F059
:10467000C7FB5A4DDFF88CA1DFF84C81DFF84C9175
:1046800000243278E3B29A4226D9F8F7EBF905F123
:10469000080229464046F0F7CDFD0790F8F704FAE6
:1046A000079898B90C2303FB0463C3F809A0D9F851
:1046B0000030052B0ADC4A4B02948DE8090040F2D9
:1046C000771205234349444803F09AFB0134082C30
:1046D00005F10C05D5D151E70C2303FB0463C3F8A6
:1046E00009A0F3E703FB07F808F1010108223144B0
:1046F0004846099305F0E6FF099BA8B9B044D8F8ED
:10470000092007EE902AFDEEE77A17EE902A85F849
:104710006D200934482C05F102057FF43FAFDAF82B
:104720000000F8F75FF83CE6013745E70120F7F7AE
:104730003DFF7FE6254B1B68052B0ADC294B0193C7
:104740000023009340F21B1205232249264803F060
:1047500057FB2648F6F7CEFC1C4B1B68052B10DCDC
:10476000CDF81090F37C0393631C0293204B0193CC
:10477000002300934FF49072052316491A4803F062
:104780003FFB87F805B079E683F80CE09DE6194D0C
:10479000194B2C70194C1F704FF47A712068F7F781
:1047A00099FF00287FF4F6AD154A2B4605F1180154
:1047B00053F8040B42F8040B8B42F9D11B781370A9
:1047C0002068F8F70FF8E5E5781C01203823012070
:1047D000E6070208D5070208C8070208B0580120FA
:1047E000F907020813080208B6070208FC3E012078
:1047F0002108020896580120AF580120B83B01203B
:10480000A7EB00200000FEC270B5054633248EB22F
:1048100031462846F9F7F2FF08B1013C00D170BDDE
:104820000120F7F7C3FEF3E770B50F4EADF5047D39
:1048300000240A22316801A8F8F702F8019B102B26
:10484000A5B20CD104AB029AE2540134B4F5007F56
:10485000EFD12546294604A8FFF7D6FFE8E7002D4B
:10486000F8D10DF5047D70BDAC3B012070B50C4650
:104870000546EFF7BFFC06462046EFF7BBFC864235
:1048800007D12146284607F02EF9003018BF012035
:1048900070BD002070BD00002DE9F0432DED028BAE
:1048A000C24CC348DFF8F483DFF8F49387B006F016
:1048B00075FFC049C04806F0E9FE2168BF4806F010
:1048C000E5FEBF4BBF4A2179BF4800290CBF114606
:1048D000194606F0DBFEE188BC4806F0D7FE2189C8
:1048E000BB4806F0D3FE6189BA4806F0CFFEA18925
:1048F000B74806F0CBFEE189B74806F0C7FE218A2B
:10490000B64806F0C3FEB64806F0C0FE2646274667
:104910000025BB7C002B00F00C82F97C484606F099
