:020000040800F2
:1000000000800120ED1100084506000847060008A1
:10001000490600084B0600084D06000800000000D5
:100020000000000000000000000000004F06000873
:10003000510600080000000053060008550600089D
:100040003D1200083D1200083D1200083D12000854
:100050003D1200083D1200083D1200083D12000844
:100060003D1200083D1200083D1200083D12000834
:100070003D1200083D1200083D1200083D12000824
:100080003D1200083D1200083D120008000000006B
:100090000000000000000000000000003D12000809
:1000A0003D1200083D1200083D1200083D120008F4
:1000B0003D1200083D1200083D1200083D120008E4
:1000C0003D1200083D1200083D1200083D120008D4
:1000D0003D1200083D1200083D120008000000001B
:1000E0003D1200083D1200083D120008000000000B
:1000F0000000000000000000000000003D120008A9
:10010000000000003D1200083D1200083D120008EA
:1001100000000000000000000000000000000000DF
:100120003D1200083D1200083D1200083D12000873
:100130003D12000800000000000000000000000068
:100140000000000000000000000000003D12000858
:100150003D1200083D1200083D1200083D12000843
:100160003D1200083D1200080000000000000000E1
:10017000000000000000000000000000000000007F
:10018000000000003D120008000000000000000018
:040190003D12000814
:1001940010B5054C237833B9044B13B10448AFF3BD
:1001A40000800123237010BDFC0500200000000026
:1001B4008812000808B5034B1BB103490348AFF389
:1001C400008008BD0000000000060020881200081E
:1001D40053B94AB9002908BF00281CBF4FF0FF31AA
:1001E4004FF0FF3000F07AB9ADF1080C6DE904CEA0
:1001F40000F006F8DDF804E0DDE9022304B07047FE
:100204002DE9F0478C460D460446089E002B51D13B
:100214008A4217466DD9B2FA82FEBEF1000F0BD0A6
:10022400CEF1200C01FA0EF520FA0CFC02FA0EF7BE
:100234004CEA050C00FA0EF44FEA174A250CBCFBF5
:10024400FAF81FFA87F90AFB18CC45EA0C4508FBB3
:1002540009F3AB420AD9ED1908F1FF3280F023818A
:10026400AB4240F22081A8F102083D44ED1AA4B249
:10027400B5FBFAF00AFB105544EA054400FB09F902
:10028400A14509D9E41900F1FF3380F00A81A145A1
:1002940040F2078102383C44A4EB090440EA0840D8
:1002A4000021002E61D024FA0EF400233460736020
:1002B400BDE8F0878B4207D9002E54D0002186E890
:1002C40021000846BDE8F087B3FA83F1002940F025
:1002D4008E80AB4202D3824200F2FA80841A65EB2C
:1002E40003050120AC46002E3FD086E81010BDE87F
:1002F400F08712B90127B7FBF2F7B7FA87FEBEF110
:10030400000F34D1EB1B3A0C1FFA87FC0121B3FB1D
:10031400F2F8250C02FB183345EA03450CFB08F3FD
:10032400AB4207D9ED1908F1FF3002D2AB4200F21B
:10033400D1808046ED1AA3B2B5FBF2F002FB105552
:1003440043EA05440CFB00FCA44507D9E41900F179
:10035400FF3302D2A44500F2B8801846A4EB0C0483
:1003640040EA08409DE731463046BDE8F087CEF1CB
:10037400200405FA0EF307FA0EF720FA04F83A0CF3
:1003840025FA04F448EA0308B4FBF2F14FEA1845ED
:1003940002FB11441FFA87FC45EA044501FB0CF3F8
:1003A400AB4200FA0EF409D9ED1901F1FF3080F0E7
:1003B4008A80AB4240F2878002393D44EB1A1FFA2F
:1003C40088F5B3FBF2F002FB103345EA034500FB6A
:1003D4000CF3AB4207D9ED1900F1FF386FD2AB42F1
:1003E4006DD902383D44EB1A40EA01418FE7C1F16F
:1003F400200722FA07F88B4005FA01F448EA0303C0
:1004040020FA07FE4FEA134CFD404EEA040EB5FBFA
:10041400FCF94FEA1E440CFB19551FFA83F844EA11
:10042400054509FB08F4AC4202FA01F200FA01FAAC
:1004340008D9ED1809F1FF3043D2AC4241D9A9F1F2
:1004440002091D442D1B1FFA8EFEB5FBFCF00CFBAC
:1004540010554EEA054400FB08F8A04507D9E418F6
:1004640000F1FF3529D2A04527D902381C4440EABF
:100474000940A4EB0804A0FB02894C45C6464D463E
:1004840015D312D056B1BAEB0E0364EB050404FA8B
:1004940007F7CB401F43CC40376074600021BDE8B0
:1004A400F0871846F8E69046E0E6C245EAD2B8EB93
:1004B400020E69EB03050138E4E72846D7E7404616
:1004C40091E78146BEE7014678E702383C4445E7B8
:1004D400084608E7A8F102083D442BE7704700BF2F
:1004E40082B000230193064B1A6B42F001021A6397
:1004F4001B6B03F001030193019B02B0704700BF23
:100504000038024010B594B00022224B0192196CBD
:1005140041F0805119641B6C1F4903F0805301930F
:10052400019B02920B6823F4404343F400430B60A5
:100534000B680E9203F440430293029B0A2310219A
:10054400089308A801230C910B930D9300F042FB30
:10055400014600B1FEE70F23049005900690079032
:1005640003A8039300F0E6FC044600B1FEE700F0A4
:100574007BFD4FF47A73B0FBF3F000F045F90420EF
:1005840000F058F9224621464FF0FF3000F008F9F8
:1005940014B010BD003802400070004008B500F0EF
:1005A400C1F8FFF7AFFFFFF79BFF00F063FDFEE725
:1005B40013B5224B002400945A6C42F480425A64CE
:1005C4005A6C02F480420092009A01941A6C42F030
:1005D40080521A641B6C03F0805301930320019B27
:1005E40000F0CCF8224621466FF00B0000F0D8F85A
:1005F400224621466FF00A0000F0D2F82246214636
:100604006FF0090000F0CCF8224621466FF0040098
:1006140000F0C6F8224621466FF0030000F0C0F84F
:10062400224621466FF0010000F0BAF82246214626
:100634004FF0FF3000F0B4F802B010BD00380240B3
:100644007047FEE7FEE7FEE7FEE770477047704736
:1006540008B500F081F8BDE8084000F0F8B80000E3
:100664000F49D1F8883043F47003C1F888300D4B3A
:100674001A68002042F001021A6098601A6822F099
:10068400847222F480321A60074A5A601A6822F48B
:1006940080221A60D8604FF000638B60704700BFFF
:1006A40000ED00E0003802401030002470470000E4
:1006B40010B5094B4FF0FF3200241A621C625A62D3
:1006C4005C621A611C615A615C619A619C61FFF70A
:1006D400EDFF204610BD00BF0038024038B50E4A79
:1006E4000E4B054618784FF47A73B3FBF0F3106899
:1006F400B0FBF3F000F088F8044658B90F2D09D880
:10070400024629464FF0FF3000F04AF8044B2046D9
:100714001D6038BD012038BDDC050020E005002047
:10072400E405002008B50B4B1A6842F400721A6005
:100734001A6842F480621A601A6842F480721A607D
:10074400032000F01BF80020FFF7C8FFFFF730FF7D
:10075400002008BD003C0240034A044B11681B788A
:100764000B441360704700BF1C0A0020E005002002
:10077400014B1868704700BF1C0A0020074AD36861
:1007840023F4E0631B041B0C43F0BF63000243F437
:10079400003300F4E0600343D360704700ED00E0F1
:1007A400174B30B5DC68C4F30224C4F10703251DDC
:1007B400042B28BF0423062D4FF0010505FA03F38B
:1007C40003F1FF338CBF033C00241940A14005FA18
:1007D40004F4013C2240002842EA01024FEA0212DA
:1007E400AFBF00F1604000F00F00064BD2B2A5BFCE
:1007F40000F56140D2B21A5480F8002330BD00BF26
:1008040000ED00E014ED00E00138B0F1807F0AD281
:10081400064B074A5860F02182F823100020072273
:1008240098601A6070470120704700BF10E000E034
:1008340000ED00E0044B1A6804280CBF42F00402E7
:1008440022F004021A60704710E000E0704708B517
:10085400FFF7FCFF08BD0000084910B50C6924F43B
:1008640040740C610C6944F440740C610C6944F0EC
:1008740001040C610260436010BD00BF003C0240F3
:10088400074B1A6922F440721A611A6942F4007221
:100894001A611A6942F001021A610160704700BFCF
:1008A400003C0240074B1A6922F440721A611A692B
:1008B40042F480721A611A6942F001021A610180DD
:1008C400704700BF003C0240204BDA68D00606D5D2
:1008D4001F49CA6942F01002CA611022DA60DA685C
:1008E400910606D51A49CA6942F00802CA61202253
:1008F400DA60164BDA68520606D51549CA6942F021
:100904000402CA614022DA60DA68100606D510498A
:10091400CA6942F00202CA618022DA600B4BDA68CB
:10092400D10507D50A49CA6942F00102CA614FF4E8
:100934008072DA60DA68920706D50549CA6942F01E
:100944002002CA610222DA60704700BF003C024004
:10095400200A0020064B1A69002ABFBF054A5A60C4
:1009640002F188325A60BABF1869C00F002070477C
:10097400003C024023016745034A136943F00043E6
:1009840013610020704700BF003C0240F8B5124BD1
:10099400124C00220546DA61FFF7EAFE26460746B6
:1009A400E368DA030CD4E368DB0744BF0123E360A4
:1009B400F06810F4F97002D0FFF786FF0120F8BD4B
:1009C400691CEDD00DB90320F8BDFFF7D1FEC01BA3
:1009D4008542E5D2F7E700BF200A0020003C024030
:1009E4002DE9F041204D98462B7E012B07460E46FB
:1009F400144635D001234CF250302B76FFF7C6FF56
:100A0400B0B9CFB9194B1A6922F440721A611A6944
:100A14001A611A69E4B242F001021A6134704CF2AC
:100A24005030FFF7B3FF114A136923F00103136138
:100A340000232B76BDE8F081012F04D1A1B230460A
:100A4400FFF730FFEBE7022F04D121463046FFF7D2
:100A540017FFE4E7224643463046FFF7FDFEDEE794
:100A64000220BDE8F08100BF200A0020003C0240C3
:100A7400074B1A6922F440721A611A6942F004029F
:100A84001A611A6942F4803242EA00201861704700
:100A9400003C024039B101291CD002290CBF4FF49B
:100AA40000714FF440710D4B1A6922F440721A61BF
:100AB4001A69114319611A6922F0F8021A611A6954
:100AC40042F0020242EAC00018611A6942F480321C
:100AD4001A6170474FF48071E5E700BF003C0240A3
:100AE400144B1A6891050FD51A6822F400721A6023
:100AF4001A6842F400621A601A6822F400621A60EA
:100B04001A6842F400721A600A4B1A6852050FD52B
:100B14001A6822F480621A601A6842F480521A60D9
:100B24001A6822F480521A601A6842F480621A60C9
:100B3400704700BF003C02402DE9F843234E337E4A
:100B4400012B044688463FD001234CF250303376C3
:100B5400FFF71CFF0546A8B94FF0FF33C8F8003073
:100B64002368012B13D1207CFFF782FF4CF2503015
:100B7400FFF70CFF164A136923F0040305461361BB
:100B8400FFF7AEFF002333762846BDE8F883A76855
:100B9400DFF83C90E368A26813449F42F0D2217CC2
:100BA4003846FFF777FF4CF25030FFF7EFFED9F8E5
:100BB400103023F0FA03C9F8103018B1C8F80070E7
:100BC4000546DDE70137E5E70225DDE7200A0020D9
:100BD400003C02402DE9F341044618B9012002B05B
:100BE400BDE8F0810368DD0710D42368980758D462
:100BF40023681A0700F19A8023685B0700F1B88024
:100C0400A269002A40F019810020E8E7A64B9A68FF
:100C140002F00C02042A07D09A6802F00C02082A97
:100C24000AD15B68590207D59F4B1B689A03DCD530
:100C34006368002BD9D1D1E763689B4DB3F5803F3E
:100C440011D12B6843F480332B60FFF791FD964D4F
:100C540006462B689B03C8D4FFF78AFD801B6428D3
:100C6400F7D90320BBE7B3F5A02F04D12B6843F4D5
:100C740080232B60E5E72A6822F480322A602A6800
:100C840022F480222A60002BDFD1FFF771FD064693
:100C94002B689F03A9D5FFF76BFD801B6428F7D948
:100CA400DFE7814B9A6812F00C0F07D09A6802F0C4
:100CB4000C02082A11D15B685E020ED47A4B1A68C2
:100CC400950702D5E268012A88D11A68216922F0C1
:100CD400F80242EAC1021A608AE7E268734BB2B1D1
:100CE40001221A60FFF744FD6F4D06462B689807F2
:100CF40007D52B68226923F0F80343EAC2032B606B
:100D040076E7FFF735FD801B0228EFD9A9E71A60C3
:100D1400FFF72EFD644D06462B6899077FF568AFF3
:100D2400FFF726FD801B0228F6D99AE76269604B1B
:100D34007AB101221A60FFF71BFD5B4D06466B6F0B
:100D44009F073FF559AFFFF713FD801B0228F6D923
:100D540087E71A60FFF70CFD534D06466B6F980743
:100D64007FF54AAFFFF704FD801B0228F6D978E728
:100D74004D4B1A6C12F0805228D101921A6C42F039
:100D840080521A641B6C03F080530193019B01266B
:100D9400484D2B68D9051BD5A368434D012B27D19A
:100DA4002B6F43F001032B67FFF7E2FC3E4D074630
:100DB40041F288382B6F9B0739D5002E3FF420AFC2
:100DC400394A136C23F08053136419E70026DFE7D4
:100DD4002B6843F480732B60FFF7CAFC07462B682B
:100DE400DA05D9D4FFF7C4FCC01B0228F7D938E7C9
:100DF400052B04D12B6F43F004032B67D0E72A6F34
:100E040022F001022A672A6F22F004022A67002BCB
:100E1400CAD1FFF7ADFC41F2883807462B6F98071B
:100E2400CBD5FFF7A5FCC01B4045F7D919E7FFF761
:100E34009FFCC01B4045BDD913E71B4DAB6803F0B5
:100E44000C03082B3FF4CAAE1B4E0023022A336066
:100E540034D1FFF78DFC07462B6899011ED4226A12
:100E6400E3691343626A43EA8213E26A43EA026370
:100E7400A26A0D4C5208013A43EA02436B60012313
:100E84003360FFF775FC054623689A013FF5BCAE55
:100E9400FFF76EFC401B0228F6D9E2E6FFF768FC78
:100EA400C01B0228D8D9DCE60038024000004742C3
:100EB400800E47420070004060004742FFF758FC34
:100EC40004462B689B017FF59FAEFFF751FC001B86
:100ED4000228F6D9C5E600BF134908B58B6803F0AC
:100EE4000C03042B03D0082B03D0104808BD104872
:100EF40008BD4A684B68496813F4800314BF0C4862
:100F04000A48C1F3881118BF002302F03F02A1FB75
:100F14000001FFF75DF9044B5B68C3F30143013340
:100F24005B00B0FBF3F008BD003802400024F4007D
:100F340040787D012DE9F0410D46044610B90120A9
:100F4400BDE8F081444B1A6802F00F028A4228D3AC
:100F540021688F072DD4C80740D43F4B1A6802F08C
:100F64000F02954266D3226851076CD4130707D544
:100F74003A4A2169936823F4604343EAC1039360C6
:100F8400FFF7AAFF354B364A9B68C3F30313D35CC0
:100F9400D840344B18600020FFF7A0FB0020BDE8C8
:100FA400F081CAB21A701B6803F00F039942C6D1CC
:100FB400CEE72A4B11F0040F1EBF9A6842F4E052A8
:100FC4009A600E0742BF9A6842F460429A609A6837
:100FD400A06822F0F00202439A60BCE762681F4BEB
:100FE400012A1DD11B6813F4003FA8D01B4EB3681F
:100FF40023F003031343B360FFF7BAFB41F28838CD
:101004000746B368626803F00C03B3EB820FA4D005
:10101400FFF7AEFBC01B4045F3D90320BDE8F081C8
:10102400911E01291B6802D813F0007FDDE713F03D
:10103400020FDAE7EAB21A701B6803F00F039D424D
:101044007FF47DAF8FE70549E0688B6823F4E053B4
:1010540003438B608AE700BF003C02400038024033
:10106400A0120008DC050020014B1868704700BF7F
:10107400DC0500202DE9F0413B4B82B01C68631E67
:10108400033300AF39D8214604F100640022374805
:1010940004F1041400F078F8236898422DD1FFF786
:1010A40059FC07F1080398464246002342F8043DE0
:1010B4002F4D2E4E0123AB60114605232846904642
:1010C400EB60FFF739FDA6F57031B442A1F10401DC
:1010D40007D016F8012B00230020FFF781FC00281D
:1010E400F1D000237B600623AB60414602232048F5
:1010F400EB60FFF721FDFFF73FFCFFF7D9FA72B66B
:1011040000226FF07F41930003F1604303F56143D4
:101114000132082AC3F88010C3F88011F3D1154AAC
:1011240000234FF0FF31136053609360D360136169
:101134005161A2F580629360D360136153610E4ADA
:1011440011680E4A136093600D4B5A6842F00072A6
:101154005A600C4A9A60136883F3088888470837F2
:10116400BD46BDE8F08100BF000004080400040887
:10117400E8050020003C01400440000810E000E0C5
:1011840000ED00E000400008F0B5144D2C78ACB937
:10119400DFF850E0124F2346082613F0010F4FEA00
:1011A400530318BF83EA0E03013EF6D147F82430F7
:1011B4000134B4F5807FEED101232B70084CD24367
:1011C4000144884201D1D043F0BD10F8015BD3B291
:1011D4006B4054F8233083EA1222F2E71806002009
:1011E4001C0600202083B8EDDFF834D0002103E092
:1011F4000C4B5B58435004310B480C4B42189A4239
:10120400F6D30B4A02E0002342F8043B094B9A420E
:10121400F9D3FFF725FA00F011F8FFF7BFF970478B
:1012240000800120C0120008DC050020FC0500201D
:10123400FC050020400A0020FEE7000070B50D4EBA
:101244000D4CA41BA4100025A54209D10B4E0C4C37
:1012540000F018F8A41BA4100025A54205D170BD08
:1012640056F8253098470135EEE756F8253098476B
:101274000135F2E7B8120008B8120008B8120008E5
:10128400BC120008F8B500BFF8BC08BC9E46704705
:0C129400F8B500BFF8BC08BC9E467047CF
:1012A0000000000000000000010203040607080916
:0812B00054EFFF7F0100000074
:0412B800B901000870
:0412BC009501000890
:1012C0000024F400010000001000000000000000F5
:1012D000010000000000000000000000020000000B
:04000005080011EDF1
:00000001FF
