:020000040800F2
:1000000000800120F111000845060008470600089D
:10001000490600084B0600084D06000800000000D5
:100020000000000000000000000000004F06000873
:10003000510600080000000053060008550600089D
:100040004112000841120008411200084112000844
:100050004112000841120008411200084112000834
:100060004112000841120008411200084112000824
:100070004112000841120008411200084112000814
:10008000411200084112000841120008000000005F
:100090000000000000000000000000004112000805
:1000A00041120008411200084112000841120008E4
:1000B00041120008411200084112000841120008D4
:1000C00041120008411200084112000841120008C4
:1000D000411200084112000841120008000000000F
:1000E00041120008411200084112000800000000FF
:1000F00000000000000000000000000041120008A5
:1001000000000000411200084112000841120008DE
:1001100000000000000000000000000000000000DF
:100120004112000841120008411200084112000863
:100130004112000800000000000000000000000064
:100140000000000000000000000000004112000854
:100150004112000841120008411200084112000833
:1001600041120008411200080000000000000000D9
:10017000000000000000000000000000000000007F
:100180000000000041120008000000000000000014
:100190004112000810B5054C237833B9044B13B154
:1001A0000448AFF300800123237010BDFC0500203C
:1001B000000000008C12000808B5034B1BB1034976
:1001C0000348AFF3008008BD0000000000060020D7
:1001D0008C12000853B94AB9002908BF00281CBF77
:1001E0004FF0FF314FF0FF3000F07AB9ADF1080C5D
:1001F0006DE904CE00F006F8DDF804E0DDE9022345
:1002000004B070472DE9F0478C460D460446089E21
:10021000002B51D18A4217466DD9B2FA82FEBEF147
:10022000000F0BD0CEF1200C01FA0EF520FA0CFCD9
:1002300002FA0EF74CEA050C00FA0EF44FEA174AE0
:10024000250CBCFBFAF81FFA87F90AFB18CC45EA23
:100250000C4508FB09F3AB420AD9ED1908F1FF324E
:1002600080F02381AB4240F22081A8F102083D4496
:10027000ED1AA4B2B5FBFAF00AFB105544EA0544A6
:1002800000FB09F9A14509D9E41900F1FF3380F019
:100290000A81A14540F2078102383C44A4EB0904DD
:1002A00040EA08400021002E61D024FA0EF4002319
:1002B00034607360BDE8F0878B4207D9002E54D0BC
:1002C000002186E821000846BDE8F087B3FA83F1F3
:1002D000002940F08E80AB4202D3824200F2FA80C5
:1002E000841A65EB03050120AC46002E3FD086E85A
:1002F0001010BDE8F08712B90127B7FBF2F7B7FA83
:1003000087FEBEF1000F34D1EB1B3A0C1FFA87FCBD
:100310000121B3FBF2F8250C02FB183345EA034533
:100320000CFB08F3AB4207D9ED1908F1FF3002D2FC
:10033000AB4200F2D1808046ED1AA3B2B5FBF2F0D9
:1003400002FB105543EA05440CFB00FCA44507D909
:10035000E41900F1FF3302D2A44500F2B880184638
:10036000A4EB0C0440EA08409DE731463046BDE866
:10037000F087CEF1200405FA0EF307FA0EF720FA03
:1003800004F83A0C25FA04F448EA0308B4FBF2F145
:100390004FEA184502FB11441FFA87FC45EA044561
:1003A00001FB0CF3AB4200FA0EF409D9ED1901F18F
:1003B000FF3080F08A80AB4240F2878002393D44B2
:1003C000EB1A1FFA88F5B3FBF2F002FB103345EA93
:1003D000034500FB0CF3AB4207D9ED1900F1FF38E0
:1003E0006FD2AB426DD902383D44EB1A40EA01416D
:1003F0008FE7C1F1200722FA07F88B4005FA01F4D4
:1004000048EA030320FA07FE4FEA134CFD404EEA88
:10041000040EB5FBFCF94FEA1E440CFB19551FFAFC
:1004200083F844EA054509FB08F4AC4202FA01F2FC
:1004300000FA01FA08D9ED1809F1FF3043D2AC42B5
:1004400041D9A9F102091D442D1B1FFA8EFEB5FBEF
:10045000FCF00CFB10554EEA054400FB08F8A045E3
:1004600007D9E41800F1FF3529D2A04527D9023871
:100470001C4440EA0940A4EB0804A0FB02894C4557
:10048000C6464D4615D312D056B1BAEB0E0364EBF7
:10049000050404FA07F7CB401F43CC403760746073
:1004A0000021BDE8F0871846F8E69046E0E6C24530
:1004B000EAD2B8EB020E69EB03050138E4E72846FF
:1004C000D7E7404691E78146BEE7014678E7023824
:1004D0003C4445E7084608E7A8F102083D442BE7FD
:1004E000704700BF82B000230193064B1A6B42F0A5
:1004F00001021A631B6B03F001030193019B02B01D
:10050000704700BF0038024010B594B00022224B63
:100510000192196C41F0805119641B6C1F4903F062
:1005200080530193019B02920B6823F4404343F4F0
:1005300000430B600B680E9203F440430293029B4E
:100540000A231021089308A801230C910B930D9303
:1005500000F042FB014600B1FEE70F230490059036
:100560000690079003A8039300F0E6FC044600B150
:10057000FEE700F07BFD4FF47A73B0FBF3F000F080
:1005800045F9042000F058F9224621464FF0FF308B
:1005900000F008F914B010BD0038024000700040AF
:1005A00008B500F0C1F8FFF7AFFFFFF79BFF00F0C1
:1005B00063FDFEE713B5224B002400945A6C42F40D
:1005C00080425A645A6C02F480420092009A01946C
:1005D0001A6C42F080521A641B6C03F08053019332
:1005E0000320019B00F0CCF8224621466FF00B005F
:1005F00000F0D8F8224621466FF00A0000F0D2F849
:10060000224621466FF0090000F0CCF82246214630
:100610006FF0040000F0C6F8224621466FF0030098
:1006200000F0C0F8224621466FF0010000F0BAF851
:10063000224621464FF0FF3000F0B4F802B010BD62
:10064000003802407047FEE7FEE7FEE7FEE770472E
:100650007047704708B500F081F8BDE8084000F029
:10066000F8B800000F49D1F8883043F47003C1F89E
:1006700088300D4B1A68002042F001021A60986021
:100680001A6822F0847222F480321A60074A5A6093
:100690001A6822F480221A60D8604FF000638B60E1
:1006A000704700BF00ED00E0003802401030002429
:1006B0007047000010B5094B4FF0FF3200241A625A
:1006C0001C625A625C621A611C615A615C619A61C7
:1006D0009C61FFF7EDFF204610BD00BF00380240CF
:1006E00038B50E4A0E4B054618784FF47A73B3FBB3
:1006F000F0F31068B0FBF3F000F088F8044658B946
:100700000F2D09D8024629464FF0FF3000F04AF875
:10071000044B20461D6038BD012038BDDC0500209B
:10072000E0050020E405002008B50B4B1A6842F4F0
:1007300000721A601A6842F480621A601A6842F401
:1007400080721A60032000F01BF80020FFF7C8FF3A
:10075000FFF730FF002008BD003C0240034A044B75
:1007600011681B780B441360704700BF1C0A0020FF
:10077000E0050020014B1868704700BF1C0A0020EC
:10078000074AD36823F4E0631B041B0C43F0BF63E8
:10079000000243F4003300F4E0600343D360704789
:1007A00000ED00E0174B30B5DC68C4F30224C4F15F
:1007B0000703251D042B28BF0423062D4FF0010538
:1007C00005FA03F303F1FF338CBF033C0024194007
:1007D000A14005FA04F4013C2240002842EA01024B
:1007E0004FEA0212AFBF00F1604000F00F00064B6D
:1007F000D2B2A5BF00F56140D2B21A5480F80023EE
:1008000030BD00BF00ED00E014ED00E00138B0F1B4
:10081000807F0AD2064B074A5860F02182F82310E5
:100820000020072298601A6070470120704700BFBF
:1008300010E000E000ED00E0044B1A6804280CBF53
:1008400042F0040222F004021A60704710E000E057
:10085000704708B5FFF7FCFF08BD0000084910B558
:100860000C6924F440740C610C6944F440740C610C
:100870000C6944F001040C610260436010BD00BFCC
:10088000003C0240074B1A6922F440721A611A694F
:1008900042F400721A611A6942F001021A610160A1
:1008A000704700BF003C0240074B1A6922F44072B7
:1008B0001A611A6942F480721A611A6942F00102DF
:1008C0001A610180704700BF003C0240204BDA688B
:1008D000D00606D51F49CA6942F01002CA6110222B
:1008E000DA60DA68910606D51A49CA6942F0080248
:1008F000CA612022DA60164BDA68520606D515491D
:10090000CA6942F00402CA614022DA60DA6810065D
:1009100006D51049CA6942F00202CA618022DA6033
:100920000B4BDA68D10507D50A49CA6942F00102C2
:10093000CA614FF48072DA60DA68920706D5054919
:10094000CA6942F02002CA610222DA60704700BF21
:10095000003C0240200A0020064B1A69002ABFBF53
:10096000054A5A6002F188325A60BABF1869C00F4E
:1009700000207047003C024023016745034A136989
:1009800043F0004313610020704700BF003C024069
:10099000F8B5124B124C00220546DA61FFF7EAFE69
:1009A00026460746E368DA030CD4E368DB0744BF56
:1009B0000123E360F06810F4F97002D0FFF786FFBE
:1009C0000120F8BD691CEDD00DB90320F8BDFFF77B
:1009D000D1FEC01B8542E5D2F7E700BF200A002008
:1009E000003C02402DE9F041204D98462B7E012B22
:1009F00007460E46144635D001234CF250302B7674
:100A0000FFF7C6FFB0B9CFB9194B1A6922F440728B
:100A10001A611A691A611A69E4B242F001021A6194
:100A200034704CF25030FFF7B3FF114A136923F0D2
:100A30000103136100232B76BDE8F081012F04D15F
:100A4000A1B23046FFF730FFEBE7022F04D1214679
:100A50003046FFF717FFE4E7224643463046FFF7EC
:100A6000FDFEDEE70220BDE8F08100BF200A002085
:100A7000003C0240074B1A6922F440721A611A695D
:100A800042F004021A611A6942F4803242EA0020FC
:100A900018617047003C024039B101291CD002297D
:100AA0000CBF4FF400714FF440710D4B1A6922F4E2
:100AB00040721A611A69114319611A6922F0F80229
:100AC0001A611A6942F0020242EAC00018611A690A
:100AD00042F480321A6170474FF48071E5E700BF3D
:100AE000003C0240144B1A6891050FD51A6822F495
:100AF00000721A601A6842F400621A601A6822F4DE
:100B000000621A601A6842F400721A600A4B1A688E
:100B100052050FD51A6822F480621A601A6842F4EE
:100B200080521A601A6822F480521A601A6842F4DD
:100B300080621A60704700BF003C02402DE9F84314
:100B4000234E337E012B044688463FD001234CF2CE
:100B500050303376FFF71CFF0546A8B94FF0FF333E
:100B6000C8F800302368012B13D1207CFFF782FFE7
:100B70004CF25030FFF70CFF164A136923F00403C0
:100B800005461361FFF7AEFF002333762846BDE824
:100B9000F883A768DFF83C90E368A26813449F429B
:100BA000F0D2217C3846FFF777FF4CF25030FFF748
:100BB000EFFED9F8103023F0FA03C9F8103018B15D
:100BC000C8F800700546DDE70137E5E70225DDE7F7
:100BD000200A0020003C02402DE9F341044618B9E8
:100BE000012002B0BDE8F0810368DD0710D423685E
:100BF000980758D423681A0700F19A8023685B0786
:100C000000F1B880A269002A40F019810020E8E7CD
:100C1000A64B9A6802F00C02042A07D09A6802F0E8
:100C20000C02082A0AD15B68590207D59F4B1B6842
:100C30009A03DCD56368002BD9D1D1E763689B4D5B
:100C4000B3F5803F11D12B6843F480332B60FFF75D
:100C500091FD964D06462B689B03C8D4FFF78AFD8D
:100C6000801B6428F7D90320BBE7B3F5A02F04D17C
:100C70002B6843F480232B60E5E72A6822F4803256
:100C80002A602A6822F480222A60002BDFD1FFF735
:100C900071FD06462B689F03A9D5FFF76BFD801BEE
:100CA0006428F7D9DFE7814B9A6812F00C0F07D060
:100CB0009A6802F00C02082A11D15B685E020ED419
:100CC0007A4B1A68950702D5E268012A88D11A681A
:100CD000216922F0F80242EAC1021A608AE7E2685A
:100CE000734BB2B101221A60FFF744FD6F4D064607
:100CF0002B68980707D52B68226923F0F80343EA8D
:100D0000C2032B6076E7FFF735FD801B0228EFD981
:100D1000A9E71A60FFF72EFD644D06462B68990778
:100D20007FF568AFFFF726FD801B0228F6D99AE70A
:100D30006269604B7AB101221A60FFF71BFD5B4DBF
:100D400006466B6F9F073FF559AFFFF713FD801BFA
:100D50000228F6D987E71A60FFF70CFD534D0646C7
:100D60006B6F98077FF54AAFFFF704FD801B0228E1
:100D7000F6D978E74D4B1A6C12F0805228D10192C7
:100D80001A6C42F080521A641B6C03F0805301937A
:100D9000019B0126484D2B68D9051BD5A368434DFF
:100DA000012B27D12B6F43F001032B67FFF7E2FCE8
:100DB0003E4D074641F288382B6F9B0739D5002EF0
:100DC0003FF420AF394A136C23F08053136419E7C2
:100DD0000026DFE72B6843F480732B60FFF7CAFC23
:100DE00007462B68DA05D9D4FFF7C4FCC01B0228DC
:100DF000F7D938E7052B04D12B6F43F004032B6799
:100E0000D0E72A6F22F001022A672A6F22F004023B
:100E10002A67002BCAD1FFF7ADFC41F2883807469C
:100E20002B6F9807CBD5FFF7A5FCC01B4045F7D922
:100E300019E7FFF79FFCC01B4045BDD913E71B4DC9
:100E4000AB6803F00C03082B3FF4CAAE1B4E002323
:100E5000022A336034D1FFF78DFC07462B689901D5
:100E60001ED4226AE3691343626A43EA8213E26A88
:100E700043EA0263A26A0D4C5208013A43EA024374
:100E80006B6001233360FFF775FC054623689A0108
:100E90003FF5BCAEFFF76EFC401B0228F6D9E2E638
:100EA000FFF768FCC01B0228D8D9DCE600380240F6
:100EB00000004742800E47420070004060004742F9
:100EC000FFF758FC04462B689B017FF59FAEFFF7A8
:100ED00051FC001B0228F6D9C5E600BF134908B52E
:100EE0008B6803F00C03042B03D0082B03D01048AD
:100EF00008BD104808BD4A684B68496813F4800370
:100F000014BF0C480A48C1F3881118BF002302F02F
:100F10003F02A1FB0001FFF75DF9044B5B68C3F3DF
:100F2000014301335B00B0FBF3F008BD0038024021
:100F30000024F40040787D012DE9F0410D4604467F
:100F400010B90120BDE8F081444B1A6802F00F028D
:100F50008A4228D321688F072DD4C80740D43F4B3D
:100F60001A6802F00F02954266D3226851076CD4CA
:100F7000130707D53A4A2169936823F4604343EA8B
:100F8000C1039360FFF7AAFF354B364A9B68C3F352
:100F90000313D35CD840344B18600020FFF7A0FB4C
:100FA0000020BDE8F081CAB21A701B6803F00F037D
:100FB0009942C6D1CEE72A4B11F0040F1EBF9A68A2
:100FC00042F4E0529A600E0742BF9A6842F46042CF
:100FD0009A609A68A06822F0F00202439A60BCE727
:100FE00062681F4B012A1DD11B6813F4003FA8D073
:100FF0001B4EB36823F003031343B360FFF7BAFB40
:1010000041F288380746B368626803F00C03B3EB1B
:10101000820FA4D0FFF7AEFBC01B4045F3D90320DD
:10102000BDE8F081911E01291B6802D813F0007FF2
:10103000DDE713F0020FDAE7EAB21A701B6803F07B
:101040000F039D427FF47DAF8FE70549E0688B6811
:1010500023F4E05303438B608AE700BF003C024067
:1010600000380240A4120008DC050020014B18687B
:10107000704700BFDC0500202DE9F0413B4B82B0FA
:101080001C683B4B621E9A4200AF39D8214604F1DE
:1010900000640022374804F1041400F079F8236852
:1010A00098422DD1FFF758FC07F1080398464246B5
:1010B000002342F8043D304D2E4E0123AB60114613
:1010C000052328469046EB60FFF738FDA6F5703102
:1010D000B442A1F1040107D016F8012B002300202F
:1010E000FFF780FC0028F1D000237B600623AB6073
:1010F000414601232048EB60FFF720FDFFF73EFC4F
:10110000FFF7D8FA72B600226FF07F41930003F127
:10111000604303F561430132082AC3F88010C3F825
:101120008011F3D1154A00234FF0FF311360536053
:101130009360D36013615161A2F580629360D360C4
:10114000136153610E4A11680E4A136093600E4B8F
:101150005A6842F000725A600C4A9A60136883F32E
:10116000088888470837BD46BDE8F08100000408BC
:10117000FBFF010004000408E8050020003C0140DA
:101180000440000810E000E000ED00E0004000082E
:10119000F0B5144D2C78ACB9DFF850E0124F23466F
:1011A000082613F0010F4FEA530318BF83EA0E031A
:1011B000013EF6D147F824300134B4F5807FEED1FA
:1011C00001232B70084CD2430144884201D1D04303
:1011D000F0BD10F8015BD3B26B4054F8233083EAC2
:1011E0001222F2E7180600201C0600202083B8ED2A
:1011F000DFF834D0002103E00C4B5B58435004313E
:101200000B480C4B42189A42F6D30B4A02E00023DB
:1012100042F8043B094B9A42F9D3FFF723FA00F056
:1012200011F8FFF7BDF9704700800120C4120008D3
:10123000DC050020FC050020FC050020400A002001
:10124000FEE7000070B50D4E0D4CA41BA410002548
:10125000A54209D10B4E0C4C00F018F8A41BA410A9
:101260000025A54205D170BD56F8253098470135B7
:10127000EEE756F8253098470135F2E7BC12000832
:10128000BC120008BC120008C0120008F8B500BF6C
:10129000F8BC08BC9E467047F8B500BFF8BC08BC57
:1012A0009E46704700000000000000000102030499
:1012B0000607080950EFFF7F01000000B901000890
:1012C000950100080024F400010000001000000057
:1012D000000000000100000000000000000000000D
:0412E0000200000008
:1040000000800120E16A010865610008796100080B
:104010008D610008A1610008B56100080000000082
:10402000000000000000000000000000A1C7000820
:10403000C96100080000000031C8000895C80008E8
:10404000316B0108316B0108316B0108316B0108DC
:10405000316B0108316B0108CB610008D1610008A8
:10406000D7610008316B0108316B0108316B010821
:10407000316B0108316B0108316B0108316B0108AC
:10408000316B0108DD610008E961000800000000F3
:10409000000000000000000000000000F5610008C2
:1040A000116200081D62000829620008316B0108D6
:1040B000316B0108316B0108316B0108316B01086C
:1040C000316B0108316B0108316B0108316B01085C
:1040D000316B0108356200084162000800000000F1
:1040E0004D620008E15A0108316B01080000000030
:1040F000000000000000000000000000316B01081B
:1041000000000000316B0108316B0108316B0108C0
:10411000000000000000000000000000000000009F
:1041200055620008316B0108316B0108316B0108E1
:10413000316B0108000000000000000000000000DA
:1041400000000000000000000000000061620008A4
:10415000316B01086D620008316B0108796200085B
:10416000316B0108316B0108000000000000000005
:10417000000000000000000000000000000000003F
:1041800000000000316B010800000000000000008A
:04419000316B010886
:1041A00010B5054C237833B9044B13B10448AFF371
:1041B00000800123237010BD301E0020000000008D
:1041C00040B8010808B5034B1BB103490348AFF3DE
:1041D000008008BD00000000341E002040B8010827
:1041E00010F8012B11F8013B012A28BF9A42F7D0A1
:1041F000D01A7047034613F8012B002AFBD1181A76
:1042000001387047000000000000000000000000BE
:1042100001F0FF01102A2BDB10F0070F08D010F877
:10422000013B013A8B422DD010F0070F42B3F6D17B
:10423000F0B441EA012141EA014122F007047FF094
:1042400000070023F0E80256083C85EA010586EAEB
:10425000010685FA47F5A3FA87F586FA47F6A5FA27
:1042600087F68EB9EED1F0BC01F0FF0102F0070233
:1042700032B110F8013B013A83EA010313B1F8D1DE
:104280000020704701387047002D06BF35460338BF
:10429000073815F0010F07D1013015F4807F02BFF8
:1042A000013015F4C03F0130F0BC0138704700BF49
:1042B00081F0004102E000BF83F0004330B54FEAD7
:1042C00041044FEA430594EA050F08BF90EA020F44
:1042D0001FBF54EA000C55EA020C7FEA645C7FEAD7
:1042E000655C00F0E2804FEA5454D4EB5555B8BFFA
:1042F0006D420CDD2C4480EA020281EA030382EA6B
:10430000000083EA010180EA020281EA0303362DFC
:1043100088BF30BD11F0004F4FEA01314FF4801CCF
:104320004CEA113102D0404261EB410113F0004FE1
:104330004FEA03334CEA133302D0524263EB430398
:1043400094EA050F00F0A780A4F10104D5F1200E36
:104350000DDB02FA0EFC22FA05F2801841F1000191
:1043600003FA0EF2801843FA05F359410EE0A5F165
:1043700020050EF1200E012A03FA0EFC28BF4CF096
:10438000020C43FA05F3C01851EBE37101F000454C
:1043900007D54FF0000EDCF1000C7EEB00006EEB59
:1043A0000101B1F5801F1BD3B1F5001F0CD34908E3
:1043B0005FEA30004FEA3C0C04F101044FEA44523A
:1043C00012F5800F80F09A80BCF1004F08BF5FEAC1
:1043D000500C50F1000041EB045141EA050130BDA1
:1043E0005FEA4C0C404141EB010111F4801FA4F144
:1043F0000104E9D191F0000F04BF01460020B1FA99
:1044000081F308BF2033A3F10B03B3F120020CDAD0
:104410000C3208DD02F1140CC2F10C0201FA0CF0AE
:1044200021FA02F10CE002F11402D8BFC2F1200C13
:1044300001FA02F120FA0CFCDCBF41EA0C019040C9
:10444000E41AA2BF01EB0451294330BD6FEA040412
:104450001F3C1CDA0C340EDC04F11404C4F12002FD
:1044600020FA04F001FA02F340EA030021FA04F30F
:1044700045EA030130BDC4F10C04C4F1200220FA66
:1044800002F001FA04F340EA0300294630BD21FAA4
:1044900004F0294630BD94F0000F83F4801306BF6A
:1044A00081F480110134013D4EE77FEA645C18BF5E
:1044B0007FEA655C29D094EA050F08BF90EA020FF5
:1044C00005D054EA000C04BF1946104630BD91EAED
:1044D000030F1EBF0021002030BD5FEA545C05D1F0
:1044E0004000494128BF41F0004130BD14F580042F
:1044F0003CBF01F5801130BD01F0004545F0FE41A3
:1045000041F470014FF0000030BD7FEA645C1ABFD7
:10451000194610467FEA655C1CBF0B46024650EA0E
:10452000013406BF52EA033591EA030F41F400213A
:1045300030BD00BF90F0000F04BF0021704730B5C0
:104540004FF4806404F132044FF000054FF0000195
:1045500050E700BF90F0000F04BF0021704730B556
:104560004FF4806404F1320410F0004548BF40422B
:104570004FF000013EE700BF42004FEAE2014FEA80
:1045800031014FEA02701FBF12F07F4393F07F4F5B
:1045900081F06051704792F0000F14BF93F07F4F8D
:1045A000704730B54FF4607401F0004521F00041D0
:1045B00020E700BF50EA010208BF704730B54FF056
:1045C00000050AE050EA010208BF704730B511F05B
:1045D000004502D5404261EB41014FF4806404F193
:1045E00032045FEA915C3FF4DCAE4FF003025FEA15
:1045F000DC0C18BF03325FEADC0C18BF033202EB9D
:10460000DC02C2F1200300FA03FC20FA02F001FAF6
:1046100003FE40EA0E0021FA02F11444C1E600BF95
:1046200070B54FF0FF0C4CF4E06C1CEA11541DBF48
:104630001CEA135594EA0C0F95EA0C0F00F0DEF813
:104640002C4481EA030621EA4C5123EA4C5350EAF8
:10465000013518BF52EA033541F4801143F4801349
:1046600038D0A0FB02CE4FF00005E1FB02E506F0DA
:104670000042E0FB03E54FF00006E1FB03569CF02F
:10468000000F18BF4EF0010EA4F1FF04B6F5007F35
:1046900064F5407404D25FEA4E0E6D4146EB0606A7
:1046A00042EAC62141EA55514FEAC52040EA5E5030
:1046B0004FEACE2EB4F1FD0C88BFBCF5E06F1ED8DA
:1046C000BEF1004F08BF5FEA500E50F1000041EB11
:1046D000045170BD06F0004646EA010140EA0200BE
:1046E00081EA0301B4EB5C04C2BFD4EB0C0541EAE0
:1046F000045170BD41F480114FF0000E013C00F3F5
:10470000AB8014F1360FDEBF002001F0004170BD18
:10471000C4F10004203C35DA0C341BDC04F1140431
:10472000C4F1200500FA05F320FA04F001FA05F2BD
:1047300040EA020001F0004221F0004110EBD3708A
:1047400021FA04F642EB06015EEA430E08BF20EAB6
:10475000D37070BDC4F10C04C4F1200500FA04F359
:1047600020FA05F001FA04F240EA020001F00041EB
:1047700010EBD37041F100015EEA430E08BF20EA5E
:10478000D37070BDC4F1200500FA05F24EEA020EA6
:1047900020FA04F301FA05F243EA020321FA04F0D5
:1047A00001F0004121FA04F220EA020000EBD3708C
:1047B0005EEA430E08BF20EAD37070BD94F0000F8C
:1047C0000FD101F00046400041EB010111F4801FC0
:1047D00008BF013CF7D041EA060195F0000F18BF71
:1047E000704703F00046520043EB030313F4801FAD
:1047F00008BF013DF7D043EA0603704794EA0C0F67
:104800000CEA135518BF95EA0C0F0CD050EA41067C
:1048100018BF52EA4306D1D181EA030101F00041F9
:104820004FF0000070BD50EA410606BF1046194621
:1048300052EA430619D094EA0C0F02D150EA01362D
:1048400013D195EA0C0F05D152EA03361CBF10466E
:1048500019460AD181EA030101F0004141F0FE410D
:1048600041F470014FF0000070BD41F0FE4141F491
:10487000780170BD70B54FF0FF0C4CF4E06C1CEA91
:1048800011541DBF1CEA135594EA0C0F95EA0C0F46
:1048900000F0A7F8A4EB050481EA030E52EA033501
:1048A0004FEA013100F088804FEA03334FF0805522
:1048B00045EA131343EA12634FEA022245EA11154F
:1048C00045EA10654FEA00260EF000419D4208BF00
:1048D000964244F1FD0404F5407402D25B084FEAAD
:1048E0003202B61A65EB03055B084FEA32024FF459
:1048F00080104FF4002CB6EB020E75EB030E22BFB6
:10490000B61A754640EA0C005B084FEA3202B6EB75
:10491000020E75EB030E22BFB61A754640EA5C0024
:104920005B084FEA3202B6EB020E75EB030E22BFB4
:10493000B61A754640EA9C005B084FEA3202B6EBB5
:10494000020E75EB030E22BFB61A754640EADC0074
:1049500055EA060E18D04FEA051545EA16754FEAD6
:1049600006164FEAC30343EA52734FEAC2025FEAF4
:104970001C1CC0D111F4801F0BD141EA00014FF083
:1049800000004FF0004CB6E711F4801F04BF014354
:104990000020B4F1FD0C88BFBCF5E06F3FF6AFAE70
:1049A000B5EB030C04BFB6EB020C5FEA500C50F100
:1049B000000041EB045170BD0EF0004E4EEA113183
:1049C00014EB5C04C2BFD4EB0C0541EA045170BD8A
:1049D00041F480114FF0000E013C90E645EA060ECE
:1049E0008DE60CEA135594EA0C0F08BF95EA0C0FFC
:1049F0003FF43BAF94EA0C0F0AD150EA01347FF444
:104A000034AF95EA0C0F7FF425AF104619462CE71A
:104A100095EA0C0F06D152EA03353FF4FDAE10467D
:104A2000194622E750EA410618BF52EA43067FF4CE
:104A3000C5AE50EA41047FF40DAF52EA43057FF45E
:104A4000EBAE12E74FF0FF3C06E000BF4FF0010C69
:104A500002E000BF4FF0010C4DF804CD4FEA410CCD
:104A60007FEA6C5C4FEA430C18BF7FEA6C5C1BD09A
:104A700001B050EA410C0CBF52EA430C91EA030F1B
:104A800002BF90EA020F0020704710F1000F91EA78
:104A9000030F58BF994208BF90422CBFD8176FEA46
:104AA000E37040F0010070474FEA410C7FEA6C5C14
:104AB00002D150EA013C07D14FEA430C7FEA6C5C1B
:104AC000D6D152EA033CD3D05DF8040B704700BF47
:104AD0008446104662468C461946634600E000BF95
:104AE00001B5FFF7B7FF002848BF10F1000F01BD67
:104AF0004DF808EDFFF7F4FF0CBF012000205DF832
:104B000008FB00BF4DF808EDFFF7EAFF34BF0120B6
:104B100000205DF808FB00BF4DF808EDFFF7E0FF4F
:104B200094BF012000205DF808FB00BF4DF808EDA0
:104B3000FFF7CEFF94BF012000205DF808FB00BF07
:104B40004DF808EDFFF7C4FF34BF012000205DF8E9
:104B500008FB00BF4FEA410C7FEA6C5C02D150EACF
:104B6000013C0AD14FEA430C7FEA6C5C02D152EA65
:104B7000033C02D14FF0000070474FF00100704736
:104B80004FEA410212F5001215D211D56FF4787375
:104B9000B3EB625212D94FEAC12343F0004343EA18
:104BA000505311F0004F23FA02F018BF40427047F3
:104BB0004FF00000704750EA013005D111F000407D
:104BC00008BF6FF0004070474FF00000704700BF13
:104BD0004A0011D212F5001211D20DD56FF478737C
:104BE000B3EB62520ED44FEAC12343F0004343EAD1
:104BF000505323FA02F070474FF00000704750EA1C
:104C0000013002D14FF0FF3070474FF00000704785
:104C10004FEA4102B2F1E04324BFB3F5001CDCF1DE
:104C2000FE5C0DD901F0004C4FEAC0024CEA507016
:104C3000B2F1004F40EB830008BF20F00100704745
:104C400011F0804F21D113F13872BCBF01F0004048
:104C5000704741F480114FEA5252C2F11802C2F17A
:104C6000200C10FA0CF320FA02F018BF40F00100FB
:104C70004FEAC1234FEAD32303FA0CFC40EA0C00AD
:104C800023FA02F34FEA4303CCE77FEA625307D1EA
:104C900050EA01331EBF4FF0FE4040F44000704721
:104CA00001F0004040F0FE4040F40000704700BFBB
:104CB00053B94AB9002908BF00281CBF4FF0FF3183
:104CC0004FF0FF3000F07AB9ADF1080C6DE904CE79
:104CD00000F006F8DDF804E0DDE9022304B07047D7
:104CE0002DE9F0478C460D460446089E002B51D115
:104CF0008A4217466DD9B2FA82FEBEF1000F0BD080
:104D0000CEF1200C01FA0EF520FA0CFC02FA0EF797
:104D10004CEA050C00FA0EF44FEA174A250CBCFBCE
:104D2000FAF81FFA87F90AFB18CC45EA0C4508FB8C
:104D300009F3AB420AD9ED1908F1FF3280F0238163
:104D4000AB4240F22081A8F102083D44ED1AA4B222
:104D5000B5FBFAF00AFB105544EA054400FB09F9DB
:104D6000A14509D9E41900F1FF3380F00A81A1457A
:104D700040F2078102383C44A4EB090440EA0840B1
:104D80000021002E61D024FA0EF4002334607360F9
:104D9000BDE8F0878B4207D9002E54D0002186E869
:104DA00021000846BDE8F087B3FA83F1002940F0FE
:104DB0008E80AB4202D3824200F2FA80841A65EB05
:104DC00003050120AC46002E3FD086E81010BDE858
:104DD000F08712B90127B7FBF2F7B7FA87FEBEF1E9
:104DE000000F34D1EB1B3A0C1FFA87FC0121B3FBF7
:104DF000F2F8250C02FB183345EA03450CFB08F3D7
:104E0000AB4207D9ED1908F1FF3002D2AB4200F2F4
:104E1000D1808046ED1AA3B2B5FBF2F002FB10552B
:104E200043EA05440CFB00FCA44507D9E41900F152
:104E3000FF3302D2A44500F2B8801846A4EB0C045C
:104E400040EA08409DE731463046BDE8F087CEF1A4
:104E5000200405FA0EF307FA0EF720FA04F83A0CCC
:104E600025FA04F448EA0308B4FBF2F14FEA1845C6
:104E700002FB11441FFA87FC45EA044501FB0CF3D1
:104E8000AB4200FA0EF409D9ED1901F1FF3080F0C0
:104E90008A80AB4240F2878002393D44EB1A1FFA08
:104EA00088F5B3FBF2F002FB103345EA034500FB43
:104EB0000CF3AB4207D9ED1900F1FF386FD2AB42CA
:104EC0006DD902383D44EB1A40EA01418FE7C1F148
:104ED000200722FA07F88B4005FA01F448EA030399
:104EE00020FA07FE4FEA134CFD404EEA040EB5FBD4
:104EF000FCF94FEA1E440CFB19551FFA83F844EAEB
:104F0000054509FB08F4AC4202FA01F200FA01FA85
:104F100008D9ED1809F1FF3043D2AC4241D9A9F1CB
:104F200002091D442D1B1FFA8EFEB5FBFCF00CFB85
:104F300010554EEA054400FB08F8A04507D9E418CF
:104F400000F1FF3529D2A04527D902381C4440EA98
:104F50000940A4EB0804A0FB02894C45C6464D4617
:104F600015D312D056B1BAEB0E0364EB050404FA64
:104F700007F7CB401F43CC40376074600021BDE889
:104F8000F0871846F8E69046E0E6C245EAD2B8EB6C
:104F9000020E69EB03050138E4E72846D7E74046EF
:104FA00091E78146BEE7014678E702383C4445E791
:104FB000084608E7A8F102083D442BE7704700BF08
:104FC0000C4BDA6822F08072DA60DA6842F08072A4
:104FD000DA60094B1A6822F001021A601A6842F07E
:104FE00001021A6000225A605A6800BF00BF586868
:104FF000801A7047F0ED00E0001000E070470000FC
:10500000184AF8B5136801331360174B1A6812B1C8
:105010001A68013A1A60154E002537463378ECB20B
:10502000A34202D8FFF7EAFFF8BDA400331958687D
:10503000B0B103789B0713D583680BB1013B836044
:1050400083686BB93C44C3680169984762685368D8
:105050009360137813F0010104BF61F341031370EF
:105060000135DBE7641E0020681E00204C1E002076
:10507000EFF3058313B1084B38B97047074B196834
:105080001A68521A9042FBD870471A68D20348BF78
:1050900000F1FF30F0E700BF10E000E0641E0020E8
:1050A000014B1868704700BF641E002030B5002314
:1050B000032541FA03F2D20706D502685C0005FA1F
:1050C00004F422EA040202600133102BF1D130BD56
:1050D000F0B500230325012641FA03F2D20709D5D2
:1050E00002685C0005FA04F722EA070206FA04F4F3
:1050F000224302600133102BEED1F0BD064A00F1CD
:105100003F4000F57E00116BC0F38F2301209840D3
:1051100008431063704700BF003802402DE9F04F8C
:1051200085B000F13F459DF83840029405F57E05B5
:105130009DF83C40DFF8A480039402F1FF3C01930A
:105140000024C5F387254FF0030A5FFA8CFC41FA6F
:1051500004F6F3073BD5012338F81560D0F80CE0CE
:1051600003FA04F949EA060628F8156004FA03F67A
:105170000AFA06F7029BFF4303FA06FB07EA0E0E44
:105180004EEA0B0EC0F80CE0D0F800E002FA06FB85
:105190000EEA070E4EEA0B0EBCF1010FC0F800E05C
:1051A00015D8D0F804E0019B2EEA090903FA04FEA1
:1051B0001FFA8EFE49EA0E09C0F80490D0F808E004
:1051C000039B07EA0E0703FA06F6374387600134AC
:1051D000102CBCD105B0BDE8F08F00BF6C1E0020C4
:1051E0002DE9F047054616461F469DF820809DF89C
:1051F00024900C4669B1FFF781FFCDF82490CDF8DB
:1052000020803B46324621462846BDE8F047FFF75E
:1052100085BFBDE8F08710B5044600F0BFF8204612
:10522000CC2100F01FF920464421BDE8104000F0D9
:1052300019B90000F0B50B78282B85B007460C464D
:10524000154610D0002005B0F0BDC4F3420207EEB1
:10525000902AFAEEEE7A5DE004F00F0207EE902A53
:10526000FAEECE7A56E000F0DFF80028EAD03846B1
:1052700000F094F82146384600F085F9BE21384602
:1052800000F0F0F8002401AE384600F0FBF830558D
:105290000134092CF8D10821304600F084F99DF83A
:1052A0000C308342CED19DF805309DF8046046EA6B
:1052B000032636B2384600F071F8B4B2002EBCBFF7
:1052C0006442A4B24FEA141303F0700244F30713CC
:1052D00043EA02039DF80820C2F3411202F10902D9
:1052E000B4BF012100210B2AAFD00C2AB4D00A2A66
:1052F0001BBFC4F3C00207EE902AC4F38102F8EE8C
:10530000E77A0DBF07EE902AB6EE007A67EE877A4D
:10531000FAEECF7A07EE103AB8EEC77A77EE277A30
:1053200019B19FED047A77EE677AC5ED007A012016
:1053300089E700BF000000000078A0F12803584270
:105340005841704700F070B837B5094C0190656856
:1053500003F098FE019B074AB0FBF2F04343019330
:105360006368019A5B1B9342FAD303B030BD00BF60
:10537000001000E040420F0073B50E46154604468B
:10538000FFF71EFE012201920092002329463046BB
:10539000FFF726FF2660A58002B070BD10B5044659
:1053A0000068A1880B048361FFF792FE4FF4F07050
:1053B000FFF7CAFFA1882068FFF778FE4620FFF7B5
:1053C000C3FF2368A2881B691A4214BF012400246A
:1053D0004FF4CD70FFF7B8FF204610BD10B504465E
:1053E0000068A3881A04826191B11946FFF770FE24
:1053F0000A20FFF7A9FF2068A188FFF757FE372092
:10540000FFF7A2FFA1882068BDE81040FFF74EBE5D
:105410001946FFF75DFE4120FFF796FF2068A1883F
:10542000FFF744FE0520EBE710B504460068A188AD
:105430000B048361FFF74CFE0320FFF785FFA18873
:105440002068FFF733FE0A20FFF77EFF2368A2885B
:105450001B691A4214BF012400243220FFF774FF95
:10546000204610BD70B506460D460924013C14F0D7
:10547000FF0400D170BD05F001013046FFF7AEFF1B
:105480006D08F3E770B5064609250024013D15F0C7
:10549000FF0501D1204670BD3046FFF7C5FF640807
:1054A00044EAC014E4B2F1E7002383710372C371CC
:1054B00070472DE9F843037A04460D461BB9FFF700
:1054C0006DFF814628B10020A0712072E071BDE817
:1054D000F88329462046FFF7C5FF01264F4635468B
:1054E0002046FFF7A1FF80462046FFF79DFFB8F159
:1054F000010F10D101282ED1402DE4D984F8069057
:10550000B9F1000F01D101232372637A002BDAD0A5
:105510000120BDE8F883804504EB070310D1A27990
:10552000954212D25A7A164214BF4FF001084FF03A
:105530000008B8F1000F0ED1082D00D8E571A9467A
:105540005A7A22EA06025A720BE00CBF4FF00108A9
:105550004FF00008EDE7E2194FF00108537A3343AA
:105560005372414620467600FFF738FF16F0FF06DB
:1055700004BF0137FFB205F1010508BF0126072F5F
:10558000EDB2ADD9B8E770B50C4655210646FFF728
:1055900069FF651E073415F8011F3046FFF762FFEB
:1055A000A542F8D170BD30B501440023884201D135
:1055B000184630BD10F8014B082283EA040515F0A7
:1055C000010F4FEA530318BF83F08C0302F1FF323F
:1055D00018BFDBB212F0FF024FEA5404EDD1E5E749
:1055E00030B58FB01022002101A811F079FC2422DF
:1055F000002105A811F074FC2D482E4B2E4A826222
:105600004FF4803480E818000425002301248360CF
:10561000046183610362C362C360C5610463436163
:1056200001F0E4F808B100F051FC032301A920487F
:1056300001950294039301F091FB08B100F046FC40
:105640000523019301A902231948029301F086FB67
:1056500008B100F03BFC0723019301A90323144880
:10566000029301F07BFB08B100F030FC04240E2310
:105670000DEB04010E480193029401F06FFB08B199
:1056800000F024FC0123069309930C4A0848059472
:10569000002305A907930D930C920B930A9308938B
:1056A00001F010FC08B100F011FC0FB030BD00BFDC
:1056B000AC2D0120002001400100000F01000F006F
:1056C00070B5064688B01422002103A811F008FC2A
:1056D00032682C4B9A4252D1002503F58C33009549
:1056E0005A6C294842F480725A645A6C02F48072EF
:1056F0000092009A01951A6B42F001021A631A6B2C
:1057000002F001020192019A02951A6B42F0040222
:105710001A631B6B03F0040302930324029B04949B
:10572000B02303A9039302F0DBFA10231748039375
:1057300003A904940595164C02F0D2FA154BA56006
:1057400084E828004FF4806323614FF400636361B1
:1057500020464FF40053E560A361E5612562656270
:1057600001F0B2FD08B100F0B1FBB46312200022D9
:105770000521A66301F00CFD122001F04BFD08B0DD
:1057800070BD00BF00200140000002400008024040
:10579000F42D01201064024013B5184B002400942E
:1057A0001A6B42F480021A631A6B02F480020092B0
:1057B000009A01941A6B42F400121A631B6B03F4F3
:1057C00000132246019305211120019B01F0E0FC0A
:1057D000112001F01FFD22460521382001F0D8FCE0
:1057E000382001F017FD22460521452001F0D0FCAC
:1057F000452001F00FFD02B010BD00BF003802408F
:105800007047002070470000F0B5B9B038A80024F8
:1058100040F8E04D06F006FE874B884D186038A82A
:105820002F4640F8DC4D06F015FF854B186038A870
:105830001AAE40F8D84D06F00DFF824B186038A81C
:10584000012140F8D44D06F019FE7F4B186038A8AE
:10585000012140F8D04D06F011FE7C4B186038A8AD
:10586000012140F8CC4D06F009FE794B186038A8AC
:10587000012140F8C84D06F001FE764B186038A8AB
:10588000012140F8C44D06F0F9FD734B186038A8AB
:10589000724B40F8C03D2246012106F03BFD704BA3
:1058A000186038A86F4B40F8BC3D2246012106F035
:1058B00031FD6D4B186038A86C4B40F8B83D22465E
:1058C000012106F027FD6A4B186038A8694B40F8A3
:1058D000B43D2246012106F01DFD674B186038A833
:1058E000664B40F8B03D2246012106F013FD644BA3
:1058F000186038A8634B40F8AC3D2246012106F001
:1059000009FD614B18600FCF0FC63B68336021461D
:105910001AA806F0DFFC5D4B05F1140718600FCFE5
:105920001FAE0FC63B68336021461FA806F0D2FCAD
:10593000574B05F1280718600FCF24AE0FC63B6800
:105940003360214624A806F0C5FC524B05F13C0704
:1059500018600FCF29AE0FC63B683360214629A8D7
:1059600006F0B8FC4C4B05F1500718600FCF2EAE77
:105970000FC63B68336021462EA806F0ABFC474BB0
:1059800005F1640718600FCF33AE0FC63B68336074
:10599000214633A806F09EFC414B05F178061860BD
:1059A00096E803000EAB83E803002146184606F094
:1059B000C7FD3C4B186096E8030010AB83E803007A
:1059C0002146184606F0BCFD374B05F180021860F1
:1059D00092E8030012AB83E803002146184606F064
:1059E000AFFD324B05F18802186092E8030014AB5A
:1059F00083E803002146184606F0A2FD2C4B05F172
:105A00009002186092E8030016AB83E80300214679
:105A1000184606F095FD274B9835186095E8030069
:105A200018AB83E803002146184606F089FD224B97
:105A3000186039B0F0BD00BF742E012058B80108BD
:105A4000A02E01207C2E0120982E0120902E0120D6
:105A5000842E0120AC2E0120A42E01209D020108DD
:105A6000B82E012065F30008942E01202922010898
:105A7000542E01203D2201089C2E0120C120010846
:105A80005C2E012049220108582E0120782E012089
:105A90006C2E0120882E0120B42E0120702E0120B2
:105AA000602E0120A82E0120682E01208C2E0120BE
:105AB000802E0120B02E0120642E01202DE9F04F10
:105AC0008DB01422002107A811F00AFA00248E4B91
:105AD00002941A6B8D4F8E4EDFF8449242F004020E
:105AE0001A631A6B02F004020292029A03941A6B70
:105AF00042F080021A631A6B02F080020392039A4A
:105B000004941A6B42F001021A631A6B02F001024C
:105B10000492049A05941A6B42F002021A631A6BFB
:105B200002F002020592059A06941A6B42F00802EE
:105B30001A631B6B03F008030693384601224FF4E7
:105B40004051069B02F0A0FA2246384640F203314B
:105B500002F09AFA304601224FF4806102F094FA82
:105B6000224630464FF4714102F08EFA4846012237
:105B70004FF4004102F088FA664B01931846012267
:105B80000421012502F080FA42F2033207A93846C7
:105B90004FF003080792089509940A9402F0A0F8C0
:105BA0004FF4404207A938460792CDF82080099467
:105BB00002F096F840F6044207A938464FF0280A4A
:105BC00007920894099402F08BF8534A089207A9A7
:105BD00038460092CDF81CA0099402F081F84FF4E9
:105BE000A071009A0791484607A94FF0070B089249
:105BF000099402F075F8009A089207A93046CDF88A
:105C00001CB0099402F06CF811214FF480620891E5
:105C1000304607A90792009209940A9502F060F8AD
:105C20004FF470410791304607A9089509940A94EA
:105C300002F056F8009A079207A9384A0892484697
:105C4000099402F04DF84FF4004207A94846079224
:105C5000089509940A9402F043F84FF4805207A97A
:105C60003846079208950995CDF8288002F038F853
:105C7000019B0895042207A9184602270792099557
:105C8000CDF8288002F02CF84FF4807307A9304635
:105C9000079308950997CDF8288002F021F84FF472
:105CA000007307A930460793CDF82080099402F0CD
:105CB00017F822463946062001F06AFA062001F05C
:105CC000A9FA22463946584601F062FA584601F0D0
:105CD000A1FA22463946082001F05AFA082001F0BC
:105CE00099FA22463946172001F052FA172001F09E
:105CF00091FA22462946504601F04AFA504601F0F0
:105D000089FA0DB0BDE8F08F00380240000802406B
:105D100000040240000C024000003110000021107D
:105D2000000002400748084908B5042240F6FF7306
:105D300080E80E0002F0CEF918B1BDE8084000F08E
:105D4000C5B808BDBC2E012000300040074B002222
:105D50001A609A60D3F8F42C42F00072C3F8F42C65
:105D6000034AC3F8F82C62B6704700BF10E000E0A9
:105D70000040000810B5302298B000210DEB020061
:105D800011F0AEF81422002102A811F0A9F8142293
:105D9000002107A811F0A4F8254B002100911A6CEE
:105DA00042F080521A641B6C224A03F08053009325
:105DB000009B0191136823F4404343F400431360B4
:105DC000136803F440430193019B09230C934FF4A0
:105DD00080330D93012311934FF480031393102309
:105DE00014934FF4A87315930423022416930CA85C
:105DF00007231294179302F033FE00B1FEE70F233E
:105E0000029304904FF480530690214602A8039415
:105E1000059303F043F800B1FEE74FF4007307A8C1
:105E200007940A9303F072F900B1FEE718B010BDB1
:105E3000003802400070004008B5FFF787FF124BA2
:105E4000124A1A6000F0B8FCFFF794FFFFF736FE25
:105E5000FFF7A2FC00F04CFBFFF7C2FB00F038F8A4
:105E600000F064FB00F05AF800F026FB00F0C4FAE2
:105E700000F09AFA00F066FAFFF754FFFFF7C4FC4F
:105E800006F023FAFEE700BF402F01200048014042
:105E900003680A4A934201D1FFF7B2B8084A934215
:105EA00001D108F045BD074A934201D110F09AB8DC
:105EB000054A934201D10EF039B9704700480140BC
:105EC000000800400044014000400140FEE77047E8
:105ED0000A4808B57F220A4B036082600023FF2234
:105EE0004360C26003614361836103F037FA18B114
:105EF000BDE80840FFF7EABF08BD00BFC82E01207B
:105F0000002800400268034B9A4202BF024B012264
:105F10001A607047002800403C0E474208B50E4802
:105F20000E4B4FF4827E80E8084000238360C360FC
:105F3000036143614FF40072C36103624362836291
:105F40000A238261C36203F0E5FC18B1BDE8084092
:105F5000FFF7BCBF08BD00BFE82E012000300140A4
:105F600010B5044688B01422002103A810F0B8FF31
:105F70002268154B9A4224D103F584330021019104
:105F80005A6C124842F480525A645A6C02F480529D
:105F90000192019A02911A6B42F002021A631B6B82
:105FA00003F002030293029B38230393022304931A
:105FB000012305930323069303A90523079301F007
:105FC0008FFE08B010BD00BF003001400004024049
:105FD00007B50F4B00220092596C41F4804159647F
:105FE000596C01F48041009100990192196C41F0C3
:105FF000805119641B6C03F0805301930F216FF0E3
:106000000100019B01F0C4F803B05DF804FB00BF80
:106010000038024030B5014689B000221A2001F054
:10602000B7F81A2001F0F6F80025144B02955A6CC7
:10603000134C42F480225A645B6C03F48023029375
:1060400001A903A8029B03F043F803F031F80D4BBC
:10605000236040F2E733E3600B4BB0FBF3F0013811
:10606000606020462561A56004F04CFB20B9204605
:1060700003F05EFF09B030BD0120FBE700380240AD
:10608000402F01200048014040420F0008B51F4B3F
:1060900002681A601E4B42681A601E4B82681A60C2
:1060A0001D4BC2681A601D4B02691A601C4B426985
:1060B0001A601C4B82691A601B4BC2691A601B4B29
:1060C0001A681B4B1A601B4B1A681B4B1A601B4B40
:1060D0001A681B4B1A601B4B1A681B4B1A601B4B30
:1060E0001A681B4B1A601B4B5A6A1B4B1A601B4BDE
:1060F0001B68DB0700D500BE0921194808F02EFAFD
:106100000020BDE8084009F0AFBE00BFAC1E002073
:10611000B01E0020B81E0020BC1E0020B41E0020AF
:10612000A01E0020A41E0020A81E002038ED00E0C4
:106130008C1E002028ED00E0901E00202CED00E0D9
:10614000981E002030ED00E0941E00203CED00E0A1
:10615000881E002000ED00E09C1E0020F0ED00E015
:1061600055B901081EF0040F0CBFEFF30880EFF3E0
:10617000098000F08BB870471EF0040F0CBFEFF3DE
:106180000880EFF3098000F079B8FEE71EF0040FF5
:106190000CBFEFF30880EFF3098000F071B8FEE761
:1061A0001EF0040F0CBFEFF30880EFF3098000F03E
:1061B00069B8FEE71EF0040F0CBFEFF30880EFF3A1
:1061C000098000F061B8FEE77047012001F076BF5A
:1061D000022001F073BF042001F070BF014801F0FC
:1061E00065BA00BF90300120014800F0FBBC00BF41
:1061F000AC2D012008B5202001F060FF402001F007
:106200005DFF4FF48070BDE8084001F057BF00000B
:10621000014804F089B900BFF42F0120014804F0BF
:1062200083B900BFB82F0120014804F07DB900BF39
:10623000402F0120014804F0C7BE00BFF03001200C
:10624000014804F0C1BE00BF703101204FF48060EE
:1062500001F034BF014801F029BA00BFF42D01203C
:10626000014802F009B800BF34460120014801F09E
:106270001DBA00BF303001200FF09CBAFFF706BFF7
:10628000FFF704BFFFF702BFFFF700BFFFF7FEBE37
:106290000BF0F2BF0CF094B80268084B9A4210B5AC
:1062A000044601D10FF098FE2268054B9A4203D1B3
:1062B000BDE810400FF0AABA10BD00BF0044004076
:1062C000001401400368054A934201D10FF07CBEDF
:1062D000034A934201D10FF06DBA70470044004069
:1062E000001401400268034B9A4201D10FF072BEC4
:1062F000704700BF004400400F49D1F8883043F494
:106300007003C1F888300D4B1A68002042F001027A
:106310001A6098601A6822F0847222F480321A603F
:10632000074A5A601A6822F480221A60D8604FF037
:1063300000638B60704700BF00ED00E00038024052
:10634000103000247FB51022002102A810F0C8FDF3
:106350001348144A002380E80C0041F268020093BD
:1063600001938360C260036104F0CCF908B1FFF7C8
:10637000ADFD4FF4805302A90948029303F04EFE8D
:1063800008B1FFF7A3FD0023694605480093019378
:1063900004F014FA08B1FFF799FD07B05DF804FBAB
:1063A0007C2F0120000800401FB510220021684604
:1063B00010F096FD0E480F4942F20F7380E80A0074
:1063C0004FF4D27200238360C260036104F09AF933
:1063D00008B1FFF77BFD4FF48053694604480093F2
:1063E00003F01CFE08B1FFF771FD05B05DF804FB7A
:1063F000F42F01200040014009480A4908B54AF23B
:10640000104380E80A00642200238360C2600361B5
:1064100004F078F918B1BDE80840FFF757BD08BD92
:10642000B82F0120004401401FB503681E4A934263
:106430000ED1002301931D4B1A6C42F004021A6422
:106440001B6C03F004030193019B05B05DF804FB92
:10645000174A934213D1154B00220292596C41F412
:10646000803159645B6C03F480330293182005215A
:10647000029B00F08DFE182000F0CCFEE5E70D4AEF
:106480009342E2D1094B00220392596C41F400314E
:1064900059645B6C03F40033039319200521039BBB
:1064A00000F076FE1920E7E70008004000380240BF
:1064B000004001400044014008B50B480B4B4FF42D
:1064C000964E80E808400C2200238360C36003617D
:1064D00042618361C36104F043FB18B1BDE8084029
:1064E000FFF7F4BC08BD00BFF030012000100140F0
:1064F00008B50C480C4B0C224FF4165E80E808409F
:10650000426100234FF440728360C3600361826183
:10651000C36104F025FB18B1BDE80840FFF7D6BC05
:1065200008BD00BF703101200044004008B50B4891
:106530000B4B4FF4165E80E808400C22002383606A
:10654000C360036142618361C36104F009FB18B158
:10655000BDE80840FFF7BABC08BD00BF30310120DC
:1065600000140140F0B506468DB01422002107A8A2
:1065700010F0B6FC3368624A93422DD1614B6248F9
:10658000002401945A6C42F010025A645A6C02F0D2
:1065900010020192019A02941A6B42F002021A63ED
:1065A0001B6B03F002030293029BC0230793022399
:1065B00008930123099303230A9307A907230B9345
:1065C00001F08EFB25202246052100F0E1FD25206B
:1065D00000F020FE0DB0F0BD4C4A93424AD1002598
:1065E000484B03951A6C4A4842F400321A641A6CFC
:1065F00002F400320392039A04951A6B42F00102EE
:106600001A631B6B03F00103049302270724049B06
:106610000897032307A907930A930B9401F060FBE3
:106620000C2307933A480897012307A909930B9471
:106630000A95384C01F054FB3748E5604FF0006391
:10664000402784E889004FF4806320462361656118
:10665000A561E5612562656200F036FE08B1FFF7CD
:1066600035FC3463262000220521A66300F090FD4E
:106670002620ADE7294A9342ACD10025214B059550
:106680005A6C2748274C42F020025A645A6C02F098
:1066900020020592059A06951A6B42F004021A63CD
:1066A0001B6B03F004030693069BC023079302238E
:1066B00008930123099303230A9307A908230B9343
:1066C00001F00EFB1849E56040234FF0206284E89A
:1066D0000E0020464FF4806323616561A561E5618A
:1066E0002562656200F0F0FD08B1FFF7EFFB34634F
:1066F000472000220121A66300F04AFD472067E7FA
:1067000000100140003802400004024000440040F4
:106710000000024090300120A060024000140140BF
:106720000008024030300120A064024003681C4A87
:10673000934210B504460ED102F594321948536CB9
:1067400023F010035364C02101F0F6FB2520BDE8BF
:10675000104000F075BD144A93420ED102F5FA3292
:106760000F21136C114823F40033136401F0E4FB90
:10677000206B00F0D1FE2620E9E70D4A93420ED1AE
:1067800002F59232C021536C0A4823F0200353646F
:1067900001F0D2FB206B00F0BFFE4720D7E710BD11
:1067A000001001400004024000440040000002408C
:1067B000001401400008024008B50B4B1A6842F46F
:1067C00000721A601A6842F480621A601A6842F411
:1067D00080721A60032000F0BDFC0020FFF71AFC55
:1067E000FFF7F6FB002008BD003C024010B5044650
:1067F000002800F022810268914B9A4204D040F2B6
:106800000B119048FFF763FB636833F4403304D007
:106810004FF486718B48FFF75AFBA36833F040733F
:1068200004D040F20D118748FFF751FB2369012B7B
:1068300004D94FF487718348FFF749FBA369012B03
:1068400004D940F20F117F48FFF741FBA36A33F0F0
:10685000407223F0807114D0B2F1806F11D0B2F188
:10686000006F0ED0B1F1406F0BD0B3F1606F08D064
:1068700003F17143012B04D94FF488717148FFF77C
:1068800026FBE36833F4006304D040F211116D4835
:10689000FFF71DFBE369013B0F2B04D94FF489710E
:1068A0006848FFF714FB236B012B04D940F2131146
:1068B0006448FFF70CFB6369022B04D94FF48A711B
:1068C0006048FFF704FB236A012B04D940F215113D
:1068D0005C48FFF7FCFAA26A5B4B9A4208D0E36A75
:1068E00033F0405304D040F219115648FFF7EFFA45
:1068F000236C2BB9636484F83C302046FEF7E0FE3D
:10690000236CDB0600F19780236C23F4885323F07B
:10691000020343F0020323644C4B5A6822F44032D2
:106920005A605A6861680A435A60236821695A6844
:1069300022F480725A605A6842EA01225A605A6808
:10694000A16822F040725A605A680A435A609A68F5
:10695000E16822F400629A609A680A439A603A49B0
:10696000A26A8A425BD0996821F070619960996847
:106970000A439A609A68E16A22F040529A609A68E3
:106980000A439A609A68A16922F002029A609A68A2
:1069900042EA41029A60226A002A48D0636A013BB7
:1069A000072B04D940F227612648FFF790FA2368A5
:1069B000616A5A6842F400625A605A6822F460427E
:1069C0005A605A68013942EA41325A602368E169E3
:1069D000DA6A22F47002DA62DA6A013942EA0152B2
:1069E000DA629A68216B22F400729A609A6842EA2D
:1069F00041229A609A68616922F480629A609A687A
:106A0000002042EA81229A606064236C23F0030331
:106A100043F001032364002384F83C3010BD9A68DE
:106A200022F070629A609A6822F04052A9E75A6890
:106A300022F40062C9E70120EDE7012010BD00BF8C
:106A40000020014077B901080100000F0023014038
:106A500073B5002301938369012B04460D46164646
:106A600004D940F205413B48FFF731FAE36A33F0BD
:106A7000405304D040F206413648FFF728FA94F814
:106A80003C30012B64D02168012384F83C308B68B2
:106A9000D80705D58B68DA0714D4002002B070BD82
:106AA0008B682D4A43F001038B602C4B1B68B3FBB2
:106AB000F2F303EB43030193019B002BEAD0019B0C
:106AC000013BF8E7236CA06B23F4E06323F00103A0
:106AD00043F4807323644B685B0541BF236C23F44C
:106AE000405343F480532364236C13F480531CBF3E
:106AF000636C23F006036364002384F83C30184B76
:106B0000C363184B0364184BC3646FF022030B601C
:106B10004B6843F080634B608B6843F480738B60F9
:106B20002A4633464C3100F059FD104B5B6813F098
:106B30001F0F236808D1986810F04050ADD19A68B3
:106B400042F080429A60A9E7094A9342A5D1F2E750
:106B50000220A3E777B9010840420F000019002086
:106B6000756B0008D76B0008456D000800230140D5
:106B700000200140836B1A6C12F0500F10B524D125
:106B80001A6C42F400721A641A68916811F0405F3E
:106B900017D19969A9B9D16A11F4700F02D091681F
:106BA00049050ED4516821F0200151601A6C22F47D
:106BB00080721A641A6CD2045EBF1A6C42F0010231
:106BC0001A641846FFF764FB10BD9B6BBDE81040CC
:106BD000DB6C1847704708B5806BFFF7FBFF08BDFB
:106BE0007047704738B58369012B044604D940F2D9
:106BF00073315348FFF76BF9E369013B0F2B04D95D
:106C00004FF45D714E48FFF762F96369022B04D9B6
:106C100040F275314A48FFF75AF9236819685A68F3
:106C20008D072BD5900629D5226CD1065EBF226C2C
:106C300042F4007222649A6812F0405F17D1A26990
:106C4000AAB9DA6A12F4700F02D09A6852050ED40B
:106C50005A6822F020025A60236C23F48073236464
:106C6000236CDB045EBF236C43F0010323642046E6
:106C7000FFF70EFB23686FF012021A602368196891
:106C80005A684D0732D5100630D5226CD1065EBF4A
:106C9000226C42F4005222649A6812F4401F1ED102
:106CA0009A6B12F4401F02D09A68520517D45A68A2
:106CB000550514D49A6812F0405F10D1A26972B9D8
:106CC0005A6822F080025A60236C23F480532364B4
:106CD000236CD8055EBF236C43F001032364204678
:106CE00000F0EEF823686FF00C021A602368196850
:106CF0005A68C9070FD555060DD51B68D8070AD5A0
:106D0000236C43F4803323642046FFF769FF236834
:106D10006FF001021A60236819685A6889060DD558
:106D200052010BD5626C6FF0200542F002026264E2
:106D300020461D60FFF755FF23681D6038BD00BF6A
:106D400077B90108806B08B540230364436C43F0B6
:106D500004034364FFF745FF08BD0000F7B50023B7
:106D600001930B68122B04460F4604D940F21551CB
:106D70004E48FFF7ACF87B68013B0F2B04D940F27B
:106D800016514A48FFF7A3F8BB68072B04D940F215
:106D900017514648FFF79BF894F83C30012B00F060
:106DA00082803D68BA6820680123092D84F83C3050
:106DB000AEB229D906EB4603C1681E3B4FF0070E61
:106DC0000EFA03FE21EA0E01C160C16802FA03F364
:106DD0000B43C3607A68062A4FEA820324D813441F
:106DE000476B591F1F238B4027EA03034363426B02
:106DF00006FA01F1114341632D4B984233D0002034
:106E000084F83C0003B0F0BD016905EB45034FF089
:106E1000070E0EFA03FE21EA0E010161016902FA72
:106E200003F30B430361D5E70C2A0ED81344016B1F
:106E3000A3F123021F23934021EA03030363036B9F
:106E400006FA02F21A430263D6E71344C16A413BD1
:106E50001F229A4021EA0202C262C26A06FA03F1C4
:106E60001143C162C8E7122D04D1124A536843F49A
:106E700080035360A5F11003012BC0D80D4A53685D
:106E8000102D43F400035360B9D10B4B0B4A1B6820
:106E9000B3FBF2F20A2353430193019B002BAED0C4
:106EA000019B013BF8E70220ACE700BF77B901087E
:106EB00000200140002301400019002040420F0043
:106EC00070470000F8B50B68122B05460C4604D934
:106ED00040F23A319A48FEF7FAFF6368013B032B10
:106EE00004D940F23B319648FEF7F1FFA368072B27
:106EF00004D94FF44F719248FEF7E9FFE36933F488
:106F0000403223F4803114D0B2F5802F11D0B2F585
:106F1000002F0ED0B1F5402F0BD0B3F5602F08D065
:106F2000A3F57023012B04D940F23D318448FEF7CC
:106F3000CEFF2369013B032B04D940F23E31804848
:106F4000FEF7C5FFA369012B04D940F23F317C480D
:106F5000FEF7BDFF6369012B04D94FF450717848E7
:106F6000FEF7B5FF2B685B6813F0407340F0978025
:106F7000E368B3F5805F80F0A080E269714B9A42CC
:106F800008D0236A33F4401304D040F249316C48EE
:106F9000FEF79DFF95F83C30012B00F0CF80216873
:106FA000A2680123092985F83C308EB22B6840F293
:106FB000908006EB4600DF681E384FF0070E0EFA91
:106FC00000FE27EA0E07DF60DF6802FA00F03843B0
:106FD000D8609A6BD4F810E0676822F440129A6384
:106FE000986B0EF1FF3240EA0250FA1CA2EB0E023F
:106FF0009863D2B2986B02EB82024FF01F0E0EFA2A
:1070000002FE20EA0E009863986B06FA02F2024331
:107010009A634C48E26982426BD0986820F47020F1
:107020009860986802439A609A68206A22F4401235
:107030009A609A6802439A60A269002A61D05A68ED
:1070400042F480625A606269002A5ED05A6842F453
:1070500080525A60022FE2683B485AD0032F5FD01B
:10706000012F64D15C6920405861586902435A611C
:10707000364A93420FD1122905D1D2F8043343F492
:107080008003C2F804331039012904D8304A536808
:1070900043F400035360002085F83C00F8BDB3F1D1
:1070A000807F03D1E368B3F5806F64E7B3F1007FBD
:1070B00009D1E368FF2B7FF660AF4FF45171204890
:1070C000FEF705FF59E7B3F1407FF6D1E3683F2BA8
:1070D000F1E71F6901EB41004FF0070E0EFA00FEC9
:1070E00027EA0E071F611F6902FA00F03843186192
:1070F0006FE79A6822F470229A609A6822F440122C
:1071000099E75A6822F480629CE75A6822F4805218
:107110009FE79C6920409861986902439A61A7E7BC
:10712000DC692040D861D8690243DA61A0E71C6AB3
:1071300020401862186A02431A6299E70220F8BDDB
:10714000AFB9010801000F0000F0FFFF002001406F
:1071500000230140C31E042B10B5044603D9A2210D
:107160000948FEF7B4FE094AD36823F4E0631B0420
:107170001B0C43F0BF63240243F4003304F4E064C7
:107180001C43D46010BD00BFEAB9010800ED00E067
:107190000F2A70B504460E46154603D9BA211A487F
:1071A000FEF795FE0F2E03D9BB211748FEF78FFE81
:1071B000164BD968C1F30221C1F107030A1D042B44
:1071C00028BF04230120062A8CBF0339002100FABE
:1071D00003F2013A8840324001388A400540002CD1
:1071E00042EA05024FEA0212AFBF04F1604404F024
:1071F0000F04074BD2B2A5BF04F56144D2B21A55B1
:1072000084F8002370BD00BFEAB9010800ED00E07A
:1072100014ED00E010B5041E03DACE210648FEF797
:1072200056FE6209012304F01F0403FA04F4034B21
:1072300043F8224010BD00BFEAB9010800E100E0B8
:1072400010B5041E03DADE210648FEF740FE63098E
:10725000012204F01F0402FA04F42033024A42F827
:10726000234010BDEAB9010800E100E010B5041E9A
:1072700004DA40F295110748FEF729FE630901225E
:1072800004F01F0402FA04F44033034A42F8234096
:1072900010BD00BFEAB9010800E100E00368DAB2FE
:1072A00023F47F7323F003031821103AB2FBF1F2A9
:1072B0000449032A88BF0433895C8365C165806DF6
:1072C000704700BF5DBA010870B50446FDF7E8FEDF
:1072D0000546002C00F0178123688C4A934231D078
:1072E000183293422ED0183293422BD01832934248
:1072F00028D01832934225D01832934222D0183227
:1073000093421FD0183293421CD002F5567293421A
:1073100018D01832934215D01832934212D0183236
:1073200093420FD0183293420CD01832934209D0B6
:107330001832934206D01832934203D0C8217448C1
:10734000FEF7C5FD636833F0C06306D0B3F1006F8C
:1073500003D0C9216E48FEF7BAFDA36833F040029E
:1073600005D0802B03D0CA216948FEF7B0FDE36841
:1073700033F4007303D0CB216548FEF7A8FD2369E1
:1073800033F4806303D0CC216148FEF7A0FD63692C
:1073900033F4006206D0B3F5805F03D0CD215C48A2
:1073A000FEF795FDA36933F4005206D0B3F5804F84
:1073B00003D0CE215648FEF78AFDE36933F0200260
:1073C00006D0B3F5807F03D0CF215148FEF77FFD73
:1073D000236A33F4403303D0D0214D48FEF777FDC4
:1073E000636A33F0040303D0D1214948FEF76FFDEF
:1073F000636AB3B1A36A032B03D9D6214448FEF7CD
:1074000066FDE36A33F0C07303D0D7214048FEF72E
:107410005EFD236B33F4C00303D0D8213C48FEF754
:1074200056FD002384F834302268022384F8353076
:10743000136823F00103136021680B68D8073CD45C
:107440000B68344D6268A0691D40A3681343E2686D
:1074500013432269134362691343E26903431343ED
:10746000226A1343626A042A43EA050301BF266BBA
:10747000E56A35432B430B604B69042A23F007036D
:1074800043EA02030BD1A26AE56A13433DB1F8B99E
:10749000012A2DD001D3022A01D1EA012BD44B615C
:1074A0002046FFF7FBFEE26D3F2393408360002000
:1074B0000123606584F8353070BDFDF7F1FD401B98
:1074C0000528B9D920236365032084F8350070BDF1
:1074D000B0F5005F13D1032AE1D801A050F822F0E3
:1074E000F77400089B740008F7740008F174000832
:1074F000B5F1C07FD3D1402363650120E5E7022ABF
:10750000F9D9032AC8E7012070BD00BF106002400E
:1075100025BA01083F8010F038B50546002856D03E
:1075200090F83500C0B2022852D02B68294A934205
:1075300032D0183293422FD0183293422CD01832C6
:10754000934229D01832934226D01832934223D046
:107550001832934220D0183293421DD002F5567251
:10756000934219D01832934216D01832934213D056
:107570001832934210D0183293420DD018329342F1
:107580000AD01832934207D01832934204D04FF4F5
:10759000AC711148FEF79BFC2B681A6822F00102BF
:1075A00000241A6021221C6028465C609C60DC601C
:1075B0001C615A61FFF772FEEA6D3F2393408360BE
:1075C0006C6585F8344085F83540204638BD01208B
:1075D00038BD00BF1060024025BA01082DE9F04116
:1075E000174698465A1E4FF6FE739A4204460D46B9
:1075F000866D04D94FF4EA712248FEF768FC94F8CE
:107600003430012B3AD0012384F8343094F83530EB
:10761000012B4FF002004FF000012BD184F8350010
:1076200061652168A3680868E26D402B4FF03F0355
:1076300003FA02F320F480200860C1F804800BBF35
:107640008F608D60CD60CF60B3600B6843F0160330
:107650000B604B6943F080034B61236C1BB10B68DB
:1076600043F008030B600B6843F001030B6000203C
:10767000BDE8F08184F83410BDE8F0810220BDE857
:10768000F08100BF25BA010890F83530022B03D0F5
:1076900080234365012070470268052380F8353058
:1076A000136823F00103136000207047F7B500232F
:1076B00001935A4B856D1F68C36D2E6808229A404E
:1076C000164204460CD001680868400708D50868CF
:1076D00020F004000860AA60626D42F00102626559
:1076E00001229A40164208D021684969090641BF23
:1076F000AA60626D42F00202626504229A4016425C
:1077000008D021680968880741BFAA60626D42F00D
:107710000402626510229A40164210D0236819684C
:1077200009070CD5AA601A68500335D51B681903E0
:1077300001D4236C00E0A36C0BB120469847E16DA7
:1077400020228A40164238D023681868C60634D5ED
:10775000AA6094F83520052A1A6825D122F016026D
:107760001A605A6922F080025A61226C0AB9A26C2E
:107770001AB11A6822F008021A603F238B40AB60EE
:10778000002384F83430012384F83530236D0BB1A5
:107790002046984703B0F0BD1A68D2055EBF1A684C
:1077A00022F008021A60C4E7500328D51B681903A9
:1077B00032D4636C0BB120469847636D002BE9D03F
:1077C000636DDA0719D50523226884F8353013680C
:1077D00023F0010313604FF41653B7FBF3F7019B3B
:1077E00001339F42019302D31368DB07F7D40023D0
:1077F00084F83430012384F83530E36CC7E71A6825
:1078000012F4807208D1196821F010011960012367
:1078100084F8342084F83530E36BCBE7001900207E
:10782000204BDA68D00606D51F49CA6942F010021B
:10783000CA611022DA60DA68910606D51A49CA6967
:1078400042F00802CA612022DA60164BDA6852065A
:1078500006D51549CA6942F00402CA614022DA60BD
:10786000DA68100606D51049CA6942F00202CA61F8
:107870008022DA600B4BDA68D10507D50A49CA695C
:1078800042F00102CA614FF48072DA60DA6892074E
:1078900006D50549CA6942F02002CA610222DA60AF
:1078A000704700BF003C0240B031012038B500F104
:1078B0007843B3F5002F04460D460BD300F1604327
:1078C00003F50843B3F5047F04D340F2C52108480B
:1078D000FEF7FDFA074B1A6922F440721A611A6921
:1078E0001A611A6942F001021A61257038BD00BFA1
:1078F00065BA0108003C024038B500F17843B3F5A1
:10790000002F04460D460BD300F1604303F50843F6
:10791000B3F5047F04D34FF42B710948FEF7D7FA6F
:10792000084B1A6922F440721A611A6942F4807293
:107930001A611A6942F001021A61258038BD00BF40
:1079400065BA0108003C024038B500F17843B3F550
:10795000002F04460D460BD300F1604303F50843A6
:10796000B3F5047F04D340F293210948FEF7AFFA40
:10797000084B1A6922F440721A611A6942F40072C3
:107980001A611A6942F001021A61256038BD00BF10
:1079900065BA0108003C024070B51E4600F178430C
:1079A000B3F5002F044615460BD300F1604303F5F1
:1079B0000843B3F5047F04D340F277210948FEF76A
:1079C00086FA0949086920F440700861086940F4A2
:1079D00040700861086940F0010008612560666038
:1079E00070BD00BF65BA0108003C0240064B1A6931
:1079F000002ABFBF054A5A6002F188325A60BABFF6
:107A00001869C00F00207047003C02402301674501
:107A1000034A136943F0004313610020704700BF1D
:107A2000003C0240F8B5124B124C00220546DA61C8
:107A3000FDF736FB26460746E368DA030CD4E36815
:107A4000DB0744BF0123E360F06810F4F97002D053
:107A5000FFF7E6FE0120F8BD691CEDD00DB903204B
:107A6000F8BDFDF71DFBC01B8542E5D2F7E700BF5F
:107A7000B0310120003C02402DE9F0411E4C9846F7
:107A8000237E012B07460D46164632D001230328DC
:107A9000237603D9B4211948FEF719FA4CF2503075
:107AA000FFF7C0FF68B987B9F1B22846FFF7FEFEBD
:107AB0004CF25030FFF7B6FF114A136923F001036F
:107AC000136100232376BDE8F081012F04D1B1B208
:107AD0002846FFF711FFEBE7022F04D13146284675
:107AE000FFF732FFE4E7324643462846FFF754FFEC
:107AF000DEE70220BDE8F081B031012065BA01085F
:107B0000003C0240032838B504460D4604D94FF422
:107B100073710D48FEF7DBF9012D04D040F2CD3131
:107B20000948FEF7D4F9094B1A6922F440721A6128
:107B30001A6942F004021A61186940F4803040EA80
:107B40000420186138BD00BF9FBA0108003C024004
:107B5000072838B505460C4604D940F2EB311748E2
:107B6000FEF7B5F9032C21D94FF47B711348FEF7CA
:107B7000AEF9022C0CBF4FF400744FF44074104B5C
:107B80001A6922F440721A611A6914431C611A6955
:107B900022F0F8021A61186940F0020040EAC500BC
:107BA00018611A6942F480321A6138BD002CE6D09F
:107BB000012CDED14FF48074E1E700BF9FBA0108C9
:107BC000003C0240144B1A6891050FD51A6822F444
:107BD00000721A601A6842F400621A601A6822F48D
:107BE00000621A601A6842F400721A600A4B1A683E
:107BF00052050FD51A6822F480621A601A6842F49E
:107C000080521A601A6822F480521A601A6842F48C
:107C100080621A60704700BF003C02402DE9F843C3
:107C20002C4E337E012B0446884651D001233376F7
:107C30000368012B03D9BB212748FEF748F94CF212
:107C40005030FFF7EFFE0546B0B94FF0FF33C8F8EC
:107C500000302368012B14D16168207CFFF752FFAC
:107C60004CF25030FFF7DEFE1C4A136923F0040388
:107C700005461361FFF7A6FF002333762846BDE8CB
:107C8000F883E368A2681344013B072B03D9D3218F
:107C90001148FEF71CF9A768DFF84090E368A26876
:107CA00013449F42E6D2217C3846FFF751FF4CF245
:107CB0005030FFF7B7FED9F8103023F0FA03C9F8B7
:107CC000103018B1C8F800700546D3E70137E5E772
:107CD0000225D3E7B03101209FBA0108003C0240E1
:107CE0008F4B98422DE9F74F04460D4617D003F508
:107CF0008063984213D003F5806398420FD003F558
:107D0000806398420BD003F58063984207D003F557
:107D10004063984203D0C3218248FEF7D8F82B680D
:107D20009AB212B11B0C1B041BB1C4217D48FEF793
:107D3000CEF86B68032B17D9A3F11102012A13D9CE
:107D4000794923F400128A420ED001F580118B424A
:107D50000AD0A1F570218A4206D0744A934203D01A
:107D6000C5217048FEF7B3F8AB68022B03D9C621D2
:107D70006C48FEF7ACF8DFF8BC81002601232A68C6
:107D800003FA06F707EA02094F4540F0BB806A682C
:107D900022F01002022A1BD129690F2904D849F2C6
:107DA000F772CA40D20703D4D7215E48FEF78FF896
:107DB000F10804EB810106F0070290000B6A0F2224
:107DC000824023EA020E2A69824042EA0E020A62D7
:107DD0006A6820684FEA460B4FF0030A0AFA0BFA6A
:107DE00002F003016FEA0A0A22F0100200EA0A0018
:107DF00001FA0BF1013A0143012A216017D8EA6820
:107E0000032A03D9EA214748FEF761F8A168EA6826
:107E10006B680AEA010102FA0BF20A43A260626887
:107E2000C3F3001322EA0702B34013436360E3681D
:107E300068680AEA030AAB6803FA0BF343EA0A0329
:107E4000E360C3005ED53A4A00230193516C41F4CC
:107E500080415164526C26F0030101F1804102F42B
:107E6000804201F59C31019206F0030E019AD1F88F
:107E700008C04FEA8E0E0F2202FA0EF22CEA020C14
:107E8000274A944213D003F1804303F501339C4207
:107E90003FD003F580639C423DD003F580639C4254
:107EA0003BD003F580639C4214BF0723042303FAED
:107EB0000EF343EA0C038B60D8F800206FEA090147
:107EC000C70354BF0A4049EA0202C8F80020D8F8A4
:107ED0000420830354BF0A4049EA0202C8F8042080
:107EE000D8F80820C70254BF0A4049EA0202C8F87D
:107EF0000820D8F80C30820254BF0B4049EA030333
:107F0000C8F80C300136102E7FF438AF03B0BDE84E
:107F1000F08F0123CBE70223C9E70323C7E700BFA4
:107F200000000240DCBA010800001110000022101D
:107F300000380240003C01402DE9F84F454B984283
:107F40000446884618D003F58063984214D003F5A0
:107F50008063984210D003F5806398420CD003F5FB
:107F60008063984208D003F54063984204D04FF4F0
:107F7000A0713948FDF7ABFF3849DFF8E4B00022C3
:107F80004FF001094FF0030A4FF00F0E09FA02F308
:107F900033EA080050D1500025680AFA00F0C043C7
:107FA000D608054004EB8606256002F00705376A0F
:107FB000AD000EFA05F527EA05053562A56805400E
:107FC000A5606568DB431D406560E5682840E060AA
:107FD00022F0030000F1804000F59C3002F003061F
:107FE0001C4D8768B6000EFA06FCAC4207EA0C0787
:107FF00027D005F58065AC4225D005F58065AC42FB
:1080000023D005F58065AC4221D05C450CBF04252A
:108010000725B540AF420FD1856825EA0C0585607C
:108020000868184008604868184048608868184028
:108030008860C8680340CB600132102AA6D1BDE831
:10804000F88F0025E5E70125E3E70225E1E70325B1
:10805000DFE700BF00000240DCBA0108003C01403D
:108060000010024038B505460C4621B94FF4C771DF
:108070000448FDF72CFF2B691C4214BF012000208F
:1080800038BD00BFDCBA010870B5054616460C467F
:1080900021B940F2AF110848FDF719FF012E06D9AA
:1080A0004FF4D8710448FDF712FFAC6170BD002E8B
:1080B000FBD12404F9E700BFDCBA010808B5044B82
:1080C0005969014202D05861FEF7E4F808BD00BFCB
:1080D000003C014038B50446002832D002681A4BF3
:1080E0009A4203D0AD211948FDF7F1FE6368062BD3
:1080F00003D9AE211548FDF7EAFEA368B3F5805F0A
:1081000003D3AF211148FDF7E2FE23684CF6CC42C1
:108110001A6045F255521A6062685A60A2689A6005
:10812000FCF7BEFF05462368D86818B94AF6AA22AC
:108130001A6038BDFCF7B4FF401B3028F3D9032088
:1081400038BD012038BD00BF0030004015BB01081C
:1081500003684AF6AA221A6000207047F0B5054667
:108160008BB000286DD00368B3F1A04F03D09421E9
:108170003548FDF7ACFE03232C4685F8B933284675
:1081800006F054FA54F8100B03F084F80FCC6E4646
:108190000FC60FCC0FC694E8030086E803002F1D1E
:1081A00097E80E00286803F035F80021286803F0EE
:1081B00077F800212B462A4605F1100401260846CF
:1081C00082F83810D18701310F2982F8396082F89E
:1081D0003B0010645064D06402F11C02F0D1002214
:1081E000D5F800E0114602F1400083F8F821DA8763
:1081F0000EEB800001320F2A83F8F91183F8FB118E
:10820000C3F80012C3F80412C3F80C12416003F162
:108210001C03E8D10FCC6E460FC60FCC0FC694E8F6
:10822000030086E80300704697E80E0003F050F85C
:10823000012385F8B933286803F06DFB00200BB0EB
:10824000F0BD0120FBE700BF4EBB010890F8B8333A
:10825000012B10B504460CD0012380F8B833006818
:1082600003F04DFB206803F00FF8002084F8B803FA
:1082700010BD022010BD00002DE9F04FD0F8009095
:1082800087B00446484603F080FB0290002840F087
:108290002E81206803F04BFB002800F02881206825
:1082A00003F045FB850748BF2268206842BF536939
:1082B00003F00203536103F03AFB10F400250AD0E7
:1082C000206803F038FB09F530660746A246002512
:1082D000002F40F00F81206803F029FB41030BD5EC
:1082E000206803F030FB2646039009F5106800254E
:1082F000039B002B40F03F81206803F018FB00280F
:108300000DDAD9F8043823F00103C9F804382046FF
:1083100006F00CFA2268536903F0004353612068A9
:1083200003F005FB06050BD5D9F80838D80702D5A8
:10833000204606F0E3F92268536903F400635361B1
:10834000206803F0F4FAC10437D509F500667368B4
:10835000206823F001037360102103F055F8616871
:1083600009F51063FF220298884240F092814FF095
:10837000FF33B361F36943F00113F361236B002B07
:1083800000F08F81D6F8843043F00B03C6F88430B8
:10839000736C43F00B037364D9F80038217C2068B8
:1083A00023F4FE63C9F8003804F56F7203F00CFB88
:1083B0002268536903F480535361206803F0B7FACD
:1083C00082041DD5206803F0E4FA2068C36823F412
:1083D0007053C36003F041F8002840F06B812268BD
:1083E000E0604FF400736361D36843F41053D360CB
:1083F000204606F072F92268536903F40053536172
:10840000206803F094FAC3062BD52268936923F001
:1084100010039361D9F82060C6F34343022B06F0A2
:108420000F0840F0A88147F6F0731E4214D01C27B5
:1084300007FB0847C6F30A163246D7F80412484627
:1084400003F007FAD7F804323344C7F80432D7F8F8
:1084500010321E44C7F810622268936943F010037B
:108460009361206803F063FA070707D5204606F0FA
:1084700030F92268536903F008035361206803F060
:1084800056FAC60208D5E9B2204606F057F9226826
:10849000536903F480135361206803F048FA8002A3
:1084A00008D5E9B2204606F045F92268536903F47D
:1084B00000135361206803F03AFA410007D52046C3
:1084C00006F040F92268536903F080435361206845
:1084D00003F02DFA42070AD523685D686B0702D5C1
:1084E000204606F033F923685A6815435D6007B0EB
:1084F000BDE8F08FF80738D55FFA85FB594620684C
:1085000003F029FA10F0010F804621D021690123E0
:108510009942B3600CD13169DAF80002C1F312015B
:10852000411ACAF81012DAF804120844CAF8040210
:108530005946204606F0BCF82169012908D13DB909
:10854000D4F80C2222B904F56F72206803F03CFACB
:1085500018F0080F04D0204606F0A4F80823B360F2
:1085600018F0100F1CBF1023B36001357F082036B0
:108570000AF11C0AACE6039BDA0758D55FFA85FBC3
:108580005946206803F0F1F9C307074620D5D9F80A
:1085900034380121A94023EA0103C9F83438012302
:1085A000C8F808302369012B01BF736C326C9B182B
:1085B00073645946204606F084F82169012907D1E1
:1085C00035B9E36C23B904F56F72206803F0FCF948
:1085D000380744BF0823C8F80830F90644BF102301
:1085E000C8F808307A0644BF4023C8F80830BB07F3
:1085F00044BF0223C8F808303F0618D52368049307
:10860000F76C336DFF1A336C9F4228BF1F46049BE3
:1086100003F5106307F1030A03EB45134FEA9A0AC7
:108620000593059B9B699BB2534508D82FB3039BC9
:108630005B08013503931C3608F1200858E6326DBB
:10864000F36C9342F2D9002BF0D0376C04989B1A4C
:108650009F4228BF1F46237C00935A46BBB2716CD1
:1086600003F0E3F8736C3B447364336D07F1030A62
:108670003B444FEA9A0A3365D3E7049B012203F592
:10868000006BD3F83438AA4023EA0203CBF8343025
:10869000CDE702989A600130C3F808220290203397
:1086A00061E6736943F00B037361336943F00B03B5
:1086B000336171E60323E3604023636100F0E2FC71
:1086C000344B354A03449342236804D8DA6842F4B1
:1086D0007052DA608CE6314A314902448A4203D84A
:1086E000DA6842F46052F4E7A0F574022D49A2F56D
:1086F00010528A4203D8DA6842F45052E9E7A0F1F6
:1087000083722949A2F5E7428A4203D8DA6842F423
:108710004052DEE7254A264902448A4203D8DA68F5
:1087200042F43052D5E7234A234902448A4203D80F
:10873000DA6842F42052CCE7204A214902448A42B6
:1087400003D8DA6842F41052C3E7A0F1B7721D49AA
:10875000A2F558528A4203D8DA6842F40052B8E7C8
:10876000194A1A4902448A42DA6894BF42F4E05234
:1087700042F4C052ADE7062B7FF46EAE082204F53A
:108780006F7148461C2703F064F807FB0847C6F3DF
:108790000A165CE6405327FFFF340C00401E1BFF07
:1087A0003F420F007F4F12001FD6130060B6E5FE58
:1087B0005FE3160000D3CEFE3F771B00C05BB3FE25
:1087C000BF9121001F753800E05459FEDF9C410025
:1087D00090F8B833012B10B5044609D0012380F876
:1087E000B833006803F07BF8002084F8B80310BDAC
:1087F000022010BD70B54EB2002E04464FF01C058D
:1088000001F07F00B5BF05FB004105FB0141383198
:1088100001F5FC71C0B2002EB8BFC880022BCB702E
:108820004FEAD67504BF00230B7108704D7094F8A1
:10883000B8338A60012B09D0012384F8B83320684B
:1088400002F026FE002084F8B80370BD022070BD3F
:108850004BB2002B10B54FF01C02044601F07F0014
:10886000B5BF02FB004102FB0141383101F5FC714B
:10887000DB0F08704B7094F8B833012B09D001233B
:1088800084F8B833206802F042FE002084F8B80370
:1088900010BD022010BD38B501F07F051C2404FB7B
:1088A000050104FB050401F5FC71C4F80C3200233A
:1088B000C4F80422C4F8103284F8F93184F8F8516D
:1088C00003690068012B08BFC4F80822DAB21DB999
:1088D00002F03EFF002038BD02F074FEFAE71C23D0
:1088E00001F00F0103FB0101B1F81002704738B528
:1088F00001F07F051C2404FB050104FB050438314D
:10890000E364002323650123626484F8393084F82A
:10891000385003690068012B08BFA264DAB21DB9A0
:1089200002F016FF002038BD02F04CFEFAE738B521
:108930004BB2002B01F07F054FF01C02B5BF02FBCC
:10894000050102FB0101383101F5FC710122DB0F49
:10895000EDB28A700D704B7090F8B83393420446B4
:108960000FD080F8B823006802F081FF2DB904F51C
:108970006F72217C206803F027F8002084F8B80388
:1089800038BD022038BD38B54BB2002B05464FF03C
:108990001C0201F07F00B5BF02FB005102FB015138
:1089A000383101F5FC71DB0F00248C7008704B70BE
:1089B00095F8B833012B09D0012385F8B83328681E
:1089C00002F074FF85F8B843204638BD022038BD58
:1089D000006870B5436A21B943EA0243836200200C
:1089E00070BD846A002503EB14434E1EECB2B44202
:1089F00005F1010506DB3F3100EB810043EA02434C
:108A00004360ECE7403400EB8404646803EB1443F8
:108A1000ECE703680020596270470000012810B598
:108A20000C4604D94FF4C0710B48FDF750FA631E91
:108A3000012B04D940F281110748FDF748FA074A93
:108A40001369012C23F00403136101D130BF10BD61
:108A500040BF20BF20BF10BD86BB010800ED00E075
:108A60002DE9F341044618B9012002B0BDE8F081B8
:108A700003680F2B03D9F821A248FDF728FA2368D1
:108A8000D80718D4236899076BD42368190700F115
:108A9000BE8023685A0700F1E480A369022B04D941
:108AA00040F2DF119748FDF712FAA269002A40F060
:108AB00051810020D9E7636833F4803206D0B3F5E2
:108AC000A02F03D0FD218F48FDF701FA8E4B9A6845
:108AD00002F00C02042A07D09A6802F00C02082A5D
:108AE0000AD15B685A0207D5874B1B689B03C9D51F
:108AF0006368002BC6D1B7E76368834DB3F5803F49
:108B000011D12B6843F480332B60FCF7C9FA7E4DFA
:108B100006462B689F03B5D4FCF7C2FA801B642875
:108B2000F7D90320A1E7B3F5A02F04D12B6843F4B4
:108B300080232B60E5E72A6822F480322A602A68C5
:108B400022F480222A60002BDFD1FCF7A9FA064626
:108B50002B68980396D5FCF7A3FA801B6428F7D9F5
:108B6000DFE7E368012B04D940F22F116548FDF7D8
:108B7000AEF923691F2B04D94FF498716148FDF7B2
:108B8000A6F9614B9A6812F00C0F07D09A6802F0B0
:108B90000C02082A12D15B6859020FD45A4B1A688A
:108BA000920703D5E268012A7FF45EAF1A68216953
:108BB00022F0F80242EAC1021A6066E7E268534B0B
:108BC000B2B101221A60FCF76BFA4F4D06462B68D2
:108BD0009F0707D52B68226923F0F80343EAC203F5
:108BE0002B6052E7FCF75CFA801B0228EFD998E76C
:108BF0001A60FCF755FA444D06462B6898077FF536
:108C000044AFFCF74DFA801B0228F6D989E7636967
:108C1000012B04D94FF4B8713A48FDF758F962694D
:108C20003B4B7AB101221A60FCF73AFA364D064600
:108C30006B6F9B073FF52DAFFCF732FA801B0228C4
:108C4000F6D96EE71A60FCF72BFA2F4D06466B6FCC
:108C50009F077FF51EAFFCF723FA801B0228F6D989
:108C60005FE7A368012B06D9052B04D04FF4CE7122
:108C70002448FDF72CF9244B1A6C12F0805228D1AD
:108C800001921A6C42F080521A641B6C03F08053FC
:108C90000193019B01261F4D2B68D8051BD5A368A6
:108CA000194D012B27D12B6F43F001032B67FCF7E4
:108CB000F7F9154D074641F288382B6F9A0743D5CF
:108CC000002E3FF4EAAE104A136C23F08053136475
:108CD000E3E60026DFE72B6843F480732B60FCF7A4
:108CE000DFF907462B68D905D9D4FCF7D9F9C01BA1
:108CF0000228F7D915E7052B0ED12B6F43F004039B
:108D00002B67D0E7BEBB0108003802400000474295
:108D1000800E4742007000402A6F22F001022A674D
:108D20002A6F22F004022A67002BC0D1FCF7B8F9A1
:108D300041F2883807462B6F9B07C1D5FCF7B0F985
:108D4000C01B4045F7D9ECE6FCF7AAF9C01B40452B
:108D5000B3D9E6E63B4EB36803F00C03082B3FF4AF
:108D600083AE022A384D5ED1E36933F4800304D028
:108D70004FF4F4713548FDF7AAF8236A3F2B04D964
:108D800040F2E9113148FDF7A2F8636A323BB3F5CE
:108D9000BF7F04D94FF4F5712C48FDF798F8A26A0B
:108DA000082A04D84FF4AA73D340D80704D440F259
:108DB000EB112648FDF78BF8E36A023B0D2B04D933
:108DC0004FF4F6712148FDF782F800232B60FCF781
:108DD00067F91C4E0746336899011ED4226AE3697D
:108DE0001343626A43EA8213E26A43EA0263A26AB5
:108DF000144C5208013A43EA0243736001232B608A
:108E0000FCF74EF9054623689A013FF552AEFCF790
:108E100047F9401B0228F6D983E6FCF741F9C01B4D
:108E20000228D8D97DE600232B60FCF739F90446E7
:108E300033689B017FF53DAEFCF732F9001B022839
:108E4000F6D96EE60038024060004742BEBB01081A
:108E5000104908B58B6803F00C03082B18D14A6839
:108E60004B6849680C4813F48003C1F3881118BF9C
:108E7000002302F03F02A1FB0001FBF719FF054BA5
:108E80005B68C3F3014301335B00B0FBF3F008BD43
:108E9000014808BD003802400024F4002DE9F041EB
:108EA0000D46044610B90120BDE8F0810368013B7E
:108EB0000E2B04D94FF414716D48FDF708F8072DF7
:108EC00004D940F251216A48FDF701F8694B1A684C
:108ED00002F00F0295423DD82268960742D42368DB
:108EE000D9076CD4634B1A6802F00F029542C0F0A8
:108EF0009C8023685A0700F1A18023681B0718D5BE
:108F0000236933F480520CD023F40062B2F5A05FE1
:108F100007D0B3F5C05F04D04FF430715448FCF76C
:108F2000D6FF554A2169936823F4604343EAC1039D
:108F30009360FFF78DFF504B504A9B68C3F30313B8
:108F4000D35CD8404E4B18600020FDF763F800203A
:108F5000BDE8F081EAB21A701B6803F00F039D426E
:108F6000A1D1B9E7444B12F0040F1EBF996841F438
:108F7000E0519960100742BF9A6842F460429A60DB
:108F8000A36833F0800212D023F02002902A0ED082
:108F900023F04002A02A0AD023F01002C02A06D0F3
:108FA000F02B04D04FF41D713148FCF790FF324A8A
:108FB000A168936823F0F0030B4393608FE7636825
:108FC000032B04D940F27B212948FCF780FF62681B
:108FD000294B012A1FD11B6813F4003F3FF463AFF4
:108FE000254EB36823F003031343B360FCF758F82E
:108FF00041F288380746B368626803F00C03B3EBAC
:10900000820F3FF46FAFFCF74BF8C01B4045F2D91D
:109010000320BDE8F081911E01291B6802D813F0DE
:10902000007FDBE713F0020FD8E7EAB21A701B6883
:1090300003F00F039D427FF436AF5AE7E36833F441
:1090400080520CD023F40062B2F5A05F07D0B3F5D4
:10905000C05F04D040F2B9210548FCF738FF064A4A
:10906000E168936823F4E0530B43936045E700BF46
:10907000BEBB0108003C0240003802405FB9010855
:1090800000190020014B1868704700BF001900202C
:10909000044B054A9B68C3F38223D35C034A1068E0
:1090A000D8407047003802406FB90108001900200D
:1090B000044B054A9B68C3F34233D35C034A1068F0
:1090C000D8407047003802406FB9010800190020ED
:1090D0000F2303600B4B9A6802F0030242609A6808
:1090E00002F0F00282609A6802F4E052C2609B686B
:1090F000DB0803F4E0530361034B1B6803F00F0329
:109100000B60704700380240003C02400368013B9E
:109110000E2BF7B5044604D940F6DD116D48FCF777
:10912000D6FE236813F0050F0BD123689A0743D4AA
:10913000206810F008001FBF674B227C1A600020D7
:1091400038E0A368023B052B04D940F6E4116148DE
:10915000FCF7BDFE6368323BB3F5BF7F04D940F630
:10916000E5115C48FCF7B3FE5C4D5D4E00232B60BF
:10917000FBF796FF074633681B0115D4A3686268A6
:109180001B0743EA8213C6F8843001232B60FBF7E8
:1091900087FF534D06462B681801C6D4FBF780FFA6
:1091A000801B0228F7D904E0FBF77AFFC01B0228D6
:1091B000E1D9032003B0F0BDE368B3F5807F2ED082
:1091C000B3F5007F2BD0474A23F4A020904223F42C
:1091D000803124D023F4102002F5003290421ED0BA
:1091E000414823F44032824219D023F4881300F519
:1091F000C020834213D03D4B9A4210D003F5802308
:109200009A420CD003F580239A4208D003F58023BC
:10921000994204D040F616212E48FCF758FE002350
:1092200001932F4B324D1A6C42F080521A641B6C22
:1092300003F080530193019B2B6843F480732B60F0
:10924000FBF72EFF06462B68D9051AD5244D2B6F48
:1092500013F440731BD1E36803F44072B2F5407F0E
:109260001F4A33D1916823F0704021F4F81120F4A3
:10927000407001439160116FC3F30B030B431367FD
:1092800056E7FBF70DFF801B0228DCD991E7E26867
:1092900002F440729342DED02B6F164A0121116016
:1092A00023F44073002111602B672B6FDA07D2D5AE
:1092B000FBF7F6FE41F2883706462B6F9B07CAD4B0
:1092C000FBF7EEFE801BB842F7D972E7916821F4F4
:1092D000F811CFE7F6BB0108E011474268004742AA
:1092E00000380240000302000003080000031000E1
:1092F00000700040400E4742026838B5D36823F042
:10930000A003D3600446FBF7CBFE05462368DB6869
:109310009B0601D5002038BDFBF7C2FE401BB0F50F
:109320007A7FF3D9032038BD38B50368DA6852066E
:10933000044601D5002038BD4FF0FF32DA60FBF75C
:10934000AFFE05462368DB685B06F3D4FBF7A8FE97
:10935000401BB0F57A7FF5D9032038BD38B50446F7
:10936000002847D0436833F0400303D0D2213B4864
:10937000FCF7ADFDA3687F2B03D9D3213748FCF759
:10938000A6FDE368B3F5004F03D3D4213348FCF7BF
:109390009EFD236933F4C00303D0D5212F48FCF789
:1093A00096FD636933F4801303D0D6212B48FCF774
:1093B0008EFDA36933F4802303D0D7212748FCF71F
:1093C00086FD637F03F0FF021BB922772046FCF77E
:1093D00099FD022363772368CA225A6253225A6294
:1093E0002046FFF7A1FF2368054628B1FF225A62F5
:1093F0000423637701252EE09A68206922F4E002B5
:1094000022F040029A6062689968024360690243F0
:109410000A439A60E2681A611A69A16842EA014245
:109420001A61DA6822F08002DA609B689B0605D434
:109430002046FFF761FF08B12368D7E72368A169D9
:109440001A6C22F480221A641A6C0A431A64FF22EE
:109450005A6201236377284638BD00BF31BC01083A
:109460000023092803D840EA0310C0B270470A3825
:109470000133C0B2F5E7030903EB830300F00F00EB
:1094800000EB4300C0B27047012AF8B506460C460F
:10949000154604D94FF4E0716D48FCF718FDE368F8
:1094A000B3F5003F07D033F4803304D040F2C1114C
:1094B0006748FCF70CFD236933F4802304D04FF494
:1094C000E1716348FCF703FD337F012B4FF0020786
:1094D0004FD0012333773368777720789B68002D4E
:1094E0004FD15A0647D501380B2804D940F2CD1187
:1094F0005748FCF7ECFCE37813F0BF0F04D04FF4AF
:10950000E7715348FCF7E3FC63783B2B04D940F246
:10951000D5114F48FCF7DBFCA3783B2B04D94FF463
:10952000EB714B48FCF7D3FC2078FFF799FF02461C
:109530006078FFF795FF0546A078FFF791FFE37885
:1095400040EA034040EA024040EA05253368CA2267
:109550005A6253225A623046FFF7E6FE33680746E6
:1095600000284BD0FF225A620423737700233377FD
:1095700001273846F8BD1728E570C5D940F2D31148
:10958000BFE713F0400331D0FFF775FF01380B2818
:1095900004D94FF4F1712E48FCF799FCE37813F0ED
:1095A000BF0F04D040F2E3112948FCF790FC60782B
:1095B000FFF761FF3B2804D94FF4F5712448FCF70D
:1095C00086FCA078FFF757FF3B2804D940F2EB1147
:1095D0001F48FCF77CFC60782578000240EA0540D3
:1095E000A5782843E57840EA0545AFE7E370FFF743
:1095F00042FF1728DBD94FF4F471D5E705F07F352A
:1096000025F0FE451D609A68E16822F480229A6088
:109610009A680A4321690A439A60DA6822F0800254
:10962000DA609B689B060AD43046FFF765FE30B1CE
:109630003368FF225A6204237377377798E73368D9
:10964000FF225A62012373770023337791E700BF2B
:1096500031BC0108012AF8B505460C46174604D965
:109660004FF411711448FCF732FC2B689A6A19699F
:109670001D68626005F07F3323F0FE43C1F30E01E5
:109680001E0C06F03F00A16005F07F05C3F3062124
:1096900006F0400620706170A570E67057B9FFF7BC
:1096A000EAFE20700846FFF7E6FE60702846FFF7E6
:1096B000E2FEA0700020F8BD31BC0108012A70B59F
:1096C00005460E46144604D940F271214E48FCF777
:1096D000FEFB2B7F012B4FF0020300F09380012251
:1096E0002A776B7734B97378DA0642BF23F0100318
:1096F0000A3373703378013B062B04D940F27D2185
:109700004148FCF7E4FBF078002C3ED1632804D9F3
:1097100040F281213C48FCF7DAFB7378013B0B2BCC
:1097200004D940F282213848FCF7D1FBB378013BE1
:109730001E2B04D940F283213348FCF7C8FBF07894
:10974000FFF78EFE02467078FFF78AFE0446B07877
:10975000FFF786FE337840EA433040EA024040EAB1
:1097600004242B68CA225A6253225A622846FFF701
:10977000DBFD2B68064630B3FF225A6204236B7769
:1097800000232B770126304670BDFFF774FE632857
:1097900004D94FF423711C48FCF799FB40F28D214A
:1097A0001948FCF794FB184840F28E21FCF78FFB18
:1097B0007078F478000240EA0440B47820433478AA
:1097C00040EA4434CDE724F07F4424F0C0045C60D8
:1097D000DA6822F08002DA609B689B060AD4284689
:1097E000FFF78AFD30B12B68FF225A6204236B77A2
:1097F0002E77C7E72B68FF225A6201236B7700237D
:109800002B77C0E71E46BEE731BC0108012A70B5C0
:1098100005460C46164604D940F2DF211048FCF7F5
:1098200056FB2B68596821F07F4323F0C003180CC6
:10983000C3F3042501F03F01C3F34233E0706570C8
:10984000A170237056B9FFF716FEE0702846FFF7A7
:1098500012FE60700846FFF70EFEA070002070BD7B
:1098600031BC01082DE9F041069E044688461746A2
:109870001D462268936838EA03030CBF01230023C6
:109880009F4202D10020BDE8F0816B1CF2D055BB95
:1098900023685A6822F0E0025A606268B2F5827F5B
:1098A0000AD1A268B2F5004F02D0B2F5806F03D1A1
:1098B0001A6822F040021A60A26AB2F5005F09D16C
:1098C0001A6822F400521204120C1A601A6842F448
:1098D00000521A60012384F85130002384F850307C
:1098E0000320BDE8F081FBF7DBFB801B8542C0D87D
:1098F000CEE713B50B460092802100220446FFF705
:10990000B1FF20B1636D43F020036365032002B013
:1099100010BD000010B50446002800F0A8800368C0
:10992000544A934210D0A2F5784293420CD002F5EB
:109930008062934208D002F57842934204D04FF4FB
:1099400087714D48FCF7C3FA63683BB1B3F5827F7A
:1099500004D040F20F114848FCF7B9FAA36833F479
:10996000806207D0B3F5004F04D04FF488714248AD
:10997000FCF7ADFAE36833F4006304D040F2111150
:109980003D48FCF7A4FAA36933F4007207D0B3F59D
:10999000802F04D04FF489713748FCF798FAE369B7
:1099A00033F0180306D0202B04D040F213113248B4
:1099B000FCF78DFA236A33F0800304D04FF48A71E8
:1099C0002D48FCF784FA636A33F0100304D040F2A8
:1099D00015112948FCF77BFA636A83B9236933F0D0
:1099E000020304D04FF48C712348FCF770FA6369CA
:1099F000012B04D940F219111F48FCF768FA002323
:109A0000A36294F8513003F0FF0223B984F8502088
:109A10002046FCF7A5FA2168A068A269022384F811
:109A200051300B6823F040030B6063680343E06828
:109A300003432069034360690343E0690343206AE9
:109A40000343A06A034302F4007003430B60120C4B
:109A5000636A02F004021A434A60CB6923F400638C
:109A6000CB6100200123606584F8513010BD0120D6
:109A700010BD00BF0030014069BC01082DE9FF4165
:109A80001E46836833F4004304460D46904604D0D6
:109A900040F2C5115248FCF71AFA94F85030012BE5
:109AA00000F09C80012384F85030FBF7F9FA074658
:109AB00094F85100C0B2012840F08E80002D4ED0A5
:109AC000B8F1000F4BD0032384F8513000236365B5
:109AD000A363A4F83680A387E38763642364A36841
:109AE0002563B3F5004F2368A4F8348002BF1A68D9
:109AF00042F480421A601A6852065EBF1A6842F049
:109B000040021A60E268B2F5006F626838D11AB19B
:109B1000E28E92B2012A06D135F8022BDA60E38E8A
:109B2000013B9BB2E386E38E9BB293B90097334629
:109B3000012202212046FFF795FE78B93A463146C8
:109B40002046FFF7D6FE002838D020236365012089
:109B500005E023689A689007DED44EB903200123FC
:109B600084F85130002384F8503004B0BDE8F0810F
:109B7000711CD8D0FBF794FAC01B8642D3D8EDE70E
:109B80001AB1E28E92B2012A06D115F8012B1A738E
:109B9000E38E013B9BB2E386E38E9BB2002BC5D0E4
:109BA00023689A689207F0D4002ED7D0731CF3D0A4
:109BB000FBF776FAC01B8642EED8CFE7A36833B92D
:109BC00003932368DA6803929B680393039B606D99
:109BD000003018BF0120C2E70220C0E70220C4E71E
:109BE00069BC01082DE9F043994685B083680C9F54
:109BF00004460D46164623B140F23A317B48FCF745
:109C000066F994F85030012B00F0ED80012384F8C0
:109C10005030FBF745FA94F851306168DBB2012B04
:109C200080460AD0B1F5827F40F0DB80A268002A2E
:109C300040F0D780042B40F0D480002D4ED0002E71
:109C40004CD0B9F1000F49D094F85130A663012BE4
:109C500004BF052384F851300023636523646364E3
:109C60002368A4F83E90A4F836901A68A4F83C90B3
:109C7000500658BF1A68256358BF42F04002A4F846
:109C8000349058BF1A60E268B2F5006F5DD119B127
:109C9000E28E92B2012A06D135F8022BDA60E38E09
:109CA000013B9BB2E3864FF00109E38E9BB2BBB947
:109CB000E38F9BB2A3B9CDF800803B46012202217D
:109CC0002046FFF7CFFD002835D1424639462046D1
:109CD000FFF70FFE002879D02023636501202BE0D9
:109CE000B9F1000F0FD0E38E9BB263B123689A687D
:109CF000910708D535F8022BDA60E38E013B9BB261
:109D0000E3864FF00009E38F9BB263B123689A6842
:109D1000D20708D5DB6826F8023BE38F013B9BB2F4
:109D2000E3874FF00109781CBFD0FBF7B9F9A0EB2E
:109D300008008742B9D80320012384F8513000235A
:109D400084F8503005B0BDE8F08319B1E28E92B2CC
:109D5000012A06D115F8012B1A73E38E013B9BB241
:109D6000E3864FF00109E38E9BB21BB9E38F9BB2F0
:109D7000002BA0D0B9F1000F0FD0E38E9BB263B1DE
:109D800023689A68910708D52A781A73E38E013BF5
:109D90009BB2E38601354FF00009E38F9BB263B1BC
:109DA00023689A68D20708D5DB683370E38F013BDC
:109DB0009BB2E38701364FF001097B1CD3D0FBF740
:109DC0006FF9A0EB08008742CDD8B4E7A368002B59
:109DD000B2D123680390DA6803929B680393039BD4
:109DE000AAE70220A8E70220ACE700BF69BC01088F
:109DF0002DE9F3411E464368B3F5827F04460D46C4
:109E000090460CD1836853B9042380F8513013462F
:109E100000960A46FFF7E6FE02B0BDE8F08194F82E
:109E20005030012B00F08180012384F85030FBF783
:109E300037F9074694F85100C0B2012873D1002DBC
:109E400058D0B8F1000F55D0042384F851300023C6
:109E500063652363A4F83E80A386E386236463647A
:109E6000A368A563B3F5004F2368A4F83C8002BF44
:109E70001A6822F480421A601A6852065EBF1A6895
:109E800042F040021A60E368CBB1E38F9BB2D3B1DA
:109E900023689A68D2073CD5DB6825F8023BE38F3C
:109EA000013B9BB2E387F0E723689A68D0071FD590
:109EB0001B7B05F8013BE38F013B9BB2E387E38FFC
:109EC0009BB2002BF0D16368B3F5827F0BD1A368FE
:109ED000B3F5004F02D0B3F5806F04D12268136848
:109EE00023F040031360606D003018BF012001E0D3
:109EF0003EB90320012384F85130002384F8503008
:109F00008AE7711CDBD0FBF7CBF8C01B8642D6D8A2
:109F1000EFE7002EEDD0731CB7D0FBF7C1F8C01BE4
:109F20008642B2D8E5E70220E4E7022074E70000A9
:109F30000368184A934210B504461FD0B3F1804F0E
:109F40001CD0A2F57C42934218D002F58062934265
:109F500014D002F58062934210D002F59A329342F7
:109F60000CD002F58062934208D002F580629342E1
:109F700004D04FF4B1710848FBF7A9FF2368DA68F1
:109F800042F00102DA601A6842F001021A60002011
:109F900010BD00BF00000140A1BC010803681D4ABC
:109FA000934210B504461FD0B3F1804F1CD0A2F5E8
:109FB0007C42934218D002F58062934214D002F59D
:109FC0008062934210D002F59A3293420CD002F58F
:109FD0008062934208D002F58062934204D040F23E
:109FE00077110D48FBF773FF2368DA6822F001024E
:109FF000DA60196A41F21112114208D1196A40F26D
:10A000004442114202BF1A6822F001021A60002085
:10A0100010BD00BF00000140A1BC010890F838301D
:10A02000012B70B505460C464FF002002ED00123DF
:10A0300085F838300B6885F83900B3F5805F0CD0AF
:10A04000B3F5005F09D033F0300306D0402B04D0C5
:10A0500040F67771A948FBF73AFF2B689A6822F41B
:10A060007F4222F077029A602268402A00F09C81A9
:10A0700034D8102A00F00B8209D8002A00F0E581BC
:10A080000123002085F8393085F8380070BD202A7A
:10A0900000F01F82302AF3D1994A934217D0B3F1CE
:10A0A000804F14D0A2F57C42934210D002F580621A
:10A0B00093420CD002F58062934208D002F59A32A6
:10A0C000934204D040F6F2718C48FBF700FF2A68F7
:10A0D000936823F0700343F03703C6E0702A00F062
:10A0E000C6804ED8502A00F00D81602AC8D1844A1B
:10A0F000934217D0B3F1804F14D0A2F57C42934223
:10A1000010D002F5806293420CD002F58062934237
:10A1100008D002F59A32934204D040F6C4717748D1
:10A12000FBF7D5FE6368B3F5004F09D033F00202A8
:10A1300006D00A2B04D040F6C7717048FBF7C7FE63
:10A14000E3680F2B04D940F6C8716C48FBF7BFFEDB
:10A150002B686668186AE46820F010001862996934
:10A160001A6A21F4704122F0A00242EA061241EA82
:10A17000043199611A629A6822F0700242F0670213
:10A1800010E1B2F5805F49D0B2F5005F7FF478AF9F
:10A190005B4A934213D0B3F1804F10D0A2F57C42BA
:10A1A00093420CD002F58062934208D002F580629F
:10A1B000934204D040F6A4715048FBF788FE6368D0
:10A1C000B3F5004F09D033F0020206D00A2B04D0B9
:10A1D00040F6A6714948FBF77AFEA36833F4405372
:10A1E00004D040F6A7714548FBF771FEE3680F2BDA
:10A1F00004D940F6A8714148FBF769FE2A686068F7
:10A20000A36891680343E06821F47F4143EA002397
:10A210000B439360936843F4804326E0384A9342AB
:10A220001FD0B3F1804F1CD0A2F57C42934218D0CE
:10A2300002F58062934214D002F58062934210D0FE
:10A2400002F59A3293420CD002F58062934208D014
:10A2500002F58062934204D040F683712748FBF7F1
:10A2600036FE2A68936823F00703936008E7244AC0
:10A27000934213D0B3F1804F10D0A2F57C429342A9
:10A280000CD002F58062934208D002F580629342BE
:10A2900004D040F68C711948FBF719FE6368B3F5DA
:10A2A000004F09D033F0020206D00A2B04D040F64A
:10A2B0008E711248FBF70BFEA36833F4405304D0B1
:10A2C00040F68F710D48FBF702FEE3680F2B04D9AF
:10A2D0004FF479610948FBF7FAFD2A686068A368C2
:10A2E00091680343E06821F47F4143EA00230B4374
:10A2F0009360936843F07703B7E700BFA1BC010800
:10A3000000000140844A93421FD0B3F1804F1CD01B
:10A31000A2F57C42934218D002F58062934214D099
:10A3200002F58062934210D002F59A3293420CD02B
:10A3300002F58062934208D002F58062934204D015
:10A3400040F6B6717548FBF7C2FD6368B3F5004F80
:10A3500009D033F0020206D00A2B04D040F6B971BE
:10A360006E48FBF7B4FDE3680F2B04D940F6BA71D1
:10A370006A48FBF7ACFD2B686168186AE6681C6ADE
:10A3800024F001041C629A6920F00A0022F0F00215
:10A3900042EA061201439A6119629A6822F0700239
:10A3A00042F057029A606BE65B4A93421FD0B3F1CA
:10A3B000804F1CD0A2F57C42934218D002F58062F7
:10A3C000934214D002F58062934210D002F59A3283
:10A3D00093420CD002F58062934208D002F580626D
:10A3E000934204D040F6D2714C48FBF770FD63688D
:10A3F000B3F5004F09D033F0020206D00A2B04D087
:10A4000040F6D5714548FBF762FDE3680F2B04D990
:10A4100040F6D6714148FBF75AFD2B686168186A0F
:10A42000E6681C6A24F001041C629A6920F00A00A4
:10A4300022F0F00242EA061201439A6119629A6818
:10A4400022F0700242F04702ACE7334A934217D041
:10A45000B3F1804F14D0A2F57C42934210D002F5A4
:10A46000806293420CD002F58062934208D002F5DC
:10A470009A32934204D04FF47E612848FBF727FDBF
:10A480002A68936823F0700343F00703EDE6224A3D
:10A49000934217D0B3F1804F14D0A2F57C4293427F
:10A4A00010D002F5806293420CD002F58062934294
:10A4B00008D002F59A32934204D040F6E67117486C
:10A4C000FBF705FD2A68936823F0700343F0170338
:10A4D000CBE6114A934217D0B3F1804F14D0A2F5C6
:10A4E0007C42934210D002F5806293420CD002F578
:10A4F0008062934208D002F59A32934204D040F62B
:10A50000EC710648FBF7E3FC2A68936823F07003BC
:10A5100043F02703A9E600BF00000140A1BC0108E9
:10A52000704770477047704703681A69910710B504
:10A5300004460ED5DA6892070BD56FF002021A6155
:10A540009B6901229B07027677D0FFF7EAFF002381
:10A55000237623681A69500710D5DA6851070DD59C
:10A560006FF004021A619B69022213F4407F227685
:10A57000204668D0FFF7D5FF0023237623681A69A9
:10A5800012070FD5DA6810070CD56FF008021A61B0
:10A59000DB6904229907227620465AD0FFF7C1FFD3
:10A5A0000023237623681A69D20610D5DA68D0060C
:10A5B0000DD56FF010021A61DB69082213F4407F99
:10A5C000227620464BD0FFF7ACFF0023237623688A
:10A5D0001A69D10708D5DA68D20705D56FF00102EC
:10A5E0001A612046FBF754FC23681A69100608D547
:10A5F000DA68110605D56FF080021A61204600F076
:10A6000032F923681A69520608D5DA68500605D56A
:10A610006FF040021A612046FFF785FF23681A6930
:10A62000910622D5DA6892061FD56FF020022046E7
:10A630001A61BDE8104000F015B9FFF771FF204620
:10A64000FFF770FF83E7FFF76BFF2046FFF76AFF16
:10A6500092E7FFF765FF2046FFF764FFA0E7FFF7EB
:10A660005FFF2046FFF75EFFAFE710BD224A036899
:10A6700090420ED0B0F1804F0BD0A2F57C429042B8
:10A6800007D002F58062904203D002F580629042CA
:10A6900019D14A6823F070031343174A904204D13A
:10A6A000CA6823F44073134318E0B0F1804FF7D029
:10A6B000124A9042F4D002F580629042F0D002F546
:10A6C00080629042ECD00E4A9042E9D002F580625E
:10A6D0009042E5D002F580629042E1D003608B6841
:10A6E000C3620B688362044B984204BF0B69036327
:10A6F00001234361704700BF000001400004004097
:10A700000040014010B50446002851D00368294A92
:10A7100093421ED0B3F1804F1BD0A2F57C429342EE
:10A7200017D002F58062934213D002F58062934203
:10A730000FD002F59A3293420BD002F58062934219
:10A7400007D002F58062934203D0D7211A48FBF765
:10A75000BEFBA36833F0100209D023F04002202A88
:10A7600005D0402B03D0D8211348FBF7B0FB236959
:10A7700033F4807206D0B3F5007F03D0D9210E48A0
:10A78000FBF7A5FB94F8393003F0FF0223B984F8F6
:10A7900038202046FBF748FE022384F83930206831
:10A7A000211DFFF763FF012384F83930002010BD1D
:10A7B000012010BD00000140A1BC010838B5274AA6
:10A7C0000368934204460D4613D0B3F1804F10D076
:10A7D000A2F57C4293420CD002F58062934208D0ED
:10A7E00002F58062934204D040F24A611C48FBF7B4
:10A7F0006EFB2B6833F0300306D0402B04D040F2C0
:10A800004B611748FBF763FB6B6833F0800304D0A0
:10A8100040F24C611248FBF75AFB94F83830012B98
:10A820004FF0020018D0236884F839005A6829686C
:10A8300022F070025A605A680A435A609A6869683E
:10A8400022F080029A609A680A439A6000200123ED
:10A8500084F8393084F8380038BD00BF000001406A
:10A86000D9BC0108704770470368DA6822F4907217
:10A87000DA605A6922F001025A61202380F83A30E6
:10A880007047000042689E4B9A422DE9F04704460B
:10A8900004D940F685119B48FBF719FBE36833F4B4
:10A8A000005304D040F686119648FBF710FB23694D
:10A8B00033F4806207D0B3F5C06F04D040F687113F
:10A8C0009048FBF704FB63694FF6F372134200D123
:10A8D00023B940F688118B48FBF7F9FA2668E2683D
:10A8E00033692069E16923F4405313433361A3685A
:10A8F000F2680343606922F41642034322F00C021B
:10A900000B431343F3607369A26923F44073134349
:10A91000B1F5004F73617C4B7CD19E4203D003F5AF
:10A9200080639E4244D1FEF7C3FB192505FB00F36B
:10A9300060684FF064094000B3FBF0F3B3FBF9F338
:10A940004FEA0318FEF7B4FB636868435B00B0FB93
:10A95000F3F7FEF7ADFB636868435B00B0FBF3F30E
:10A96000B3FBF9F309FB1373DB003233B3FBF9F3E9
:10A970005B0003F4F877FEF79BFB626868435200C4
:10A98000B0FBF2FAFEF794FB636868435B00B0FB30
:10A99000F3F3B3FBF9F309FB13A3DB003233B3FB8F
:10A9A000F9F303F0070343443B44B360BDE8F08789
:10A9B000FEF76EFB192505FB00F360684FF0640994
:10A9C0004000B3FBF0F3B3FBF9F34FEA0318FEF7D3
:10A9D0005FFB636868435B00B0FBF3F7FEF758FB6F
:10A9E000636868435B00B0FBF3F3B3FBF9F309FB67
:10A9F0001373DB003233B3FBF9F35B0003F4F87736
:10AA0000FEF746FB626868435200B0FBF2FAFEF7BD
:10AA10003FFBB9E79E4202D03C4B9E4240D1FEF73D
:10AA200047FB676819254FF0640905FB00F3BF0079
:10AA3000B3FBF7F3B3FBF9F31F01FEF739FB6368D0
:10AA400068439B00B0FBF3F8FEF732FB6368684392
:10AA50009B00B0FBF3F3B3FBF9F309FB13831B017A
:10AA60003233B3FBF9F303F0F008FEF721FB626821
:10AA700068439200B0FBF2FAFEF71AFB6368684382
:10AA80009B00B0FBF3F3B3FBF9F309FB13A31B012A
:10AA90003233B3FBF9F303F00F0343EA080383E710
:10AAA000FEF7F6FA676819254FF0640905FB00F315
:10AAB000BF00B3FBF7F3B3FBF9F31F01FEF7E8FAAE
:10AAC000636868439B00B0FBF3F8FEF7E1FA636844
:10AAD00068439B00B0FBF3F3B3FBF9F309FB13836B
:10AAE0001B013233B3FBF9F303F0F008FEF7D0FAA1
:10AAF000626868439200B0FBF2FAFEF7C9FABDE75C
:10AB0000A037A00014BD010800100140001401404E
:10AB1000F8B504460E4617461D4621680B6836EA0E
:10AB2000030301D10020F8BD6B1CF7D095B9236851
:10AB3000DA6822F4D072DA605A6922F001025A61AE
:10AB4000202384F8393084F83A30002384F83830F0
:10AB50000320F8BDFAF7A4FAC01B8542DDD2E6E770
:10AB600010B50446002864D081690368324A002980
:10AB700053D093420CD0A2F54C42934208D002F538
:10AB80005042934204D04FF480712C48FBF79FF958
:10AB9000A36933F4407304D040F201112748FBF756
:10ABA00096F9A36833F4805304D040F20711234888
:10ABB000FBF78DF9E36933F4004304D04FF484715B
:10ABC0001E48FBF784F994F8393003F0FF0223B9EB
:10ABD00084F838202046FBF7C5FC2268242384F83B
:10ABE0003930D36823F40053D3602046FFF74AFE80
:10ABF00023681A6922F490421A615A6922F02A02E3
:10AC00005A61DA6842F40052DA6000202023E063DF
:10AC100084F8393084F83A3010BD9342C1D0084AE4
:10AC20009342BED002F550429342BAD040F2051191
:10AC3000B4E7012010BD00BF0010014014BD0108A1
:10AC40000044004010B50446F8B10368104A93422E
:10AC50000CD0A2F54C42934208D002F550429342E8
:10AC600004D04FF4FC710B48FBF731F92423204644
:10AC700084F83930FBF75AFD0020E06384F838008F
:10AC800084F8390084F83A0010BD012010BD00BFDF
:10AC90000010014014BD01082DE9F0411F4690F855
:10ACA0003930202B04460D4690464FD100294AD01A
:10ACB000002A48D090F83830012B47D0012380F883
:10ACC00038300023C363212380F83930FAF7E8F9DC
:10ACD000A4F824800646A4F82680E38C9BB26BB9C6
:10ACE0003B46324640212046FFF712FFB0B92023F1
:10ACF00084F8393084F83800BDE8F081E38C013BFA
:10AD00009BB2E384A368B3F5805F32463B464FF0C5
:10AD1000800120460ED1FFF7FBFE10B10320BDE8F5
:10AD2000F0812B882268C3F308035360236943B979
:10AD30000235D2E7FFF7ECFE0028EFD123682A782E
:10AD40005A600135C9E70120BDE8F0810220BDE865
:10AD5000F0812DE9F0411F4690F83A30202B04464F
:10AD60000D46904652D100294DD0002A4BD090F884
:10AD70003830012B4AD0012380F838300023C363D8
:10AD8000222380F83A30FAF78BF9A4F82C80064693
:10AD9000A4F82E80E08D80B230B9202384F83A30B8
:10ADA00084F83800BDE8F081E38D013B9BB2E38578
:10ADB000A368B3F5805F32463B464FF02001204642
:10ADC00012D1FFF7A5FE10B10320BDE8F081236882
:10ADD00022695B6822B9C3F3080325F8023BD9E76F
:10ADE000DBB225F8013BD5E7FFF792FE0028EBD157
:10ADF000236821695B686A1C11B92B701546C9E785
:10AE000003F07F03F9E70120BDE8F0810220BDE8EF
:10AE1000F08190F83A30202B1CD1C9B1C2B190F822
:10AE20003830012B16D0C285828500232222C363CD
:10AE300080F83A2002688162516980F8383041F028
:10AE400001015161D16841F49071D1601846704799
:10AE5000012070470220704738B50446134694F825
:10AE60003920202A2AD139B333B394F83820012A63
:10AE700024D0012284F83820206BE384002521228D
:10AE8000E56384F839200E4AA3842162C2630D4A27
:10AE900002640D4AC264226805650432FCF79EFB19
:10AEA00023686FF040021A605A6984F8385042F003
:10AEB00080025A61284638BD012038BD022038BDC5
:10AEC000CDAE0008FBAE000879AF000808B50368F6
:10AED000826B1B6813F480730AD1D38413685A6998
:10AEE00022F080025A61DA6842F04002DA6008BD5E
:10AEF0001046FBF7D1F908BD704708B5806BFFF726
:10AF0000FBFF08BD90F83A30222B10B532D1836890
:10AF100001690268B3F5805F836A1FD15268C9B9BD
:10AF2000C2F3080223F8022B8362C48D013CA4B251
:10AF3000C4856CB90368DA6822F49072DA605A69E1
:10AF400022F001025A61202380F83A30FBF7BAF967
:10AF5000002010BDD2B223F8012BE5E721B9591C1E
:10AF6000526881621A70E0E75268591C816202F0EF
:10AF70007F02F7E7022010BD816B08B50B685A69A4
:10AF800091F8390021280AD1120608D50022CA8476
:10AF9000DA6822F0C002DA60202281F839205B6989
:10AFA00091F83A20222A06D15B0604D50023CB85EE
:10AFB0000846FFF759FCCB6B43F01003CB63084600
:10AFC000FBF790F908BD000003681A68D96870B5EE
:10AFD000160704465D6907D196065AD58D0658D5E1
:10AFE000BDE87040FFF78EBF15F0010502D111F4E6
:10AFF000907F4ED0D30705D5CE0542BFE36B43F01B
:10B000000103E363500704D51DB1E36B43F0020372
:10B01000E363930704D51DB1E36B43F00403E363DB
:10B02000160704D51DB1E36B43F00803E363E36B3C
:10B03000002B66D0950604D5880602D52046FFF77A
:10B0400061FF23685D69E26B1107204602D415F0A9
:10B0500040051AD0FFF708FC23685A69520610D53C
:10B060005A69606B22F040025A6150B1254B03656A
:10B07000FCF70AFB002844D0606BBDE87040036D0C
:10B0800018472046FBF72EF970BDFBF72BF9E56357
:10B0900070BD160627D50D0625D594F83920212A2E
:10B0A0002FD1A268B2F5805F226A17D11188C1F34F
:10B0B00008015960216979B902322262E28C013AB1
:10B0C00092B2E284EAB9DA6822F08002DA60DA68E1
:10B0D00042F04002DA6070BD0132EEE7511C21629D
:10B0E00012785A60EAE750060BD54A0609D5DA68A5
:10B0F00022F04002DA60202384F839302046FBF742
:10B10000CBF870BD09B1000808B5806B0023C3857A
:10B11000C384FBF7E7F808BD704700000368DA68EE
:10B1200022F4F07210B5DA605A690446006B22F01E
:10B1300001025A6128B15A6912F0800218BF1F4AF1
:10B140000265616B29B15A6912F0400218BF1C4AAE
:10B150000A655A6912061DD40123226851694906FD
:10B1600027D55169606B21F04001516108B3FCF7AC
:10B170008BFA00B3636B00221A650023E384E38536
:10B18000E363202384F83930204684F83A30FFF70F
:10B19000C3FF10E05A6922F080025A610028DBD018
:10B1A000FCF772FA18B1236B00221A65D4E7034644
:10B1B000D3E7002BE1D1002010BD00BFEDB10008A6
:10B1C000C5B10008806B426B08B500231365026BA4
:10B1D0000AB1126D4AB9C384C385C363202380F8C2
:10B1E000393080F83A30FFF797FF08BD806B026B6B
:10B1F00008B500231365426B0AB1126D4AB9C384C6
:10B20000C385C363202380F8393080F83A30FFF7D4
:10B2100083FF08BD84B038B505AD85E80E000A9BF4
:10B22000012B044626D1836B23F480338363C368E8
:10B2300023F4840323F04003C360C36823F4401362
:10B24000C360119B012B02BFC36843F48013C3602A
:10B2500000F0DEFB089B012B07D1A36843F0060337
:10B26000A360A36843F02003A360BDE8384000203A
:10B2700004B07047C36843F04003C36000F0C8FBEC
:10B280004FF48033A363E5E7836843F001038360F1
:10B2900000207047836823F001038360002070471B
:10B2A00008B5C368012923F0C043C36008D1C3684F
:10B2B00043F00053C3603220F9F7DAFE002008BDE6
:10B2C0000029F8D1C36843F08043C360F3E700006E
:10B2D00084B02DE9F041044607A880E80E00119ED5
:10B2E0000A9FA36B8846A6B943F40013A363002307
:10B2F000C4F8003ED4F80038C4F800380C9B012B89
:10B3000004F500655ED1099939B9204600F09EF830
:10B3100007E043F40023A363E9E71946204600F061
:10B3200095F81021204600F06FF8204600F07EF8D6
:10B3300000234FF0FF322B6119466B614FF09040B4
:10B34000AA614FF0FF0EEB6104F5106243453BD15B
:10B35000002104F5306208464FF0904E4FF0FF0C8C
:10B360008B423ED12B69012F23F480732B6108D1CE
:10B37000234B2B632B6B43F4803343F003032B638A
:10B380002B6B0023A3616FF0804363611FB9A36936
:10B3900043F01003A361A2691A4B1343A3610D9BF1
:10B3A0001BB1A36943F00803A361012E01BFA36988
:10B3B00043F0804343F00403A361BDE8F041002063
:10B3C00004B070470321A0E7D2F800C0BCF1000F21
:10B3D000B4BF1060116001331161C2F808E020327F
:10B3E000B4E7D2F80080B8F1000FB4BFC2F800E0B3
:10B3F000106001311061C2F808C02032B0E700BF10
:10B400000001800000383C80890141F02001064A9B
:10B410000161013A05D0036913F02003F9D1184600
:10B4200070470320704700BF410D03001023064AF8
:10B430000361013A05D0036913F01003F9D11846EE
:10B4400070470320704700BF410D0300D0F800385B
:10B450001943C0F800180020704700F50062D0F8CA
:10B46000080810F0060012D0936803F00603022BC0
:10B470000CD0936803F00603062B07D0936803F003
:10B480000603042B14BF00200220704703207047DE
:10B4900030B54B780C78D0F81C5800F50062012BC1
:10B4A0001BD1A3409BB22B4300F51060D36100EB8E
:10B4B00044131A6812040ED48A68C8781D68C2F34F
:10B4C0000A0242F0805242F4004242EA804040EADE
:10B4D000845028431860002030BD4FF48033A340CF
:10B4E00000F530602B4300EB4410D36103681B046C
:10B4F000F1D48B68C9780268C3F30A0343F0805320
:10B5000043F4004343EA814313430360E3E700F05D
:10B5100001B8000070B54B78012B0E46054609783E
:10B520004FF0200326D100F5106213FB01231A68A7
:10B5300022F400421A604FF000621A604FF080421D
:10B540001A601F4A013A01D1032070BD9C6814F0B3
:10B550008044F7D110212846FFF756FF3178D5F8FF
:10B560001C2801238B409BB222EA0303C5F81C3838
:10B57000204670BD00F5306213FB01231A6822F4E7
:10B5800000421A604FF000621A604FF080421A6069
:10B590000B4A013AD8D0986810F01000F9D1D5F8CC
:10B5A000043843F48063C5F80438D5F81C384FF4E8
:10B5B00080328A4023EA0203C5F81C3870BD00BF00
:10B5C000410D0300F7B54B780C78012B4B6977D10F
:10B5D000202600F5106516FB04542669002B38D18F
:10B5E00026F0FF5626F4C0162661266946F400268A
:10B5F00026612669F60CF6042661012A50D10C78E2
:10B600000E6905EB44146661CE78012E0FD1D0F897
:10B6100008480F7814F4807F4FF0200414FB07547F
:10B6200027680CBF47F0005747F0805727600F7816
:10B6300005EB4715012E2C6844F004442C6005D11D
:10B6400000929BB23A46C96800F0EFF8002003B0C0
:10B65000F0BDF60CF604266126698F6826F0FF56C9
:10B6600026F4C0162661DE19013EB6FBF7F7374E09
:10B67000D4F810E006EAC74646EA0E0626612769B6
:10B68000C3F312063E432661CE78012E5AD12669B5
:10B6900026F0C0462661266946F000562661ACE7D2
:10B6A000CE78012EB3D0002BAED091F800E0D0F8C8
:10B6B0003478012404FA0EF43C43C0F83448A3E77C
:10B6C00000F5306505EB44142569ED0CED042561AA
:10B6D000256925F0FF5525F4C01525618D68FBB956
:10B6E0002369C5F312051D432561236943F4002333
:10B6F0002361012A04BFCB686361CB78012B0AD197
:10B70000D0F8083813F4807F23680CBF43F000534F
:10B7100043F080532360236843F00443236095E79C
:10B720000A4E27692B44013BB3FBF5F306EAC346F7
:10B730003E4326619BB226695D43C5F3120535433E
:10B740002561D6E7012AAED159E700BF0000F81FF6
:10B750004B78012B70B50B784D6943D1202400F54F
:10B76000106614FB03631C69CDB924F0FF5424F464
:10B77000C0141C611C6944F400241C611C69E40CA5
:10B78000E4041C610D7806EB4513012A1C6844F0A3
:10B7900004441C601BD10A695A61002070BDE40C8E
:10B7A000E4041C611C6924F0FF5424F4C0141C61DF
:10B7B0008C68A54288BF4C611C6944F400241C615C
:10B7C0004C691D69C4F312042C431C61DAE74B6910
:10B7D000002BE2D0D0F834280123AB401343C0F84B
:10B7E0003438DAE700F5306000EB43100369DB0C16
:10B7F000DB040361036923F0FF5323F4C0130361E7
:10B800008B6805B14B61046944F400240461046948
:10B81000C3F312032343012A036104BFCB684361CE
:10B82000036843F004430360B7E710B59DF8084090
:10B830004CB9033300F5805023F0030300EB0232D0
:10B840000B44994201D1002010BD51F8040B106047
:10B85000F7E7033222F003020A4400F580509142D8
:10B8600001D108467047036841F8043BF7E74B787D
:10B870000A78012B4FF020030BD100F5106013FB69
:10B8800002000368002B0BDB036823F08043036096
:10B8900006E000F5306013FB02000368002BF3DACA
:10B8A000036843F400130360002070474B780A7864
:10B8B000012B0CBF00F5106000F53060202313FB56
:10B8C0000200036823F400130360CB78023B012BD2
:10B8D0009EBF036843F08053036000207047D0F898
:10B8E000003823F4FE63C0F80038D0F800380901AE
:10B8F00001F4FE611943C0F800180020704708B534
:10B90000D0F8043823F00203C0F804380320F9F714
:10B91000AFFB002008BD08B5D0F8043843F002039F
:10B92000C0F804380320F9F7A3FB002008BD4269E2
:10B93000806910407047D0F8183800F50060C06981
:10B940001840000C7047D0F8183800F50060C06946
:10B95000184080B2704700F5306303EB411100F5E9
:10B9600000608A6840691040704710B5D0F81048F0
:10B97000D0F8343800EB4110CB4000F51060DB010B
:10B980008068DBB22343184010BD406900F001001D
:10B990007047D0F8003923F4FF6323F00703C0F8A1
:10B9A000003900F500639A6802F00602042A02BF1B
:10B9B000D0F8002942F00302C0F800295A6842F486
:10B9C00080725A600020704710B50024C0F8104BF8
:10B9D000D0F8104B44F40024C0F8104BD0F8104BB2
:10B9E00044F01804C0F8104BD0F8104B012900F5B2
:10B9F000306344F0C04408BF4FF08023C0F8104BC0
:10BA000004BFC0F8142BC0F8003B002010BD00009C
:10BA10000A4B013B01D1032070470269002AF8DA82
:10BA20000369064A43F001030361013AF3D0036955
:10BA300013F00103F9D11846704700BF410D030010
:10BA4000D0F818321BB10020C3F81402704702204E
:10BA50007047D0F81C3210B5D0F818425BB194F89A
:10BA60000002FF2807D09B6894F8012221469847DE
:10BA7000FF2384F80032002010BD00004323038020
:10BA8000004870473C19002043230380004870475A
:10BA9000801900204323038000487047D0190020FC
:10BAA0000A23038000487047C419002038B50546B2
:10BAB000D0F8184202F004FFD5F81832C4F80C028E
:10BAC0004BB1D5F81C32D4F80402DB6804F50371DD
:10BAD0009847002038BD022038BD0000F8B50F7827
:10BAE00017F0600306460C4623D0202B19D1CA88D4
:10BAF0004B78C2B13906D0F818520BD5D0F81C12C9
:10BB000018468F682946B847E2882946304600F033
:10BB10009AFB06E085F8003285F80122294600F0FC
:10BB2000A7FB0020F8BDD0F81C0284681846A04787
:10BB3000F7E74B780A2BF4D101220149E7E700BF70
:10BB4000C01E002010B58121044602F051FE0121E3
:10BB5000204602F04DFE8221204602F049FED4F834
:10BB6000183253B1D4F81C325B689847D4F81802E5
:10BB70000BF082F90023C4F81832002010BDF8B58C
:10BB8000037C04467BBB4FF400730222812102F048
:10BB90001FFE4FF4007302220121204602F018FE1E
:10BBA000082303228221204602F012FE4FF4077080
:10BBB0000BF05AF90646C4F8180220B3D4F81C3228
:10BBC0001B689847277C0025C6F81452C6F81852FF
:10BBD00087B94FF40073D6F804220121204602F001
:10BBE00061FE3846F8BD40230222812102F0F0FDBB
:10BBF0004023D0E74023D6F804220121204602F05A
:10BC000051FE2846F8BD0120F8BD19B1C0F81C123C
:10BC10000020704702207047D0F818320020C3F887
:10BC20000812C3F810227047D0F818320020C3F869
:10BC300004127047D0F8182210B572B1D2F814422D
:10BC4000012364B9C2F814328121B2F81032D2F85B
:10BC5000082202F019FE204610BD022010BD184631
:10BC600010BDD0F8182210B562B1047C44B94FF46D
:10BC70000073D2F80422012102F014FE002010BD4E
:10BC80004023F6E7022010BD08B580B1D0F8143289
:10BC900013B10023C0F8143209B1C0F81012012307
:10BCA00080F8FC31027002F055FD002008BD022032
:10BCB00008BD19B1C0F81412002070470220704767
:10BCC00008B502F077FD002008BD08B5D0F81432A1
:10BCD0000BB9022008BD1B6898470028F9D108BDA0
:10BCE00008B5D0F814325B689847002008BD38B515
:10BCF000044600F50275284600F075FA012394F811
:10BD00000812C4F8F431B4F80E32C4F8F83101F076
:10BD10001F03012B0ED007D3022B10D001F080019E
:10BD2000204602F073FD03E02946204600F0E6F8C5
:10BD3000002038BD2946204600F0DAF9F8E7294608
:10BD4000204600F0EDF9F3E738B50446154611BB7F
:10BD5000D0F8F431032B0FD1D0F80C31D0F81021EA
:10BD600093420BD99B1A9A4228BF1A46C0F80C314D
:10BD700092B2294600F08BFA002038BDD0F8143278
:10BD80001B6923B190F8FC21032A00D19847204673
:10BD900000F085FAF0E7D0F814329B69002BEBD065
:10BDA00090F8FC21032AE7D19847E5E770B51346E0
:10BDB00004460E4600293DD1D0F8F421022A0FD1C5
:10BDC000C569026A954214D9AA1AC261194692B28B
:10BDD00000F046FA33461A461946204602F062FD44
:10BDE00094F80032012B02D1002384F800320020A5
:10BDF00070BD8369B3FBF2F502FB153565B99A4254
:10BE00000AD8D0F8F821934206D22A4600F028FA40
:10BE1000C4F8F8512B46DEE7D4F81432DB682BB1B6
:10BE200094F8FC21032A01D120469847204600F0CF
:10BE300041FAD5E7D0F814325B69002BD7D090F8DF
:10BE4000FC21032AD3D19847D1E738B50022044614
:10BE500011464025402302F0BBFC2B46C4F810518C
:10BE600000228021204602F0B3FC012384F8FC313B
:10BE7000D4F8183225622BB1D4F8143221795B68DA
:10BE800020469847002038BD01740020704790F884
:10BE9000FC3180F8FD31042380F8FC31002070472C
:10BEA00090F8FD3180F8FC310020704708B590F81B
:10BEB000FC21032A04D1D0F81432DB6903B198477E
:10BEC000002008BD00207047002070470020704708
:10BED00008B5012280F8FC21D0F8142201795268BB
:10BEE0009047002008BD10B58021044602F08EFC6A
:10BEF00020460021BDE8104002F088BC37B54B78E1
:10BF000004460D46092B79D8DFE813F0C900E50097
:10BF10007800D90078006D000A007800B9008D0023
:10BF20004B881A0A013A062A68D8DFE802F0041C96
:10BF3000296767495200D0F810321B68207C0DF148
:10BF400006019847BDF80620002A67D0EB88002B31
:10BF500064D09A4228BF1A46ADF806200146204612
:10BF600000F071F95AE0027CD0F8143232B99B6AC1
:10BF70000DF10600984702234370E3E7DB6AF7E719
:10BF8000DBB2052B3AD8DFE803F003070B0F1317DA
:10BF9000D0F810325B68D1E7D0F810329B68CDE75B
:10BFA000D0F81032DB68C9E7D0F810321B69C5E75A
:10BFB000D0F810325B69C1E7D0F810329B69BDE759
:10BFC000037CDBB9D0F814320DF106005B6B9847A7
:10BFD000B8E7037C93B9D0F814320DF106001B6B5F
:10BFE00098470723C8E78B8843B9CB8833B990F8C3
:10BFF000FC318D78032B05F07F0503D12046FFF738
:10C0000072FF0BE080F8FE51294602F02FFC20461B
:10C0100000F045F92DB1022384F8FC31002003B073
:10C0200030BD0123F8E78978304D01292970E5D822
:10C0300090F8FC31022B0CD0032BDFD1B1B90223D5
:10C0400080F8FC314160FFF74BFE204600F027F9F5
:10C05000E4E70029F9D001210323416080F8FC3195
:10C060002046FFF732FE0228EFD1C7E741680129D9
:10C07000EBD0C9B2FFF734FE29786160F0E7CA88D7
:10C08000012ABBD190F8FC31022B03D0032BB5D190
:10C09000011D64E70146002341F8083F5FE790F87F
:10C0A000FC31023B012BA9D80123C360D0F8043234
:10C0B0000BB10323C360022204F10C014FE74B884C
:10C0C000012BABD1C4F80432D4F8143229469B6852
:10C0D00020469847B9E790F8FC31023B012B8DD8F8
:10C0E0004B88012B9AD10023ECE700BFC11E002032
:10C0F00038B590F8FC31032B04460D460DD10B7971
:10C10000012B0AD8D0F814329B689847EB8813B9F2
:10C11000204600F0C4F8002038BDFFF7E4FEFAE73F
:10C1200070B50A788E8802F06002202A04460D4617
:10C13000F3B205D1D0F814329B689847002070BD47
:10C140004A78012A1CD02AD3032AF7D190F8FC217F
:10C15000022A40D0032A02D0FFF7C5FEEEE74A8844
:10C1600022B95E0602D0194602F050FBD4F8143210
:10C1700029469B6820469847204600F090F8DDE766
:10C1800090F8FC21022A26D0032AE5D14A88002A09
:10C19000D4D15906F0D0194602F046FBE6E790F8F4
:10C1A000FC21022A17D0032AD6D103F07F0516F00E
:10C1B000800F00EB0515194614BF143505F582757F
:10C1C00002F040FB68B101232B6002222946204681
:10C1D00000F039F8B2E75A06B0D0194602F016FB63
:10C1E000ACE72860F1E70B7803704B784370CA78AE
:10C1F0008B7803EB022343804A790B7903EB02230C
:10C200008380CA798B7903EB0223C380704730B5F2
:10C2100088B105462B1A15F8014BDBB2002CF9D179
:10C220005B00023313800B7003234B700138022331
:10C2300010F8015F05B930BD5A1CD2B2CD5402339B
:10C24000DBB28C54F4E710B513460222C0F8F42197
:10C2500083610A46C361002102F016FB002010BD75
:10C2600008B513460A46002102F00EFB002008BD67
:10C2700010B513460322C0F8F421C0F808310A466D
:10C28000C0F80C31002102F00DFB002010BD08B5F4
:10C2900013460A46002102F005FB002008BD08B540
:10C2A0000423C0F8F43100231A46194602F0ECFAD0
:10C2B000002008BD08B50523C0F8F43100231A4654
:10C2C000194602F0EFFA002008BD08B501F0EAF9BE
:10C2D000002008BD30B5B0F90840028A0B4690E84E
:10C2E000220085B0842C14BF0334002403A80190DD
:10C2F0000094284601F0FEF801280CBF03980020A6
:10C3000005B030BD08B5002808BF012001F024FBAE
:10C31000002008BD07B503680093013913464A425F
:10C320004A410348012101F05FFF03B05DF804FBBF
:10C33000E0C901081FB500240394A14214BF0A46B6
:10C340000122EFF30583A3B1009403AB092101F0AF
:10C350006FFF012813D1039B13B9002004B010BD57
:10C36000084B4FF080521A60BFF34F8FBFF36F8FAF
:10C37000F3E70093042101F05BFF0128EDD0FF20DB
:10C38000ECE700BF04ED00E01FB504AB0022029211
:10C3900043F8042DEFF30582BAB102AA00920122FC
:10C3A00001F030FE012804D04FF0004005B05DF8E8
:10C3B00004FB029B3BB1084B4FF080521A60BFF365
:10C3C0004F8FBFF36F8F0398F0E7012201F0B2FDAA
:10C3D0000128F8D0E8E700BF04ED00E030B585B0F3
:10C3E0000023044615460293EFF3058010B1822323
:10C3F000019307E0134602AA01F056FD01280BD075
:10C4000045B9019504AB13E9070084E8070020460D
:10C4100005B030BD4023EBE7029B002BB4BF862361
:10C420000823E5E7012000F091BD000013B50024CA
:10C430000A460194E8B1EFF30583A3B101AA2146AE
:10C4400000F050FF012802D0FF2002B010BD019B78
:10C450003BB1094B4FF080521A60BFF34F8FBFF3CF
:10C460006F8F0020F1E7194600F056FE0128EBD14E
:10C47000F7E78020E9E700BF04ED00E0012910B5EF
:10C4800008460CD10322002100F086FC044620B1AE
:10C4900000231A46194600F0A3FC204610BD0024D4
:10C4A000FBE7000013B500240A460194E8B1EFF35E
:10C4B0000583A3B101AA214600F014FF012802D090
:10C4C000FF2002B010BD019B3BB1094B4FF08052E1
:10C4D0001A60BFF34F8FBFF36F8F0020F1E719464B
:10C4E00000F01AFE0128EBD1F7E78020E9E700BF52
:10C4F00004ED00E013B500240194EFF3058393B13C
:10C5000001A900F0B5FD012813D1019B13B900204A
:10C5100002B010BD084B4FF080521A60BFF34F8F2E
:10C52000BFF36F8FF3E71A46194600F059FC012854
:10C53000EDD0FF20ECE700BF04ED00E0FFF7DABF2D
:10C54000002203C800F028BC1FB500240191039409
:10C55000A24208BF0122EFF30583ABB1234603AA31
:10C5600001A900F023FD012802D0FF2004B010BD76
:10C57000039B3BB1074B4FF080521A60BFF34F8FC4
:10C58000BFF36F8F0020F1E701A900F029FC01281B
:10C59000EBD1F7E704ED00E0F0B585B000260446E6
:10C5A000174608460391029601AD11B98023019305
:10C5B00017E00096EFF30583D3B16A4602A900F0B5
:10C5C00091FE012804BF10230193009B18BF019620
:10C5D0003BB10D4B4FF080521A60BFF34F8FBFF34A
:10C5E0006F8F95E8070084E80700204605B0F0BD8E
:10C5F00002A900F091FD012801D11023D7E7002FF7
:10C600000CBF00234023D2E704ED00E07FB50446D1
:10C6100016460846039101AD41B98023019395E880
:10C62000070084E80700204604B070BD012302A97A
:10C6300000F072FD012801D11023EFE7002E0CBF9E
:10C6400000234023EAE7EFF305830BB100F0ADBE12
:10C6500000F098BE042000F079BC08B500F088FC1A
:10C66000012814BFFF20002008BD08B530B100F03C
:10C6700017FE012814BFFF20002008BD802008BD40
:10C6800000F1080343604FF0FF32C36003610023F1
:10C6900082600360704700230361704743684B600A
:10C6A0009A688A609A6851609960036808610133EA
:10C6B000036070470A68531C30B50AD103695A6891
:10C6C0004A6091608B6059600368086101330360C0
:10C6D00030BD00F108035C682568AA42EFD3234609
:10C6E000F9E74168826803698A6082685160596825
:10C6F000884208BF5A600022026118680138186039
:10C70000704700000A4B1B68013308D04FF05003FC
:10C7100083F31188BFF36F8FBFF34F8FFEE74FF0A6
:10C72000500383F31188BFF36F8FBFF34F8FFEE782
:10C73000141A002006480068006880F3088862B672
:10C7400061B6BFF34F8FBFF36F8F00DF00BF0000F4
:10C7500008ED00E0DFF80C00016841F470010160B1
:10C760007047000088ED00E04FF0807340F8043C13
:10C77000074B40F80C3C21F001016FF0020340F838
:10C78000081C40F8202C40F8243C4438704700BF77
:10C7900005C70008000000000000000000000000C5
:10C7A000074B19680868B0E8F04F80F30988BFF3B9
:10C7B0006F8F4FF0000080F311887047AFF3008057
:10C7C000E0DE00204FF0500383F31188BFF36F8F3A
:10C7D000BFF34F8F0A4A13680133012B13600DD149
:10C7E000084B1B6813F0FF0F08D04FF0500383F382
:10C7F0001188BFF36F8FBFF34F8FFEE7704700BF05
:10C80000141A002004ED00E0084A136843B94FF001
:10C81000500383F31188BFF36F8FBFF34F8FFEE791
:10C82000013B13600BB983F311887047141A002081
:10C83000EFF30980BFF36F8F154B1A681EF0100FCE
:10C8400008BF20ED108A20E9F04F10604DF8043D3C
:10C850004FF0500080F31188BFF34F8FBFF36F8FFD
:10C8600001F0DAF84FF0000080F3118808BC196875
:10C870000868B0E8F04F1EF0100F08BFB0EC108A47
:10C8800080F30988BFF36F8F704700BFAFF300805C
:10C89000E0DE002008B54FF0500383F31188BFF3AA
:10C8A0006F8FBFF34F8F00F04DFF18B1034B4FF068
:10C8B00080521A60002383F3118808BD04ED00E064
:10C8C000064B4FF47A721B68B3FBF2F3044A013B48
:10C8D0001360044B07221A60704700BF0019002044
:10C8E00014E000E010E000E0314B324A13B5196863
:10C8F000914208D14FF0500383F31188BFF36F8F3B
:10C90000BFF34F8FFEE71A682B4B9A4208D14FF0C6
:10C91000500383F31188BFF36F8FBFF34F8FFEE790
:10C92000264B1A78D2B20192FF221A701B78244A41
:10C93000DBB28DF803309DF8033003F05003137021
:10C94000204B07221A6000219DF80300000602F127
:10C95000FF3423D401B11A601A68120202F4E062B3
:10C960001A60019B154ADBB21370174B1A6842F428
:10C9700070021A601A6842F070421A60FFF7A0FF56
:10C98000124B00221A60FFF7E5FE114A136843F0CC
:10C9900040431360FFF7CEFEFFF7B4FE9DF803207F
:10C9A0005200D2B28DF8032001212246CCE700BF0D
:10C9B00000ED00E071C20F4170C20F4100E400E0E1
:10C9C000C21E0020C41E002020ED00E0141A00202A
:10C9D00034EF00E0EFF305830F2B0ED9104A9B5C78
:10C9E000104A12789A4208D94FF0500383F3118805
:10C9F000BFF36F8FBFF34F8FFEE70B4B0B4A1B68E4
:10CA0000126803F4E063934208D94FF0500383F3B4
:10CA10001188BFF36F8FBFF34F8FFEE7704700BFE2
:10CA2000F0E300E0C21E00200CED00E0C41E002078
:10CA300010B50F4B1A68824218D35C6819198842E6
:10CA400001BF4168184609195960446801198A42B2
:10CA500007D1084909688A421FBF5168126809193D
:10CA600041609842026018BF186010BD1346E1E7AC
:10CA7000D8DE0020C81E00202DE9F041044600F059
:10CA800053FE4049404D0B680BBB404A56071FBF41
:10CA9000D01D20F0070002F540431B1A14BF0246C8
:10CAA0004FF440431344083B23F00703384E0B6018
:10CAB00000207060326058601860981A1360354B1F
:10CAC00050601860344B18604FF000432B602F68A3
:10CAD000274216D1002C41D004F1080358071CBF8F
:10CAE00023F00703083363B12B4A1668B34290461C
:10CAF00007D8274A15686868834204D809688D42B8
:10CB000007D100242AE02C68002CF7D02A462546BD
:10CB1000F1E7296814681160C21A102A0FD9E818C1
:10CB2000410708D04FF0500383F31188BFF36F8F94
:10CB3000BFF34F8FFEE742606B60FFF779FF154947
:10CB40006B680868F61A1F4386424FF00003C8F866
:10CB5000006038BF0E6008346F602B6000F084FE08
:10CB60000CB901F0D7FE630708D04FF0500383F3F0
:10CB70001188BFF36F8FBFF34F8FFEE72046BDE8EC
:10CB8000F08100BFC81E0020CCDE0020CC1E00209B
:10CB9000D8DE0020D4DE0020D0DE002010B5044610
:10CBA00070B3184A50F8043C1268134208D14FF091
:10CBB000500383F31188BFF36F8FBFF34F8FFEE7EE
:10CBC00050F8081C41B14FF0500383F31188BFF3B4
:10CBD0006F8FBFF34F8FFEE723EA020340F8043C58
:10CBE00000F0A2FD084A54F8043C1168A4F10800C2
:10CBF0000B441360FFF71CFFBDE8104000F034BE8B
:10CC000010BD00BFCCDE0020D0DE0020014B186834
:10CC1000704700BFD0DE002070B51546026C866BF1
:10CC2000044642B905689DB9406801F0E1F86560C5
:10CC30000136A66370BD6DB980680AF046F9A36835
:10CC4000226C13446268A360934201D32368A360FB
:10CC50000020EDE7C0680AF038F9236CE26821682B
:10CC60005B421A448A42E2603EBF62689B18E360FE
:10CC7000022DEDD10EB1013EEAE73046D8E703467A
:10CC800010B41A6C084662B1D9685C681144A142BC
:10CC9000D96024BF1968D960D9685DF8044B0AF0DF
:10CCA00014B95DF8044B704770B50446FFF78AFD70
:10CCB00094F8455004F124066DB2002D14DCFF23D6
:10CCC00084F84530FFF7A0FDFFF77CFD94F8445051
:10CCD00004F110066DB2002D12DCFF2384F84430FD
:10CCE000BDE87040FFF790BD636A002BE7D0304687
:10CCF00000F090FF08B101F019F8013D6DB2DCE7DA
:10CD00002369002BE9D0304600F084FF08B101F020
:10CD10000DF8013D6DB2DEE738B50D46044640B969
:10CD20004FF0500383F31188BFF36F8FBFF34F8F22
:10CD3000FEE7FFF747FD206CE36B2268A2604343E8
:10CD4000D1181B1A13446160E3600021FF23A16323
:10CD500084F8443084F8453095B9236963B104F10F
:10CD6000100000F057FF38B10A4B4FF080521A60A4
:10CD7000BFF34F8FBFF36F8FFFF746FD012038BD24
:10CD800004F11000FFF77CFC04F12400FFF778FCAD
:10CD9000F2E700BF04ED00E0F8B50D461746064681
:10CDA00040B94FF0500383F31188BFF36F8FBFF387
:10CDB0004F8FFEE748435030FFF75EFE044648B110
:10CDC00055B92060E663256401212046FFF7A4FFE2
:10CDD00084F84C702046F8BD00F150030360F1E781
:10CDE0002DE9FF47894601921F46044640B94FF09E
:10CDF000500383F31188BFF36F8FBFF34F8FFEE7AC
:10CE0000002940F08880036C002B00F084804FF0F4
:10CE1000500383F31188BFF36F8FBFF34F8FFEE78B
:10CE2000019E002E00F082804FF0500383F31188A2
:10CE3000BFF36F8FBFF34F8FFEE7019D1DB9FFF763
:10CE4000E3FC002058E016B902A800F025FFFFF728
:10CE5000DBFC00F069FCFFF7B5FC94F84430FF2BD5
:10CE600008BF84F8448094F84530FF2B08BF84F84D
:10CE70004580FFF7C9FC01A902A800F01DFF0028AA
:10CE800043D1FFF79FFCA66BE56BFFF7BDFCAE42FD
:10CE900035D1019904F1100000F084FE2046FFF71F
:10CEA00003FF00F0E1FC38B94FF08053CAF80030BE
:10CEB000BFF34F8FBFF36F8F0126FFF783FCA26B89
:10CEC000E36B9A4201D3022FB7D13A464946204636
:10CED000FFF7A2FE636A1BB104F1240000F09AFE82
:10CEE00038B1194B4FF080521A60BFF34F8FBFF328
:10CEF0006F8FFFF789FC012004B0BDE8F087204662
:10CF0000FFF7D2FE00F0B0FCD6E72046FFF7CCFEDC
:10CF100000F0AAFC95E7022F02D1E36B012B0AD1A6
:10CF200000F010FF00283FF47BAF00264FF0000810
:10CF3000DFF814A0C1E74FF0500383F31188BFF36B
:10CF40006F8FBFF34F8FFEE704ED00E010B5024690
:10CF500000210120FFF720FF044638B10023436081
:10CF60000360C3601A461946FFF73AFF204610BD1A
:10CF700038B5044640B94FF0500383F31188BFF32E
:10CF80006F8FBFF34F8FFEE7456800F0D5FE8542F7
:10CF90000AD1E368013BE36023B91A4619462046EB
:10CFA000FFF71EFF012038BD002038BD2DE9F843F2
:10CFB000884691461F46044640B94FF0500383F31C
:10CFC0001188BFF36F8FBFF34F8FFEE709BB036C70
:10CFD000FBB14FF0500383F31188BFF36F8FBFF3A2
:10CFE0004F8FFEE704F1240000F014FE002834D037
:10CFF000B9F1000F31D00120C9F8000086F3118883
:10D00000BDE8F88301356DB284F8455025E0002075
:10D01000F4E7022F02D1E36B012B20D1FFF7DAFCFA
:10D02000EFF311864FF0500383F31188BFF36F8F36
:10D03000BFF34F8FA26BE36B9A4201D3022FE6D16D
:10D0400094F845503A466DB241462046FFF7E4FD5C
:10D050006B1CD7D1636A002BC4D10120CEE74FF0FF
:10D06000500383F31188BFF36F8FBFF34F8FFEE739
:10D0700070B50D46044640B94FF0500383F3118854
:10D08000BFF36F8FBFF34F8FFEE7036C43B14FF0D9
:10D09000500383F31188BFF36F8FBFF34F8FFEE709
:10D0A00003680BB9436873BBFFF794FCEFF3118679
:10D0B0004FF0500383F31188BFF36F8FBFF34F8F8F
:10D0C000A26BE36B9A4201D3002014E094F8453040
:10D0D00001325BB2A2635A1C10D1636A0BB9012002
:10D0E00009E004F1240000F095FD0028F7D0002DA0
:10D0F000F5D00120286086F3118870BD01335BB242
:10D1000084F84530EBE74FF0500383F31188BFF309
:10D110006F8FBFF34F8FFEE72DE9FF4788460192DF
:10D120009946044640B94FF0500383F31188BFF38A
:10D130006F8FBFF34F8FFEE7002940F0A580036C8F
:10D14000002B00F0A1804FF0500383F31188BFF350
:10D150006F8FBFF34F8FFEE7019E002E00F09A8085
:10D160004FF0500383F31188BFF36F8FBFF34F8FDE
:10D17000FEE7636AE660002B6DD004F124005FE0F7
:10D18000019D1DB9FFF740FB284667E016B902A8CC
:10D1900000F082FDFFF738FB00F0C6FAFFF712FB44
:10D1A00094F84430FF2B08BF84F8447094F845305D
:10D1B000FF2B08BF84F84570FFF726FB01A902A8E2
:10D1C00000F07AFD002852D1FFF7FCFAA56BFFF7BB
:10D1D0001BFB002D45D1236833B9FFF7F3FA6068D4
:10D1E00000F0C0FDFFF710FB019904F1240000F0EE
:10D1F000D9FC2046FFF758FD00F036FB38B94FF058
:10D200008053CAF80030BFF34F8FBFF36F8F0126F2
:10D21000FFF7D8FAA56B002DB2D041462046E6684C
:10D22000FFF72DFDB9F1000FA3D12368013DA563E0
:10D2300013B900F02DFE6060236963B104F11000A2
:10D2400000F0E8FC38B1154B4FF080521A60BFF384
:10D250004F8FBFF36F8FFFF7D7FA012004B0BDE8FF
:10D26000F0872046FFF720FD00F0FEFACFE72046CA
:10D27000FFF71AFD00F0F8FAFFF7A4FAA56BFFF725
:10D28000C3FA002DC3D17FE700F05CFD00283FF416
:10D2900063AF00260027DFF804A0B9E704ED00E043
:10D2A00070B50D46044640B94FF0500383F3118822
:10D2B000BFF36F8FBFF34F8FFEE7466800F03CFD72
:10D2C000864204D1E3680133E360012070BD00238E
:10D2D0002A4619462046FFF71FFF10B1E3680133C5
:10D2E000E36070BD2DE9F84389469046054640B994
:10D2F0004FF0500383F31188BFF36F8FBFF34F8F4D
:10D30000FEE771BB036C63B34FF0500383F31188E6
:10D31000BFF36F8FBFF34F8FFEE795F84460494628
:10D3200076B22846FFF7ABFC013C731CAC6313D10B
:10D330002B690BB901200BE005F1100000F06AFC2D
:10D340000028F7D0B8F1000FF4D00120C8F8000091
:10D3500087F31188BDE8F883013676B285F844601A
:10D36000E8E7FFF737FBEFF311874FF0500383F344
:10D370001188BFF36F8FBFF34F8FAC6B002CCCD1F4
:10D380002046E5E710B5044640B94FF0500383F35B
:10D390001188BFF36F8FBFF34F8FFEE7FFF712FACD
:10D3A000A46BFFF731FA204610BD40B94FF050038F
:10D3B00083F31188BFF36F8FBFF34F8FFEE7806B4E
:10D3C0007047000030B5074A002352F8335002EB93
:10D3D000C3041DB942F83310606030BD0133082B1F
:10D3E000F3D130BDD031012070B504460D4616464C
:10D3F000FFF7E8F994F84430FF2B04BF002384F8CA
:10D40000443094F84530FF2B04BF002384F84530A6
:10D41000FFF7FAF9A36B2BB93246294604F1240031
:10D4200000F0DAFB2046BDE87040FFF73DBC00008D
:10D43000064A13681968064B19B94FF0FF321A6093
:10D4400070471268D268D2685268F8E7E4DE0020BC
:10D45000C0DF0020F8B51B4B1B4E1D68044630682A
:10D4600004300F46FFF73DF9334640B93168174E97
:10D47000C96A32680120884022EA00023260621CD8
:10D4800007D137B1196812480431BDE8F840FFF7F9
:10D4900005B92C441A68A542546007D90D4A106892
:10D4A0001968BDE8F8400431FFF704B90A4A10686A
:10D4B00019680431FFF7FEF8084B1A68944238BF28
:10D4C0001C60F8BD08E00020E0DE002090DF0020B6
:10D4D000E0DF0020E8DE0020E4DE0020C0DF0020E6
:10D4E0004FF0500383F31188BFF36F8FBFF34F8F5B
:10D4F000FEE700002DE9F84F4FEA820A80465046C9
:10D500000D4699460B9EFFF7B7FA0746002800F034
:10D510009F806020FFF7B0FA0446002800F0958055
:10D5200052460763A521384609F0DAFC236BAAF1BD
:10D53000040A9A442AF0070A6B1E04F134020F35DC
:10D54000597802F8011B13F8011F09B1AB42F7D15A
:10D550000A9D062D28BF06254FF0000B271DE5620A
:10D56000E564384684F843B0C4F850B0FFF793F848
:10D57000C5F1070504F11800FFF78DF8C4F858B09D
:10D580002461A5616462C4F854B084F85CB04A4672
:10D5900041465046FFF7E8F8206006B13460FFF7D7
:10D5A00011F9324B324E1A68DFF8F08001321A60FE
:10D5B0003568002D4FD134601B68012B1DD108EB5D
:10D5C00005001435FFF75CF88C2DF8D1DFF8D0900A
:10D5D000284D4846FFF754F82846FFF751F82648EB
:10D5E000FFF74EF82548FFF74BF82548FFF748F8B6
:10D5F000244BC3F80090244B1D60244A244913682F
:10D60000086801331360E26A6364012505FA02F3D6
:10D61000034314200B6000FB02803946FFF73EF8FD
:10D62000FFF7F2F81B4B1B6863B13368DA6AE36AF1
:10D630009A4207D2184B4FF080521A60BFF34F8FB7
:10D64000BFF36F8F2846BDE8F88F3846FFF7A6FA7C
:10D650004FF0FF35F6E70F4B1B68002BCDD1336839
:10D66000DA6AE36A9A4298BF3460C6E77CDF00203A
:10D67000E0DE0020A8DF0020C8DF0020F4DF00206B
:10D68000E0DF0020E4DE0020E8DE00208CDF002068
:10D6900090DF0020DCDF002004ED00E0ECDE002065
:10D6A00094DF002013B51A4B019300240094234605
:10D6B000802218491848FFF71DFF01281AD100F0F1
:10D6C0006DFD012816D14FF0500383F31188BFF38D
:10D6D0006F8FBFF34F8F114B4FF0FF321A60104B1B
:10D6E0001860104B1C60F8F78BF802B0BDE81040D2
:10D6F000FFF7FAB8013008D14FF0500383F31188D7
:10D70000BFF36F8FBFF34F8FFEE702B010BD00BFB6
:10D71000BCDF00204DBD0108A1D90008C0DF0020FA
:10D72000DCDF002008E00020024A136801331360A8
:10D73000704700BF88DF0020014B1868704700BFAA
:10D7400008E000202DE9F84F3C4B1B68002B53D11B
:10D750003B4B1C6801341C60BCB93A4B1A68126818
:10D7600042B14FF0500383F31188BFF36F8FBFF3C3
:10D770004F8FFEE7344A1968106818601160334A09
:10D78000136801331360FFF753FE314D314F2B689F
:10D790009C424FF0000B3ED3DFF8A880DFF8C49026
:10D7A000D8F80020126872BB4FF0FF322A6032E0D6
:10D7B00006F1040A5046FEF794FFB16A19B106F16A
:10D7C0001800FEF78EFFF06AD9F80030012202FA45
:10D7D00000F11943204BC9F800104FF0140E5146C8
:10D7E0000EFB0030FEF75AFF3868F16AC26A9142B8
:10D7F00028BF4FF0010BD3E7184A136801331360B9
:10D800004FF0000B11E0D8F80020D268D66871689C
:10D810008C42CDD229603A680F4BD16A14224A4318
:10D820009A58022A28BF4FF0010B0D4A1268002AAD
:10D8300018BF4FF0010B5846BDE8F88F88DF002075
:10D8400008E00020E4DE0020E8DE0020C4DF002045
:10D85000C0DF0020E0DE0020ECDE002084DF0020BE
:10D860000CE0002090DF00202DE9F843314C2368C4
:10D8700043B94FF0500383F31188BFF36F8FBFF3A9
:10D880004F8FFEE7FEF79EFF2368013B236024686D
:10D890002CB10024FEF7B8FF2046BDE8F883264BE4
:10D8A0001B68002BF5D0DFF8A890244FDFF8A48088
:10D8B000D9F80030E3B90CB1FFF7BAFD204D2C6860
:10D8C00044B1204E0127FFF73DFF00B13760013C16
:10D8D000F9D12C601B4B1B68002BDAD01A4B4FF090
:10D8E00080521A60BFF34F8FBFF36F8F0124D1E7CF
:10D8F000D9F80C30DC68261D04F11800FEF7F1FEA3
:10D900003046FEF7EEFEE26A3968012505FA02F3B9
:10D9100014200B4300FB028031463B60FEF7BEFE45
:10D920000A4BE26A1B68DB6A9A4224BF054B1D6002
:10D93000BEE700BF88DF00207CDF002090DF0020F2
:10D9400084DF00200CE0002004ED00E0E0DE002099
:10D95000C8DF0020ECDE002008B540B90E4B4FF0C8
:10D9600080521A60BFF34F8FBFF36F8F08BD0B4B10
:10D97000196841B14FF0500383F31188BFF36F8FE3
:10D98000BFF34F8FFEE7FFF7CFFEFFF763FDFFF713
:10D990006BFF0028E2D008BD04ED00E088DF002026
:10D9A00008B5184E184C236873B9184B1B68012B27
:10D9B00007D9174B4FF080521A60BFF34F8FBFF358
:10D9C0006F8F00F095FFEDE7FFF7AEFE3568FFF7CC
:10D9D0004BFF002DE7D0FEF7F5FEF368DD68281D4C
:10D9E000FEF77FFE0B4A1368013B13602368013B7F
:10D9F0002360FEF709FF286BFFF7D0F82846FFF7F2
:10DA0000CDF8D0E7F4DF002080DF0020ECDE00203E
:10DA100004ED00E07CDF002038B5294B1A68294B63
:10DA200012B101221A6038BD1A60F7F7EAFE264AE1
:10DA3000264C1568A84204D921684B6D5B1B034432
:10DA40004B65236810601B6B1A68B2F1A53F0BD1C0
:10DA50005A68B2F1A53F07D19A68B2F1A53F03D148
:10DA6000DB68B3F1A53F04D020682168343100F0B1
:10DA700043FF174B1B68B3FA83F3DBB2C3F11F03F9
:10DA8000142214495A4388188D5845B94FF0500351
:10DA900083F31188BFF36F8FBFF34F8FFEE74568A5
:10DAA00008326D6845600A44954204BF6A68426066
:10DAB000142202FB03135B68DB68236038BD00BFE0
:10DAC00088DF00200CE0002078DF0020E0DE00206E
:10DAD00090DF0020ECDE002070B50446294EFEF7F2
:10DAE00071FE04B93468251D2846FEF7FAFD60B9B9
:10DAF000E06A254B142141435B5833B92349012285
:10DB00000B68824023EA02030B60A36A1BB104F195
:10DB10001800FEF7E6FD29461D4D1E48FEF7BEFD26
:10DB2000FEF772FE2A682AB1FEF74CFEFFF780FC72
:10DB3000FEF76AFE33689C4222D12B68A3B1164BD4
:10DB40001B6843B14FF0500383F31188BFF36F8F0D
:10DB5000BFF34F8FFEE7114B4FF080521A60BFF3B7
:10DB60004F8FBFF36F8F70BD0D4A0A491268096865
:10DB7000914201D1336070BDBDE87040FFF74CBFEA
:10DB800070BD00BFE0DE0020ECDE002090DF002052
:10DB9000DCDF0020E0DF002088DF002004ED00E073
:10DBA0007CDF002010B50C4640B94FF0500383F3E2
:10DBB0001188BFF36F8FBFF34F8FFEE7054B1968D6
:10DBC0001831FEF777FD20460121BDE81040FFF730
:10DBD00041BC00BFE0DE002038B50D46144640B918
:10DBE0004FF0500383F31188BFF36F8FBFF34F8F54
:10DBF000FEE7074B19681831FEF750FD002C21464F
:10DC00000CBF28464FF0FF30BDE83840FFF722BC7C
:10DC1000E0DE002038B5C368DC6844B94FF050033B
:10DC200083F31188BFF36F8FBFF34F8FFEE704F1CB
:10DC300018052846FEF755FD114B1B68E3B9251D55
:10DC40002846FEF74EFD0F49E26A0868012393401B
:10DC500003430B600C4B1420294600FB0230FEF7F7
:10DC60001DFD0A4BE26A1B68DB6A9A4283BF084BC0
:10DC700001201860002038BD29460648EFE700BFA4
:10DC800088DF002090DF0020ECDE0020E0DE0020B6
:10DC90000CE00020C8DF002008B508B9FFF720FC21
:10DCA000034B1B680360034B1B68436008BD00BF48
:10DCB000C4DF002008E0002038B50D46044640B916
:10DCC0004FF0500383F31188BFF36F8FBFF34F8F73
:10DCD000FEE741B94FF0500383F31188BFF36F8F14
:10DCE000BFF34F8FFEE7FEF76DFD0E4B19682B68F3
:10DCF0005A1C10D00C4A206812689042626801D009
:10DD000091420DD2881A83420AD95B1A13442B60C0
:10DD10002046FFF7C1FF0024FEF776FD204638BD00
:10DD20000124F9E708E00020C4DF0020014B0122B4
:10DD30001A6070470CE00020014B1868704700BF64
:10DD4000E0DE0020054B1B6833B1054B1B68002B40
:10DD50000CBF02200020704701207047DCDF00204C
:10DD600088DF00202DE9F0410446002838D01D4D01
:10DD7000C36A2A68D26A934232D282691A4E002A52
:10DD8000A1BF2A68D26AC2F10702826114274269E0
:10DD900007FB03639A4220D100F104084046FEF7D6
:10DDA000A0FC124A48B9E06A4743F3592BB91368FB
:10DDB0000121814023EA010313602B681168D86AAE
:10DDC000E062012383400B4313601423414603FBAD
:10DDD0000060BDE8F041FEF761BC2B68DB6AC362FE
:10DDE000BDE8F081E0DE0020ECDE002090DF0020C6
:10DDF000F8B5044608B90020F8BD224B1B689842CC
:10DE000008D04FF0500383F31188BFF36F8FBFF337
:10DE10004F8FFEE7036D43B94FF0500383F3118832
:10DE2000BFF36F8FBFF34F8FFEE7C16AC26C013B38
:10DE300091420365DFD0002BDDD1051D2846FEF79A
:10DE400050FC114E114A50B9E76A142179437358B6
:10DE50002BB913680120B84023EA00031360E36C78
:10DE6000E362C3F10701A1611168012404FA03F020
:10DE700008431060142000FB03602946FEF70EFCE7
:10DE80002046F8BDE0DE0020ECDE002090DF002020
:10DE9000044B1A681AB119680A6D01320A651868CC
:10DEA000704700BFE0DE00202DE9F0411F4C1E4608
:10DEB00080460F461546FEF785FC236893F85C30D4
:10DEC000022B14D023689A6D22EA08029A6523680F
:10DED000012183F85C1056B13046FFF7BBFA144BB2
:10DEE0004FF080521A60BFF34F8FBFF36F8FFEF772
:10DEF0008BFCFEF767FC15B123689B6D2B602368D4
:10DF000093F85C30012B1FBF2368996DB943996565
:10DF100023684FF0000214BF0125002583F85C2020
:10DF2000FEF772FC2846BDE8F08100BFE0DE00206D
:10DF300004ED00E0F8B50F4616461D46044640B90C
:10DF40004FF0500383F31188BFF36F8FBFF34F8FF0
:10DF5000FEE7FEF737FC0DB1A36D2B6094F85C5023
:10DF60000223721EEDB284F85C30032A0AD8DFE87F
:10DF700002F002060410A16D0F43A76502E0A36D35
:10DF80000133A365012D08D00125FEF73DFC28468D
:10DF9000F8BD022DF1D10025F7E7261D3046FEF72A
:10DFA000A0FB1449E26A086805FA02F303430B6018
:10DFB000114B142000FB02303146FEF76FFBA36AC1
:10DFC00043B14FF0500383F31188BFF36F8FBFF35A
:10DFD0004F8FFEE7094BE26A1B68DB6A9A42D3D98E
:10DFE000074B4FF080521A60BFF34F8FBFF36F8F14
:10DFF000CBE700BF90DF0020ECDE0020E0DE002059
:10E0000004ED00E02DE9F843089F894690461D463F
:10E01000044640B94FF0500383F31188BFF36F8F6C
:10E02000BFF34F8FFEE7FEF7D5FCEFF311864FF0FD
:10E03000500383F31188BFF36F8FBFF34F8F0DB180
:10E04000A36D2B6094F85C50022308F1FF32EDB20F
:10E0500084F85C30032A07D8DFE802F0020D1311C0
:10E06000A16D41EA0901A165012D0DD0012086F3C2
:10E070001188BDE8F883A36D0133A365F4E7022D91
:10E0800033D0C4F85890EFE7A36A43B14FF0500380
:10E0900083F31188BFF36F8FBFF34F8FFEE7144BED
:10E0A0001B68DBB904F104084046FEF71AFB114A6D
:10E0B000E36A11689D400D4315600F4A14204146E4
:10E0C00000FB0320FEF7EAFA0C4BE26A1B68DB6AEE
:10E0D0009A42CBD901202FB13860C8E704F118016A
:10E0E0000748EFE7074B1860C1E70020BFE700BF14
:10E0F00088DF002090DF0020ECDE0020E0DE002042
:10E10000C8DF00200CE00020F8B50F4CFEF75AFBEA
:10E110002568ADB90D4F0E4E3846FEF7B1FA3046C0
:10E12000FEF7AEFA0B4B1F600B4B2A460C210A2060
:10E130001E60FEF731FE206010B10849FFF742F97A
:10E14000BDE8F840FEF760BB44E0002018E0002086
:10E150002CE0002010E0002014E0002052BD010857
:10E16000914208B5416000610AD8D21A83699A4287
:10E170000DD2084B011D1868FEF79CFA002008BD5F
:10E180009A4201D2994202D2011D034BF3E70120CA
:10E1900008BD00BF14E0002010E0002007B5FFF725
:10E1A000B3FF0D4B1B685BB10C4B01930223009333
:10E1B0004FF4007200230A490A48FFF79BF940B95F
:10E1C0004FF0500383F31188BFF36F8FBFF34F8F6E
:10E1D000FEE703B05DF804FB44E0002048E00020C7
:10E1E00057BD010805E300082DE9F04180462C20C9
:10E1F0000D4617461E46FEF73FFC0446A8B145B93A
:10E200004FF0500383F31188BFF36F8FBFF34F8F2D
:10E21000FEE7FFF779FF069BC4F80080A561E76180
:10E2200026626362201DFEF736FA2046BDE8F081C3
:10E2300030B5154685B01A46034640B94FF0500335
:10E2400083F31188BFF36F8FBFF34F8FFEE70D4C41
:10E25000206880B105290191029503930DDCFFF739
:10E2600071FD0023022808BF089A206818BF1A46CB
:10E2700001A9FEF7B5FD05B030BD002301A9FEF7E9
:10E2800095FEF8E744E000202DE9F3411B4D4FF0E7
:10E2900000082B681A6832B9194A1168296013609E
:10E2A00002B0BDE8F081DB68DC681E68271D3846D7
:10E2B000FEF717FA636A20469847E369012BE8D115
:10E2C000A36933449E4206D26360246139462868BC
:10E2D000FEF7F0F9DDE70023CDF80080324619465D
:10E2E0002046FFF7A5FF0028D3D14FF0500383F35A
:10E2F0001188BFF36F8FBFF34F8FFEE710E0002050
:10E3000014E000202DE9F04F6C4DDFF8C08189B09A
:10E310002F462B68D3F800B0BBF1000F42D0DB686A
:10E32000D3F80090FFF700FAFFF706FA644B1A687B
:10E33000904282461E4637D20393FFF7A5FF039B08
:10E340000124C3F800A0002C7ED1BBF1000F60D0E7
:10E35000D14577D8FFF788FA3B68DB68D3F80CB073
:10E360000BF10400FEF7BDF9DBF81C30012B1DD1C9
:10E37000DBF818104B46524649445846FFF7F0FE6A
:10E38000A0B1009423464A4621465846FFF750FF65
:10E3900060B94FF0500383F31188BFF36F8FBFF361
:10E3A0004F8FFEE7D946BDE70024CAE7DBF82430EB
:10E3B00058469847DFF81091D9F8000000231A4614
:10E3C00005A9FEF7A9FE0028A3D0059B002BF3DBCF
:10E3D000079C636913B1201DFEF783F9FFF7ACF9C1
:10E3E00033689842834601D2FFF74EFF059AC6F87C
:10E3F00000B0092AE0D80123934013F4047A4AD1EB
:10E4000013F0C70F23D19B06D6D52046FEF7C6FBD7
:10E41000D2E72C4B1B681A68B2FA82F252092A4BD7
:10E42000A9EB0A011868FEF7DFFFFFF71DFA0028C5
:10E43000C0D14FF08053C8F80030BFF34F8FBFF307
:10E440006F8FB7E72246EAE7FFF70EFAB2E7A16956
:10E45000069B5A4619442046FFF782FE0028ABD09F
:10E46000636A20469847E369012BA5D1A269069902
:10E47000CDF800A00A44534651462046FFF7D8FE87
:10E48000002899D14FF0500383F31188BFF36F8FA9
:10E49000BFF34F8FFEE70699A16141B94FF05003DA
:10E4A00083F31188BFF36F8FBFF34F8FFEE75B4697
:10E4B0005A4659442046FFF753FE7DE710E00020FE
:10E4C00040E0002014E0002044E0002004ED00E0E3
:10E4D00010B5094C094900222046FDF7D5FB084933
:10E4E0002046FDF7E6FB20460649FDF78EFB204659
:10E4F000BDE81040FDF7E4BB10320120281A0020CF
:10E5000004190020181A00200020704700207047CE
:10E5100038B5074C0968054604F05EFB29462046DD
:10E52000FDF782FB2046FDF79CFB002038BD00BFB5
:10E530001032012010B5064C064900222046FDF796
:10E540006BFB05492046FDF76FFB002010BD00BFA7
:10E5500010320120343C01203434012010B5094C24
:10E56000D4F81832D3F814320A4643B9014620468B
:10E57000FDF752FB2046BDE81040FDF75BBB0120D4
:10E5800010BD00BF1032012012230B8000487047DD
:10E59000441A002004230B8000487047581A0020BA
:10E5A00010B5044C04480A462146FDF730FE2046CB
:10E5B00010BD00BF3444012078BD010810B5044CE3
:10E5C00004480A462146FDF722FE204610BD00BF42
:10E5D0003444012085BD010810B5044C04480A46A6
:10E5E0002146FDF714FE204610BD00BF3444012033
:10E5F000A2BD010810B5044C04480A462146FDF7A7
:10E6000006FE204610BD00BF344401205FBD010856
:10E6100010B5044C04480A462146FDF7F8FD204693
:10E6200010BD00BF344401206ABD010810B5036865
:10E63000B3F1A04F86B02ED100244FF4007301A98E
:10E640001648019302940394F9F74AFB4FF4C05320
:10E650000193022302930323049301A90A230F4881
:10E6600005930394F9F73CFB0D4B5A6B42F0800283
:10E670005A6300945A6C42F480425A645B6C03F40F
:10E6800080430093432022460521009BF8F780FD3C
:10E690004320F8F7BFFD06B010BD00BF00000240E8
:10E6A0000038024000F56F71D0F8EC03FDF71FBB96
:10E6B0001C2303FB0103D0F8EC03D3F80422FDF77D
:10E6C00043BB1C2303FB0103D0F8EC035A6CFDF79A
:10E6D0006DBBD0F8EC03FDF7E9BB10B5C16804468B
:10E6E000003118BF0121D0F8EC03FDF7CDFBD4F8C1
:10E6F000EC03BDE81040FDF7A8BB000010B50446D0
:10E70000D0F8EC03FDF7C3FB2268D2F8003E43F0DB
:10E710000103C2F8003E236A23B1034A136943F0A0
:10E720000603136110BD00BF00ED00E0D0F8EC035C
:10E73000FDF7B6BBD0F8EC03FDF7C6BBD0F8EC0391
:10E74000FDF7C0BBD0F8EC03FDF7C0BBD0F8EC037D
:10E75000FDF7BEBB08B5027842BB154B0421C3F8D8
:10E76000EC03C0F820324FF0A04083E80300022100
:10E77000D9609961184601211A615A61DA611A62F9
:10E780005A62D9621A63F9F7E9FC08B1F7F79EFB00
:10E7900080210748FAF73DF9402200210448FAF7A2
:10E7A00017F9802201210248FAF712F9002008BD6A
:10E7B0003446012008B5D0F82002F9F747FD0328B8
:10E7C0009ABF024B185C022008BD00BFAFBD010814
:10E7D00010B51C46D0F8200213462246FAF70AF874
:10E7E00003289ABF014B185C022010BDAFBD010881
:10E7F00008B5D0F82002FAF72BF803289ABF024B8D
:10E80000185C022008BD00BFAFBD010808B5D0F8F4
:10E810002002FAF78CF803289ABF024B185C0220FA
:10E8200008BD00BFAFBD010808B5D0F82002FAF757
:10E83000AAF803289ABF024B185C022008BD00BF4B
:10E84000AFBD010811F0800FD0F820324FF01C024C
:10E850001BBF01F07F0102FB013102FB013191F886
:10E860003A0008BF91F8FA017047000008B5D0F8E7
:10E870002002F9F7ADFF03289ABF024B185C022073
:10E8800008BD00BFAFBD010808B5D0F82002FAF7F7
:10E890002EF803289ABF024B185C022008BD00BF67
:10E8A000AFBD010808B5D0F82002F9F7F4FF03283E
:10E8B0009ABF024B185C022008BD00BFAFBD010823
:10E8C00008B5D0F82002FAF70AF808BD064A13681E
:10E8D0001843431C01D0106070476FF003030348D6
:10E8E0001360F9F735BC00BF641A0020BC2E01206C
:10E8F00001210020FAF792B808B50E210348FFF76E
:10E900002DFE0348BDE8084001F0AEBA24BF01085F
:10E9100033BF010808B50D210348FFF71FFE034868
:10E92000BDE8084001F0A0BA09BF010817BF0108FF
:10E930007047000030B589B008AB184D43F81C0D86
:10E94000184608F089F9836901338DF808300369A6
:10E9500001338DF80930C3688DF80A304369643B90
:10E960008DF80B3083688DF80C3043688DF80D30CE
:10E9700003688DF80E3000244023224602A9284661
:10E980008DF80F3006940794FAF798FE224603A9F3
:10E990002846FAF779FD09B030BD00BFC82E012026
:10E9A00010B5144C90B002A900222046FAF752FE8E
:10E9B000002201A92046FAF729FF9DF804300D93A3
:10E9C0009DF80530013B0B939DF806300A939DF8A6
:10E9D000073064330C939DF80830099310A89DF814
:10E9E000093008939DF80A3040F8243D08F060FB98
:10E9F00010B010BDC82E0120BD4ABE4D93682DE950
:10EA0000804843F48053936091B00120FFF75EFF8C
:10EA1000B94B1A889B78AB70B84B2A801A889B78C0
:10EA20006B71B74BA5F803205A6F160140F118839C
:10EA3000B448FFF77FFFB44BB149B44F4A6FDFF8DA
:10EA40003883B34E42F080724A673B6006F090FE16
:10EA50000120FFF73BFFAF4B1868FDF74BFDFFF7B9
:10EA60009FFFC8F80000AC48FBF762FAB6F86A40AE
:10EA700005F0A5FFCDF82C8050B195F8283043F073
:10EA8000010385F8283005F055FFE0B205F08DFF51
:10EA900008F000F810A8002340F8043D07F0A4FE99
:10EAA00058B90F9B4BB16FF07F4293421EBF95F850
:10EAB000293043F0010385F829300120FFF706FFD4
:10EAC000964C06F0E9FB41F6180354F8038001F078
:10EAD000EFF8804500F01E8341F60403012204F59F
:10EAE000C051E25400230B6041F60801635441F623
:10EAF0000901635441F60A01625441F61402A3521B
:10EB0000874AD6F8283113605360002005F082FA56
:10EB1000012005F07FFA022005F07CFA032005F0C1
:10EB200079FA40217F48F9F79DFAB0FA80F0400960
:10EB300085F84C004FF480717A48F9F793FA431E38
:10EB40005842584195F8203060F3000385F8203092
:10EB500041F60A03E05C01F015F906F0EFFE10B192
:10EB6000714801F081F94FF47A70FDF7CBFB6F48E3
:10EB700004F048F8FEF74AF801466D4804F042F800
:10EB80006C4B1A68062A984616DC022207927622F7
:10EB900006920A220023059272220893049303929C
:10EBA0003A680292644A0192009340F2C32206231B
:10EBB0006249634806F0FCFC624B00211868FDF7CF
:10EBC000E3FB614B00211868FDF7DEFB5F4B002182
:10EBD0001868FDF7D9FB5E4B00211868FDF7D4FBE0
:10EBE0005C4CF6F75DFA2368C01AB0F57A7F18D34B
:10EBF000F6F756FA584B20609B78412B40F09082F4
:10EC0000032005F08EFA022005F086FA2C7A14F023
:10EC1000010740F08A82012005F083FA384605F0AA
:10EC200080FA4E4CF6F73CFA2368C01AB0F57A7FAA
:10EC3000C0F00F82F6F734FA2060474C484FDFF8F7
:10EC40003CB1204606F018FEE3786B75012B8CBFB3
:10EC5000226A0022012B737F14BFD4ED067ADFED08
:10EC6000417AAA6107EE103AB8EEC77AF4EEC77A95
:10EC7000F1EE10FA40F18182F6F712FA3B68F28B5E
:10EC8000C01A4FF47A735343984205D90023CBF846
:10EC90000030F6F705FA3860334BDBED008A186870
:10ECA0004FF47A71FDF7C2FB002840F017812F4F17
:10ECB00094F800A087F82AA0B946BAF1000F00F036
:10ECC0005F82E37887F82830BAF1000F00F0C08047
:10ECD000012B00F0BD80264B94ED078A83ED008A5E
:10ECE00001F0BAF8234B002840F0508248E000BF02
:10ECF000002004E07CE5002003BF010806BF0108F6
:10ED000000380240841DBF5BD5BD0108A4E000208F
:10ED10000C530120AC2E0120F42F01200000002014
:10ED20000C1800200000024014BE010826BE010895
:10ED30003CBE01089816012062BE010855BE0108BC
:10ED4000CCBD01086C2E0120B42E0120702E0120B4
:10ED5000602E0120A0E0002058E0002098E0002074
:10ED600054E0002000000000742E0120DCE50020AB
:10ED70004CE0002094E00020601A002050E00020C9
:10ED80000D930C90FEF7D0FC0D9B96F82820D3ED48
:10ED9000007A0C9807EE102A78EE677AB8EE477A78
:10EDA000F0EEE77AF4EEC77AF1EE10FAC0F2EC81F9
:10EDB00083ED008A01F050F8002840F0E381738968
:10EDC0004FF47A715943B74B1868FDF7B3FAFEF761
:10EDD0004BFDBAF1000F02D0022000F081FF18EEC7
:10EDE000902AB14B1A60D9F81100D9F815100022F9
:10EDF0000023F5F77DFE40B1D9F81900D9F81D10B0
:10EE000000220023F5F774FE20B9F5EEC08AF1EE7A
:10EE100010FA08DDA54BA068E16859601860206908
:10EE20006169D9609860D4ED077A626AFCEEE77A8E
:10EE300017EE903AA7F821309D4B1A60226A43F8EA
:10EE4000082C9C4B1B687B6294F8283087F8233091
:10EE500097F82A30002B00F09C8197F82830012B7E
:10EE600000F09781A378412B40F09381337D0BB361
:10EE7000D9F80530D6ED067A07EE103AF4EEC77AE7
:10EE8000F1EE10FAC0F2858197F82320337F9A4281
:10EE9000C0F07F8196F82020D9F8093007EE902A3B
:10EEA00007EE103AF8EE677AF4EEC77AF1EE10FA50
:10EEB000C0F26F81012387F8293097F829907E4F9F
:10EEC0003B782BB9B9F1000F02D0042000F008FF05
:10EED0007A4B87F800901868FDF730FBF6F7E0F8FA
:10EEE000774BE26A1968DFF824928A42074600F0FD
:10EEF00052811A60C9F80070A378DFF81492412B90
:10EF000040F06981C9F8007000F00EFF074600F07C
:10EF100025FFE478012C814608D0DBED007AF5EE80
:10EF2000407AF1EE10FA14BF0124002400F094FF9F
:10EF3000012840F0708147B1B9F1000F05D00020E1
:10EF400000F020FF002000F0CBFE95ED097A5D4C2B
:10EF5000F1EE087AB4EEE77AF1EE10FAACBF0127D1
:10EF6000002709DA23783BB1524B93ED000A02F0F7
:10EF7000D3FF0B2000F0B4FE534B27701A7822B158
:10EF800000220D201A7000F0ABFE504B1A7822B10F
:10EF9000002204201A7000F0A3FE4D4B1A7822B113
:10EFA000002204201A7000F09BFE4A4C95F84C7029
:10EFB00023781BB917B10A2000F092FE2770FFF7E3
:10EFC000EFFC0B9B186002F0FFFF00F045FF424A88
:10EFD00001280CBF3489F488136804EB440401331E
:10EFE000A342136017D91368B42B14D9D8F8003092
:10EFF000062B0ADC394B01930023009340F27F2259
:10F0000006233749374806F0D3FA6420FDF77AF92A
:10F01000002000F029FF344A136801339C4213603A
:10F0200017D21368B42B14D9D8F80030062B0ADC99
:10F030002E4B0193002300934FF42172062328499D
:10F04000284806F0B5FA6420FDF75CF9002000F0CE
:10F050000BFF0120FFF73AFC3220FDF753F9BFE523
:10F060005A6F940113D45A6FD00012D45A6F002AE9
:10F0700011DB5A6F510010D45A6F92000FD45B6F9E
:10F080001B4A13F0806F1B4B08BF1346D4E41A4B86
:10F09000D2E41A4BD0E41A4BCEE41A4BCCE41A4B10
:10F0A000CAE400BF5C2E0120E5E50020EDE500206C
:10F0B000E9E500200C1800209DE00020742E0120BE
:10F0C0008CE000209EE000208D1401208E14012091
:10F0D0008C1401209CE00020D8E50020DBBE010854
:10F0E00055BE0108BFBD0108CCE50020EEBE0108F9
:10F0F00009BE010802BE0108DCBD0108E3BD01082C
:10F10000EABD0108F2BD0108FABD010888E000204F
:10F1100090E00020474B93ED000A02F0EDFEF4E48E
:10F12000022004F0FEFF03206EE514F0020708D170
:10F130004FF47A734FF4FA72FA21012004F0CEFFF3
:10F140006CE514F004074FF0010002D104F0E4FF75
:10F1500064E514F008040AD104F0E3FF4FF47A7375
:10F160004FF4FA72FA21204604F0B8FF59E504F092
:10F17000D8FF002004F0D0FF53E5CBED007A88E5FE
:10F1800001239FE5B3891BE6824620E683ED008AD2
:10F1900025E600238FE6D9F8003041F28832C31A01
:10F1A00093427FF6A9AED8F80030042B0ADC224B3C
:10F1B0000193002300934FF4E77204231F49204872
:10F1C00006F0F6F906F0BAFB00283FF493AE1D48AE
:10F1D00000F04AFE8EE6D9F800304EF66022FB1AA7
:10F1E00093427FF691AED8F80030042B0ADC164B20
:10F1F00001930023009340F2DD1204230F491048CD
:10F2000006F0D6F906F09AFB00283FF47BAE0D48D5
:10F2100000F02AFE76E6B9F1000F7FF496AE002CDE
:10F220007FF493AE204600F05BFD012000F0AAFDC4
:10F230008BE600BF0C1800208FBE010855BE0108E8
:10F24000B3BD0108A7BE0108C0BE010813B5014641
:10F250006A460E4804F0F4FF044698B99DF8003061
:10F26000012B0CD0032B0DD10198C389112B04D095
:10F2700007491030F4F7B4FF08B102F069FE2046E8
:10F2800002B010BD4FF0FF34F9E700BF79E1002074
:10F29000A3C1010810B50D2186B0174808F0C4FFBE
:10F2A00008B10023037005AA1449134808F03EFF73
:10F2B000012801D1059B43B90F4C1149204608F0A4
:10F2C000F2FF844204D102F043FE002006B010BDDC
:10F2D0000C4B1B68052B0BDC0B4B0193002300939D
:10F2E0000294052340F2C5120849094806F060F966
:10F2F0004FF0FF30EAE700BF79E10020B2C101081A
:10F30000A3C1010898160120C8C10108B9C10108AC
:10F3100081BF010830B5114C87B0024621686846AC
:10F32000FDF774F9009B102B16D10122216803A868
:10F33000FDF732F9039B102B0ED1049D65B12946D0
:10F34000074851F8044B224607F0BFFD2846FDF759
:10F3500025FC204607B030BD0024FAE7802E0120AE
:10F3600079E10020014B1868FDF7C4B8842E012014
:10F37000F0B5294B1A7985B006460C46002A37D1DC
:10F380001B68039323B903AA2449093008F0CEFE71
:10F390000121204604F018FF0123251801461A46D2
:10F3A000204605F017F82A46014627180123204673
:10F3B00005F03CF8039B01962A460146009320463F
:10F3C0003B4605F03FF82A46014626180223204610
:10F3D00005F02CF82A4601463346204605F05AF837
:10F3E00005460146204604F0DBFF284405B0F0BD89
:10F3F00002460B49204608F075FE00220546C11E54
:10F40000E01C04F08DFD07490246601908F06AFE11
:10F410002046F4F7EFFEE9E70C5301205FC801082E
:10F42000A8BF0108B6BF010810B5204B1B7986B0F4
:10F430000446DBB904AA04F003FF20B99DF810309C
:10F44000013B012B30D91A4B1B68052B0BDC194BE8
:10F450000293194B019300230093D52205231749EA
:10F46000174806F0A5F84FF0FF301DE00D2108F019
:10F47000DBFE08B1002303701249204608F013FF99
:10F4800088B90B4B1B68052BEDDC0F4B02930F4B20
:10F4900003948DE8090040F29112052307490C48B6
:10F4A00006F086F8DFE7002006B010BD0C530120FF
:10F4B00098160120BBBF0108C0BF0108B9C10108EF
:10F4C00041BF0108D7BF0108DDBF0108E4BF010843
:10F4D00060BF0108000000002DE9F04F2DED028B08
:10F4E00099B04FF0FF32002110A8FCF777FF744C61
:10F4F000744D754E0120FFF70DFF98B12379002B55
:10F5000040F0AE80FFF7A2FE60B12B68052B09DC4E
:10F51000002300930196052340F20B226B496C48AF
:10F5200006F046F86B4B4FF47A711868FCF7BAFF97
:10F530000028DFD1684B694F1B782BB907F5C05302
:10F540001D68002D40F094805D4B1D79002D40F02A
:10F55000CF8001216148DFF88881DFF890A15F4CFE
:10F5600004F032FE81465E49504605F0E1FDD128A7
:10F5700079D102231A464946204604F02BFF07EBB7
:10F580000906014607EB000910233246204604F025
:10F590004DFF4B4601463246CDF80080204604F030
:10F5A000ABFF1123014607EB00093246204604F069
:10F5B0003DFF4B4601463246CDF80080204605F01F
:10F5C0005FF81223014607EB00093246204604F09B
:10F5D0002DFF4B4601463246CDF80080204605F00F
:10F5E00075F81323014607EB00093246204604F064
:10F5F0001DFF4B4601463246CDF80080204605F0FF
:10F600009FF81523014607EB00093246204604F017
:10F610000DFF4B4601463246CDF80080204605F0EE
:10F62000BFF81B23014607EB00093246204604F0D1
:10F63000FDFE4B460146CDF800803246204605F0DF
:10F64000E5F801350A2D81468DD12946254803F07C
:10F65000D9FA4946214804F0A3FE00EB090504E06D
:10F66000FFF718FE50E7002DEFD1002D3FF43FAF1C
:10F67000194C1D4E44F8045C0023237000F020FB5D
:10F680003068FCF7E0FF074600287FF430AF281D04
:10F69000FDF7F2F9804600283FF429AF2A460F49CA
:10F6A00040F8045B07F011FC3A4641463068FCF72D
:10F6B0004BFF002800F093824046FDF76FFA16E7F3
:10F6C0000C5301209816012001C00108B9C101089E
:10F6D0009DBF0108842E0120041800200000002096
:10F6E000A8E000201CC001088C2E0120481B00202F
:10F6F000D549D64808F0A6FDD448F4F77BFD00258F
:10F700008046DFF86893D248494605F011FDD128BC
:10F7100040F06182CD4C484608EB0403099307F0A2
:10F720009BFA02680369039242680292826801921E
:10F730004269C849643A00920133C268099808F0E6
:10F74000D1FC099B1C1899F82830012B00F0E481AA
:10F75000D9F81570D9F811600A9627F000430B9379
:10F7600014A89DED0A0B08F001FC002251EC100BCF
:10F77000B94BF4F755FF0022B84BF5F77BF8DDE9FC
:10F780001423F4F79BFD0022B44BF4F749FF41EC3E
:10F79000100B14A808F0EAFBDDE914018DED0E0B47
:10F7A000F5F7EEF99DED0E0BA5A3D3E900238246F4
:10F7B00051EC100BF4F734FFF5F7E2F90023834620
:10F7C000394600223046F5F7B1F9002814BF4E2320
:10F7D00053235246A249009320465B4608F082FC20
:10F7E000D9F81D70D9F819600C9627F000430D93D5
:10F7F00004449DED0C0B14A808F0B8FB002251EC5A
:10F80000100B954BF4F70CFF0022944BF5F732F8F0
:10F81000DDE91423F4F752FD0022904BF4F700FFCA
:10F8200041EC100B14A808F0A1FBDDE914018DEDEB
:10F830000E0BF5F7A5F99DED0E0B81A3D3E900237F
:10F84000824651EC100BF4F7EBFEF5F799F9002323
:10F850003946834600223046F5F768F9002814BF80
:10F8600045235723524600937E495B46204608F0C5
:10F8700039FCD9F8057004443846F4F77DFE41ECB4
:10F88000100B14A808F072FBD9F80930B9F8216000
:10F89000002251EC100B08EE103A704BF4F7C0FE4A
:10F8A000F5F76EF907EE907AFDEEE77A0390CDED6D
:10F8B000027A99F823300193D9F80D306A4907EE9E
:10F8C000903ABDEEC88AFDEEE77A2046CDED007A8B
:10F8D000334618EE102A08F005FC0444634E9FEDF1
:10F8E000648A96F8293096F84310DFF8B4A1DFF85F
:10F8F000B4B1002B14BF802200220A4396F8443092
:10F900005C49204608F0EEFBD6F82B30044400EEAC
:10F91000103A14A808F084FB20EE080A5649FDEEC0
:10F92000C07A204617EE903ADDED147AFDEEE77AC4
:10F9300006F1710717EE902A08F0D4FBD6F82F30A5
:10F94000044400EE103A14A808F06AFB20EE080AFE
:10F950004A49FDEEC07A204617EE903ADDED147A62
:10F96000FDEEE77A17EE902A08F0BCFB0444444908
:10F970002046033408F066FCD6F8453041490122A0
:10F98000204608F0AFFBD6F849303F4907EE903AE1
:10F99000FDEEE77A044417EE903A0122204608F083
:10F9A000A1FB044401223949D6F83330204608F03F
:10F9B00099FBD6F84D30044400EE103A14A808F034
:10F9C0002FFBB0EEC00A20EE080A3149FDEEC07AE6
:10F9D000204617EE903ADDED147AFDEEE77A17EE49
:10F9E000902A08F07FFBD6F85130044400EE103A1C
:10F9F00014A808F015FBB0EEC00A20EE088A2046D5
:10FA0000FDEEC87A234917EE903ADDED147AFDEE4B
:10FA1000E77A17EE902A08F065FB0023044496F875
:10FA20007020934207F10C077CDB726A1A491B4E67
:10FA3000DFF874A007EE902AFDEEE77A204635E065
:10FA4000000000000088C34031C001080000002011
:10FA5000481B002035C0010800004E4000005940FE
:10FA60004FC001085DC001086BC00108A8E000207C
:10FA70000000C8429CC0010877C00108A3C001086B
:10FA800098C00108ACC00108BCC00108C9C0010889
:10FA9000D7C00108EAC0010832C1010800E1002016
:10FAA000FDC0010808C101083DC1010817EE902AF8
:10FAB00008F018FB00270444A6F1580999F85730BC
:10FAC0009F4206F108065FDB99F804300D2B7AD1CE
:10FAD0006649204608F0B6FB08342046644908F021
:10FAE000B1FB099B01340135E41A0A2DA0447FF4CF
:10FAF00008AE29465F4803F085F80022A8F103010B
:10FB00005D4804F00DFA02465C485D49404408F047
:10FB1000E9FA00EB0805A8E520465A4908F092FBEF
:10FB20001B34DBE60C2203F1010902FB036351469F
:10FB3000D3F8793007EE903AFDEEE77A4A4617EEB1
:10FB4000903A204608F0CEFA17F80C2C17F8053C2E
:10FB5000069217F80B2C059217F80A2C049217F846
:10FB6000092C039217F8082C029217F8072C01921F
:10FB700017F8062C0092044420464A46594608F0DD
:10FB8000B1FA4B4604444AE716F8082C16F8013C33
:10FB9000069216F8072C059216F8062C049216F811
:10FBA000052C039216F8042C029216F8032C0192ED
:10FBB00016F8022C0092013720463A46514608F0CA
:10FBC00091FA04447AE70A2B01D12F4981E70B2BE4
:10FBD00083D12E497DE7002D3FF447AD89E72C4BBB
:10FBE0004FF0FF32196814A8FCF7D6FC149B102BB9
:10FBF0007FF47DAC159B002B7FF479AC41F288300B
:10FC0000FFF788FB234B024600B31B79DBB9FFF7F4
:10FC10001DFB70B1204B1B68052B0ADC1F4B0193A9
:10FC20000023009340F21E2205231D491D4805F0C4
:10FC3000BFFC01230025237044F8045C00F040F869
:10FC4000194B1D6053E4FFF725FBE2E793F894306E
:10FC5000002BEED0104B1B68052BEADC134B8DE814
:10FC60000C00052340F22222DFE700BF6EC101082D
:10FC700089C101081CC00108030000200000002009
:10FC8000B6BF010880C0010877C1010880C1010822
:10FC9000B02E01200C5301209816012001C001084C
:10FCA000B9C101089DBF0108CCE500208BC1010846
:10FCB000002241F61801014804F04AB90000002072
:10FCC00008B5FCF77FFDFFF7F3FF41F61803034A81
:10FCD000D050BDE80840FCF797BD00BF00000020F1
:10FCE0000C4B07B5014664221868FCF72DFC68B17F
:10FCF000094B1B68052B09DC084B0193002300937B
:10FD00002F2205230649074805F052FC03B05DF891
:10FD100004FB00BF642E0120981601204DC201088B
:10FD20003DC20108E3C1010841F60803014AD05C65
:10FD3000704700BF00000020064B074A83F84E00C2
:10FD400041F60803D15C814202D0D054FFF7B8BF1E
:10FD5000704700BF7CE500200000002041F6090349
:10FD6000014AD05C704700BF00000020044A41F601
:10FD70000903D15C814202D0D054FFF7A1BF704784
:10FD8000000000202DE9FF410646264D264BDFF8F6
:10FD9000C480264F4FF47A74002835D169891868D9
:10FDA0006143FCF7C7FAE988D8F800006143FCF723
:10FDB000C1FAE98938686143FCF7BCFA1C4A0023A0
:10FDC00013601C4A13601C4A41F60A03D15CB1421D
:10FDD00002D0D654FFF774FF184B1B68042B10DCBD
:10FDE000174A184B18491948002E0CBF1E461646D4
:10FDF000174B01930023009302960423612205F020
:10FE0000D7FB04B0BDE8F081A98918686143FCF70D
:10FE100091FA2989D8F800006143FCF78BFA298A06
:10FE2000C8E700BF0C5301205C2E01209C2E01204E
:10FE3000D8E50020CCE50020000000209816012025
:10FE400021C201081AC201083DC20108FDC1010812
:10FE500029C20108942E012041F60A03014AD05C10
:10FE6000704700BF0000002007B50446FCF7AAFC5D
:10FE70000F4B93ED000A02F03FF864B10D4B1B6885
:10FE8000062B08DC00230093019406236E220A4906
:10FE90000A4805F08DFBBFF34F8F0949094BCA682B
:10FEA00002F4E0621343CB60BFF34F8F00BFFDE766
:10FEB0000C180020981601203DC201080DC201084F
:10FEC00000ED00E00400FA0507B5034601220DF13C
:10FED00007010548FAF73DFF20B99DF8070003B078
:10FEE0005DF804FBFF20FAE7703101202DE9F043B3
:10FEF00087B099464FF480630D46174605938046B8
:10FF000068BB4FF4FA7302222749284806F07CF8B0
:10FF100005AA04462649006808F008F901281BD004
:10FF2000059BCBB1234B1B68052B05DD4FF0FF3440
:10FF3000204607B0BDE8F083236803931E4B02936D
:10FF40001E4B0193CDF80080052340F295121C4909
:10FF50001C4805F02DFBE9E76420FCF7D3F9002FDE
:10FF600001DC0024E4E7059EBE4228BF3E464B4626
:10FF700032462946404606F0F3F9431C04460FD1A9
:10FF80000C4B1B68052BD1DC0F4B01930023009316
:10FF900040F2A11205230A490A4805F009FBC7E708
:10FFA000BF1B3544DBE700BFE7C80108F0C8010804
:10FFB000FDC801089816012019C9010825C90108C2
:10FFC0000CC9010865C201082EC90108F8B504462C
:10FFD0000F46F5F765F806464FF0FF30FEF776FC62
:10FFE0000020FFF771FF0546F5F75AF8801BB8426D
:10FFF00003D8A542F0D10020F8BD4FF0FF30F8BD86
:020000040801F1
:1000000030B50E4D87B0002300930FCD01AC0FC467
:100010002B682360F7F7EAFC694601A8F7F7FEFDB5
:100020000446F7F7F5FC34B90098013018BF4FF0DB
:10003000FF3007B030BD4FF0FF30FAE7F8B80108E5
:10004000F8B50C4607461646F7F7D0FC26440125BE
:100050003F1BB44204EB070108D014F8012B002326
:100060000020F7F709FD05460028F2D0F7F7D0FC8D
:10007000281C18BF01204042F8BD000010B50446FE
:10008000F4F7B8F8214682B20348FAF7E5FE0030EB
:1000900018BF0120404210BD7031012030B591B031
:1000A0000D461446F4F79CF818B322462B46134924
:1000B00004A808F017F800214FF4FA73012204A8ED
:1000C00005F0A2FF04680E49204608F0ECF890B94C
:1000D0000C4B1B68052B0ADC0B4B02948DE80900C6
:1000E0004FF4247205230949094805F061FA4FF0DD
:1000F000FF3011B030BD0020FBE700BF3DC9010853
:1001000083E001089816012054C901080CC90108B0
:1001100071C2010810B5084C237A13F0010308D00E
:1001200006F068F820B190F90030237443786374C6
:1001300010BD2374FBE700BF7CE5002010B586B03E
:100140000E4A0F490446684607F0CCFF4FF4FA7395
:1001500001220C49684605F057FF60B143F6982329
:1001600002220949204605F04FFFB0FA80F040090D
:10017000404206B010BD4FF0FF30FAE7F20E01200A
:100180007DC801088BC801088EC8010810B586B06B
:100190000B4A0C490446684607F0A4FF6846FFF77F
:1001A0006DFF4FF4FA70F4F763FF2046FFF766FF28
:1001B0004FF4FA60F4F75CFF002006B010BD00BFFA
:1001C000F20E01207DC8010870B50C460646F4F712
:1001D00011F8234682B2054608490948074CFAF748
:1001E000B8FD28B92A463146204606F05FFE18B110
:1001F000002323704FF0FF3070BD00BF3854012042
:1002000070310120F8B5054608B90020F8BD104E40
:100210003068FCF718FA074610B14FF0FF30F8BD10
:10022000281DFCF729FC04460028F6D02A46094977
:1002300040F8045B06F049FE3A4621463068FCF778
:1002400083F90028E1D02046FCF7A8FCE5E700BFD1
:10025000802E0120ADE6002008B513468AB2014683
:100260000348FAF776FD003018BF0120404208BD70
:100270007031012070B505460E46541E631C01D135
:10028000002009E00120FCF73DF83146284606F041
:100290001BFA013C0028F1D070BD0000014B18682A
:1002A000FCF728B9982E01202DE9F04FB34BB44E3E
:1002B0001868ADF5257D4FF47A71FCF73BF84FF0E7
:1002C000FF32002106A8FCF789F8AE4CDFF81CA32A
:1002D0002378032B7ED9AC49AC484FF47A730322C0
:1002E00005F092FE07460220FEF7F0FAA8493869A9
:1002F00007F0D9FF002864D03868A64907F0D3FF7B
:10030000851CA549284607F0CEFF10228046002113
:10031000A24806F0E5FDA8EB050229469F48DFF854
:10032000D08224AD06F0D1FDB9688022284607F0BE
:10033000A5FF002141F288330122404605F064FE0A
:1003400007460220FEF7C2FAD7F8009090494846C7
:1003500007F0A9FF10BB924F20703B68042B0DDC07
:10036000904BCDF80C908DE80900CDF8088004235F
:1003700040F201328C498D4805F01AF93B68052B93
:100380000CDC237802938A4B01930023009340F204
:10039000023205238449854805F00AF98549284633
:1003A00007F081FF854233D118220DF1990182486F
:1003B00007F064FF0122814BDAF800001A70FCF7A5
:1003C00099F87D4B1B782BB12378072B40F0A9803F
:1003D0000A2323702378DAF80000042B9CBF784BA3
:1003E00004224FF0FF3198BF1A70FCF75BF82378B6
:1003F0000A2B01F24E83DFE813F09900FD00CD02D5
:100400007D0331041305B0053B07D9070008B70881
:100410006C49284607F047FF854207D118220DF1A5
:100420009901654807F02AFF0222C4E76649284679
:1004300007F039FF85425FD10DF1990B2C21584609
:1004400007F0F2FE0746A0EB0B08002847D0B8F1F2
:10045000230F44D80DF13C0942465946013748461E
:1004600006F033FD4FF0000B2C21384609F808B098
:1004700007F0DAFE8046C31B88B3172B2FD81A4625
:10048000394618A8059306F020FD059B4B442846E5
:1004900083F824B0F3F7AEFE08F101080544A5EB9C
:1004A0000805172D1BD82A4641461EA84D4406F0C4
:1004B0000CFD54224946454885F83CB006F005FD40
:1004C00005F08CF858B90220FEF700FA4048FFF713
:1004D00035FE0220FEF7FAF93E48FFF7C5FC022080
:1004E000FEF7F4F93C48FFF729FE0220FEF7EEF98B
:1004F0002A4B00221A7064E73849284607F0D3FED9
:1005000085427FF45EAF0220FEF7E0F93448FFF742
:1005100015FE4FF4FA60FBF7F5FE3248FFF7A4FC36
:100520004FE7092B7FF456AF082352E70220FEF76E
:10053000CDF92D4B00221A605A609A6005F050FEEA
:10054000C820FBF7DFFE05F043FE0220FEF7BEF9F0
:1005500005F036FE4FF4FA60FBF7D4FE05F028FEF6
:100560000220FEF7B3F940F6AC50FBF7CBFE0220B9
:10057000FEF7ACF901232370A7E600BFB82E0120D7
:1005800038540120F10E012007C301080DC30108F2
:1005900083E0010818C301081BC30108F20E012003
:1005A0009816012025C901080CC9010894C2010848
:1005B00032C3010847C30108B8FE0020D0FE002066
:1005C000681A002051C301085BC30108A45301202D
:1005D00065C301087FC3010898C30108B9BE0108BB
:1005E0009FC30108A3C3010884E50020982E0120C1
:1005F0001EC30108B04F3B681BB9B04A136053607B
:1006000093600220FEF762F905F04AFD054660B3EB
:10061000AB4B1B68042B0ADCAA4B0193002300930D
:100620004FF468720423A849A84804F0C1FF3B684E
:1006300001330A2B3B607FF448AEA248FFF714FC5D
:1006400000233B609E4A12680023052A23703FF76F
:100650003CAE9F4A02930192009340F2F33205238D
:1006600099499A4804F0A4FF2FE63860994FDFF8C3
:1006700094823B7A43F0010301463B7201224FF41E
:10068000FA73404605F0C0FCD0F800909249484605
:1006900007F009FE90B98A4B1B68052BD2DC8F4B03
:1006A000CDF80C908DE80900CDF8088005234FF4B3
:1006B0006D728549854804F07BFFC3E7DFF8488207
:1006C00029464FF4FA730122404605F09DFCD0F80C
:1006D00000908149484607F0E6FD70B9784B1B68E9
:1006E000052BAFDC7D4BCDF80C908DE80900CDF8E3
:1006F0000880052340F2BB32DBE7DFF81082294691
:100700004FF4FA730122404605F07EFCD0F80090C9
:100710007149484607F0C7FD70B9694B1B68052B46
:1007200090DC6E4BCDF80C908DE80900CDF8088078
:10073000052340F2C232BCE729464FF4FA73022285
:10074000674805F061FC64498046806807F0ABFDAE
:10075000002800F0A380634B98E80600184606F0D6
:10076000B4FBF860604F29464FF4FA730122384613
:1007700005F04AFC05685849284607F094FD78B909
:100780004F4B1B68052B3FF75DAF544B03958DE82E
:100790000900029705234FF427724B4953488AE713
:1007A000534F54494FF4FA730222384605F02CFC9B
:1007B00049490546806807F076FD70B9404B1B68D3
:1007C000052B3FF73FAF2B680393444B02978DE80F
:1007D000090040F2A3220523DFE72968DFF8308112
:1007E000DFF830A1DFF830B1DFF8309124A807F04E
:1007F00029FD012724AD5146284607F054FD002865
:100800003CD0851C152200210FA806F069FB0FAA19
:100810005946284607F08AFC7B1E032BFAB22BD8D8
:1008200098F8003043B341460FA8FFF737FC002883
:100830007FF408AF01371F2F08F11008DBD12E4FCE
:1008400000214FF4FA730122384605F0DDFB0568FC
:100850002149284607F027FD002861D1184B1B6865
:10086000052B3FF7EFAE1D4B03958DE8090002976E
:1008700005234FF476721CE74946D5E7104B1B68F9
:10088000052B3FF7DFAE1D4B0F498DE809001748D8
:10089000052340F2C62204F08BFED3E6084B1B680A
:1008A000052B3FF7CFAE164B07498DE8090040F204
:1008B000CD3205230548EEE7B0FE002084E5002098
:1008C00098160120AEC301080CC901089DC2010899
:1008D00032C301087CE5002083E0010825C9010836
:1008E000E6C30108D10E0120EEC3010882C201084F
:1008F0000DC40108FFC3010846C4010827C401084C
:100900003EC40108C4C30108CFC30108DAC301080B
:100910003553012018C301081DC4010823C4010870
:10092000A84D00214FF4FA730122284605F06CFB14
:100930000768A549384607F0B6FC68B9A34B1B68A1
:10094000052B3FF77FAEA24B03978DE80900029578
:10095000052340F2DF32ACE69E4D00214FF4FA73DE
:100960000122284605F050FB07689749384607F0F2
:100970009AFC68B9954B1B68052B3FF763AE944B07
:1009800003978DE809000295052340F2E63290E6D0
:100990000223F0E50220FDF799FF05F029FC013064
:1009A0000ED18A4A12680023052A23703FF78DACC6
:1009B000894A0293019200934FF47F7205234FE618
:1009C000864DFFF7A7FB2A6842B985490B7A62F387
:1009D000410362F3820362F3C3030B72814F02206F
:1009E000FDF774FF41F2883302227F49384605F053
:1009F0000BFB80460220FDF769FFD8F800807B4999
:100A0000404607F050FC8146A8BB7949404607F0B4
:100A10004AFC002850D00DF190084B46754A102131
:100A2000404607F02BFB0220FDF750FF494641F2FC
:100A300088330122404605F0E7FA81460220FDF79F
:100A400045FFD9F800906049484607F02CFCD8B122
:100A50000220FDF73BFF644941F288330222384609
:100A600005F0D2FA07460220FDF730FF5F493868EB
:100A700007F019FCD0B15A4A00232B60137A43F0D7
:100A800002031372032376E5504B1B68042B0DDC25
:100A90004F4BCDF80C908DE80900CDF80880042369
:100AA00040F229425449554804F082FD2B68013335
:100AB000042B0FD82B6008E4444B1B68042BF5DC97
:100AC000434BCDF80C808DE809000297042340F2D7
:100AD0002D42E7E73D4A12680023052A2B60237068
:100AE0003FF7F3AB3C4A02930192009340F2354248
:100AF0000523B5E50220FDF7E9FE05F079FB01309D
:100B00000ED1324A12680023052A23703FF7DDAB6D
:100B1000314A0293019200934FF4896205239FE5C5
:100B2000374D4FF4FA70FBF7EDFBFFF7F3FA0021B6
:100B30004FF4FA730122284605F066FA0768224945
:100B4000384607F0B0FBF0B9204B1B68052B0BDCD7
:100B50001F4B03978DE809000295052340F253428D
:100B60002549264804F024FD184A12680023052A66
:100B700023703FF7AAAB184A02930192009340F208
:100B8000714205236CE51F4D0220FDF79FFE0021F9
:100B90004FF4FA730122284605F036FA07680A492D
:100BA000384607F080FB78BB084B1B68052BDBDC65
:100BB000074B03978DE809000295052340F25B423D
:100BC000CEE700BF4EC4010883E00108981601205B
:100BD00025C901085BC4010832C30108B0FE00202A
:100BE0007CE500206EC4010868C4010878C40108CF
:100BF00085C4010894C401080CC901089DC20108FC
:100C0000A2C40108ADC401080220FDF75FFE8F4DAC
:100C10004FF47A70FBF776FB0220FDF757FE0021B8
:100C20004FF4FA730122284605F0EEF90768884967
:100C3000384607F038FB78B9864B1B68042B0BDC71
:100C4000854B03978DE809000295042340F2674223
:100C50008249834804F0ACFC04238CE40220FDF7B5
:100C600035FE05F0C5FA01300ED17A4A126800232C
:100C7000052A23703FF729AB7A4A02930192009329
:100C800040F27B420523EBE4774FFFF743FA3B68E2
:100C900033B976490A7A63F3820263F3C3020A72B4
:100CA00001335A2B3B6059D80220FDF70FFE7049E3
:100CB000704841F28833022205F0A6F90546022069
:100CC000FDF704FE6C49286807F0EDFAA8B9614AFF
:100CD00012680223052A23700ADC0293614B40F25A
:100CE00091428DE8090005235C495D4804F060FCF1
:100CF0005D4B00221A60FFF7E8BADFF8B8815F4960
:100D00004FF4FA730222404605F07EF9D0F80090C5
:100D10005B49484607F0C7FA00285CD000214FF431
:100D2000FA730222574805F06FF949490546806871
:100D300007F0B9FA90B195E80600534806F0C5F8F7
:100D400003225249504806F0B1F838B902225049FE
:100D50005048514D06F0AAF838B9287000230220F7
:100D60003B60FDF7B3FD052305E402224B494948EA
:100D700006F09CF810B901232B70EFE702224849D6
:100D8000444806F093F828B102224649414806F04B
:100D90008DF808B90223EFE7022243493D4806F0E7
:100DA00085F828B1022241493A4806F07FF808B98F
:100DB0000323E1E7274A126804239A422B70CDDC13
:100DC0003B4A0192002200922449254840F2B24257
:100DD00004F0EEFBC2E71F4D2B68042B0DDC1E4B0D
:100DE000CDF80C908DE80900CDF8088004234FF46D
:100DF00097621A491A4804F0DBFB3B68592B7FF6CF
:100E000064AA2A680223052A23703FF771AF029370
:100E1000144B01930023009340F2BC42052363E787
:100E20000220FDF753FD05F0E3F9013044D1094AF2
:100E300012680023052A23703FF747AA094A029344
:100E40000192009340F2D342052309E41EC3010836
:100E500083E001089816012025C901080CC9010882
:100E60009DC2010832C30108B0FE00207CE50020CD
:100E700068C401086EC4010878C40108BCC4010834
:100E8000CCC40108D7C40108E10E0120E0C4010868
:100E9000E4C40108E40E0120681A0020E7C4010838
:100EA000EAC40108EDC40108F0C40108F3C4010854
:100EB000F6C40108C2C401088E4DFFF72BF929685A
:100EC00061B98D4A8D48137A61F3820361F3C303DC
:100ED000137241F28833012205F096F82B68013332
:100EE0000F2B2B602FD80220FDF7F0FC844985489A
:100EF00041F28833022205F087F88349006807F041
:100F0000D2F900BB814F3B68042B09DC804B81493F
:100F10008DE809004FF49E6204237F4804F048FBEB
:100F20002B680F2B7FF4D1A93A680423052A23707C
:100F30003FF7DEAE0293794B01930023009340F21A
:100F4000F4420523D0E66C4A00232B60137A43F069
:100F5000040313720623FFF70EBB0220FDF7B6FC55
:100F600005F046F901300FD1684A12680023052ABE
:100F700023703FF7AAA9694A02930192009340F2B5
:100F800009520523FFF76CBB5A4DFFF7C3F82F68D2
:100F9000002F40F04B81624BDF70574B1A7A67F39A
:100FA000C3021A7205F06EF9F8B1584B1B68052B95
:100FB00009DC5C4B01930097052340F21752554919
:100FC000554804F0F5FA514909680023042205291F
:100FD0002B6022703FF779A90292504A0192009348
:100FE0004FF4B0620523FFF73BBB0220FDF76EFC18
:100FF0004FF4FA7302224C494C4805F005F84C496D
:10100000006807F050F90146F8B94A4F4FF4FA73F7
:101010000122384604F0F8FFD0F8008046494046E7
:1010200007F041F988B9394B1B68052BCBDC434BE2
:10103000CDF80C808DE809000297052340F222527A
:101040003449354804F0B4FABDE74FF4FA7302228C
:101050003B493C4804F0D8FF3B49006807F023F9BE
:101060000146D8B9394F4FF4FA730122384604F0DB
:10107000CBFFD0F800803049404607F014F968B93A
:10108000224B1B68052B9EDC2C4BCDF80C808DE889
:1010900009000297052340F22C52D1E74FF4FA736E
:1010A00002222B492B4804F0AFFF2B49006807F0C0
:1010B000FAF80146002853D1284F4FF4FA73012261
:1010C000384604F0A1FFD0F800801B49404607F0E5
:1010D000EAF8002844D10D4B1B68052B3FF773AF8E
:1010E000164BCDF80C808DE809000297052340F2DD
:1010F0003652A5E7B0FE00207CE5002007C50108B8
:1011000013C501081AC5010825C501089816012054
:101110002FC501080CC901089DC2010832C301088E
:10112000582D01203DC501084BC5010853C50108D4
:101130005FC501086AC5010883E0010825C90108E7
:1011400077C5010880C501088DC5010899C501084A
:10115000A7C50108B0C50108BDC50108C9C501087A
:10116000DFF83493B74F3222002124A805F0B8FEEF
:1011700099F80020B4494FF00C0808FB02F224A8AB
:10118000BA5806F0AFFF99F8003008FB03735F68A8
:1011900077B1D3F80880B8F1000F09D024A8F3F78D
:1011A00029F83A4624AF4346A849384406F09AFF46
:1011B000A749A84F24A807F028F84FF4FA73012292
:1011C000002124A804F020FF0220FDF77FFB00216E
:1011D00041F288330122384604F016FFD0F800802F
:1011E0009D49404607F05FF800BB9C4D2B68052BDE
:1011F0000CDC9B4BCDF80C808DE809000297052391
:1012000040F24C529749984804F0D2F92A680423D6
:10121000052A23703FF759A80293944B01930023AA
:10122000009340F24E520523FFF71ABA2B68552B54
:1012300011D80220FDF74AFB4FF47A7301220021F6
:101240008B4804F0E1FE4368073B082B4FF0020097
:1012500006D8FDF73BFB00232B600723FFF78BB974
:10126000FDF734FB2B68542B3FF6ADAEFFF72DB8DE
:101270000220FDF72BFB04F0BBFF01300FD1774AB2
:1012800012680023052A23703FF71FA8774A0293AC
:101290000192009340F289520523FFF7E1B9754F9F
:1012A000754D3B7A6FF3C3033B72FEF733FF05F1D5
:1012B0006C0144F62063B5F89020002005F012F888
:1012C00029468046F8B1654B1B68052B0ADC6B4B41
:1012D00001930023009340F2935205236149624831
:1012E00004F066F95D4A12680823052A23703EF768
:1012F000ECAF02935D4B01930023009340F2C15287
:101300000523FFF7ADB95E4BB5F810210120D87069
:101310003B7A43F008033B72EC3142F2107304F065
:10132000E1FF70B14D4B1B68042B0ADC554B019358
:10133000CDF80080042340F29E524A494A4804F006
:1013400037F951495148FEF713F843F698230246FE
:101350004D490020FEF7CAFD07460028C2D195F886
:10136000943013B90923FFF706B901464FF48062A0
:10137000454805F0B5FD44494FF4FA623846FEF79A
:1013800079FF01464048FEF74FF80028AAD12B7993
:10139000002BE7D13C494FF47A72FEF76BFF014610
:1013A0003948FEF741F80028DCD09BE70220FDF722
:1013B0008DFA04F01DFF01300FD1284A1268002376
:1013C000052A23703EF781AF284A029301920093C9
:1013D00040F2CA520523FFF743B9FEF79BFE41F2E4
:1013E000883301222A492B4804F00EFE0220FDF723
:1013F0006DFA234B0022DA702EE40220FDF766FA24
:1014000004F0F6FE01300FD1144A12680023052AB9
:1014100023703EF75AAF154A0293019200934FF49E
:10142000BD620523FFF71CB9174D01222946002094
:10143000FEF720FF8046002800F06683FEF7E2FEFC
:10144000F3E700BFA8C20108D7C50108E2C501083B
:1014500083D60108E9C5010883E001089816012038
:1014600025C901080CC901089DC2010832C3010841
:10147000F3C501087CE500200C530120FDC50108DF
:10148000582D01200FC60108ADE60020D10E012025
:1014900032C601083BC60108681A0020BF4BC0498C
:1014A0001D6041F288322846FEF7E4FE08B1FEF7DF
:1014B000A9FE0122BB4924A806F014FEBA494FF444
:1014C000FA73022224A804F09FFDB84904468068FC
:1014D00006F0E9FE00283EF4F8AEB549206806F0B3
:1014E000E2FE00283EF4F1AE03F0F0FE00283EF4E8
:1014F000ECAE03F0D9FE034600283EF4E6AEAD4A5A
:10150000AD49A74806F0EEFDA548F2F773FE42F29A
:1015100010730246A2490120FEF7E8FC00283EF4C1
:10152000D4AEA64B1B68052B3EF7CFAEA44B019360
:101530000023009340F224620523A249A24804F04C
:1015400037F8FEF7C2BE9D4A12680823052A2370A9
:101550003EF7BBAE02939D4B01930023009340F2F4
:1015600016620523FFF77CB80220FDF7AFF904F0FF
:101570003FFE01300FD1914A12680023052A2370E3
:101580003EF7A3AE914A02930192009340F2346277
:101590000523FFF765B88E488E4CF9F7BFFD8C48E0
:1015A000F9F7BCFD8C4B1868FCF796FA8B4B186862
:1015B000FCF792FA8A4B1868FCF78EFA4FF0FF306E
:1015C000FDF784F92046F9F7A9FD4FF0FF30FDF74C
:1015D0007DF9FEF715FD4FF0FF30FDF777F9002399
:1015E00080483370FEF74AFDC8217E48FEF7ECFDC7
:1015F000002840F0FA81C8217B48FEF7E5FD00286D
:1016000040F0F6817948FEF739FDC8217748FEF7AA
:10161000DBFD002840F0EF814FF4FA717248FEF7CD
:10162000D3FD002840F0EA817148FEF727FD4FF412
:101630007A716D48FEF7C8FD002840F0E2814FF452
:10164000E13320466360F9F78BFA664FDFF8988143
:10165000684D14243846FEF711FD4FF4FA714046E8
:10166000FEF7B2FD002800F0BE82284601F0CAFA5B
:101670006420F3F7FDFC013C4FF0FF30FDF726F945
:1016800014F0FF04E6D140F272620FAC5A492046D2
:1016900006F028FD2046FEF779FD484B1B68062B17
:1016A00009DC002300930194062340F24772454968
:1016B000454803F07DFF4FF4FA60FAF723FE00205F
:1016C000FEF7D2FBFEF701BE9B68002B00F0B6824E
:1016D0004A49204606F006FD2046FEF7CFFC4FF4AF
:1016E0007A714148FEF770FD002840F0938198F828
:1016F0000030434907FB035320469A6806F0F2FC8A
:101700002046FEF7BBFC4FF47A713748FEF75CFDCC
:10171000002800F0938240F28362B6E74FF0FF307A
:10172000FDF7D4F837492B20FEF750FC002840F095
:10173000A781C8213448FEF747FD002840F0A38167
:10174000C820FEF7C1FB312804D0322878D040F2FF
:101750002E729AE7C8212D48FEF736FD002840F08A
:10176000E5800590C820FEF7AFFB322182460A20B3
:10177000FEF72CFCBAF1310F059B4BD1B8F1000FED
:1017800008D140F2B4522249204606F0ABFC204674
:10179000FEF774FC4FF001082CE300BFD8E50020F1
:1017A000ADE6002048C6010859C6010883E00108DB
:1017B00064C60108D10E01208AC6010898160120CE
:1017C00090C601080CC901089DC2010832C3010876
:1017D0003031012070310120882E0120602E01203F
:1017E000702E01209FC60108A3C60108AAC60108E1
:1017F000B0C60108BFC601083AC80108F8C601080A
:101800000EC70108905F0100D6C701081CC301087C
:10181000DFC70108BAF1300F00F0F782A64A12685C
:10182000052A00F3EF82A54A01920093CDF808A0A3
:10183000052340F2F562A249A24803F0B9FEE1E2B5
:10184000C821A148FEF7C0FC002872D13070B04614
:10185000C82201214046C246FEF7FEFC00286BD19B
:101860009A4B43456BD09AF800300A2B08F10108D7
:10187000EED1249024AA9649304606F057FC012860
:1018800060D1249B9BB3F3F70BFC41F28832834673
:1018900024993046FEF7E0FC002856D14FF0FF3087
:1018A000FDF714F88B4BDDF890801B78012B04D0EA
:1018B000022B24D040F21572E7E60DB9FEF7A0FB2B
:1018C00005F100604246314600F10410FEF7B8FB16
:1018D0000028EFD1249A8048154401372B46394619
:1018E00001F090F97D4B1B699D4200F08E8240F221
:1018F000B4527B490FA806F0F5FB0FA848E7DFF8C4
:1019000004A20DB9CAF80050DAF800300593C3F507
:1019100080529045CED8734842463146284405F05F
:10192000D4FA059B4344CAF80030D3E740F2E3629F
:10193000ABE640F2FF62A8E640F20672A5E64FF47D
:10194000E162A2E640F20C729FE640F211729CE660
:10195000043D04220BA964480B95FEF771FB002897
:1019600040F06082614B3978614A00251D70614BFF
:101970002046012918BF1A465F4906F0B3FB2046EE
:10198000FEF704FC4C4B1B68062B08DC0194009509
:10199000062340F23D724A494A4803F009FE4FF4DB
:1019A000FA60FAF7AFFC0020FEF75EFA4FF0FF3264
:1019B0006BE600214FF4967224A805F091FA49488D
:1019C000002324A9435501F031F9002840F02A8270
:1019D000FAF7F8FE4FF4967224A9484805F075FA14
:1019E000FAF712FF03F0FAFDB9E740F256624CE64F
:1019F00040F2576249E640F25B6246E640F25C62C2
:101A000043E64FF4CC6240E640F27A623DE640F2B3
:101A100087623AE640F27F6237E640F28C6234E653
:101A200040F28E6231E640F28F622EE640F294621E
:101A30002BE64FF4D36228E640F29C6225E64FF491
:101A4000D46222E640F2A3621FE640F2A7621CE6DF
:101A500040F2AD6219E64FF4D66216E640F2B1628A
:101A600013E640F2B96210E640F2BB620DE640F2C6
:101A7000BE620AE64FF4D86207E640F2C76204E6A7
:101A800040F2DC6201E640F2DD62FEE540F27662A1
:101A9000FBE5094A1268052A0BDC0293184B0193F7
:101AA000002300934FF4EA6205230549054803F03B
:101AB0007FFD0023FEF75FBD98160120EFC70108E8
:101AC0000CC901089DC201081CC301083E54012035
:101AD00024CB0108D0FE0020FFC70108582D0120AB
:101AE000DFC70108D1FE002000000408B8FE002076
:101AF000E4C20108F8C201082EC801080C530120F5
:101B000049C80108B4FE0020FEF704FBC74B5A7C0D
:101B1000C74B93F824309A42FEF4D7AB4246C549EE
:101B200024A806F0DFFAC4494FF4FA73022224A86D
:101B300004F06AFAC1490546806806F0B4FB002843
:101B40003FF401ADBE49286806F0ADFB00283FF424
:101B5000FAACBC4D012229680CA8FAF757FD0C9B82
:101B6000102B7FF4A6AC012229680FA8FAF714FD08
:101B70000F9B102B7FF49DAC109F002F3FF499AC6E
:101B80003946B14851F8045B2A4605F09EF93846BB
:101B9000FBF704F8002D3FF48CAC2946AB4801F06C
:101BA00031F82A4643F69823A7494046FEF79EF9A6
:101BB000A74B054601460A221868FAF7C5FC002D16
:101BC0003FF46CACA34A12680823052A23703EF741
:101BD0007CAB0293A04B01930023009340F2076279
:101BE0000523FEF73DBD9D48FEF748FA4FF47A7194
:101BF0009B48FEF7E9FA00287FF448AFDFF8C4827B
:101C0000984D98F8003098490C277B430FACEA5860
:101C1000204606F067FA2046FEF730FA4FF47A7154
:101C20008F48FEF7D1FA00287FF4EEAE98F8003026
:101C300007FB03535A68002A7FF446AD8B48FEF732
:101C40001DFA4FF47A718648FEF7BEFA00287FF439
:101C5000DEAE4FF0FF30FCF739FE8548FEF70EFA96
:101C600041F288318348FEF7AFFA00287FF4D5AE01
:101C700064210A20FEF7AAF900287FF4D1AE4FF4C0
:101C80007A717748FEF7A0FA00287FF4CCAE4FF0C7
:101C9000FF30FCF71BFE7848FEF7F0F94FF47A713D
:101CA0006F48FEF791FA00287FF4C0AE7349744A7A
:101CB000204606F017FA2046FEF7E0F94FF47A7155
:101CC0006748FEF781FA00287FF4B3AE6D496E4A8B
:101CD000204606F007FA2046FEF7D0F94FF47A7155
:101CE0005F48FEF771FA00287FF4A6AE6749684A9C
:101CF000204606F0F7F92046FEF7C0F94FF47A7156
:101D00005748FEF761FA00287FF499AE6148FEF764
:101D1000B5F94FF47A715248FEF756FA00287FF46D
:101D200091AE5D495D4A204606F0DCF92046FEF79B
:101D3000A5F94FF47A714A48FEF746FA00287FF475
:101D400084AE4FF0FF30FCF7C1FD5548FEF796F921
:101D50004FF47A714248FEF737FA00287FF478AEE4
:101D600050492B20FEF732F900287FF474AEC821C9
:101D70004D48FEF729FA00287FF470AEDFF848914D
:101D80004A4F3070C9F81000A7F10905C822012197
:101D90002846A846FEF760FA00287FF462AEBD42EE
:101DA0003FF462AE98F800300A2B05F10105EDD141
:101DB0003F4A4049304606F0B9F901287FF457AE52
:101DC000D9F81030002B3FF455AE4FF0FF30FCF740
:101DD0007DFD3948FEF752F94FF4FA612048FEF7CD
:101DE000F3F9074600287FF448AEF3F759F9B846EF
:101DF00083463D46F3F754F9304BA0EB0B00984275
:101E00007FF68CAC40F232723FE4D9F810309D423C
:101E1000F8D12B4F0B953B78012B3FF499AD022B5A
:101E20003FF4C7AD40F235722FE400BF7CE50020DF
:101E30000C53012048C6010859C6010883E0010877
:101E400064C601088C2E0120ADE600206EC6010894
:101E5000B02E01209816012032C3010862C8010883
:101E6000A3C60108A8C20108D5C60108EAC6010830
:101E700023C7010831C701083FC701084CC7010843
:101E8000A45301205BC70108C853012068C701089B
:101E9000E053012075C7010886C70108B8FE00207D
:101EA000AFC70108905F0100BBC701084154012082
:101EB000682D012024CB0108C9C7010820BF0200FA
:101EC000D0FE0020681A0020582D012010B5084CC3
:101ED0004FF4FA712068FAF7C8FB40B9054B206847
:101EE00053F8042C1A60BDE81040FAF7B6BB10BDD9
:101EF0007C2E012010180020064BD3ED4A7AF4EE18
:101F0000407AF1EE10FA03D083ED4A0A03F066BB83
:101F1000704700BF0C53012010B50C4C2DED028B07
:101F20004FF4FA712068B0EE408AFAF79EFB50B980
:101F3000B0EE480AFFF7E0FFBDEC028B2068BDE879
:101F40001040FAF78ABBBDEC028B10BD7C2E01203D
:101F500070B5194D2DED028B4FF4FA712868FAF720
:101F600084FB30BB9FED158AB0EE480A03F070FD8C
:101F7000044640B14FF0FF342868FAF76EFBBDEC21
:101F8000028B204670BD03F023FDB5EE400AF1EE52
:101F900010FAEFD10A4EA6EC018AFDF791FE094B2B
:101FA00086ED008AB0EE480A83ED008AFFF7B4FFA1
:101FB000E2E74FF0FF34E2E77C2E01200000000052
:101FC0000C1800200C0F0120354A38B51368013376
:101FD000052B2DED028B0BD81360324A136842F6A5
:101FE000302101338B424FD8BDEC028B136038BDDA
:101FF00000232D4D136003F0EBFCD5ED007AF4EED9
:10200000C07AF1EE10FAB0EE408AE6D5274B5B7D40
:10201000012BE2D070EE677A254C9FED267AF5EE23
:10202000407AF1EE10FA48BFF0EE477A94ED007A6C
:1020300077EE277AE4EC017AFDF742FE94ED000A90
:102040001D4C85ED008AE38C07EE903A38EE408A0D
:10205000F8EE677AB0EEC88AB4EEE78AF1EE10FACD
:10206000BBDBFFF733FF0120FDF73AFEFDF7F4FE7F
:1020700040B963894FF47A715943104B1868FAF7E5
:1020800059F9AAE7A389F5E7BDEC028B0023136099
:10209000074B93ED000ABDE83840FFF73DBF00BF96
:1020A000040F0120080F01200C0F01207CE5002007
:1020B0000C180020000000000C5301205C2E0120B1
:1020C00010B5FDF7C9FE094B1A68094B04461A60A2
:1020D000FFF7FCFE24B92046BDE81040FDF700BE26
:1020E000012C01D10520F7E710BD00BF4CE0002016
:1020F00094E0002080B58AB04FF0FF32002102A8A2
:10210000FAF76CF9DFF81C813A4ED8F800104FF05E
:10211000FF3207A8FAF740FA079B102B0ED0364B78
:102120001B68052BF1DC354B0193002300934D22F6
:1021300005233349334803F03BFAE6E74FF47A715D
:1021400030689DF82070FAF771F90546002845D1EE
:102150002D4C2E49D122204604F0B7FE2771FDF701
:102160007BFE00280CBF0223002384F85630284B46
:10217000306893ED097AD3ED077A17EE903AB4EE12
:10218000E77AF1EE10FA17EE102AC4F851304CBF7E
:1021900001230023C4F84D2084F85530FAF7CEF916
:1021A000284606F059FFD1222060214619482746CB
:1021B00002F02AFF60B1104B1B68052B08DC164BA0
:1021C00001930095052356220D490E4803F0F0F9BE
:1021D0003A682179114800F015FD96E7064B1B6817
:1021E000052B92DC0E4B0193002300935C22052308
:1021F0009FE700BF742E01209816012092C90108A4
:102200007FC9010870C90108100F0120DCE500201A
:102210007CE50020481B00209DC90108BBC90108BE
:10222000E1C90108642E0120042202490248F4F7A2
:102230000FBC00BFF80F0120AC2D0120014B186826
:10224000FAF758B9A42E012008490B7863B1084A5F
:102250001368052B02D80133136070470023136005
:10226000044A0B7082F84D30704700BF781A002086
:10227000001001207CE5002038B54B4DDFED4B7A96
:102280002B884B4C9BB206EE903AF8EEE66A2DEDA9
:10229000048BF0EE088A66EEA86A6B889FED458A8B
:1022A00066EEA76A9BB286EE889A06EE903AF8EE42
:1022B000E66AAB8884ED0D9A66EEA86A9BB266EE7C
:1022C000A76A86EE887A84ED0E7A07EE103AB8EEA9
:1022D000C77A27EE287A27EE277AC7EE087A17EE14
:1022E000900AF2F749F92EA3D3E90023F1F7E6FFAC
:1022F000F2F78EFCEB88304D60629BB207EE903AAD
:10230000F8EEE77AB7EE087A67EEA87A95F81C112E
:102310002A4867EE877A87EE887A95ED488A84EDB9
:10232000077AB4EEC89AF1EE10FACCBF012200226F
:10233000012918BF82F001024FF40051F5F7A4FE05
:10234000236BD4ED0E8A1D48B4EEC89AF1EE10FA54
:1023500095ED498AD4BF23F0010343F00103F4EE65
:10236000C88A236395F81D31F1EE10FACCBF012223
:102370000022012B18BF82F001024FF48051F5F7C3
:1023800083FEF4EEC88ABDEC048B236BF1EE10FAE9
:10239000D4BF23F0020343F00203236338BD00BF20
:1023A0009A9999999999C93FF80F0120C74B7B4198
:1023B0007CE5002000F07F450C5301200004024022
:1023C000810610B5044602D5002001F023FEE20785
:1023D00002D5012001F01EFEA30702D5022001F064
:1023E00019FE600702D5032001F014FE610609D52D
:1023F00040211348F5F736FE124BB0FA80F0400941
:1024000083F84C00E2050ED54FF480710C48F5F7C7
:1024100029FE0C4BB0FA80F093F82020400960F3BD
:10242000000283F82020630508D5074A01231370B2
:10243000064A00211160034A82F84D3010BD00BFEA
:10244000000002407CE50020781A002000100120E6
:102450002DE980484FF480628FB0994999489A4D90
:10246000DFF85C82F2F788FF984B4FF47A711868B6
:10247000F9F760FF964B298A18684FF47A74614324
:10248000F9F758FF934B21461868934CF9F752FF20
:102490000020FFF795FF4FF0FF32002106A8F9F763
:1024A0009DFF2068FAF726F8AA46049400268B4C74
:1024B0004FF4FA70F9F726FF94F84D00FDF756FC3B
:1024C000874A13680133012B7CD81360854B1A6847
:1024D0001E60013240F09D80834A136801331D2B3A
:1024E00000F2D6801360814C23680133012B88BF32
:1024F00033462360049B00211868F9F7D3FF0028B6
:102500005BD131238DF82C309AF812308DF82D30B4
:1025100006238DF82E30206003460BAD5A5D08244B
:1025200080EA020111F0010F4FEA500018BF80F05D
:102530008C0004F1FF3418BFC0B214F0FF044FEA5E
:102540005202EDD10133032BE8D18DF82F00012287
:102550004FF480714046F5F797FD4FF496730422CF
:1025600029466348F8F798FB22464FF480714046AD
:10257000F5F78AFD4FF49673092229465C48F8F76F
:10258000E8FB58B99DF92F205A4B07EE902AF8EE38
:10259000E77ABDF83020C3ED017A1A60564C4FF44B
:1025A0007A712068F9F742FF38B9524B20681A68EF
:1025B000524BC3F84520F9F7C1FF4FF0FF30FCF74D
:1025C00085F974E74C4D16604FF47A712868F9F775
:1025D0002DFF00287FF47AAF484B626BC3F82B20A5
:1025E000A26BC3F82F20E26A83F84320226B83F8A2
:1025F0004420E26BC3F83320226CC3F83720626CAE
:10260000C3F83B202868A26CC3F83F20F9F796FF77
:102610005CE72C482B4F3A4CF2F746FF0025A946C1
:1026200007F1090BFAF7CEF8F0212648F2F741FF3F
:102630000590FAF7E9F80598002800F0DB803148AA
:10264000F2F77AFE90B1B9F1070FEBD80C2309F13C
:10265000010203FB0949DBF80030C9F81A30DBF846
:102660000430C9F81E305FFA82F9DBE77B7A012B70
:10267000D8D1022DD6D86A1C04EBC505DBF8003092
:10268000C5F80130DBF80430C5F80530D5B2C9E72C
:102690001B4D16606B7E002B3AD1174C4FF47A71AC
:1026A0002068F9F7C3FE00287FF41DAF61221649A8
:1026B000164804F00AFC2068F9F740FF13E700BF52
:1026C00000040240E40F01200C530120542E01208D
:1026D0009C2E0120582E0120A42E01207CE50020F4
:1026E000741A0020701A00207C1A00206C1A002036
:1026F000F0300120D0E50020742E0120DCE5002020
:102700008E4A0120ED0F0120A74A01204CE600204F
:10271000FAF758F84648464FF2F77DFDFAF774F895
:1027200050240A20F9F7EEFDFAF74CF83846F2F794
:1027300009FE8146FAF768F8B9F1000F11D1013CA2
:1027400014F0FF04EDD13B4B1B68042B09DC3A4B22
:1027500001930094042340F237123849384802F0BC
:1027600027FF384F9FED388ADFF8C890DFF8ECB0CC
:1027700000246A7EE3B29A4228D9FAF723F807F1D7
:10278000080239462A48F2F755FD0590FAF73CF859
:102790000598A8B90C2303FB045318EE102AC3F8BC
:1027A0002220D9F80030052B0ADC284B02948DE852
:1027B00009004FF4A37205232049214802F0F8FED6
:1027C0000134082C07F10C07D3D166E70C2303FB77
:1027D000045318EE102AC3F82220D9F80030042B35
:1027E000EEDC002300930294CDF804B0042340F201
:1027F0004B12E1E7164C2570164D84F819904FF4F2
:102800007A712868F9F712FE00287FF465AE124A43
:10281000234604F1180153F8040B42F8040B8B42D1
:10282000F9D11B7813702868F9F788FE54E600BFC9
:10283000E40F01209816012011CA010800CA0108FE
:10284000F3C90108A84A0120008088C324CA0108EE
:102850008E4A0120742E012033E600203ECA010872
:1028600070B5054633248EB231462846FBF776FE16
:1028700008B1013C00D170BD0120F9F743FDF3E739
:1028800070B50F4EADF5047D00240A22316801A811
:10289000F9F782FE019B102BA5B20CD104AB029A72
:1028A000E2540134B4F5007FEFD12546294604A84F
:1028B000FFF7D6FFE8E7002DF8D10DF5047D70BDD8
:1028C000682E012070B50C460546F1F793FC0646CC
:1028D0002046F1F78FFC864207D12146284605F0B5
:1028E000E2FC003018BF012070BD002070BD000068
:1028F0002DE9F843844C8548854FDFF88C82DFF85A
:102900008C922DED028B05F029FB2168814805F0A2
:10291000B1FA814B814A21798148002914BF1146BF
:10292000194605F0A7FA2289E1887E4805F0A2FA47
:10293000A28961897C4805F09DFA228AE1897B4859
:1029400005F098FAA17C7A4805F094FA794B217D3C
:10295000794800290CBF3946194605F08BFA617F8A
:10296000764805F087FAE18B754805F083FA94ED17
:10297000067A7448B2EE048A67EE087A0A23FDEEFE
:10298000E77A264617EE902AFDEEC77A92FBF3F11E
:1029900003FB112217EE901A05F06CFA217F6A48AA
:1029A00005F068FA94F82010684805F063FA94F886
:1029B0002810674805F05EFAE18C664805F05AFA7F
:1029C000B4F86A10644805F055FAD4F890206348CA
:1029D00004F16C0105F04EFA614B624A94F89410D0
:1029E000614800290CBF1146194605F043FA04F16D
:1029F00098015E4805F03EFA5D4A5E4804F1BC016C
:102A000005F038FAD4F810215B4804F1EC0105F028
:102A100031FA002596F8142196F815110135012A8E
:102A200014BF42464A46002967D0022967D00129CF
:102A300067D05248524B042908BF034629465148E3
:102A400005F018FA042D06F10206E3D194F81C21D2
:102A50004D4F4E4E4E48012A14BF3A463246012190
:102A600005F008FA94F81D214948012A14BF3A4696
:102A70003246022105F0FEF994ED487A454867EEAA
:102A8000087A0A26FDEEE77A012117EE903AFDEE6C
:102A9000C77A93FBF6F206FB123317EE902A05F085
:102AA000E9F9D4ED497A3B4827EE888AFDEEE77ACA
:102AB000BDEEC87A022117EE103A93FBF6F206FB40
:102AC000123317EE902A05F0D5F9334A3348012125
:102AD00005F0D0F9324A3148022105F0CBF9314AEC
:102AE0002E48032105F0C6F9BDEC028B29462E4A7B
:102AF0002A48BDE8F84305F0BDB93B469EE72B4B9D
:102B00009CE72B4B9AE700BF0C53012028CD01080E
:102B1000D2CC010856CD0108BBBF0108DDBF0108BA
:102B200076CD010896CD0108D2CD01080ECE010860
:102B30004ACE0108CFCC01086ACE01088ACE01082E
:102B4000AFCE0108D3CE0108F6CE010816CF01089A
:102B50003BCF01085FCF010881CF0108A1CF010859
:102B6000D6CC0108DACC0108C4CF0108E4CF0108B3
:102B700004D001080AD001082FD0010814CD0108A3
:102B800010CD010852D00108EBCC0108DDCC0108C2
:102B900087D00108A8D0010835530120D1D0010801
:102BA000455301205553012065530120FBCC0108FA
:102BB00004CD0108F8B5074F0D4604464618B44247
:102BC00001D12846F8BD002214F8011B3868F9F736
:102BD000BBFCF4E7682E012070B5094E0446B1F540
:102BE000006F94BF451800F50065AC4201D100208C
:102BF00070BD002214F8011B3068F9F7A5FCF4E75A
:102C0000A82E01200FB4084B1B7807B54BB905A9B6
:102C10000498019106F066FC03B05DF804EB04B083
:102C200070474FF0FF30F7E7085301202DE9F74FC9
:102C30000C46222105F0F8FA054620B94FF0FF3086
:102C400003B0BDE8F08FC1496A4605F06FFA01286C
:102C500008BF009BBE4918BF00232360284605F02B
:102C600022FB0028EAD000F10B050422B9492846CE
:102C700004F01CF9002840F0D6822071B64928469D
:102C800005F011FB0028D9D0B44905F00CFB002851
:102C9000D4D0B34905F007FB05460028CED06A46DC
:102CA000B04905F043FA0128C8D1009BE3802846CB
:102CB000AD4905F0F8FA05460028BFD06A46AB4991
:102CC00005F034FA0128B9D1009B2381A849284690
:102CD00005F0E9FA0028B1D0A14905F0E4FA05466B
:102CE0000028ABD06A469F4905F020FA0128A5D1FB
:102CF000009B638128469C4905F0D5FA05460028CB
:102D00009CD06A46994905F011FA012896D1009B9A
:102D1000A3819849284605F0C6FA00288ED090492C
:102D200005F0C1FA0546002888D06A468D4905F0AD
:102D3000FDF9012882D1009BE38128468A4905F0EC
:102D4000B2FA054600283FF479AF6A46874905F094
:102D5000EDF901287FF472AF009B23828649284653
:102D600005F0A1FA00283FF469AF844905F09BFA09
:102D7000054600283FF462AF6A46814905F0D6F95E
:102D800001287FF45BAF009BA3747E49284605F0C1
:102D90008AFA00283FF452AF7B4905F084FA0028F4
:102DA0003FF44CAF00F1090502227849284604F0AF
:102DB0007DF8002840F0428201232375284674499B
:102DC00005F071FA054600283FF438AF6A467149AC
:102DD00005F0ACF901287FF431AF009B63772846FA
:102DE0006D4905F060FA054600283FF427AF6A46B2
:102DF0006A4905F09BF901287FF420AF9DF8003067
:102E0000E3832846664905F04EFA054600283FF45C
:102E100015AF01AB6A46634905F088F902287FF4D3
:102E20000DAFDDED017A6049B8EEE77AF2EE046AA3
:102E3000C7EE267A28469DED007AB8EEC77A77EE7F
:102E4000877AC4ED067A05F02EFA054600283FF48D
:102E5000F5AE6A46554905F069F901287FF4EEAEF2
:102E6000009B23772846524905F01DFA05460028A5
:102E70003FF4E4AE6A464F4905F058F901287FF463
:102E8000DDAE009B84F8203028464B4905F00BFA54
:102E9000054600283FF4D2AE6A46484905F046F997
:102EA00001287FF4CBAE009B84F8243028464449A7
:102EB00005F0F9F9054600283FF4C0AE6A464149DD
:102EC00005F034F901287FF4B9AE009B84F828306E
:102ED00028463D4905F0E7F9054600283FF4AEAE27
:102EE0006A463A4905F022F901287FF4A7AE9DF819
:102EF0000030E3842846364905F0D5F90546002818
:102F00003FF49CAE6A46334905F010F901287FF47E
:102F100095AE9DF80030A4F86A302F49284605F098
:102F2000C2F900283FF48AAE144905F0BCF9002824
:102F30003FF484AE00F10A052221284605F074F919
:102F4000461B232E00963FF679AE47E059CA01088A
:102F500062CA0108BBBF01086BCA010872CA010836
:102F60007CCA01088BCA01089FCA0108AFCA0108C0
:102F7000C4CA0108CFCA0108D8CA0108E3CA0108B7
:102F8000EBCA0108F8CA0108FDCA010801CD010811
:102F900008CB010815CB010827CB010833CB01086A
:102FA00044CB01084DCB01085FCB01086ECB010873
:102FB00082CB01088CCB01089BCB0108A4CB010874
:102FC000B2CB0108C3CB0108D9CB0108ECCB010877
:102FD00004CC01081BCC010837CC01083246294635
:102FE00004F16C00264403F070FF0023284686F8A5
:102FF0006C30D64905F057F9054600283FF41EAE5F
:103000006A46D34905F092F8012806467FF416AEC9
:10301000009BC4F89030CF49284605F044F90028B9
:103020003FF40CAE00F110050422CB49284603F012
:103030003DFF002840F00C8184F89460C749284681
:1030400005F031F900283FF4F9ADC54905F02BF939
:1030500000283FF4F3AD00F10A052221284605F0CF
:10306000E3F8461B232E00963FF6E8AD3246264491
:10307000294604F19800002703F027FF86F898708E
:10308000B849284605F00FF900283FF4D7AD00F104
:1030900008052221284605F0C7F8461B172E009682
:1030A0003FF6CCAD32462644294604F1BC0003F07D
:1030B0000CFF86F8BC70AC49284605F0F4F80028EF
:1030C0003FF4BCAD00F10B052221284605F0ACF819
:1030D000461B172E00963FF6B1AD324626442946D0
:1030E00004F1D40003F0F1FE86F8D4709F4928461D
:1030F00005F0D9F800283FF4A1AD994905F0D3F8BF
:1031000000283FF49BAD00F10A052221284605F076
:103110008BF8461B232E00963FF690AD3246264490
:10312000294604F1EC0003F0D0FE284686F8EC7046
:10313000864905F0B8F8054600283FF47FAD6A4699
:10314000834904F0F3FF01287FF478AD009BC4F8B5
:1031500010318749284605F0A6F8064600283FF4B6
:103160006DADDFF81482DFF83092DFF830A225462B
:1031700004F10807BD4276D17E49304605F093F848
:10318000054600283FF45AAD7B4FDFF80C82DFF88C
:103190000C9204F58E7B04F58F764FF0010AB3454F
:1031A00040F095807549284605F07DF800283FF4E9
:1031B00045ADDFF8EC81DFF8EC9104F5907604F58D
:1031C0009477BE4240F0A1806D4905F06CF8054649
:1031D00000283FF433AD0026DFF8CCA104F1290824
:1031E000B1465146284605F05EF800283FF426AD6A
:1031F000851C2221284605F017F8471B0F2F009742
:103200003FF61CAD3A464046294603F05EFE04EB0D
:1032100006131F440136042E87F8299008F1100880
:10322000DFD100200CE506225649284603F03EFE79
:1032300000287FF403AD012323711FE503225249C7
:10324000284603F033FE00287FF4F8AC2075B5E57E
:1032500005224E49284603F029FE00287FF4EEACF3
:1032600084F89400EAE64146304605F01CF8002850
:103270003FF4E4ACC61D02224946304603F016FE78
:10328000D0B9012385F814313046414905F00BF8D7
:10329000064600283FF4D2AC6A463E4904F046FF99
:1032A00001287FF4CBAC009B042B05F102053FF70E
:1032B000C5AC85F813315DE702225146304603F074
:1032C000F5FD00287FF4BAAC85F81401DCE7394637
:1032D000284604F0E8FF00283FF4B0ACC51D0222E8
:1032E0004146284603F0E2FD20B98BF800A00BF11F
:1032F000010B54E702224946284603F0D7FD002877
:103300007FF49CAC8BF80000F1E7414604F0CBFF62
:10331000054600283FF492AC01AB6A46494604F0EA
:1033200005FF02287FF48AACDDED017AB8EEE77A7A
:10333000F2EE046AC7EE267A681C9DED007AB8EEBC
:10334000C77A77EE877AE6EC017A3AE741CC010852
:1033500046CC010850CC01085ECC010869CC0108BC
:10336000E3CA010872CC010878CC010881CC0108BD
:103370008ACC01089ACC01088FCC0108A0CC0108A6
:10338000B8CC0108DDBF010804CB010863CC0108FB
:10339000D7DF010895CA010894CC010897CC010831
:1033A00011CC0108A5CC0108CCCC01082DE9F041D5
:1033B0002DED028B0949D2B00446FFF783FAA8B17C
:1033C000074A084801231370074A137004F0C6FD2A
:1033D000002052B0BDEC028BBDE8F0814BCB010860
:1033E0005C1A00200DD10108244A0120CD49204655
:1033F000FFF768FA002800F05182CB4CCB48CC4E46
:10340000CC4DCD4F04F0AAFD23786278A178CB484B
:1034100004F030FD2279E3786179C94804F02AFD8F
:10342000C84BC948196804F025FDC84804F096FD4A
:10343000237AC74813F0010F14BF3146294604F020
:1034400019FD237AC34813F0020F14BF31462946F1
:1034500004F010FD237AC04813F0040F14BF314666
:10346000294604F007FD237ABC4813F0080F14BF67
:103470003146294604F0FEFCE168B948002908BF3E
:10348000394604F0F7FC617C94F91020B54804F04B
:10349000F1FCB54804F062FD237DAD4813F0010F47
:1034A00014BF3146294604F0E5FC637D032B00F090
:1034B000D781AE49022B18BF3946AD489C4E9D4D71
:1034C000DFF8308304F0D6FC94ED068A07A8B0EE4E
:1034D000480A04F0A5FDDFEDA77AA74820EE270AE9
:1034E0000027B0EEC00AFDEEC07A17EE902AFDEE7E
:1034F000C87A9FEDA28A17EE901A04F0BBFCA04890
:1035000004F02CFDD4ED078A07A8B0EE680A04F099
:1035100087FD20EE080A9B48B0EEC00AFDEEC07A97
:1035200017EE902AFDEEE87A17EE901A04F0A2FC4E
:1035300094F820309449954813F0010F944B08BF3C
:10354000194604F097FC934804F008FDD4ED098A6D
:1035500007A8B0EE680A04F063FD20EE080A894867
:10356000B0EEC00AFDEEC07A17EE902AFDEEE87AC2
:1035700017EE901A04F07EFC874804F0EFFC94F8F4
:103580002830734813F0010F14BF3146294604F068
:1035900071FC94F84D10814804F06CFC804804F0F4
:1035A000DDFC94F829306A4813F0010F14BF31464E
:1035B000294604F05FFC7B487B4D04F0CFFCD4ED42
:1035C0000D8A07A8B0EE680A04F02AFD20EE080A6A
:1035D0007648B0EEC00AFDEEC07A17EE902AFDEEF6
:1035E000E87A17EE901A04F045FCD4ED0E8A07A88D
:1035F000B0EE680A04F014FD20EE080A6C48B0EE44
:10360000C00AFDEEC07A17EE902AFDEEE87A17EEBA
:10361000901A04F02FFC674804F0A0FCE16A6648A9
:1036200001F0010104F026FCE16A6448C1F34001A5
:1036300004F020FCE16A6248C1F3800104F01AFC46
:10364000E16A6048C1F3C00104F014FC5E4804F074
:1036500085FC29685D4804F00DFCD5ED017A5C48D5
:103660005C4DFDEEE77A6E1C17EE901A04F002FC3A
:10367000594804F073FC697E584804F0FBFBD5F808
:103680007600D5F83A30D5F82E20D5F8221007EE7E
:10369000900AFDEEE77ACDED047AD5F86A0007EEE0
:1036A000900AFDEEE77ACDED037AD5F85E0007EEDD
:1036B000900AFDEEE77ACDED027AD5F8520007EEDA
:1036C000900AFDEEE77ACDED017AD5F8460007EED7
:1036D000900AFDEEE77A4248CDED007A07EE903A87
:1036E000FDEEE77A17EE903A07EE902AFDEEE77AC4
:1036F00017EE902A07EE901AFDEEE77A17EE901A71
:1037000004F0B8FB374804F029FC2B789F4206F1FF
:103710000806C0F2A780344B344A94F84E1034485F
:103720006AE000BF2BD101087CE500202DD1010803
:1037300083E00108F2D00108A7E501085BD1010888
:103740007BD101080C5301209BD10108B5D10108A0
:10375000BED10108D8D10108F2D101080CD201086C
:1037600038D2010852D2010877D20108FBD00108F3
:1037700081D201080000C8429BD2010800007A44AF
:10378000BAD20108C7D20108D6CC0108E8D2010894
:10379000DACC010802D301080DD3010820D30108B7
:1037A0003AD3010849D30108D0E5002053D30108DA
:1037B00074D3010895D301089FD30108B9D3010838
:1037C000D3D30108EDD3010807D401081ED40108A2
:1037D00038D401088E4A012052D401085ED4010871
:1037E00078D40108AED40108D2CC0108CFCC0108AE
:1037F000FDD40108BDD40108002914BF11461946A3
:1038000004F038FB41F60A036F4A7048D15C704BF4
:10381000704A01290CBF1146194604F02BFBA36C1A
:10382000009304F13C010EC96B4804F023FB94F8AB
:103830004C106A4B6A4A6B48002914BF114619465E
:1038400004F018FB6849694804F014FB684B1B78C6
:1038500023B9FFF715F8674804F080FB0120B8E5AD
:1038600065492AE616F8081C16F8023C16F8012CE1
:10387000059116F8071C049116F8061C039116F81A
:10388000051C029116F8041C019116F8031C009106
:1038900001373946404604F0EDFA36E757492046ED
:1038A000FFF710F810B1FFF723F8CFE7544920468F
:1038B000FFF708F8002854D0524E534804F04EFB4E
:1038C000FEF7DEFF514A316807A8F8F765FE079B4F
:1038D000102B77D14E4C089B254605F8013BC8229A
:1038E000316807A8F8F758FE079A089B102AA5EB3D
:1038F0000407F2D000214FF4967207A8E15503F0B7
:10390000EFFA07A94248FFF791F940BBF8F75AFFD1
:103910004FF4967207A93F4803F0D7FAF8F774FFFF
:1039200001F05CFEB8B93C4804F018FBFEF7A8FFB4
:10393000FEF7DEFFFEF7A4FF384804F00FFBFEF7AA
:103940009FFF4FF4FA70F8F7DDFC3548FCF78CFA6E
:10395000FEF796FF7AE7334804F000FBF8E73248B9
:10396000FAE732492046FEF7ADFF58B1022230494E
:10397000304804F07FFAFEF783FF2F4801F06AF920
:103980002E48E9E72E492046FEF79CFF40B102226F
:103990002C49284804F06EFAFEF772FF2A48EDE73A
:1039A0002A492046FEF78EFF40B1294804F0D6FA96
:1039B000FEF766FF2748FCF757FA47E7264804F06A
:1039C000CDFA43E72548C7E70000002017D50108D6
:1039D00006D10108FED0010831D50108F4CC010858
:1039E000E6CC010857D50108A7E5010871D5010803
:1039F00009530120CFD60108F8D001083BC20108C5
:103A000083BD0108A82E01208BD50108C0D4010078
:103A1000084B01200C530120AFD50108D3D5010874
:103A2000E4D50108FBD501081AD60108C2C801086F
:103A300039D6010840D60108481B002078D6010875
:103A400085D6010888D60108101B002026CD010864
:103A50008DD60108A6D60108B8D601082DD80108D0
:103A60002DE9FF41FAF734FD4FF47A70F8F74AFC7C
:103A7000334F344D344C354E3968002201A8F8F7E5
:103A80008BFD019B102B9DF808301BD10D2B1BD0FB
:103A900004A8012100F80D3DFEF7E2FE9DF8033079
:103AA000082B02BF226802F1FF32226022683F2AFF
:103AB00084BF002222600A2BDED02268511C2160C4
:103AC000B354D9E70D2B10D102212148FEF7C8FECF
:103AD0001D4B1E491A681F4800268E541E6004F0B4
:103AE000B1FB2C7824B1012C10D0FEF7C9FEC1E740
:103AF00019491848FEF7E6FE70B1184B18481C70BB
:103B0000184B1C7004F02AFA012005E0164C1148ED
:103B100023781BB9FFF74AFC2870E6E7F0F76AFB49
:103B2000804658B91149124804F0A4F984F800807D
:103B30000B4804F013FAFEF7A3FEE5E72670F7E75B
:103B4000A82E012008530120041001200810012094
:103B5000DEC90108481001204BCB01085C1A002087
:103B6000CFD60108244A01200953012052D8010868
:103B700060D80108B0F84020036B816A92B2013B23
:103B80009A4270B504460CD90023A0F8403080F862
:103B90003A300B70C26A13702369E06BBDE8704065
:103BA0001847B0F84030C56B9BB25A1C92B2A0F8CF
:103BB00040202A78CA54436898470128ECD094F8EA
:103BC0003A30042BE8D8DFE803F003354B505600B9
:103BD000E36B1B780D2B03D1022384F83A30DBE72B
:103BE0000A2B09D1A26A0D211170A26A5370022317
:103BF000A4F840300323F0E72B2B0BD1A26A0D2150
:103C00001170A26A0A215170A26A93700323A4F86A
:103C10004030E2E7626C12789A4204D194F838306E
:103C20000BB10123D9E7B4F84020A16A92B2002376
:103C30008B54ECE7B4F84030616CE26B11FA83F31B
:103C4000127813F8013C9A4208D1B4F84030A26CC3
:103C50009BB29342A0D1012384F836300023D6E7EB
:103C6000E36B1B780A2BF9D1C4E7E36B1B780D2BB0
:103C700092D10423B1E7E36B1B780A2B4FF00002CB
:103C80004ED1B4F84030A56A9BB2EA5494F838306B
:103C9000002B41D0E16C023521B1226D284603F0A2
:103CA00005F9B8B102222049284603F0FFF888B18F
:103CB00005221E49284603F0F9F858B104221C4990
:103CC000284603F0F3F828B104221A49284603F0E5
:103CD000EDF808BBE56A2846F0F78CFA226BA16A7A
:103CE000013A121A284604F0B5FA94F8423094F8D2
:103CF00054200133DBB29A4284F8423007D10023CA
:103D0000012284F8372084F8423084F838300023C8
:103D1000A4F84030002360E7236A20469847F6E77E
:103D2000A4F84020F6E700BF83E00108F2D00108C4
:103D30006CD8010871D80108012380F8353070472C
:103D400010B50123C26A80F83930002380F836307C
:103D5000044680F8373080F8423080F8353080F8FB
:103D60003830A0F84030137080F83A3043699847F3
:103D70002369E06BBDE81040184770B5C3690C4675
:103D8000164605469847001BB04204D92846FFF75F
:103D9000D7FF012070BD002070BD000090F84330B7
:103DA0002DE9F04704460F46002B32D1036A002B61
:103DB00000F0B1800369002B00F0AD804369002B57
:103DC00000F0A9808368002B00F0A580C368002B59
:103DD00000F0A1800368002B00F09D804368002B59
:103DE00000F099808369002B00F09580036B002B15
:103DF00000F09180C36A002B00F08D80836A002B55
:103E000000F08980C36B002B00F08580012380F8CF
:103E10004330002384F83930E3699847064694F824
:103E20003A2002F0FF0342BB012284F8363084F8C6
:103E3000373084F8353084F83820E26A84F842302C
:103E400013702368A16C606C98470546F0B994F82C
:103E5000353053B394F836308BB394F85430BBB14B
:103E600094F83730A3B9A36998473A4631462046BB
:103E7000FFF783FF0028F3D008E0A36998473A468C
:103E800031462046FFF779FF0028C8D04FF0FF35B4
:103E9000E3689847EDB14FF0FF350023A4F84030B8
:103EA00084F83A302846BDE8F087A36998473A4637
:103EB00031462046FFF761FF0028C8D0E6E7A36936
:103EC00098473A4631462046FFF757FF0028C1D0B1
:103ED000DCE7E06A114FA946A84694F854305FFA2F
:103EE00089FA5345D9D9394604F0DDF90028D2D0F2
:103EF00004EBCA0A861CCAF858603946304604F0FA
:103F0000D2F909F101090028C5D0861BCAF85C6006
:103F100000F8028BE1E74FF0FF35C3E7DEC9010887
:103F200010B588B179B1014403461046074A8B4267
:103F300000D110BD13F8014B4440E4B232F81440F4
:103F400084EA1020F3E7084610BD00BF76D80108C8
:103F5000F0B5144D2C78ACB9DFF850E0124F234681
:103F6000082613F0010F4FEA530318BF83EA0E032C
:103F7000013EF6D147F824300134B4F5807FEED10C
:103F800001232B70084CD2430144884201D1D04315
:103F9000F0BD10F8015BD3B26B4054F8233083EAD4
:103FA0001222F2E7881001208C1001202083B8ED46
:103FB00008B5032813D8DFE800F0020B0E100948FB
:103FC0002021F4F74FF810F1FF3018BF012008BD91
:103FD00001210548F5E70221FBE70421F9E700206C
:103FE00008BD00BF000802400004024008B5084BAD
:103FF00003EB400393F81431012B03D1BDE80840D3
:10400000FFF7D6BFFFF7D4FFB0FA80F0400908BD34
:104010000C530120F8B50446FFF7E8FF1B4B0125C0
:10402000D96A05FA04F221EA0201194AD96202EBBF
:10403000440292F81521AA4217D004F10E0603EBB0
:10404000860600FA04F400272143032A7760D96228
:1040500018D0042A18D0022A06D1C01B18BF01208C
:10406000FBF76AFE0B4B1D70F8BD0B490A68501C2C
:10407000D2070860F8D50E3403EB84035A68013286
:104080005A60F8BD054BEEE7054BECE77CE50020F8
:104090000C5301208C140120901401208D14012058
:1040A0008E1401200C4B0A46242101FB003110B470
:1040B0000C7F94420DD00A77497F09B182F001024A
:1040C0002421484319185DF8044B89881858F3F7E0
:1040D000DBBF5DF8044B7047801A0020F8B504463A
:1040E00016461D460F46F8F76DFB0A48242303FBCE
:1040F0000400002232230261B7FBF3F7B6FBF3F6AC
:10410000B5FBF3F58760C66045618261BDE8F840A4
:10411000F8F77ABB801A0020322200231146FFF7FD
:10412000DDBF00231A461946FFF7D8BF2DE9F0413D
:104130000025244CA846A168EEB261B93046FFF7CD
:10414000B1FF236901350133042D236104F12404F7
:10415000F1D1BDE8F081E76823694FB9994201D3F5
:104160000121EBE739463046FFF79CFFA760E8E7FF
:10417000B942E6D8994203D301213046FFF792FFB6
:104180002369A268934206D9E268934203D80021CA
:104190003046FFF787FF2269E3689A42626908BFE9
:1041A000C4F81080002ACCD0A3699A4206D1236AB1
:1041B000C4F80880002BC4D09847C2E70133A3613C
:1041C000BFE700BF801A0020034630B50122084C2B
:1041D00002700022427082701A715A719A7122889C
:1041E000A3F807200B20551CD8702580597230BDCC
:1041F0009414012010B5064A0144FF23884201D1DE
:10420000184610BD10F8014B6340D35CF6E700BFC1
:1042100076DA010810B5094C01444FF6FF73884265
:1042200001D1184610BD10F8012B82EA132234F890
:10423000122082EA03239BB2F1E700BF76DB01087C
:104240002DE9F8430023904613705360054618B9D2
:104250004FF0FF30BDE8F8830029F9D00378012B37
:1042600004D190F8029019F0C00F05D04248FEF733
:10427000C9FC8020BDE8F883C7780B2F07D0102F2A
:1042800005D03E48FEF7BEFC8320BDE8F883791ECA
:10429000C9B22846FFF7AEFFAB7A834205D0384853
:1042A000FEF7B0FC8920BDE8F88319F0200F05D097
:1042B0003448FEF7A7FC9020BDE8F883B5F8054028
:1042C0002CB93148FEF79EFC0020BDE8F883EE19BA
:1042D00021463046FFF79EFF335B834205D02B48D3
:1042E000FEF790FC8A20BDE8F88319F0180F05D07E
:1042F0002748FEF787FC8120BDE8F88319F0040FFA
:1043000005D02448FEF77EFC8420BDE8F8836B7A54
:10431000012B11D003D3022B9AD11F4809E00123AE
:1043200088F80030B378063713B9EB5D002BCBD09B
:104330001A48FEF767FC8BE7022388F80030EB5D34
:10434000042BF3790DD1092B01D0072B09D1B07AB9
:104350000028B9D0092B01D0072B02D102063FF566
:1043600079AF332B7FF474AF03230A3688F800301B
:10437000C8F80460A8E700BF76DD01088DDD0108FC
:10438000A6DD0108C0DD0108D5DD0108E0DD01087A
:10439000F8DD010810DE01083DDE010827DE010816
:1043A00038B50446C078B4F805200B1A9342C8BF4C
:1043B000A4F805300D462044B4F80510FFF72AFF95
:1043C0006053E1780139C9B22046FFF713FFA072AC
:1043D000022038BD2DE9F0470446124F4518002051
:1043E00060544E1D01F10B08398868709A464B1CC9
:1043F0003B80F4424FF09C03914669802B7104D0BE
:1044000004F02AFE08490144A15185F8099085F875
:104410000AA0B4F805300B33A4F805304046BDE8D7
:10442000F08700BF9614012000C5C2B410B5B0F8E3
:1044300005400334A0F80540148803341480435425
:10444000C81C10BD70B50D46B0F805101631A0F8A7
:104450000510118816311180002116225A709970AA
:104460004619049B43516C1D4223044433710F22AF
:10447000204602F035FD059B054A1021204603F039
:10448000FDFD4FF40063B38205F1160070BD00BF5F
:104490003AC2010870B5B0F80540154D0D34A0F8CA
:1044A000054014886E780D34148000220D245C7051
:1044B0009A700124431844546FF03400587010204F
:1044C00098702C20D870132018712878094D5C72D0
:1044D00040EA0620A3F805006E7828789C7240EA2E
:1044E0000620DA721A73A3F8070001F10D0070BDFF
:1044F00006BF010803BF01082DE9F84F2DED028B1F
:10450000B0F80540DDF830A01834A0F80540148854
:1045100018341480554618225A7000229A7055F8A3
:10452000052B534B13444350D5F80C80D5F810900D
:10453000504B4418002201F1180B404629F000416D
:10454000F0F798F948A3D3E90023F0F769F8F0F7FA
:104550003FFB60606E69AF69474B0022304627F031
:104560000041F0F787F940A3D3E90023F0F758F8AA
:10457000F0F72EFB9AF8293023739AF82820A060D0
:10458000032A04BF02332373237B03F1080222733F
:104590006A6808EE102AB5EEC08AF1EE10FAC4BFC0
:1045A000183323730022002340464946F0F7AAFA45
:1045B00010B1237B20332373002200233046394679
:1045C000F0F7A0FA10B1237B40332373F2EE047AA4
:1045D00028EE278A237BDFED296ABCEEC88A803B60
:1045E000237318EE103AC3F30D03A4F80D30AA6834
:1045F00007EE902AF5EEC07AF1EE10FA44BF43F4CC
:104600008043A4F80D30BAF82130E373FF2B81BF4B
:10461000B4F80D306FEA43436FEA5343A4F80D300A
:10462000D5F81F3006EE103A86EE267A5846FCEE94
:10463000E77ABCEEC77A17EE103A23741A0A1B0CFD
:104640006274A3749AF84330E3749AF804302375C3
:1046500017EE903A63751A0A1B0CA275E375BDEC50
:10466000028BBDE8F88F00BF0000E0FFFFFFEF41C5
:1046700000C5C2B400805640008066400000C842B9
:1046800030B5B0F80540039D9FED0F7A0434A0F8D3
:10469000054014880434148004225A7000229A7051
:1046A0000A234354D5F8053007EE903A67EE877A2F
:1046B0004218FCEEE77A081D17EE903AA2F8013096
:1046C00095F82330D37030BD0000C84230B5B0F843
:1046D0000550039CDFED196A0935A0F805501588CF
:1046E00009351580002509225A709D7045544218DD
:1046F00094F8443053700323937054F82B3F07EE23
:10470000103A27EE267AFCEEC77A17EE903AD3706D
:10471000180A1B0C10715371636807EE903A67EE2C
:10472000A67AFCEEE77A17EE903A180A93711B0C02
:10473000D071137201F1090030BD00BF0000C84202
:1047400030B5B0F80550039C0D35A0F8055015881C
:104750000D3515800D225A7000229A700F22425496
:104760004318D4F833205A70100A120C9870DA707B
:10477000D4F837201A71100A120C58719A71D4F8B3
:104780003B20DA71100A120C18725A72D4F83F20CA
:104790009A72100A120CD8721A7301F10D0030BD12
:1047A00030B5B0F80550039C0535A0F805501588C4
:1047B00005351580002505225A709D7094F85630F5
:1047C0004354D4F84D3007EE103AF2EE046A27EE67
:1047D000267A4218FCEEC77A957017EE903A53701D
:1047E000D4F8513007EE903A67EEA67AFCEEE77AFD
:1047F00017EE903AD37094F82A3094F855009B0045
:1048000003F0040303431371481D30BD10B5B0F825
:1048100005400734A0F805401488073414800022AE
:1048200007249A705C70431842545A709A70029A26
:10483000D2F84520C3F80320081910BD2DE9F04334
:1048400087B0FF23161E0C468DF80F008DF816302A
:104850008DF8173039DDC3B2012E0CBF63F07F0332
:1048600063F03F0300224FF4805119488DF80F3058
:104870004FF47A77F3F708FC009701230DF1170244
:104880000DF10F011348F5F7ADF9054620B9DFF832
:1048900044802644B44209D101224FF480510C488F
:1048A000F3F7F2FB284607B0BDE8F0830097012339
:1048B00022460DF11601404604F10109F5F792F97F
:1048C00008B94C46E6E70546E6E74FF0FF35E9E76D
:1048D00000080240E82E012070B586B006AC002228
:1048E00004F8012D8DF80F000E4610484FF480514A
:1048F0004FF47A75F3F7C8FB0095012322460DF1BA
:104900000F010B48F5F76EF930B9009501232246E7
:1049100031460748F5F766F901224FF48051034804
